:200000000C94A8000C941B150C94F4140C94D0000C94D0000C94D0000C94B5160C94D000F5
:200020000C94D0000C94D0000C94D0000C94D0000C94D0000C94D0000C94D0000C94D00040
:200040000C94AA140C94D0000C9468150C9442150C94D0000C94D0000C94D0000C94D000FE
:200060000C949A150C94D0006364696E6F70737578585B00322E332E310A00207C5F5C2FAF
:20008000602C0A0702200220B28710034001200024022210022202022002220022200202C8
:2000A000202227101341010101032220304020305203402214020310522402217101001070
:2000C000101210122210100224010103220300200101003220371210012132260128403268
:2000E000221210121222432224121001222470C122240F0F0000000023002600290000007D
:200100000000240027002A0000000000250028002B000404040404040404020202020202C6
:20012000030303030303010204081020408001020408102001020408102000000008000226
:200140000100000304070000000000000000D41611241FBECFEFD8E0DEBFCDBF11E0A0E084
:20016000B1E0E6EEFDE302C005900D92AA39B107D9F723E0AAE9B1E001C01D92A93FB207A1
:20018000E1F710E0C8EAD0E004C02197FE010E94FA1AC73AD107C9F70E9465170C94F11E9E
:2001A0000C940000942FECEAF3E030915D0231838283668325834481487F492B477E44833D
:2001C000CF010895833081F028F4813099F08230A9F008958730A9F08830C9F08430B1F436
:2001E000809180008F7D03C0809180008F7780938000089584B58F7784BD089584B58F7D76
:20020000FBCF8091B0008F778093B00008958091B0008F7DF9CF1F93CF93DF93282F30E06B
:20022000F901E65CFE4F8491F901EA5DFE4FD491F901EE5EFE4FC491CC23A9F0162F8111E6
:200240000E94E200EC2FF0E0EE0FFF1FE85FFE4FA591B4918FB7F894EC91111108C0D09567
:20026000DE23DC938FBFDF91CF911F910895DE2BF8CFCF93DF9390E0FC01EA5DFE4F249149
:200280008E5E9E4FFC0184918823C9F090E0880F991FFC01E250FF4FA591B491FC01E85F14
:2002A000FE4FC591D49161110DC09FB7F8948C91209582238C938881282328839FBFDF91B2
:2002C000CF910895623051F49FB7F8943C91822F809583238C93E8812E2BEFCF8FB7F894BE
:2002E000EC912E2B2C938FBFEACF3FB7F8948091480290914902A0914A02B0914B0226B533
:20030000A89B05C02F3F19F00196A11DB11D3FBFBA2FA92F982F8827BC01CD01620F711D7C
:20032000811D911D43E0660F771F881F991F4A95D1F708958F929F92AF92BF92CF92DF92EA
:20034000EF92FF926B017C010E9475014B015C01C114D104E104F104B9F00E94750168191B
:2003600079098A099B09683E73408105910580F321E0C21AD108E108F10888EE880E83E0D5
:20038000981EA11CB11CE4CFFF90EF90DF90CF90BF90AF909F908F9008952FB7F8946091B2
:2003A00044027091450280914602909147022FBF08950895AF92BF92CF92DF92EF92FF924E
:2003C0000F931F93CF93DF936C017B018B01040F151FEB015E01AE18BF08C017D10759F069
:2003E0006991D601ED91FC910190F081E02DC6010995892B79F7C501DF91CF911F910F91A3
:20040000FF90EF90DF90CF90BF90AF900895FC01538D448D252F30E0842F90E0821B930B65
:20042000541710F0CF96089501970895FC01918D828D981761F0A28DAE0FBF2FB11D5D9655
:200440008C91928D9F5F9F73928F90E008958FEF9FEF0895FC01918D828D981731F0828D70
:20046000E80FF11D858D90E008958FEF9FEF0895FC01918D228D892F90E0805C9F4F821B56
:2004800091098F739927089581E692E00E94380221E0892B09F420E0822F0895FC01A48D80
:2004A000A80FB92FB11DA35ABF4F2C91848D90E001968F739927848FA689B7892C93A089C3
:2004C000B1898C91837080648C93938D848D981306C00288F389E02D80818F7D808308956D
:2004E000EF92FF920F931F93CF93DF93EC0181E0888F9B8D8C8D98131AC0E889F9898081A3
:2005000085FF15C09FB7F894EE89FF896083E889F98980818370806480839FBF81E090E0C1
:20052000DF91CF911F910F91FF90EF900895F62E0B8D10E00F5F1F4F0F731127E02E8C8D87
:200540008E110CC00FB607FCFACFE889F989808185FFF5CFCE010E944E02F1CFEB8DEC0F6F
:20056000FD2FF11DE35AFF4FF0829FB7F8940B8FEA89FB8980818062CFCFCF93DF93EC018F
:20058000888D8823B9F0AA89BB89E889F9898C9185FD03C0808186FD0DC00FB607FCF7CF47
:2005A0008C9185FFF2CF808185FFEDCFCE010E944E02E9CFDF91CF91089580E090E0892B2E
:2005C00029F00E94440281110C9400000895862F642F0C943901CF93DF93FC01218530E0A2
:2005E000F901E65CFE4F8491F901EA5DFE4FD491F901EE5EFE4FC491CC2379F081110E94F6
:20060000E200EC2FF0E0EE0FFF1FEC50FF4FA591B491EC91ED2381E009F480E08170DF9141
:20062000CF910895CF93DF93EC01698718860E94EB02882319F08885836088870E94CD01BC
:200640006A837B838C839D83DF91CF910895CF92DF92EF92FF921F93CF93DF93EC018885AF
:200660008B7F8887CE010E94EB02182F8885869581701817B1F00E94CD016A837B838C8369
:200680009D83888592E089278887888582FB882780F9DF91CF911F91FF90EF90DF90CF90EE
:2006A00008950E94CD01CA80DB80EC80FD80AB01BC014C195D096E097F098E819F81B0E0AD
:2006C000A0E0481759076A077B07F8F2888581701817D9F20E94CD016A837B838C839D837C
:2006E000888591E08927846088870E94CD016A877B878C879D87C9CF60933F02709340022E
:200700008093410290934202645D7E4F8F4F9F4F60933B0270933C0280933D0290933E029C
:2007200082E090E090933A02809339020E94CD0160933502709336028093370290933802BC
:200740000895CF92DF92EF92FF920F931F930E94CD018B019C01C0903502D0903602E0909C
:200760003702F090380260913F027091400280914102909142020C191D092E093F09083E48
:20078000134021053105E0F0DC01CB010196A11DB11D80933F0290934002A0934102B0939C
:2007A0004202B701A60148515C4F6F4F7F4F40933502509336026093370270933802C7CFA2
:2007C0001F910F91FF90EF90DF90CF9008954F925F926F927F928F929F92AF92BF92CF9227
:2007E000DF92EF92FF920F931F93CF93DF934B015C018091310290913202A0913302B09165
:20080000340288159905AA05BB0509F4C6C08CE3C82ED12CE12CF12CC501A70196010E9442
:20082000C41A60932A02CA01B901A70196010E94C41A60932B02C501B40120E13EE040E09D
:2008400050E00E94C41ACA01B90128E130E040E050E00E94C41A60932C02C501B40120E8D6
:2008600031E541E050E00E94C41A69017A01CA01B9016C5F7F4F8F4F9F4F27E030E040E08B
:2008800050E00E94C41A6F5F60932D02412C512C320140E004E610E0C0E9D1E0242F30E0E4
:2008A0002E54384FF901E370FF273097F9F4C901B8010E94B01A892B31F4C901BE010E9415
:2008C000B01A892B99F48EE691E0A0E0B0E0480E591E6A1E7B1ED301C201AA27BB27C81602
:2008E000D906EA06FB0638F04F5FD8CF8DE691E0A0E0B0E0ECCF40933002C90164E670E093
:200900000E94B01AEC01C90160E971E00E94B01A309721F42097D9F40097C9F04DE651E09A
:2009200060E070E0441A550A660A770AC418D508E608F708AFE3B1E020E0213069F430973B
:20094000E9F5209711F40097C9F54DE106C04EE651E060E070E0E6CF4C9150E070E060E06D
:2009600031E0320FC416D506E606F70640F0C41AD50AE60AF70A1196232F3C30F1F62F5FCF
:2009800020932F02C394C0922E028092310290923202A0923302B0923402DF91CF911F91A0
:2009A0000F91FF90EF90DF90CF90BF90AF909F908F907F906F905F904F9008954CE1CDCF9D
:2009C00085ED8093BC008091BC0084FDFCCF1092040208952091E001260F3327331F2132B2
:2009E0003105ECF420910402FC0190E080E0243069F082E00895A091E0012191AC014054AC
:200A00005E4FA40FB52FB11D2C930196861798F38091E001680F6093E00180E0089581E0AB
:200A2000089508958FEF9FEF08958FEF9FEF08958091BF0190E09195819591090895CF9314
:200A4000DF93CB01EA01642F0E94EA04CE01DF91CF910895CF93DF931F92CDB7DEB7698384
:200A600061E0CE0101960E94EA0481E090E00F90DF91CF91089590E080E00895CF93CFB70D
:200A8000F8948091BE01811127C0ECE1F1E08491E0E3F1E09491E82FF0E0EE0FFF1FE250E1
:200AA000FF4FA591B491EC91E92321F461E08AE00E940B0161E08AE00E9439018CB58061CD
:200AC0008CBD8CB580648CBD61E08DE00E94390161E08BE00E9439018091BE018F5F80937C
:200AE000BE01CFBFCF9108958FB7F8948091BD018FBF0895CF92DF92EF92FF920F931F93E8
:200B0000CF93DF93D0E0C0E0062F10E0E82EF12CC017D1072CF5D12CC12CCE14DF04C4F422
:200B200061E088E00E940B0164E170E080E090E00E949A0160E088E00E940B0164E670E0CC
:200B400080E090E00E949A018FEFC81AD80AE5CF64E670E080E090E00E949A012196D8CF8D
:200B6000DF91CF911F910F91FF90EF90DF90CF9008950C947C03FC0184818F7180648483D0
:200B8000838187708061838370876783CF010895FC01838187708860838384818F71806258
:200BA00084836783CF010895E0914C02F0914D02309721F00280F381E02D099408950F9391
:200BC0001F930E94CD0100914E0210914F022091500230915102601B710B820B930B1F9137
:200BE0000F9108959C0180914C0290914D0282179307F1F0909156029F7190935602309371
:200C00004D0220934C02E0914C02F0914D02309721F00190F081E02D09950E94CD0160930D
:200C20004E0270934F028093500290935102089580915602805E80935602E5CF0F931F93DE
:200C40000E94DF05209157022077203779F000E117E220E030E0061717072807390758F4CD
:200C600080E391E01F910F910C94F20500E61AEE20E030E0F0CF1F910F91089580915702A5
:200C80008F708B3020F084E191E00C94F20508958091560284608093560280915702807866
:200CA00080935702E091B801F091B901309709F009940895CF93C0915802CF3FA1F00E941B
:200CC000CD016093520270935302809354029093550280915F02C813C0935F0280E191E0F1
:200CE000CF910C94F2050E94DF05613D77408105910568F080915602803618F48CE091E0A6
:200D0000EFCF877F8093560284E191E0E9CFCF91089580915D028F3F21F08CE091E00C944D
:200D2000F2050E94DF05613D77408105910550F080915602803618F488E091E0F0CF89E158
:200D400091E0EDCF08950E94DF05613D77408105910520F48091560281FF17C080915E028D
:200D60008F3F49F0809156028E7F8093560288E091E00C94F20580915602803618F484E18B
:200D800091E0F7CF89E191E0F4CF08958EBD00000DB407FEFDCF8EB508958CBD9DBD0895E4
:200DA000CF93DF938CB5CEEED3E08B838DB58C838D819E810E94CD0660E08881DF91CF9195
:200DC0000C940B01CF93DF93CEEED3E061E088810E940B018B818CBD8C818DBDDF91CF91B0
:200DE0000895CF930E94D00685E00E94C60680E00E94C606C82F0E94E2068C2F8170CF914E
:200E00000895CF93DF93C82F662331F060E086E00E9401070E94E2060E94D00685E00E9467
:200E2000C60680E00E94C606D82F0E94E206D0FDF3CF0E94D0068C2FDF91CF910C94C60689
:200E40004F925F926F927F928F929F92AF92BF92CF92DF92EF92FF920F931F93CF93DF93BE
:200E60002B013C014A01E9019B01332780E091E0821B930BF12CE12C8E018C179D0708F4D6
:200E80008C0161E082E00E940107862D0E94C606852D0E94C606842D0E94C6065401AE0C09
:200EA000BF1C6501F60181916F010E94C606C6018A199B0980179107A8F30E94E206400E5A
:200EC000511E611C711CE00EF11EC01BD10B80E091E091F6DF91CF911F910F91FF90EF905F
:200EE000DF90CF90BF90AF909F908F907F906F905F904F9008950F931F93CF93DF93EC01BA
:200F000088819981009759F02A813B812617370730F081E0DF91CF911F910F9108958B0122
:200F20006F5F7F4F0E94001B009759F0998388831B830A832C813D81232B59F7FC0110828E
:200F4000E8CF80E0E7CFCF93DF93EC0188819981009711F00E941319198218821D821C8208
:200F60001B821A82DF91CF9108950F931F93CF93DF93EC010C811D810F5F1F4FB8010E9454
:200F80007B07882391F0288139818C819D8165E671E0820F931F0E94D31B1D830C83CE01A8
:200FA000DF91CF911F910F910895CE010E94A307F6CFCF92DF92EF92FF920F931F93CF93FA
:200FC000DF93CDB7DEB762970FB6F894DEBF0FBECDBF8C01CB01F8011182108213821282A6
:200FE000158214824AE09E012F5F3F4F6901B9010E94E119F60101900020E9F731977F014F
:20100000EC18FD08B701C8010E947B07811112C0C8010E94A30762960FB6F894DEBF0FBEF6
:20102000CDBFDF91CF911F910F91FF90EF90DF90CF900895F801F582E482B60180819181EB
:201040000E94D31BE8CFEF92FF920F931F93CF93DF93EC01FB01E080F180E114F10411F169
:201060000481158101151105A9F08C819D81080F191FB801CE010E947B07882399F028818D
:2010800039818C819D81B701820F931F0E94D31B1D830C83CE01DF91CF911F910F91FF9033
:2010A000EF900895CE010E94A307F4CFFC01808191810C941319EF92FF920F931F93CF9392
:2010C000DF93EC01198218821B821A821D821C828617970719F1FB01008111810115110586
:2010E000E9F0E480F580B7010E947B07811109C0CE01DF91CF911F910F91FF90EF900C946A
:20110000A307FD82EC82B80188819981DF91CF911F910F91FF90EF900C94D31BDF91CF91D0
:201120001F910F91FF90EF900895CF92DF92EF92FF920F931F93CF93DF93C82F7B01142FF2
:20114000022F80E590E00E94CD062A9880E190E00197F1F78C2F0E94C606E7011150A0F0FF
:20116000002349F08FEF0E94C606E114F104B1F388832196F3CF6E018FEFC81AD80A88815B
:201180000E94C606E601EACF2A9AE0E1F0E03197F1F7DF91CF911F910F91FF90EF90DF909F
:2011A000CF900895CF93DF931F92CDB7DEB7698320E041E0BE016F5F7F4F0E9495080F904F
:2011C000DF91CF91089580915702982F9077903759F0982F92959F709F5F97709295907F22
:2011E0008F78892B80935702809156028B7F8F7E8093560229986CE080E20C94D2086FE0A5
:2012000080E20E94D208609134016F3F19F08AE20E94D208299A089521E041E070E060E019
:201220000C94950820E040E070E060E00C949508CF93C82F80935D028F3F51F08093340162
:2012400063E082E20E94D20861E081E20E94D2080E94FF086C2F90E080E00E94671A81E0B3
:20126000CF910895CF93219A229A29982A9A0E943E0529986EE080E20E94D20884E293E266
:201280000197F1F763E083E20E94D2086FE584E20E94D2086CE485E20E94D20867E286E290
:2012A0000E94D20864E08DE30E94D2088DE10E940C09843041F063E780E50E94D20864E009
:2012C0008DE30E94D20886E00E940C09873209F04DC085E00E940C098C3409F047C062E028
:2012E00082E20E94D20860E081E20E94D20863E08CE30E94D208CFEFC093030120E045E087
:2013000063E071E08BE20E94950820E045E063E071E08AE20E94950820E045E063E071E070
:2013200080E30E94950882EE0E94120981EE0E94120960E787E20E94D2088091560280613C
:2013400080935602809160028E7F8093600280915D028F3F19F484E191E00AC09FEF980F0D
:201360009E3F48F40E9418098111F5CF89E191E0CF910C94F205C0935D02F8CFE6E5F2E053
:201380008081877F8F7E8083109252021092530210925402109255020E94CD016093A10153
:2013A0007093A2018093A3019093A40144E050E070E060E08DE592E00C943F1ACF93DF9373
:2013C00061E088E00E94390161E087E00E94390161E086E00E94390161E085E00E943901FF
:2013E00060E080E10E94390160E081E10E94390160E082E10E94390161E080E10E940B0123
:2014000061E081E10E940B0161E082E10E940B018EEE91E00E944F1A61E0811101C060E05D
:2014200087E00E940B018FEE91E00E944F1A61E0811101C060E086E00E940B0180EF91E0D6
:201440000E944F1A61E0811101C060E085E00E940B0160E170E08EE993E00E941203C5E0C3
:20146000D0E0D093A503C093A40361E170E080E993E00E941203D0939703C093960362E166
:2014800070E082E893E00E941203D0938903C09388038EE991E00E944F1AC82FD0E0D0939E
:2014A000A901C093A8018FE991E00E944F1A90E09093AF018093AE01249714F4029754F0ED
:2014C00081E090E09093A9018093A8011092AF011092AE01DF91CF910895EF92FF920F93EE
:2014E0001F93CF93DF937C01FC01C2818091560280FF72C080E0CF3F09F067C0DFEF809122
:201500005D02F70180834381C0E242FD05C0469546954695C7E0C40F10916002012F017058
:20152000299880E091E00197F1F76EE080E20E94D20884EC90E00197F1F76D2F8AE20E9463
:20154000D2086D2F80E30E94D20881EE0E941209DF3F11F080EA011180EB4C2FC13208F09E
:2015600040E220E0B7010E949508299AF12CE12C8FEF0E941209C82F807321F4F1E0EF1A51
:20158000F108B1F7299860E387E20E94D208C4FF03C081EE0E9412090E94FF08C5FD11E0B3
:2015A00081E0DF3F09F080E01170812B90915E029D130BC090915702811125C021E0290F00
:2015C0002F70907F922B90935702DF91CF911F910F91FF90EF900895D0915E02CC2309F4AC
:2015E0008ECFCF3F09F48ACF8C2F90E003960E944F1A8F3F31F4F70180818D1380CFDC2F75
:201600007ECFD82F7CCF907FDECF2091560222FD0C946D0A80E00895FC0180915D028183C2
:201620009481907F9160948380915C0280FF03C0CF010C94050B80E008958FEF8093580265
:20164000E6E5F2E080818860808328E143E06FEF80E00E94D20061E00E94C8050C946D0ADC
:201660000F931F93CF93DF93EC01E0E06115710551F0FB0101900020E9F73197E61BF70B10
:20168000E931F10500F50E2F10E08B818770980193E0220F331F9A95E1F7822B8B838C81B7
:2016A0008F718C83EE2329F0A801CE0107960E94DA1BFE01E00FF11F1782CE01DF91CF910F
:2016C0001F910F910895E9E1DECF1F93CF93DF93182F262FEA0140E0682F80E00E94D2000E
:2016E0001F3F11F4C7E6D1E0BE010E94300BDF91CF911F910C94050B21E043E06FEF80E07B
:201700000E94D20068E971E00E94300B0C94050B80915D028F3FB1F40E94CD016F3F79F0BC
:201720006093180123E043E06091180180E00E94D20068E971E00E94300B0C946D0A109261
:201740001801F0CF0895E6E5F2E08081897F81608083EDE5F2E08FEF8283818327E043E035
:201760006FEF0E94D20068E971E00E94300B0C946D0AFC012481229526952770213011F400
:2017800087810895211104C007960E949C19089580E00895EF92FF920F931F93CF93DF93E6
:2017A000CDB7DEB768970FB6F894DEBF0FBECDBF8C01FC0185818230A9F4F680F7E0FF1689
:2017C00089F0F801848184FD0DC0C8010E94B90B61E070E0811102C070E060E08F2D90E074
:2017E0000E946812F80185818331B9F486818035A1F0948194FD11C0823509F49DC08335E0
:2018000009F4A2C0813549F46091BC0181E0682770E081E590E00E946812F80185818831DE
:2018200009F07DC08681873109F079C0095F1F4FF80101900020E9F7CF01801B910B0E9478
:201840007718F82EE92EB8010E94D31B8EEA91E09F938F9388EA91E09F938F938DE691E01B
:201860009F938F93EF92FF920E94E91B6091A8017091A9010FB6F894DEBF0FBECDBF64303C
:20188000710584F48091AE019091AF01029754F48EE991E00E94671A6091AE018FE991E054
:2018A0000E94671A6091AE017091AF01CE010D960E94D9076091A8017091A901CE01019615
:2018C0000E94D907BE016F5F7F4FCE0107960E945B08CE0107960E94B507BE01635F7F4FA1
:2018E0000E942308BC01CE0143960E945B08CE0107960E945608CE0101960E945608CE0110
:201900000D960E9456086B897C898EEF92E00E94300B0E940C0BCE0143960E945608689600
:201920000FB6F894DEBF0FBECDBFDF91CF911F910F91FF90EF9008956091BB0181E06827F8
:2019400070E082E590E067CF6091BA0181E0682770E083E590E05FCF3F924F925F926F9294
:201960007F928F929F92AF92BF92CF92DF92EF92FF920F931F93CF93DF93CDB7DEB72A978C
:201980000FB6F894DEBF0FBECDBF8091560284FBCC24C0F884FFDAC30E94CD010091A101AD
:2019A0001091A2012091A3013091A401601B710B820B930B613A7B4B8D409105A0F00E9410
:2019C000CD016093A1017093A2018093A3019093A40186E00E940C09873209F4BFC089E1C3
:2019E00091E00E94F205B6E0FB2E16E0E12E00E5D02E88248A949924939483E0A82E82E0ED
:201A0000B82E87E10E940C0980FD7BC3FA94FF2009F477C321E041E070E060E080E60E9468
:201A20009508182F813220F082EE0E94120910E021E0412F6DEC73E081E60E94950860E4DB
:201A400087E20E94D2088091D003582E56945694569449E1451510F4A9E15A2E97E0950DC6
:201A600082FD90E29113CDCF8370823051F67090D1031091D2030091CE034090CD0360900D
:201A8000CF0380915E02481651F080915D02081731F0802F90E0642D03960E94671A872D94
:201AA0008770782E8091570280688093570280915D026812A6C28091D003282F26952695C8
:201AC00026952A3108F029E198E0299F900111248770822B8093D003E52DF0E0E353FC4FFB
:201AE00017828091D10383FF15C091E2EDECF3E0ACEAB3E001900D929A95E1F7877F8061AB
:201B00008093B0036092AD030093AE038CEA93E00E94050B9091D10394FD24C123E072128C
:201B200029C18091D20321EF280F233008F469CF1430F9F48091D30390911801891719F00C
:201B40008F3F09F05ECF8DEC93E00E94B90B9FEF980F9E3F50F40E94180953CF85E00E94FD
:201B60000C098C3409F03BCF3ECF8FEF80935D0248CF1830D9F41091560210FF42CF8DECD2
:201B800093E00E94B90B8F3F09F43BCF8F5F8F3F09F437CF90915F02891708F032CF11FDAF
:201BA00030CF80935F0200935E022BCF183151F429E143E06FEF802F0E94D20061E00E94A6
:201BC000C8051FC0193171F48091560283FF19CF877F809356028DEC93E00E94B90B809301
:201BE00058020FCF1E3109F40CCF1D3169F42FE143E06FEF80E00E94D20060E07FEF0E9426
:201C0000BB050E946D0AFDCE2091CE032111AFC08D3059F488E198E00FB6F894A895809371
:201C200060000FBE90936000FFCF8B3179F48DEC93E00E94B90B91E0811101C090E0809166
:201C40005C0290FB80F980935C02DBCE8630A1F49091D4038C2D992321F081E09D3409F014
:201C600080E080935B0241E050E063E071E08BE592E00E94571AC5CE833119F40E942D1483
:201C8000C0CE8231D9F40E94DF052B013C0126E143E06FEF80E00E94D200FC0184818F71E9
:201CA000806A848383818770806283834782508661867286CF010E94050BA3CE8230A1F498
:201CC00022E043E06FEF80E00E94D200FC0184818F71806A848383818770806283838782CE
:201CE0009086A186B286E6CF8130D9F4929596959770953059F46091D4037091D50380911F
:201D0000D6039091D7030E947C037BCE911105C084ED93E00E94BA19F6CF60E070E0CB01A4
:201D2000F2CF8A30E1F48091D403833409F069CE03E010E06FEFC8010E94671A0F5F1F4F8B
:201D4000033041E01407B1F72AE043E06FEF80E00E94D20063E771E00E94300BACCF8C315D
:201D600009F44FCE8DEC93E00E94CA0B4ACE8A31C9F747CE84E07812F5CF1091D2031130D5
:201D800009F085C08091A50181113BCE48E050E064ED73E080EB91E00E94BD1B892B11F3A9
:201DA00088E0E4EDF3E0A0EBB1E001900D928A95E1F78CB58093F1038DB58093F20361E001
:201DC0008091EE030E9439010E943E05D092F3031093F4030E94E20660E08BEA0E94010765
:201DE0000E94E2068091EF039091F003892B91F561E081E00E94010780E00E94C6060E944C
:201E0000E20661E082E50E94010780E00E94C60680E00E94C60680E00E94C6060E94E20694
:201E20000E94F1068111FCCF8091B4019091B5019093A00180939F0181E08093A501E0920C
:201E40009E0110929A0110929B0110929C0110929D01D7CD0E94D0068FE90E94C60680E087
:201E60000E94C606082F10E0102F002780E00E94C606082B0E94E2068091EF039091F003C5
:201E80008017910709F4B4CF1092A501BACD133009F068CF8091A501882309F4B2CD0091E2
:201EA000D8031091D90360919F017091A001CB0101970817190709F0A4CDE4E0660F771FBB
:201EC000EA95E1F76650710990E080E020E130E04AED53E00E9420070E94F1068111FCCF71
:201EE0001093A00100939F01012B09F0A8CF1092A5016AE0462E512C612C712C0FEF1FEF16
:201F00008091B4019091B50154E0880F991F5A95E1F7B0E0A0E0B301A2014A505109610915
:201F20007109481759076A077B0740F560E083E00E940107862D0E94C606852D0E94C606B2
:201F4000842D0E94C60680E00E94C606382E0E94E206032588E09801217033271695079549
:201F6000232B21F091E0092790EA1927815099F72FEF421A520A620A720AC2CF8091B6012F
:201F80009091B7010817190709F059CF48E050E06BE171E080EB91E00E94571A8091B4015E
:201FA0009091B50124E0880F991F2A95E1F726E429832CE42A8328E52B8329E42C832DE465
:201FC0002D8327E42E832AE32F832A87988789872AE030E0AE014F5F5F4F60E070E0CB0175
:201FE0000E9420070E94F1068111FCCF88E198E00FB6F894A895809360000FBE90936000F0
:20200000FFCF4FEF641264C083E0781246C08091560282FF26C0173021F580915E0208176A
:2020200009F4EFCC0E942711882309F4EACC0E94CD01609352027093530280935402909315
:2020400055020E94CD017370882799270E949A0128E043E06FEF802F0E94D20060915F022C
:20206000AECD183009F4CDCC1431B9F480915E02481213C00E94CD017370882799270E9413
:202080009A0125E143E06FEF802F0E94D20060915E020E94C8050E946D0A80915E02481257
:2020A000B0CC80915D02081709F49AC08091560282FF96C08DEC93E00E946D0A93E0791677
:2020C00009F49FCC80915E02481609F44BCE99CC8091560282FF95CC23E072120FC0185144
:2020E000123060F48DEC93E00E94B90B8E3F31F061E0680F8DEC93E00E94C8058DEC93E00B
:2021000080CD8091560282FF21C00E94CD012091A5012223D9F000919A0110919B012091B8
:202120009C0130919D016B017C01C01AD10AE20AF30A97018601053F11402105310530F0EC
:2021400020919E0121111AC01092A5012A960FB6F894DEBF0FBECDBFDF91CF911F910F91B4
:20216000FF90EF90DF90CF90BF90AF909F908F907F906F905F904F903F900895215020933B
:202180009E0160939A0170939B0180939C0190939D01C090B001D090B101E090B201F0904C
:2021A000B30100919F011091A0010150110922E044E06FEF80E00E94D200FC01838187703D
:2021C0008063838384818F71806C8483D086C782F286E18614870387CF010E94050BB6CF74
:2021E00083E07812BFCD0DCCCF92DF92EF92FF92CF93DF93D82F0E94CD016B017C011092D3
:20220000D203C0E00E94CD016C197D098E099F09603D77408105910590F4C11110C0A895BC
:202220000E94D4050E94AC0C8091D1038770833049F7C1E08091D2038D13E3CFE3CF8C2FB4
:20224000DF91CF91FF90EF90DF90CF900895CF92DF92EF92FF92CF930E94CD01C0905202DB
:20226000D0905302E0905402F09055026C197D098E099F09603177428105910510F481E0F7
:2022800008C08091560283FBCC27C0F983FF07C080E0CF91FF90EF90DF90CF900895909140
:2022A0005D0291111CC01092580280915602877F80935602C0915802CF3F51F30E94CD01FE
:2022C0006093520270935302809354029093550280915F028C1799F2C0935F02D0CF8860A1
:2022E000809356028FEF8093580228E143E06FEF80E00E94D20061E00E94C8050E946D0A61
:202300000E94CD016B017C011092D2030E94CD016C197D098E099F09603D774081059105C3
:2023200020F6C111C2CF0E94AC0CA8958091D1038770833059F7C1E08091D203893131F349
:20234000C0E0E4CFCF93DF93CDB7DEB768970FB6F894DEBF0FBECDBF0E942711811104C0C7
:2023600062E084E00E947A058091560282FF04C061E082E00E947A056091AE017091AF01D3
:20238000CE010D960E94D9076091A8017091A901CE0101960E94D907BE016F5F7F4FCE01F2
:2023A00007960E945B08CE0107960E94B507BE01635F7F4F0E942308BC01CE0143960E948E
:2023C0005B08CE0107960E945608CE0101960E945608CE010D960E9456086B897C898EEFE0
:2023E00092E00E94300B0E940C0B8EEE91E00E944F1A61E070E0811102C070E060E081E601
:2024000093E00E94BB050E940C0B8091A8019091A901029784F08FEE91E00E944F1A61E062
:2024200070E0811102C070E060E080E493E00E94BB050E940C0B8091A8019091A901039757
:2024400084F080EF91E00E944F1A61E070E0811102C070E060E08FE193E00E94BB050E94C1
:202460000C0B0E947C0BCE0143960E94560868960FB6F894DEBF0FBECDBFDF91CF910895C2
:202480008F929F92AF92BF92CF92DF92EF92FF924B015C010E94CD016B017C010E94CD0102
:2024A0006C197D098E099F09681579058A059B0530F4A8950E94D4050E94AC0CEFCFFF9025
:2024C000EF90DF90CF90BF90AF909F908F900895CF93DF93EB018235910511F183359105D9
:2024E000A9F18135910509F047C087E00E940B018C2F81708093BC016C2F8EEE91E00E943B
:20250000671A64E170E080E090E00E944012BE0181E693E00E94BB05DF91CF910C940C0B5F
:2025200086E00E940B018C2F81708093BB016C2F8FEE91E00E94671A64E170E080E090E0FB
:202540000E944012BE0180E493E0E4CF85E00E940B018C2F81708093BA016C2F80EF91E036
:202560000E94671A64E170E080E090E00E944012BE018FE193E0CECFDF91CF910895BF92E2
:20258000CF92DF92EF92FF920F931F93CF93DF938EE993E00E94270380E993E00E942703D1
:2025A00082E893E00E9427038091A6038170B82EE82EF12C809198038170C82E082F10E0F4
:2025C00080918A038170D82EC82FD0E08091AE019091AF01892B09F048C08091AC0190919A
:2025E000AD018E159F0549F06091BC0181E0682770E081E590E00E946812F092AD01E0922B
:20260000AC018091AA019091AB018017910779F08091A8019091A90102974CF06091BB01E5
:2026200081E0682770E082E590E00E9468121093AB010093AA018091A6019091A7018C17B6
:202640009D0779F08091A8019091A90103974CF06091BA0181E0682770E083E590E00E94AC
:202660006812D093A701C093A6018091AE019091AF01019709F04EC08091AC019091AD011E
:202680008E159F0559F0B11009C06091BC0181E0682770E081E590E00E946812F092AD0110
:2026A000E092AC018091AA019091AB018017910789F0C1100FC08091A8019091A90102970C
:2026C0004CF06091BB0181E0682770E082E590E00E9468121093AB010093AA018091A60199
:2026E0009091A7018C179D0789F0D1100FC08091A8019091A90103974CF06091BA0181E039
:20270000682770E083E590E00E946812D093A701C093A6010E94A1030E94E70380912C02D0
:20272000882311F0C0E011C00E94A1030E94E70380912B028111F6CF0E94A1030E94E70343
:20274000C1E080912A028111EDCF0E94A1030E94E70380912C028C3011F080E011C00E94AC
:20276000A1030E94E70380912B028111F6CF0E94A1030E94E70381E090912A029111EDCFB6
:20278000C11102C0882389F064EF71E080E090E00E944012DF91CF911F910F91FF90EF90EB
:2027A000DF90CF90BF900C947C0BDF91CF911F910F91FF90EF90DF90CF90BF9008952BE0E2
:2027C00043E06FEF80E00E94D20061E271E00E94300B0E94050B2CE043E06FEF80E00E94F2
:2027E000D2006DE171E00E94300B0E94050B62E370E080E090E00E94401246E751E063E0DF
:2028000081E50E94650B62E370E080E090E00E9440128091A8019091A901029764F04DE741
:2028200051E063E082E50E94650B62E370E080E090E00E9440128091A8019091A901039733
:2028400034F044E851E063E083E50E94650B4BE851E068E187E10C94650BCF93DF93CCEA8B
:20286000D3E08B81877080658B838C818871846C8C8388E0E0EBF1E0A3EBB3E001900D9255
:202880008A95E1F783E090E0988B8F871092A50120E044E06FEF80E00E94D2000E94050BE5
:2028A0002FE043E06FEF80E00E94D20068E971E00E94300B8B81877080618B838C818F7136
:2028C000806C8C8381E08F831886CE010E94050B8FE00E94F41048E951E062E18FEF0E9491
:2028E000650B26E043E06FEF80E00E94D20060915E020E94C8050E94050B86E00E94F4108F
:20290000DF91CF910C94DF13CF9380915C0281FD1FC00E942D1480915C02816080935C0283
:20292000C4E02AE143E06FEF80E00E94D20062E00E94C8050E94050B8BE10E94F41081118C
:2029400002C0C15071F780915C02826080935C02CF9108951F920F920FB60F9211242F93CE
:202960003F938F939F93AF93BF938091440290914502A0914602B09147023091430226E0CF
:20298000230F2D3758F50296A11DB11D209343028093440290934502A0934602B09347026E
:2029A0008091480290914902A0914A02B0914B020196A11DB11D8093480290934902A09324
:2029C0004A02B0934B02BF91AF919F918F913F912F910F900FBE0F901F90189529E8230F01
:2029E0000396A11DB11DD2CF1F920F920FB60F9211242F933F934F935F936F937F938F9386
:202A00009F93AF93BF93EF93FF93E0913701F09138010995FF91EF91BF91AF919F918F91EB
:202A20007F916F915F914F913F912F910F900FBE0F901F9018951F920F920FB60F921124D2
:202A40002F933F934F935F936F937F938F939F93AF93BF93EF93FF93E0913501F09136019F
:202A60000995FF91EF91BF91AF919F918F917F916F915F914F913F912F910F900FBE0F904D
:202A80001F9018951F920F920FB60F9211242F933F934F935F936F937F938F939F93AF93DB
:202AA000BF93EF93FF9381E692E00E944E02FF91EF91BF91AF919F918F917F916F915F91F5
:202AC0004F913F912F910F900FBE0F901F9018951F920F920FB60F9211242F938F939F931C
:202AE000EF93FF93E0917102F09172028081E0917702F091780282FD1BC0908180917A020B
:202B00008F5F8F7320917B02821741F0E0917A02F0E0EF59FD4F958F80937A02FF91EF91B9
:202B20009F918F912F910F900FBE0F901F9018958081F4CF1F920F920FB60F9211242F93AB
:202B40003F934F935F936F937F938F939F93AF93BF93EF93FF938091B900887F803609F43B
:202B60004AC0F0F5883209F4A5C018F5803109F499C0B8F4882309F4F5C0883009F492C026
:202B8000FF91EF91BF91AF919F918F917F916F915F914F913F912F910F900FBE0F901F901B
:202BA0001895883109F486C0803251F78093030214C0803409F49BC040F48033B9F388332C
:202BC000F9F68093030285ECAEC0803509F483C0883509F494C0883499F60E94E004D0CF9C
:202BE000883909F48AC038F5883729F050F4883611F0803729F683E08093040210920202CD
:202C000055C0883809F479C0803919F0803809F0B7CF80910202803208F06FC0E09102024D
:202C200081E08E0F809302028091BB00F0E0EE51FE4F80833BC0803B39F0D0F4803A09F4FA
:202C400077C0883A09F09CCF84E0809304021092E1011092E001F0E0E0E009958091E00173
:202C600081110FC081E08093E0011092C00109C0803C09F4A8CF883C09F4A5CF883B09F051
:202C80007FCFE091E10181E08E0F8093E101F0E0E054FE4F80818093BB009091E10180916C
:202CA000E00129C0809129028093BB0085EC8093BC0066CF9091280280912702981758F54A
:202CC000E091280281E08E0F80932802F0E0E95FFD4F8081E9CFE091280281E08E0F809355
:202CE00028028091BB00F0E0E95FFD4F808390912802809127029817C8F285E8D8CFE09104
:202D0000280281E08E0F809328028091BB00F0E0E95FFD4F80838091060281115ECF81E0E2
:202D20008093050284EA8093BC001092040228CF85EC8093BC0010920402809102028032EE
:202D400030F4E0910202F0E0EE51FE4F10826091020270E082EE91E0F0E0E0E009951092F6
:202D600002020ECF1092030238CF1F920F920FB60F9211240F900FBE0F901F901895CF930E
:202D8000DF93FC01108211821282148215821682DC0117968AE1ED0119928A95E9F782E057
:202DA0008383DF91CF910895CF93E1E6F2E01382128288EE93E0A0E0B0E084839583A6833B
:202DC000B7838FE491E09183808385EC90E09587848784EC90E09787868780EC90E0918BB3
:202DE000808B81EC90E0938B828B82EC90E0958B848B86EC90E0978B868B118E128E138EBE
:202E0000148EEEEEF3E080E5858381E0868388E0808385E69FE1928381838DEC93E00E948D
:202E2000BF168CEA93E00E94BF16EEE9F3E021E631E03183208312821382148215828AE084
:202E400090E09783868310861186E0E9F3E0318320831282138214821582978386831086B0
:202E60001186E2E8F3E0318320831282138214821582978386831086118681E693E00E94A5
:202E8000BF16E1E6F3E081E58683C2E0C58380E493E00E94BF16E0E4F3E082E58683C583CD
:202EA0008FE193E00E94BF16EFE1F3E083E58683C5838EEF92E00E94BF16EEEFF2E087E1DF
:202EC000868388E18583CF910895789484B5826084BD84B5816084BD85B5826085BD85B520
:202EE000816085BD80916E00816080936E0010928100809181008260809381008091810011
:202F0000816080938100809180008160809380008091B10084608093B1008091B00081602B
:202F20008093B00080917A00846080937A0080917A00826080937A0080917A008E7F80932D
:202F40007A0080917A00806880937A001092C100A89580E090E0892B11F00E940000E091BF
:202F60007102F091720282E08083E0916D02F0916E021082E0916F02F091700287E68083DC
:202F800010927902E0917502F091760286E08083E0917302F0917402808180618083E09197
:202FA0007302F0917402808188608083E0917302F0917402808180688083E0917302F09189
:202FC000740280818F7D8083C0E1D0E0F12CFE01F595E795E558FF4FE491C0FF7AC0EF70A0
:202FE000E83008F078C0F0E0E558FF4FF4906F2D81E692E00E9470022196C23FD10539F763
:20300000C4E7D0E0FE016491662339F081E692E00E9470022196892BA9F742E050E066E916
:2030200071E081E692E00E94DA0180915C028D7F80935C020E94DE0941E050E063E071E08F
:203040008BE592E00E943F1A48E050E06BE171E080EB91E00E943F1A6FEF81E090E00E94F6
:20306000671A809157028F788093570210924D0210924C0280E391E00E94F20584E894E1C3
:203080009093B9018093B8010E94CD010E94CD010E94D4050E94AC0C8091560282FB88273D
:2030A00080F9A895882391F30E94A211A895C0E0D0E0A8950E94D4050E94AC0C0E94BF12C4
:2030C0002097B9F30E944402882399F30E940000F0CFE29584CF1BEF1E0F00E06F2D81E629
:2030E00092E00E9470020F5F0117C0F385CF0F931F93CF93DF938230910510F482E090E077
:20310000E091F703F091F80330E020E0B0E0A0E0309799F42115310509F44AC0281B390B5A
:2031200024303105D8F58A819B816115710589F1FB0193838283FE0111C0408151810281AE
:20314000138148175907E0F04817590799F4109761F012960C93129713961C933296CF0128
:20316000DF91CF911F910F9108950093F7031093F803F4CF2115310551F04217530738F01C
:20318000A901DB019A01BD01DF01F801C1CFEF01F9CF9093F8038093F703CDCFFE01E20F78
:2031A000F31F819391932250310939832883D7CF2091F5033091F603232B41F420913B0139
:2031C00030913C013093F6032093F5032091390130913A012115310541F42DB73EB7409158
:2031E0003D0150913E01241B350BE091F503F091F603E217F307A0F42E1B3F0B2817390776
:2032000078F0AC014E5F5F4F2417350748F04E0F5F1F5093F6034093F503819391939FCF67
:20322000F0E0E0E09CCFCF93DF930097E9F0FC01329713821282A091F703B091F803ED010B
:2032400030E020E01097A1F420813181820F931F2091F5033091F6032817390709F061C090
:20326000F093F603E093F503DF91CF910895EA01CE17DF07E8F54A815B819E014115510575
:20328000B1F7E901FB83EA8349915991C40FD51FEC17FD0761F4808191810296840F951FD8
:2032A000E90199838883828193819B838A83F0E0E0E012968D919C9113970097B9F52D918B
:2032C0003C911197CD010296820F931F2091F5033091F6032817390739F6309751F5109210
:2032E000F8031092F703B093F603A093F503BCCFD383C28340815181840F951FC817D90711
:2033000061F44E5F5F4F88819981480F591F518340838A819B81938382832115310509F0CD
:20332000B0CFF093F803E093F7039ECFFD01DC01C0CF13821282D7CFFC0188279927E89495
:2033400021912032E9F3293010F02E30C8F32B3241F02D3239F4689404C00E94011A820FF3
:20336000911D219120532A30C0F31EF4909581959F4F08951F93FC0199278827BC01E8943E
:2033800011911032E9F3193010F01E30C8F31B3251F01D3249F4689406C00E94EC19610F28
:2033A000711D811D911D119110531A30B0F33EF490958095709561957F4F8F4F9F4F1F9190
:2033C0000895BB274A3031F4992322F4BDE2909581959F4F0C940A1A592F482F372F262FB7
:2033E000660F771F881F991F660F771F881F991F620F731F841F951F660F771F881F991F35
:2034000008957AE0979F902D879F802D910D11240895BB27FB015527AA27880F991FAA1F3C
:20342000A41710F0A41B83955051B9F7A05DAA3308F0A95DA193009779F7B111B1931192ED
:20344000CB010C942C1A91110C943C1A803219F089508550C8F70895DC01FC01672F7191EB
:203460007723E1F7329704C07C916D9370836291AE17BF07C8F30895992788270895DC018E
:20348000CB01FC01F999FECF06C0F2BDE1BDF89A319600B40D9241505040B8F70895F99946
:2034A000FECF92BD81BDF89A992780B50895DC01A40FB51F4150504048F0CB01840F951FBE
:2034C0002E910E94681A41505040D0F70895262FF999FECF92BD81BDF89A019700B402164D
:2034E00039F01FBA20BD0FB6F894FA9AF99A0FBE08952F923F924F925F926F927F928F9274
:203500009F92AF92BF92CF92DF92EF92FF920F931F93CF93DF93CDB7DEB7CA1BDB0B0FB633
:20352000F894DEBF0FBECDBF09942A88398848885F846E847D848C849B84AA84B984C8846D
:20354000DF80EE80FD800C811B81AA81B981CE0FD11D0FB6F894DEBF0FBECDBFED010895F6
:2035600097FB072E16F4009407D077FD09D00E94E61A07FC05D03EF4909581959F4F089550
:20358000709561957F4F0895A1E21A2EAA1BBB1BFD010DC0AA1FBB1FEE1FFF1FA217B30753
:2035A000E407F50720F0A21BB30BE40BF50B661F771F881F991F1A9469F760957095809513
:2035C00090959B01AC01BD01CF010895AA1BBB1B51E107C0AA1FBB1FA617B70710F0A61BDF
:2035E000B70B881F991F5A95A9F780959095BC01CD010895EE0FFF1F0590F491E02D0994DA
:20360000B0E0A0E0E6E0FBE10C947B1A8C01009751F4CB010E9477188C01C801CDB7DEB7EE
:20362000E0E10C94971AFC01E60FF71F9C0122503109E217F30708F49DC0D901CD91DC9136
:203640001197C617D70798F0C530D10530F3CE0104978617970708F3C61BD70B2297C19321
:20366000D1936D937C93CF010E941319D6CF5B01AC1ABD0A4C018C0E9D1EA091F703B0919D
:20368000F803512C412CF12CE12C109731F58091F5039091F6038815990509F05CC046167F
:2036A000570608F058C08091390190913A01009741F48DB79EB740913D0150913E01841BC3
:2036C000950BE817F90708F055C0F093F603E093F503F90171836083A0CF8D919C91119724
:2036E00012966C90129713967C901397A815B90559F56C0142E0C40ED11CCA14DB0420F139
:20370000AC014A195B09DA011296159780F06282738251834083D9016D937C93E114F10453
:2037200071F0D7011396FC93EE93129776CF22968C0F9D1FF90191838083F301EFCFF09354
:20374000F803E093F70369CF4816590608F42C017D01D3019ACFCB010E9477187C01009717
:2037600049F0AE01B8010E94CA1BC8010E941319870153CF10E000E050CFFB01DC0104C054
:203780008D910190801921F441505040C8F7881B990B0895FB01DC0102C001900D924150AC
:2037A0005040D8F70895FB01DC0101900D920020E1F70895FB01DC014150504048F00190AC
:2037C0000D920020C9F701C01D9241505040E0F70895AEE0B0E0EFEEFBE10C94891A85E0E6
:2037E0008C838B899C899A838983AE01495E5F4F6D897E89CE0101960E948D1D2E96E2E01F
:203800000C94A51A20FD09C0FC0123FD05C022FF02C07383628351834083089544FD17C077
:2038200046FD1DC0DB01FC01AA0FBB1FEE1FFF1F1094D1F76A0F7B1F8E1F9F1F660F771FDC
:20384000881F991F620F711D811D911D089533E0660F771F881F991F3150D1F7F3CF34E085
:20386000F7CF0F931F93CF93DF938C01C8010E949D1EEC0197FD08C00E94231A892BB1F723
:20388000B801CE010E94D91ECE01DF91CF911F910F9108958F929F92AF92BF92EF92FF9285
:2038A0000F931F93CF93DF938C01D62F7A01B22E0E949D1E9C0133272B32310529F02D3294
:2038C0003105A9F46894B7F8D15061F480E0DF91CF911F910F91FF90EF90BF90AF909F90A9
:2038E0008F900895C8010E949D1E97FDEFCFCB2DCD7F2B2D2073F9F48033E9F4AA24AA94DC
:20390000AD0E89F0C8010E949D1E97FD0CC0282F2F7D283561F4C264D25029F0C8010E946C
:203920009D1E97FF08C0812C912C54011BC0B6FE2BC0C260DA2D812C912C540120ED280F09
:20394000283028F1C4FD09C02A3008F1C6FF05C02F7D3FEE320F3630C8F0B8010E94D91E05
:20396000C1FFB4CFC7FF08C0B094A09490948094811C911CA11CB11C2C2FB501A401C70174
:203980000E94021C81E0A3CFC261D4CF27504C2FC501B4010E940E1C4B015C01C260D150A9
:2039A00009F3C8010E949D1E97FFC8CFD9CFA0E2B0E0EDEDFCE10C947E1A5C01962E7A0173
:2039C000CE0101966C0180E2F60111928A95E9F7F501B381890130E020E0712C812CA0E08B
:2039E00041E050E0F801B3FD8591B3FF8191982F8F01811107C010E000E0C801A096EDE0A7
:203A00000C949A1A8E3519F42115310541F1A21713064CF48D3549F18D3229F4811006C0A3
:203A2000882483941DC0882009F464C0E92FE695E695E695EC0DFD2DF11D892F8770BA01F9
:203A400001C0660F8A95EAF78081682B6083791651F0971510F49F5FE9CF9150E7CFA1E06B
:203A60002F5F3F4FBFCF812CFBCF882019F08E8180628E83AA2359F0F6019E012F5D3F4FAC
:203A80008081809580833196E217F307C9F788248394C5010E949D1E97FD16C0E82FE695B1
:203AA000E695E695EC0DFD2DF11D208130E0AC014770552702C0359527954A95E2F720FD31
:203AC00006C0B5010E94D91E882069F094CFE114F10429F0F7018083C70101967C019A9465
:203AE000812C9110D6CFE114F10409F486CFF701108283CFE82FE695E695E695EC0DFD2D10
:203B0000F11D982F9770BA0101C0660F9A95EAF79081692B6083782EA3CFB0E0A0E0E3E94C
:203B2000FDE10C947C1A6C01EB015A01FC0117821682512CF601E380FE01E3FC8591E3FEE3
:203B40008191182FEF018823E9F090E00E94231A892B21F0C6010E94311CECCF153241F497
:203B6000FE01E3FC1591E3FE1191EF01153269F4C6010E949D1E97FD8EC01817D9F2B601F3
:203B80000E94D91E852D90E08AC000E01A3231F4E3FC1591E3FE1191EF0101E0F12C20EDCC
:203BA000210F2A3048F101FF37C0FF2059F31836B1F11C3609F43DC0112321F3612F70E07C
:203BC00088E690E00E94921E892BE1F2912C812C00FD06C0F50180809180C50102965C013F
:203BE0001E3679F5F6014681578170E060E0202FC4010E94021C9ECF02606F2D70E090E0DE
:203C000080E040E20E940E1CF62EFE01E3FC1591E3FE1191EF01C3CFFF24FA94C8CFFE0162
:203C2000E3FC1591E3FE1191EF01183609F0C4CF08600460FE01E3FC1591E3FE1191EF01EF
:203C4000BBCF1336C1F401FD02C0FF24F394C6010E949D1E97FD1FC08114910429F0F401A3
:203C60008083C40101964C01FA94F110F0CF00FD61CF53945FCF1B35B9F49E01A4016F2D2B
:203C8000C6010E94D71CEC01892B89F7F6018381807309F477CF8FEF9FEF511073CFCDB743
:203CA000DEB7EFE00C94981AC6010E94311C97FDF2CF1F36A9F130F4143641F0193639F03D
:203CC000006405C01337B9F01537D1F70062202FA4016F2DC6010E944A1C8111C8CFD6CF25
:203CE0008114910429F0F4016082C40101964C01FA94FF2071F0C6010E949D1E3C0197FDFE
:203D000008C00E94231A892B59F3B601C3010E94D91E8114910409F4AACFF4011082A7CF4B
:203D20000061D5CFFC010590061621F00020D9F7C00108953197CF010895CF93DF93EC017B
:203D40002B8120FF1AC026FF0CC02F7B2B838E819F8101969F838E838A8190E0DF91CF9131
:203D6000089522FF18C0E881F9818081082E000C990B009729F420622B838FEF9FEFEECF36
:203D80003196F983E8832E813F812F5F3F4F3F832E839927E3CFEA85FB85099597FFF3CF20
:203DA0002B81019621F080E2822B8B83E6CF80E1FBCFFB01238120FF11C026FD0FC08F3F62
:203DC000980771F082832F7D20642383268137812150310937832683992708958FEF9FEF32
:203DE0000895F894FFCFFFFFFF00FCE1A8A8880B89061D0B5A0648063E06A30BA306FFE32D
:203E0000081E06312E350052656C6179204163747561746F7200BE093209FFD901D90100CD
:203E200000F90380001F1C1F1E1F1E1F1F1E1F1E1F000000007002DA010702BD0238021634
:203E4000022A0200000000EB02E7023A00322E332E310025643A2564004F4B0052656C61C8
:203E600079310052656C6179320052656C6179330052656C61793A4D6F6465000D0A000066
:203E8000FFFFFFFFFFFFFFFFFFFFFFFFFFFFFFFFFFFFFFFFFFFFFFFFFFFFFFFFFFFFFFFF42
:203EA000FFFFFFFFFFFFFFFFFFFFFFFFFFFFFFFFFFFFFFFFFFFFFFFFFFFFFFFFFFFFFFFF22
:203EC000FFFFFFFFFFFFFFFFFFFFFFFFFFFFFFFFFFFFFFFFFFFFFFFFFFFFFFFFFFFFFFFF02
:203EE000FFFFFFFFFFFFFFFFFFFFFFFFFFFFFFFFFFFFFFFFFFFFFFFFFFFFFFFFFFFFFFFFE2
:203F0000B50282E08083E091B002F091B1021082E091B202F091B30287E680831092BC0271
:203F2000E091B802F091B90286E08083E091B602F091B702808180618083E091B602F091BF
:203F4000B702808188608083E091B602F091B702808180688083E091B602F091B702808109
:203F60008F7D8083C0E1D0E0F12CFE01F595E795EA57F94FE491C0FFAAC0EF70E83008F029
:203F8000A8C0F0E0EA57F94FF4906F2D84EA92E00E94F1052196C23FD10539F78FE796E01E
:203FA0000E943E0687EA91E00E940A0B1F928FEF8F9381E497E09F938F930E94EC0C809156
:203FC0006C028D7F80936C0284E397E09F938F930E94EC0C0E94AC0E41E050E063E071E0D9
:203FE0008BE692E00E946D2748E050E06BE171E080EC91E00E946D276FEF81E090E00E94CF
:204000009527809167028F788093670210925D0210925C0281E391E00E948E0984ED99E1ED
:204020009093C9018093C8011F921F921F921F928FEF96E09F938F930E94EC0C0E944E051C
:204040008DB79EB70C960FB6F8949EBF0FBE8DBF0E944E050E9470090E94C40F8091660260
:2040600082FB882780F9A895882391F387E297E09F938F930E94EC0C0E94601690916602C0
:204080000F900F9092FB882780F992FD0E94C70C1F928F938FE097E09F938F930E94EC0C82
:2040A000A8950F900F900F900F90C0E0D0E0A8950E9470090E94C40F0E940F182097B9F3FE
:2040C0000E94C505882399F30E940000F0CFE29554CF1BEF1E0F00E06F2D84EA92E00E940D
:2040E000F1050F5F0117C0F355CFEF920F931F93CF93DF93E80134E047FD34E1042E000C30
:20410000550B57FF03C0519541955109E32E022F242FAE010E947624CE01DF91CF911F9141
:204120000F91EF9008950F931F93CF93DF938230910510F482E090E0E0913A04F0913B040E
:2041400030E020E0B0E0A0E0309799F42115310509F44AC0281B390B24303105D8F58A818F
:204160009B816115710589F1FB0193838283FE0111C0408151810281138148175907E0F09D
:204180004817590799F4109761F012960C93129713961C933296CF01DF91CF911F910F91DB
:2041A000089500933A0410933B04F4CF2115310551F04217530738F0A901DB019A01BD0185
:2041C000DF01F801C1CFEF01F9CF90933B0480933A04CDCFFE01E20FF31F819391932250C3
:2041E000310939832883D7CF2091380430913904232B41F420913B0130913C01309339041F
:20420000209338042091390130913A012115310541F42DB73EB740913D0150913E01241BE0
:20422000350BE0913804F0913904E217F307A0F42E1B3F0B2817390778F0AC014E5F5F4FCA
:204240002417350748F04E0F5F1F5093390440933804819391939FCFF0E0E0E09CCFCF93A2
:20426000DF930097E9F0FC01329713821282A0913A04B0913B04ED0130E020E01097A1F444
:2042800020813181820F931F20913804309139042817390709F061C0F0933904E093380495
:2042A000DF91CF910895EA01CE17DF07E8F54A815B819E0141155105B1F7E901FB83EA838F
:2042C00049915991C40FD51FEC17FD0761F4808191810296840F951FE901998388838281F1
:2042E00093819B838A83F0E0E0E012968D919C9113970097B9F52D913C911197CD01029674
:20430000820F931F20913804309139042817390739F6309751F510923B0410923A04B093B0
:204320003904A0933804BCCFD383C28340815181840F951FC817D90761F44E5F5F4F888159
:204340009981480F591F518340838A819B81938382832115310509F0B0CFF0933B04E09382
:204360003A049ECFFD01DC01C0CF13821282D7CFFC0188279927E89421912032E9F3293038
:2043800010F02E30C8F32B3241F02D3239F4689404C00E942C22820F911D219120532A307C
:2043A000C0F31EF4909581959F4F08951F93FC0199278827BC01E89411911032E9F3193012
:2043C00010F01E30C8F31B3251F01D3249F4689406C00E941722610F711D811D911D119131
:2043E00010531A30B0F33EF490958095709561957F4F8F4F9F4F1F910895BB274A3031F49E
:20440000992322F4BDE2909581959F4F0C945722BB272A3051F4992342F4BDE2909580959D
:20442000709561957F4F8F4F9F4F0C943522592F482F372F262F660F771F881F991F660F57
:20444000771F881F991F620F731F841F951F660F771F881F991F08957AE0979F902D879F93
:20446000802D910D11240895BB27FA01A62F6217710581059105330B30FB66F0AA27660F5D
:20448000771F881F991FAA1FA21710F0A21B63953850A9F7A05DAA3308F0A95DA19336F78F
:2044A000B111B1931082CA010C94CC26BB27FB015527AA27880F991FAA1FA41710F0A41B4A
:2044C00083955051B9F7A05DAA3308F0A95DA193009779F7B111B1931192CB010C94CC2659
:2044E000AEE0B0E0E6E7F2E20C94B5278C01FA018EE08C831A83098377FF02C060E070E883
:20450000615071097E836D83A901BF01CE0101960E949C224D815E8157FD0AC02F81388517
:20452000421753070CF49A01020F131FF80110822E96E4E00C94D127ABE0B0E0E2EAF2E284
:204540000C94A7277C013B018A01FC0117821682838181FFC8C1CE0101965C01F70193819F
:20456000F30193FD859193FF81913F01882309F453C1853239F493FD859193FF81913F0193
:20458000853229F4B70190E00E94DC26E7CF912C212C312CFFE1F31538F08B3211F190F40B
:2045A000803209F1833229F137FC3CC020ED280F2A3050F536FE20C08AE0989E200D112458
:2045C000922E06C08D3291F0803371F7689430F8F30193FD859193FF81913F018111DACF1D
:2045E00021C0689431F8689432F8F2CF689433F8EFCF689434F8ECCFEAE02E9E200D11240E
:20460000222E689435F8E4CF8E3229F436FC04C1689436F8DDCF8C3619F4689437F8D8CF23
:204620008836B1F2982F9F7D95549330E0F08336A1F18337C1F1833509F063C02801F2E034
:204640004F0E511CF801C080D180692D70E036FC02C06FEF7FEFC6010E94B6264C016894D2
:2046600037F882010AC00C5F1F4FFFE3F98388248394912C6501E89437F833FE2DC0522C5A
:204680008114910471F5552009F468CFB70180E290E00E94DC265A94F6CFF80180818983FA
:2046A0000E5F1F4FE4CF2801F2E04F0E511CF801C080D180692D70E036FC02C06FEF7FEF77
:2046C000C6010E94C1264C018201D5CFB70180E290E00E94DC262A942814190409F0B0F731
:2046E000CECFF60137FC859137FE81916F01B70190E00E94DC2651105A94F1E08F1A9108F8
:20470000BFCF843619F0893609F077C0F80137FE6BC060817181828193810C5F1F4FF32D1D
:20472000FF763F2E97FF09C090958095709561957F4F8F4F9F4F689437F82AE030E0A5017E
:204740000E940C27C82ECA188C2C432C36FE0CC0E89440F8C91440F434FE05C032FC03C0D8
:20476000F32DFE7E4F2E892C44FE95C0FE01EC0DF11D8081803309F087C0242D297E422E72
:20478000842D8870582E43FC95C040FE8FC09C2C821418F42C0C922C981844FE91C0B7016E
:2047A00080E390E00E94DC2642FE09C088E790E041FE02C088E590E0B7010E94DC26C91483
:2047C00008F48AC0CA94D12C9FEFC91AD90ACA0CDB1CF60182916F01B70190E00E94DC26D1
:2047E000AC14BD04B1F74FCF60817181072E000C880B990B0E5F1F4F92CFD32CE894D4F8A4
:204800002AE030E0853739F1232D297FD22E8F3601F148F48835A9F0F701868197812B967F
:20482000E2E10C94C327803749F08837A9F7D4FE02C06894D2F820E130E00DC06894D4F8DC
:20484000F6CF34FE03C0822F8660D82E20E132E002C028E030E0F801D7FE0FC060817181A4
:20486000828193810C5F1F4FA5010E940C27C82ECA183D2CE89437F867CF6081718190E068
:2048800080E00E5F1F4FF0CF42FC02C0839478CF8394839475CF842D867809F471CFF6CF9D
:2048A000B70180E290E00E94DC2683948214C0F3512C73CF522C5818821408F46ECFF8CF27
:2048C000842D867809F47BCF8BE241FE80E247FC8DE2B70190E071CFB70180E390E00E948D
:2048E000DC269A946CCF8FEF9FEF99CFA9E0B0E0ECE7F4E20C94AD276A01F22EB02E102FFB
:20490000FBE3AF2EA01608F41BE31F5F012F27E0AE014F5F5F4F0E94D525BC018981982F42
:204920009970913009F43FC09BE2E1FC04C09E2D9170E0FC3AC05E2D5071E82FE87083FFB4
:2049400046C084E0911101C083E0EF2DE81B8F1508F0E0E0D6018E2F20E2552351F19923A0
:2049600029F0D6019C93C60101966C0196012D5F3F4FE2FE24C08EE4D6018C9391E4119654
:204980009C93119712968C93D9018E2F90E281111BC0E20FF32FF11D10828EEF9FEF299686
:2049A000ECE00C94C9279DE2C6CF90E2C4CF2D9381508111FCCFCE0ED11CE0E0D0CF8EE6F8
:2049C000D6018C9391E6DBCF9D938150E0CF482F447082FF3DC084E0911101C083E08F1599
:2049E00010F4EF2DE81BD6018E2F20E2552309F1992329F0D6019C93C60101966C0196014F
:204A00002D5F3F4FE2FE1BC089E4D6018C938EE411968C93119786E412968C93D9018E2FB6
:204A200090E2882309F4B5CF9D938150FACF2D9381508111FCCFCE0ED11CE0E0D9CF89E680
:204A4000D6018C938EE611968C93119786E6E4CF9B0177FF02C030E020E0A1E0B0E09111C8
:204A600002C0B0E0A0E0F9013196AE0FBF1F8B2C912CBB2009F461C05401EFEFAE1ABE0AD8
:204A8000AA0DBB1DFA161B0619F014F04F2D4A1B511188C0E3FC59C07601A42FB0E2A11138
:204AA0004FC0C40ED11C992309F45BC040E0D6011196F60190836D01552309F448C0012F91
:204AC000060F9A81582F507184FF03C0913309F4015010160CF047C0093008F008E0EEE2F4
:204AE000FE2E5B01A01AB10885019194819491082F3F320729F4D601FC92F60131966F010B
:204B00006217730794F1021713077CF5DB01A21BB30BAA24A394B12CAC0EBD1EAA0DBB1D1C
:204B200011968C9121503109D601119628153905F4F0F60180836D01DBCFB12CA12CA0CFFE
:204B4000F701B1937F01A150AACF9111B0CFD601942F50E302C05D9391509111FCCFC40E6F
:204B6000D11C40E0ACCF01E0BACF80E3DBCF6217730731F4963388F4953311F4552369F03B
:204B8000F6018083FD01842F90E2811108C0A40FB11D1C9290E080E002CF81E3F1CF919386
:204BA0008150F3CF911183CF8ACF283008F027E03327DA01990F311D87FD91600096610522
:204BC000710539F432602E5F3D9330E32A95E1F708959F3F30F080387105610509F03C5FD6
:204BE0003C5F3D93913008F08068911DDF93CF931F930F93FF92EF92192F987F9695E92F1F
:204C000096959695E90FFF27EE53FF4F99273327EE24FF24A701E70105900894079428F4CA
:204C2000360FE71EF81E491F511D660F771F881F991F0694A1F70590079428F4E70EF81E4B
:204C4000491F561FC11D770F881F991F661F0694A1F70590079428F4F80E491F561FC71FE8
:204C6000D11D880F991F661F771F0694A1F70590079420F4490F561FC71FD81F990F661F8F
:204C8000771F881F0694A9F784911095177041F0D695C79557954795F794E7941A95C1F72F
:204CA000E8E6F0E068941590159135916591959105907FE27395E118F10A430B560BC90BB8
:204CC000D009C0F7E10CF11E431F561FC91FD01D7EF4703311F48A95E6CFE894015030F0C1
:204CE000080F0AF40027021708F4202F2395022F7A3328F079E37D932A95E9F710C07D937B
:204D00002A9589F6069497956795379517951794E118F10A430B560BC90BD00998F02395E0
:204D20007E9173957A3308F070E37C932013B8F77E9170617D9330F0839571E37D9370E394
:204D40002A95E1F71124EF90FF900F911F91CF91DF91992787FD9095089591110C946A2780
:204D6000803219F089508550C8F70895FC010590615070400110D8F7809590958E0F9F1F06
:204D80000895FC016150704001900110D8F7809590958E0F9F1F0895DC01FC01672F719103
:204DA0007723E1F7329704C07C916D9370836291AE17BF07C8F308950F931F93CF93DF93F6
:204DC000182F092FEB018B8181FD09C01FEF0FEF812F902FDF91CF911F910F91089582FF5C
:204DE00014C02E813F818C819D81281739073CF4E881F981CF0101969983888310838E8183
:204E00009F8101969F838E83E3CFE885F985812F0995892BA1F3DACFFA01AA27283051F166
:204E2000203181F1E8946F936E7F6E5F7F4F8F4F9F4FAF4FB1E03ED0B4E03CD0670F781F93
:204E4000891F9A1FA11D680F791F8A1F911DA11D6A0F711D811D911DA11D20D009F4689415
:204E60003F912AE0269F11243019305D3193DEF6CF010895462F4770405D4193B3E00FD074
:204E8000C9F7F6CF462F4F70405D4A3318F0495D31FD4052419302D0A9F7EACFB4E0A69503
:204EA0009795879577956795BA95C9F700976105710508959B01AC010A2E069457954795A0
:204EC00037952795BA95C9F7620F731F841F951FA01D0895992788270895DC01CB01FC01D5
:204EE000F999FECF06C0F2BDE1BDF89A319600B40D9241505040B8F70895F999FECF92BD79
:204F000081BDF89A992780B50895DC01A40FB51F4150504048F0CB01840F951F2E910E94FE
:204F2000962741505040D0F70895262FF999FECF92BD81BDF89A019700B4021639F01FBAF6
:204F400020BD0FB6F894FA9AF99A0FBE08952F923F924F925F926F927F928F929F92AF9289
:204F6000BF92CF92DF92EF92FF920F931F93CF93DF93CDB7DEB7CA1BDB0B0FB6F894DEBF02
:204F80000FBECDBF09942A88398848885F846E847D848C849B84AA84B984C884DF80EE804F
:204FA000FD800C811B81AA81B981CE0FD11D0FB6F894DEBF0FBECDBFED01089597FB072E82
:204FC00016F4009407D077FD09D00E94142807FC05D03EF4909581959F4F08957095619566
:204FE0007F4F0895A1E21A2EAA1BBB1BFD010DC0AA1FBB1FEE1FFF1FA217B307E407F507ED
:2050000020F0A21BB30BE40BF50B661F771F881F991F1A9469F760957095809590959B01BE
:20502000AC01BD01CF010895AA1BBB1B51E107C0AA1FBB1FA617B70710F0A61BB70B881FBC
:20504000991F5A95A9F780959095BC01CD010895EE0FFF1F0590F491E02D0994B0E0A0E0B8
:20506000E4E3F8E20C94A9278C01009751F4CB010E9493208C01C801CDB7DEB7E0E10C94C5
:20508000C527FC01E60FF71F9C0122503109E217F30708F49DC0D901CD91DC911197C6175D
:2050A000D70798F0C530D10530F3CE0104978617970708F3C61BD70B2297C193D1936D93C8
:2050C0007C93CF010E942F21D6CF5B01AC1ABD0A4C018C0E9D1EA0913A04B0913B04512C63
:2050E000412CF12CE12C109731F580913804909139048815990509F05CC04616570608F0A0
:2051000058C08091390190913A01009741F48DB79EB740913D0150913E01841B950BE817FE
:20512000F90708F055C0F0933904E0933804F90171836083A0CF8D919C91119712966C901C
:20514000129713967C901397A815B90559F56C0142E0C40ED11CCA14DB0420F1AC014A1952
:205160005B09DA011296159780F06282738251834083D9016D937C93E114F10471F0D701B0
:205180001396FC93EE93129776CF22968C0F9D1FF90191838083F301EFCFF0933B04E09361
:2051A0003A0469CF4816590608F42C017D01D3019ACFCB010E9493207C01009749F0AE01BB
:2051C000B8010E94F828C8010E942F21870153CF10E000E050CFFB01DC0104C08D910190B4
:2051E000801921F441505040C8F7881B990B0895FB01DC0102C001900D9241505040D8F782
:205200000895FB01DC0101900D920020E1F70895FB01DC014150504048F001900D920020D1
:20522000C9F701C01D9241505040E0F70895AEE0B0E0EDE1F9E20C94B72785E08C838B89DC
:205240009C899A838983AE01495E5F4F6D897E89CE0101960E94BB2A2E96E2E00C94D327F2
:2052600020FD09C0FC0123FD05C022FF02C07383628351834083089544FD17C046FD1DC03C
:20528000DB01FC01AA0FBB1FEE1FFF1F1094D1F76A0F7B1F8E1F9F1F660F771F881F991F23
:2052A000620F711D811D911D089533E0660F771F881F991F3150D1F7F3CF34E0F7CF0F9302
:2052C0001F93CF93DF938C01C8010E94CB2BEC0197FD08C00E94AD26892BB1F7B801CE01B8
:2052E0000E94072CCE01DF91CF911F910F9108958F929F92AF92BF92EF92FF920F931F9303
:20530000CF93DF938C01D62F7A01B22E0E94CB2B9C0133272B32310529F02D323105A9F45F
:205320006894B7F8D15061F480E0DF91CF911F910F91FF90EF90BF90AF909F908F90089545
:20534000C8010E94CB2B97FDEFCFCB2DCD7F2B2D2073F9F48033E9F4AA24AA94AD0E89F0AE
:20536000C8010E94CB2B97FD0CC0282F2F7D283561F4C264D25029F0C8010E94CB2B97FF5F
:2053800008C0812C912C54011BC0B6FE2BC0C260DA2D812C912C540120ED280F283028F16F
:2053A000C4FD09C02A3008F1C6FF05C02F7D3FEE320F3630C8F0B8010E94072CC1FFB4CF7D
:2053C000C7FF08C0B094A09490948094811C911CA11CB11C2C2FB501A401C7010E94302942
:2053E00081E0A3CFC261D4CF27504C2FC501B4010E943C294B015C01C260D15009F3C801EF
:205400000E94CB2B97FFC8CFD9CFA0E2B0E0EBE0FAE20C94AC275C01962E7A01CE010196F1
:205420006C0180E2F60111928A95E9F7F501B381890130E020E0712C812CA0E041E050E025
:20544000F801B3FD8591B3FF8191982F8F01811107C010E000E0C801A096EDE00C94C827EE
:205460008E3519F42115310541F1A21713064CF48D3549F18D3229F4811006C088248394BA
:205480001DC0882009F464C0E92FE695E695E695EC0DFD2DF11D892F8770BA0101C0660F0C
:2054A0008A95EAF78081682B6083791651F0971510F49F5FE9CF9150E7CFA1E02F5F3F4F0B
:2054C000BFCF812CFBCF882019F08E8180628E83AA2359F0F6019E012F5D3F4F8081809538
:2054E00080833196E217F307C9F788248394C5010E94CB2B97FD16C0E82FE695E695E6951C
:20550000EC0DFD2DF11D208130E0AC014770552702C0359527954A95E2F720FD06C0B50130
:205520000E94072C882069F094CFE114F10429F0F7018083C70101967C019A94812C9110DC
:20554000D6CFE114F10409F486CFF701108283CFE82FE695E695E695EC0DFD2DF11D982F0E
:205560009770BA0101C0660F9A95EAF79081692B6083782EA3CFB0E0A0E0E1ECFAE20C942A
:20558000AA276C01EB015A01FC0117821682512CF601E380FE01E3FC8591E3FE8191182F53
:2055A000EF018823E9F090E00E94AD26892B21F0C6010E945F29ECCF153241F4FE01E3FCC7
:2055C0001591E3FE1191EF01153269F4C6010E94CB2B97FD8EC01817D9F2B6010E94072C47
:2055E000852D90E08AC000E01A3231F4E3FC1591E3FE1191EF0101E0F12C20ED210F2A3061
:2056000048F101FF37C0FF2059F31836B1F11C3609F43DC0112321F3612F70E082E691E0B2
:205620000E94C02B892BE1F2912C812C00FD06C0F50180809180C50102965C011E3679F5A5
:20564000F6014681578170E060E0202FC4010E9430299ECF02606F2D70E090E080E040E268
:205660000E943C29F62EFE01E3FC1591E3FE1191EF01C3CFFF24FA94C8CFFE01E3FC1591AA
:20568000E3FE1191EF01183609F0C4CF08600460FE01E3FC1591E3FE1191EF01BBCF133627
:2056A000C1F401FD02C0FF24F394C6010E94CB2B97FD1FC08114910429F0F4018083C401F9
:2056C00001964C01FA94F110F0CF00FD61CF53945FCF1B35B9F49E01A4016F2DC6010E9410
:2056E000052AEC01892B89F7F6018381807309F477CF8FEF9FEF511073CFCDB7DEB7EFE092
:205700000C94C627C6010E945F2997FDF2CF1F36A9F130F4143641F0193639F0006405C087
:205720001337B9F01537D1F70062202FA4016F2DC6010E9478298111C8CFD6CF811491046E
:2057400029F0F4016082C40101964C01FA94FF2071F0C6010E94CB2B3C0197FD08C00E9408
:20576000AD26892B59F3B601C3010E94072C8114910409F4AACFF4011082A7CF0061D5CF64
:20578000FC010590061621F00020D9F7C00108953197CF010895CF93DF93EC012B8120FF3B
:2057A0001AC026FF0CC02F7B2B838E819F8101969F838E838A8190E0DF91CF91089522FFC4
:2057C00018C0E881F9818081082E000C990B009729F420622B838FEF9FEFEECF3196F98337
:2057E000E8832E813F812F5F3F4F3F832E839927E3CFEA85FB85099597FFF3CF2B810196A6
:2058000021F080E2822B8B83E6CF80E1FBCFFB01238120FF11C026FD0FC08F3F980771F02A
:2058200082832F7D20642383268137812150310937832683992708958FEF9FEF0895F8948E
:20584000FFCFFFFFFF00FCE1A8A83C1B121BF71AA41A781A661AA61B6B1BFFFF2A1A021A46
:20586000312E340052656C6179204163747561746F7200501CC41B5A055A0500003C04806C
:20588000001F1C1F1E1F1E1F1F1E1F1E1F00000000F1055B0588055906B9059705AB05004F
:2058A000000000870683063A003C4E4F4E43453E004F4B004E41434B003F002100322E3301
:2058C0002E310025643A25640052656C6179310052656C6179320052656C617933005265D9
:2058E0006C61793B4D6F6465000D0A00FFFFFFFFFFFFFFFFFFFFFFFFFFFFFFFFFFFFFFFF9F
:2059000052656C6179320052656C6179330052656C61793B4D6F6465000D0A00FFFFFFFF58
:20592000FFFFFFFFFFFFFFFFFFFFFFFFFFFFFFFFFFFFFFFFFFFFFFFFFFFFFFFFFFFFFFFF87
:20594000FFFFFFFFFFFFFFFFFFFFFFFFFFFFFFFFFFFFFFFFFFFFFFFFFFFFFFFFFFFFFFFF67
:20596000FFFFFFFFFFFFFFFFFFFFFFFFFFFFFFFFFFFFFFFFFFFFFFFFFFFFFFFFFFFFFFFF47
:2059800025640052656C6179310052656C6179320052656C6179330052656C61793B4D6FFD
:2059A0006465000D0A00FFFFFFFFFFFFFFFFFFFFFFFFFFFFFFFFFFFFFFFFFFFFFFFFFFFF21
:2059C000FFFFFFFFFFFFFFFFFFFFFFFFFFFFFFFFFFFFFFFFFFFFFFFFFFFFFFFFFFFFFFFFE7
:2059E000FFFFFFFFFFFFFFFFFFFFFFFFFFFFFFFFFFFFFFFFFFFFFFFFFFFFFFFFFFFFFFFFC7
:205A0000FFFFFFFFFFFFFFFFFFFFFFFFFFFFFFFFFFFFFFFFFFFFFFFFFFFFFFFFFFFFFFFFA6
:205A2000FFFFFFFFFFFFFFFFFFFFFFFFFFFFFFFFFFFFFFFFFFFFFFFFFFFFFFFFFFFFFFFF86
:206D0000F9F48033E9F4AA24AA94AD0E89F0C8010E94A23897FD0CC0282F2F7D283561F45C
:206D2000C264D25029F0C8010E94A23897FF08C0812C912C54011BC0B6FE2BC0C260DA2DED
:206D4000812C912C540120ED280F283028F1C4FD09C02A3008F1C6FF05C02F7D3FEE320F3E
:206D60003630C8F0B8010E94DE38C1FFB4CFC7FF08C0B094A09490948094811C911CA11CFC
:206D8000B11C2C2FB501A401C7010E94073681E0A3CFC261D4CF27504C2FC501B4010E9421
:206DA00013364B015C01C260D15009F3C8010E94A23897FFC8CFD9CFA0E2B0E0E2EEF6E3CD
:206DC0000C942A355C01962E7A01CE0101966C0180E2F60111928A95E9F7F501B381890196
:206DE00030E020E0712C812CA0E041E050E0F801B3FD8591B3FF8191982F8F01811107C035
:206E000010E000E0C801A096EDE00C9446358E3519F42115310541F1A21713064CF48D3579
:206E200049F18D3229F4811006C0882483941DC0882009F464C0E92FE695E695E695EC0DFA
:206E4000FD2DF11D892F8770BA0101C0660F8A95EAF78081682B6083791651F0971510F463
:206E60009F5FE9CF9150E7CFA1E02F5F3F4FBFCF812CFBCF882019F08E8180628E83AA23A3
:206E800059F0F6019E012F5D3F4F8081809580833196E217F307C9F788248394C5010E943B
:206EA000A23897FD16C0E82FE695E695E695EC0DFD2DF11D208130E0AC014770552702C082
:206EC000359527954A95E2F720FD06C0B5010E94DE38882069F094CFE114F10429F0F701C4
:206EE0008083C70101967C019A94812C9110D6CFE114F10409F486CFF701108283CFE82F63
:206F0000E695E695E695EC0DFD2DF11D982F9770BA0101C0660F9A95EAF79081692B608378
:206F2000782EA3CFB0E0A0E0E8E9F7E30C9428356C01EB015A01FC0117821682512CF6012B
:206F4000E380FE01E3FC8591E3FE8191182FEF018823E9F090E00E940434892B21F0C60156
:206F60000E943636ECCF153241F4FE01E3FC1591E3FE1191EF01153269F4C6010E94A238EE
:206F800097FD8EC01817D9F2B6010E94DE38852D90E08AC000E01A3231F4E3FC1591E3FE83
:206FA0001191EF0101E0F12C20ED210F2A3048F101FF37C0FF2059F31836B1F11C3609F4D0
:206FC0003DC0112321F3612F70E082E691E00E949738892BE1F2912C812C00FD06C0F50198
:206FE00080809180C50102965C011E3679F5F6014681578170E060E0202FC4010E940736EA
:207000009ECF02606F2D70E090E080E040E20E941336F62EFE01E3FC1591E3FE1191EF01BD
:20702000C3CFFF24FA94C8CFFE01E3FC1591E3FE1191EF01183609F0C4CF08600460FE01DA
:20704000E3FC1591E3FE1191EF01BBCF1336C1F401FD02C0FF24F394C6010E94A23897FD6F
:207060001FC08114910429F0F4018083C40101964C01FA94F110F0CF00FD61CF53945FCFBD
:207080001B35B9F49E01A4016F2DC6010E94DC36EC01892B89F7F6018381807309F477CF46
:2070A0008FEF9FEF511073CFCDB7DEB7EFE00C944435C6010E94363697FDF2CF1F36A9F107
:2070C00030F4143641F0193639F0006405C01337B9F01537D1F70062202FA4016F2DC601B0
:2070E0000E944F368111C8CFD6CF8114910429F0F4016082C40101964C01FA94FF2071F0CA
:20710000C6010E94A2383C0197FD08C00E940434892B59F3B601C3010E94DE38811491045C
:2071200009F4AACFF4011082A7CF0061D5CFFC010590061621F00020D9F7C0010895319702
:20714000CF010895CF93DF93EC012B8120FF1AC026FF0CC02F7B2B838E819F8101969F832B
:207160008E838A8190E0DF91CF91089522FF18C0E881F9818081082E000C990B009729F49F
:2071800020622B838FEF9FEFEECF3196F983E8832E813F812F5F3F4F3F832E839927E3CFD8
:2071A000EA85FB85099597FFF3CF2B81019621F080E2822B8B83E6CF80E1FBCFFB012381F9
:2071C00020FF11C026FD0FC08F3F980771F082832F7D206423832681378121503109378360
:2071E0002683992708958FEF9FEF0895F894FFCFFFFFFF00FCE1A8A8B7228D226E221B2207
:20720000EF21DD212623EB22FFFFA1217921312E330052656C6179204163747561746F72BE
:2072200000010081244923AB06AB06010000F9068000010000001F1C1F1E1F1E1F1F1E1F29
:207240001E1F000000004207AC06D906AA070A07E806FC0600000000D807D4073C4E4F4E84
:2072600043453E004F4B004E41434B003F002100322E332E310025643A256400286E756D7B
:20728000293A286D6F6465290052656C6179310052656C6179320052656C61793300526551
:2072A0006C617973004D6F6465004655434B594F55000D0A0000FFFFFFFFFFFFFFFFFFFF5D
:2072C000FFFFFFFFFFFFFFFFFFFFFFFFFFFFFFFFFFFFFFFFFFFFFFFFFFFFFFFFFFFFFFFFCE
:2072E000FFFFFFFFFFFFFFFFFFFFFFFFFFFFFFFFFFFFFFFFFFFFFFFFFFFFFFFFFFFFFFFFAE
:20730000FFFFFFFFFFFFFFFFFFFFFFFFFFFFFFFFFFFFFFFFFFFFFFFFFFFFFFFFFFFFFFFF8D
:20732000FFFFFFFFFFFFFFFFFFFFFFFFFFFFFFFFFFFFFFFFFFFFFFFFFFFFFFFFFFFFFFFF6D
:2078000011E0A0E0B1E0E0EFFFE702C005900D92A630B107D9F721E0A6E0B1E001C01D92D5
:20782000AD34B207E1F7CDB7DEB72997DEBFCDBF112484B78093270114BE88E1809360007B
:2078400089E280936000259A86E020E295B1922795B93FE748E391E0315040409040E1F76B
:2078600000C00000815091F78091270181FD16C08EE284B981E58CBD81E08DBD412C512C71
:207880002224239433243394AA24AA94BA2C78E0972ECC24C394E3E0DE2E40C182E0809332
:2078A000C00088E18093C10086E08093C20080E18093C400E12CF12CC12CD12CAA24AA9438
:2078C000BA2C01E0A8952BD2813461F428D2898737D38985823821F0813811F485E64FC078
:2078E00083E04DC0823411F484E103C0853419F485E032D35FC0853541F411D2E82E0FD21D
:20790000F12CF82AEE0CFF1C54C0863521F484E023D380E034C08436E1F401D200D2882E97
:20792000FED1C80CD11C912C981480F4F8D1182FF6D1F701E90DF11D212F30E0382B09013A
:2079400007BFE895112493949394EECFC701A8D130C0843761F4E3D1E2D1182FE0D1F0D242
:20796000F70185917F01E5D21150D1F724C0853741F4E6D28EE1DDD285E9DBD28FE0D9D2B9
:2079800019C08135B1F4BA82A982BC82AB82C60134E0969587953A95E1F79E838D83C60120
:2079A00091D198878F83CE010196DDD2C9D211E002C0C6D210E080E1BCD2112309F482CFD8
:2079C00057CF43E050E060E070E089E291E0EED248E050E06BE171E0CE010196E7D229982D
:2079E0002A9A63E083E2D4D16CE485E2D1D167E286E2CED163E780E5CBD164E08DE3C8D135
:207A000061E082E2C5D161E081E2C2D161E08CE3BFD121E041E060E070E086E08CD1873286
:207A200009F028C180912A01809328018FEF80932A0180932B018093080163E584E2A8D1AE
:207A400043E26AE087E05FD161E08EEFC0D1109208016FE584E29CD180912A018F3F09F4F8
:207A600009C18091290181508E3F08F05AC030920D0110920E0143EC62E18FE044D160E09A
:207A80008FE0A5D18D819E8124E0880F991F2A95E1F718D198878F83FE013196ADE0B1E0EC
:207AA000892D01900D928A95E1F7D0921601C092150144EC62E580E026D163E081E087D13E
:207AC000882309F4D7C048E050E063E371E0CE0101965FD2892B09F4CDC080913701909139
:207AE0003801009709F045C08091390190913A018A379A4D09F041C08091330190913401D4
:207B00008130910571F500E010E06FEFC8015ED20F5F1F4F011524E01207B9F7F999FECF73
:207B200050CF43E262E083E0EED063E084E04FD1882309F496CF80912F0186958695869538
:207B4000E3E3F1E060E0815048F02191660F962F990F990F690F6053620FF5CF80E090E0D9
:207B600006C0029782309105C8F6609135012ED2D5CF8038974008F07DC0E3E3F1E0DE019B
:207B80001196892D01900D928A95E1F7EF80F884B886AF82CE010196E6D16D807E808981F5
:207BA0009A8190930E0180930D018B819C819093100180930F018301015011091093120132
:207BC0000093110144EC62E382E09DD063E083E0FED0882309F44BCF46E050E063E371E099
:207BE0008DE091E0D6D1892BD1F6C3018150904F282F22952077822E40E050E0622F70E08B
:207C0000DA01A45DBE4FFA01E60FF71F1E962C911E9730E0322F22271D96AC912A2B090146
:207C200027BEE89511244E5F5F4F4031510541F7811006C044E0880F991F4A95E1F730D0D2
:207C40000115110511F03801AACFF886EF828D819E8134E0880F991F3A95E1F733D08E1579
:207C60009F0521F01E821D8218861F82CE0101967AD154CF8D819E8124E0880F991F2A95BE
:207C8000E1F720D02F8138858217930709F046CF1CBCA89580912701282EF20109953ECF2C
:207CA00023E0FC0127BFE89507B600FCFDCF25E0FC0127BFE89507B600FCFDCF81E187BF4A
:207CC000E8950895BC01E0E0F0E08FEF9FEFE617F707C0F4E11528E7F207A0F42591822791
:207CE00048E0DC01B695A7959C01217033273195219531092170307AC9018A279B274150B1
:207D000081F7E5CF089590912901E6E0F1E0918390839FEF96838583448363830895809187
:207D2000C00087FFFCCF8091C00084FD01C0A8958091C60008952A989AE19A95F1F700C05A
:207D40008EBD0DB407FEFDCF8EB59FEF4150D0F0222369F09EBD0DB407FEFDCF8EB56115E0
:207D60007105A1F3DB018C936F5F7F4FEFCFFB013196DB018C918EBD0DB407FEFDCF8EB5C8
:207D8000BF01E4CF2A9ABAE1BA95F1F700C00895CF93DF931F92CDB7DEB7698320E041E0D2
:207DA000BE016F5F7F4FC7DF0F90DF91CF91089520E040E060E070E082EEBDDF20E040E0DA
:207DC00060E070E081EEB7DF60E787E2E1CFFF920F931F93CF93DF93F82ED62FC09109016F
:207DE000C695C695C695C95F10912A0129986EE080E2CEDF1093000120E045E060E071E006
:207E00008AE299DF20E045E060E071E080E393DF20E04C2F66E071E080EA8DDF299A8AE0DE
:207E20008A95F1F700C020E040E060E070E08FEF82DF8073C1F32998BBDF6FE080E2A8DFB2
:207E4000609129018AE2A4DF299A0FEF1FEFA89521E041E060E070E087E16DDF80FF02C065
:207E60008FEF4BC021E041E060E070E080E663DFC82F813208F0C0E021E04C2F6CE271E0C2
:207E800081E659DF95DF4C2F50E020912F0126952695269530E0295F3F4F4217530701F741
:207EA00090912E01809129019813DACF80913101909130019770933001F58830F1F4209140
:207EC0002A0190912801291302C09F3FB1F420912D01291304C090932A018EEF0EC0309173
:207EE000330191E0930F9093330140912B01341720F490932B0120932A0191E08F1190E0DA
:207F000088E08A95F1F70150110921F4892FD11105C009C0992309F49ACF04C0D150992387
:207F200009F45CCF81E0DF91CF911F910F91FF9008959091C00095FFFCCF8093C6000895B6
:207F4000EEDE803239F088E18093600088E080936000FFCF84E1EDCFCF93C82FE0DEC150AC
:207F6000E9F7CF91EDCF0F931F93CF93DF938C01CBE1D1E0F80161918F01CE0127D02196FB
:207F8000C332F1E0DF07B1F7DF91CF911F910F910895FB01DC0104C08D910190801921F4D6
:207FA00041505040C8F7881B990B0895DC01CB01FC01F999FECF06C0F2BDE1BDF89A31968C
:207FC00000B40D9241505040B8F70895262FF999FECF92BD81BDF89A019700B4021639F081
:167FE0001FBA20BD0FB6F894FA9AF99A0FBE089500FCE1A8A800C6
:00000001FF
