:100000000C94A8000C94A2150C947B150C94D000B1
:100010000C94D0000C94D0000C9421160C94D000B9
:100020000C94D0000C94D0000C94D0000C94D00010
:100030000C94D0000C94D0000C94D0000C94D00000
:100040000C9431150C94D0000C94EF150C94C91538
:100050000C94D0000C94D0000C94D0000C94D000E0
:100060000C94D0000C94D0006364696E6F7073754B
:1000700078585B00322E332E310A00207C5F5C2FD3
:10008000602C0A0702200220B287100340012000E2
:100090002402221002220202200222002220020256
:1000A000202227101341010101032220304020307B
:1000B0005203402214020310522402217101001045
:1000C000101210122210100224010103220300203A
:1000D000010100322037121001213226012840325E
:1000E000221210121222432224121001222470C163
:1000F00022240F0F0000000023002600290000002A
:100100000000240027002A0000000000250028002D
:100110002B00040404040404040402020202020288
:1001200003030303030301020408102040800102BB
:10013000040810200102040810200000000800023A
:10014000010000030407000000000000000040164A
:1001500011241FBECFEFD8E0DEBFCDBF11E0A0E07D
:10016000B1E0E2E0FFE302C005900D92AA39B107C9
:10017000D9F723E0AAE9B1E001C01D92A439B20782
:10018000E1F710E0C8EAD0E004C02197FE010E9428
:10019000881BC73AD107C9F70E94D1160C947F1F5C
:1001A0000C940000942FE7E4F3E03091F8013183E0
:1001B0008283668325834481487F492B477E44831D
:1001C000CF010895833081F028F4813099F0823096
:1001D000A9F008958730A9F08830C9F08430B1F4CF
:1001E000809180008F7D03C0809180008F77809305
:1001F0008000089584B58F7784BD089584B58F7D80
:10020000FBCF8091B0008F778093B00008958091EC
:10021000B0008F7DF9CF1F93CF93DF93282F30E06D
:10022000F901E65CFE4F8491F901EA5DFE4FD4913D
:10023000F901EE5EFE4FC491CC23A9F0162F811177
:100240000E94E200EC2FF0E0EE0FFF1FE85FFE4F90
:10025000A591B4918FB7F894EC91111108C0D09585
:10026000DE23DC938FBFDF91CF911F910895DE2BAA
:10027000F8CFCF93DF9390E0FC01EA5DFE4F24912D
:100280008E5E9E4FFC0184918823C9F090E0880F18
:10029000991FFC01E250FF4FA591B491FC01E85F6A
:1002A000FE4FC591D49161110DC09FB7F8948C9108
:1002B000209582238C938881282328839FBFDF91F8
:1002C000CF910895623051F49FB7F8943C91822FFA
:1002D000809583238C93E8812E2BEFCF8FB7F894F2
:1002E000EC912E2B2C938FBFEACF862F642F0C948A
:1002F00039011F93CF93DF93182FEB0161E00E9428
:100300003901209739F460E0812FDF91CF911F915F
:100310000C940B01CF3FD10511F461E0F5CFE12F33
:10032000F0E0E65CFE4FE491E33031F140F4E1307F
:10033000B1F0E230E1F0C038D1057CF7E4CFE7302E
:1003400029F1E83059F1E430B1F780918000806202
:1003500080938000D0938B00C0938A0004C084B542
:10036000806884BDC7BDDF91CF911F91089584B58A
:10037000806284BDC8BDF7CF809180008068809383
:100380008000D0938900C0938800EDCF8091B000A9
:1003900080688093B000C093B300E5CF8091B00037
:1003A00080628093B000C093B400DDCF3FB7F89473
:1003B0008091E3019091E401A091E501B091E60103
:1003C00026B5A89B05C02F3F19F00196A11DB11DB0
:1003D0003FBFBA2FA92F982F8827BC01CD01620FEC
:1003E000711D811D911D43E0660F771F881F991FA6
:1003F0004A95D1F708958F929F92AF92BF92CF9274
:10040000DF92EF92FF926B017C010E94D6014B01BB
:100410005C01C114D104E104F104B9F00E94D601D9
:10042000681979098A099B09683E7340810591051D
:1004300080F321E0C21AD108E108F10888EE880EA5
:1004400083E0981EA11CB11CE4CFFF90EF90DF90D9
:10045000CF90BF90AF909F908F9008952FB7F89452
:100460006091DF017091E0018091E1019091E201E2
:100470002FBF08950895AF92BF92CF92DF92EF926F
:10048000FF920F931F93CF93DF936C017B018B013E
:10049000040F151FEB015E01AE18BF08C017D1078E
:1004A00059F06991D601ED91FC910190F081E02D18
:1004B000C6010995892B79F7C501DF91CF911F916D
:1004C0000F91FF90EF90DF90CF90BF90AF90089585
:1004D000FC01538D448D252F30E0842F90E0821B4A
:1004E000930B541710F0CF96089501970895FC01CF
:1004F000918D828D981761F0A28DAE0FBF2FB11D27
:100500005D968C91928D9F5F9F73928F90E008957E
:100510008FEF9FEF0895FC01918D828D981731F038
:10052000828DE80FF11D858D90E008958FEF9FEF8C
:100530000895FC01918D228D892F90E0805C9F4F62
:10054000821B91098F73992708958CEF91E00E9487
:10055000990221E0892B09F420E0822F0895FC0103
:10056000A48DA80FB92FB11DA35ABF4F2C91848D14
:1005700090E001968F739927848FA689B7892C9371
:10058000A089B1898C91837080648C93938D848DC4
:10059000981306C00288F389E02D80818F7D8083C7
:1005A0000895EF92FF920F931F93CF93DF93EC0187
:1005B00081E0888F9B8D8C8D98131AC0E889F9890A
:1005C000808185FF15C09FB7F894EE89FF8960830D
:1005D000E889F98980818370806480839FBF81E08E
:1005E00090E0DF91CF911F910F91FF90EF900895D0
:1005F000F62E0B8D10E00F5F1F4F0F731127E02EAB
:100600008C8D8E110CC00FB607FCFACFE889F989E2
:10061000808185FFF5CFCE010E94AF02F1CFEB8D37
:10062000EC0FFD2FF11DE35AFF4FF0829FB7F894B6
:100630000B8FEA89FB8980818062CFCFCF93DF93D4
:10064000EC01888D8823B9F0AA89BB89E889F989EA
:100650008C9185FD03C0808186FD0DC00FB607FC1F
:10066000F7CF8C9185FFF2CF808185FFEDCFCE0152
:100670000E94AF02E9CFDF91CF91089580E090E032
:10068000892B29F00E94A50281110C940000089585
:10069000CF93DF93FC01218530E0F901E65CFE4F4A
:1006A0008491F901EA5DFE4FD491F901EE5EFE4FAF
:1006B000C491CC2379F081110E94E200EC2FF0E08C
:1006C000EE0FFF1FEC50FF4FA591B491EC91ED237D
:1006D00081E009F480E08170DF91CF9108951F934C
:1006E000CF93DF93EC01162F62E0812F0E94390136
:1006F00019871886CE010E944803882319F088853F
:10070000836088870E942E026A837B838C839D830B
:10071000DF91CF911F910895CF92DF92EF92FF92D8
:100720001F93CF93DF93EC0188858B7F8887CE0161
:100730000E944803182F8885869581701817B1F09C
:100740000E942E026A837B838C839D83888592E03E
:1007500089278887888582FB882780F9DF91CF9158
:100760001F91FF90EF90DF90CF9008950E942E028E
:10077000CA80DB80EC80FD80AB01BC014C195D09B7
:100780006E097F098E819F81B0E0A0E0481759076C
:100790006A077B07F8F2888581701817D9F20E94E2
:1007A0002E026A837B838C839D83888591E08927D1
:1007B000846088870E942E026A877B878C879D874A
:1007C000C9CF6093DA017093DB018093DC019093D1
:1007D000DD01645D7E4F8F4F9F4F6093D601709314
:1007E000D7018093D8019093D90182E090E0909353
:1007F000D5018093D4010E942E026093D0017093A2
:10080000D1018093D2019093D3010895CF92DF92CA
:10081000EF92FF920F931F930E942E028B019C0177
:10082000C090D001D090D101E090D201F090D301DE
:100830006091DA017091DB018091DC019091DD0122
:100840000C191D092E093F09083E134021053105E9
:10085000E0F0DC01CB010196A11DB11D8093DA010E
:100860009093DB01A093DC01B093DD01B701A601F9
:1008700048515C4F6F4F7F4F4093D0015093D1014F
:100880006093D2017093D301C7CF1F910F91FF9056
:10089000EF90DF90CF9008954F925F926F927F928A
:1008A0008F929F92AF92BF92CF92DF92EF92FF9280
:1008B0000F931F93CF93DF934B015C018091CC0189
:1008C0009091CD01A091CE01B091CF0188159905ED
:1008D000AA05BB0509F4C6C08CE3C82ED12CE12CB7
:1008E000F12CC501A70196010E94521B6093C5011E
:1008F000CA01B901A70196010E94521B6093C6016B
:10090000C501B40120E13EE040E050E00E94521BEE
:10091000CA01B90128E130E040E050E00E94521BDA
:100920006093C701C501B40120E831E541E050E022
:100930000E94521B69017A01CA01B9016C5F7F4FA5
:100940008F4F9F4F27E030E040E050E00E94521B65
:100950006F5F6093C801412C512C320140E004E6E6
:1009600010E0C0E9D1E0242F30E02E54384FF901D7
:10097000E370FF273097F9F4C901B8010E943E1BCC
:10098000892B31F4C901BE010E943E1B892B99F4C9
:100990008EE691E0A0E0B0E0480E591E6A1E7B1E74
:1009A000D301C201AA27BB27C816D906EA06FB064F
:1009B00038F04F5FD8CF8DE691E0A0E0B0E0ECCF0B
:1009C0004093CB01C90164E670E00E943E1BEC013C
:1009D000C90160E971E00E943E1B309721F4209725
:1009E000D9F40097C9F04DE651E060E070E0441A98
:1009F000550A660A770AC418D508E608F708AFE36F
:100A0000B1E020E0213069F43097E9F5209711F446
:100A10000097C9F54DE106C04EE651E060E070E098
:100A2000E6CF4C9150E070E060E031E0320FC41648
:100A3000D506E606F70640F0C41AD50AE60AF70A14
:100A40001196232F3C30F1F62F5F2093CA01C394F7
:100A5000C092C9018092CC019092CD01A092CE01AA
:100A6000B092CF01DF91CF911F910F91FF90EF9046
:100A7000DF90CF90BF90AF909F908F907F906F90BE
:100A80005F904F9008954CE1CDCFCF93CFB7F894BE
:100A90008091C401811127C0ECE1F1E08491E0E391
:100AA000F1E09491E82FF0E0EE0FFF1FE250FF4FCE
:100AB000A591B491EC91E92321F461E08AE00E94D0
:100AC0000B0161E08AE00E9439018CB580618CBD28
:100AD0008CB580648CBD61E08DE00E94390161E0DD
:100AE0008BE00E9439018091C4018F5F8093C40123
:100AF000CFBFCF9108958FB7F8948091C3018FBF76
:100B00000895CF92DF92EF92FF920F931F93CF93AE
:100B1000DF93D0E0C0E0062F10E0E82EF12CC017E4
:100B2000D1072CF5D12CC12CCE14DF04C4F461E024
:100B300088E00E940B0164E170E080E090E00E9498
:100B4000FB0160E088E00E940B0164E670E080E059
:100B500090E00E94FB018FEFC81AD80AE5CF64E647
:100B600070E080E090E00E94FB012196D8CFDF91F9
:100B7000CF911F910F91FF90EF90DF90CF9008954C
:100B80000C94E103FC0184818F71806484838381F0
:100B900087708061838370876783CF010895FC012C
:100BA000838187708860838384818F71806284836E
:100BB0006783CF010895E091E701F091E801309754
:100BC00021F00280F381E02D099408950F931F9383
:100BD0000E942E020091E9011091EA012091EB019F
:100BE0003091EC01601B710B820B930B1F910F91E5
:100BF00008959C018091E7019091E8018217930785
:100C0000F1F09091F1019F719093F1013093E8011F
:100C10002093E701E091E701F091E801309721F09E
:100C20000190F081E02D09950E942E026093E90168
:100C30007093EA018093EB019093EC010895809109
:100C4000F101805E8093F101E5CF0F931F930E9425
:100C5000E6052091F2012077203779F000E117E2D4
:100C600020E030E0061717072807390758F480E31B
:100C700091E01F910F910C94F90500E61AEE20E027
:100C800030E0F0CF1F910F9108958091F2018F70A5
:100C90008B3020F084E191E00C94F9050895809167
:100CA000F10184608093F1018091F201807880935A
:100CB000F201E091BE01F091BF01309709F0099473
:100CC0000895CF93C091F301CF3FA1F00E942E026F
:100CD0006093ED017093EE018093EF019093F0012A
:100CE0008091FA01C813C093FA0180E191E0CF919D
:100CF0000C94F9050E94E605613D77408105910558
:100D000068F08091F101803618F48CE091E0EFCF2B
:100D1000877F8093F10184E191E0E9CFCF9108953D
:100D20008091F8018F3F21F08CE091E00C94F9055F
:100D30000E94E605613D77408105910550F0809164
:100D4000F101803618F488E091E0F0CF89E191E07C
:100D5000EDCF08950E94E605613D7740810591053C
:100D600020F48091F10181FF17C08091F9018F3F3C
:100D700049F08091F1018E7F8093F10188E091E04C
:100D80000C94F9058091F101803618F484E191E02A
:100D9000F7CF89E191E0F4CF08958EBD00000DB446
:100DA00007FEFDCF8EB508958CBD9DBD0895CF93F0
:100DB000DF938CB5C9E8D3E08B838DB58C838D81AF
:100DC0009E810E94D40660E08881DF91CF910C94CF
:100DD0000B01CF93DF93C9E8D3E061E088810E94E3
:100DE0000B018B818CBD8C818DBDDF91CF910895DE
:100DF000CF930E94D70685E00E94CD0680E00E9436
:100E0000CD06C82F0E94E9068C2F8170CF910895DE
:100E1000CF93DF93C82F662331F060E086E00E9415
:100E200008070E94E9060E94D70685E00E94CD06C9
:100E300080E00E94CD06D82F0E94E906D0FDF3CFB6
:100E40000E94D7068C2FDF91CF910C94CD064F9244
:100E50005F926F927F928F929F92AF92BF92CF924A
:100E6000DF92EF92FF920F931F93CF93DF932B01AB
:100E70003C014A01E9019B01332780E091E0821B9C
:100E8000930BF12CE12C8E018C179D0708F48C013B
:100E900061E082E00E940807862D0E94CD06852D24
:100EA0000E94CD06842D0E94CD065401AE0CBF1CBD
:100EB0006501F60181916F010E94CD06C6018A1974
:100EC0009B0980179107A8F30E94E906400E511E66
:100ED000611C711CE00EF11EC01BD10B80E091E083
:100EE00091F6DF91CF911F910F91FF90EF90DF90DE
:100EF000CF90BF90AF909F908F907F906F905F90BA
:100F00004F9008950F931F93CF93DF93EC01888147
:100F10009981009759F02A813B812617370730F0D5
:100F200081E0DF91CF911F910F9108958B016F5F49
:100F30007F4F0E948E1B009759F0998388831B83F3
:100F40000A832C813D81232B59F7FC011082E8CFC5
:100F500080E0E7CFCF93DF93EC0188819981009700
:100F600011F00E947F18198218821D821C821B8238
:100F70001A82DF91CF9108950F931F93CF93DF9340
:100F8000EC010C811D810F5F1F4FB8010E94820789
:100F9000882391F0288139818C819D8165E671E0FB
:100FA000820F931F0E94611C1D830C83CE01DF9171
:100FB000CF911F910F910895CE010E94AA07F6CFFD
:100FC000CF92DF92EF92FF920F931F93CF93DF9315
:100FD000CDB7DEB762970FB6F894DEBF0FBECDBFB8
:100FE0008C01CB01F80111821082138212821582CA
:100FF00014824AE09E012F5F3F4F6901B9010E94B0
:101000004D19F60101900020E9F731977F01EC18A6
:10101000FD08B701C8010E948207811112C0C801F2
:101020000E94AA0762960FB6F894DEBF0FBECDBF2E
:10103000DF91CF911F910F91FF90EF90DF90CF90B4
:101040000895F801F582E482B601808191810E94C1
:10105000611CE8CFEF92FF920F931F93CF93DF9322
:10106000EC01FB01E080F180E114F10411F1048155
:10107000158101151105A9F08C819D81080F191F9B
:10108000B801CE010E948207882399F02881398116
:101090008C819D81B701820F931F0E94611C1D836B
:1010A0000C83CE01DF91CF911F910F91FF90EF90B4
:1010B0000895CE010E94AA07F4CFFC01808191819E
:1010C0000C947F18EF92FF920F931F93CF93DF93AF
:1010D000EC01198218821B821A821D821C828617DB
:1010E000970719F1FB010081118101151105E9F044
:1010F000E480F580B7010E948207811109C0CE010A
:10110000DF91CF911F910F91FF90EF900C94AA0760
:10111000FD82EC82B80188819981DF91CF911F9186
:101120000F91FF90EF900C94611CDF91CF911F9174
:101130000F91FF90EF900895CF92DF92EF92FF9280
:101140000F931F93CF93DF93C82F7B01142F022F90
:1011500080E590E00E94D4062A9880E190E0019713
:10116000F1F78C2F0E94CD06E7011150A0F000236B
:1011700049F08FEF0E94CD06E114F104B1F38883AA
:101180002196F3CF6E018FEFC81AD80A88810E948A
:10119000CD06E601EACF2A9AE0E1F0E03197F1F7D7
:1011A000DF91CF911F910F91FF90EF90DF90CF9043
:1011B0000895CF93DF931F92CDB7DEB7698320E008
:1011C00041E0BE016F5F7F4F0E949C080F90DF914E
:1011D000CF9108958091F201982F9077903759F030
:1011E000982F92959F709F5F97709295907F8F78C0
:1011F000892B8093F2018091F1018B7F8F7E809308
:10120000F10129986CE080E20C94D9086FE080E24B
:101210000E94D908609134016F3F19F08AE20E9460
:10122000D908299A089521E041E070E060E00C942B
:101230009C0820E040E070E060E00C949C08CF93B4
:10124000C82F8093F8018F3F51F08093340163E001
:1012500082E20E94D90861E081E20E94D9080E94DE
:1012600006096C2F90E080E00E944D1A81E0CF913A
:101270000895CF93219A229A29982A9A0E94450587
:1012800029986EE080E20E94D90884E293E20197F7
:10129000F1F763E083E20E94D9086FE584E20E94DF
:1012A000D9086CE485E20E94D90867E286E20E94D0
:1012B000D90864E08DE30E94D9088DE10E941309EA
:1012C000843041F063E780E50E94D90864E08DE353
:1012D0000E94D90886E00E941309873209F04DC0A8
:1012E00085E00E9413098C3409F047C062E082E275
:1012F0000E94D90860E081E20E94D90863E08CE393
:101300000E94D908CFEFC093030120E045E063E0DD
:1013100071E08BE20E949C0820E045E063E071E010
:101320008AE20E949C0820E045E063E071E080E3EF
:101330000E949C0882EE0E94190981EE0E94190900
:1013400060E787E20E94D9088091F1018061809373
:10135000F1018091FB018E7F8093FB018091F80168
:101360008F3F19F484E191E00AC09FEF980F9E3FF0
:1013700048F40E941F098111F5CF89E191E0CF91D6
:101380000C94F905C093F801F8CFE1EFF1E080810A
:10139000877F8F7E80831092ED011092EE01109274
:1013A000EF011092F0010E942E026093A101709350
:1013B000A2018093A3019093A40144E050E070E067
:1013C00060E088EF91E00C94251A1F93CF93DF9390
:1013D00061E08EE00E94390161E08FE00E943901F6
:1013E00061E080E10E94390161E083E00E943901FF
:1013F00061E085E00E94390161E086E00E943901E8
:1014000061E088E00E94390161E170E089E393E0E6
:101410000E946F03C5E0D0E0D0934003C0933F0328
:1014200062E170E08BE293E00E946F03D09332039D
:10143000C093310363E170E08DE193E00E946F039C
:10144000D0932403C09323038EE991E00E94351AC0
:10145000C82FD0E0D093A601C093A5018FE991E0F9
:101460000E94351A90E09093B5018093B4012497BF
:1014700014F4029754F081E090E09093A6018093D9
:10148000A5011092B5011092B40182EA91E00E9488
:10149000351A11E0811101C010E01093C20183EAF6
:1014A00091E00E94351AD1E0811101C0D0E0D093C3
:1014B000C10184EA91E00E94351AC1E0811101C0A6
:1014C000C0E0C093C001612F8EE00E940B016D2F20
:1014D0008FE00E940B016C2F80E1DF91CF911F9173
:1014E0000C940B01EF92FF920F931F93CF93DF9316
:1014F0007C01FC01C2818091F10180FF72C080E01B
:10150000CF3F09F067C0DFEF8091F801F7018083DA
:101510004381C0E242FD05C0469546954695C7E029
:10152000C40F1091FB01012F0170299880E091E018
:101530000197F1F76EE080E20E94D90884EC90E018
:101540000197F1F76D2F8AE20E94D9086D2F80E391
:101550000E94D90881EE0E941909DF3F11F080EA4C
:10156000011180EB4C2FC13208F040E220E0B701BE
:101570000E949C08299AF12CE12C8FEF0E941909F6
:10158000C82F807321F4F1E0EF1AF108B1F7299820
:1015900060E387E20E94D908C4FF03C081EE0E9485
:1015A00019090E940609C5FD11E081E0DF3F09F03D
:1015B00080E01170812B9091F9019D130BC09091E7
:1015C000F201811125C021E0290F2F70907F922B0D
:1015D0009093F201DF91CF911F910F91FF90EF90C7
:1015E0000895D091F901CC2309F48ECFCF3F09F4AF
:1015F0008ACF8C2F90E003960E94351A8F3F31F4EA
:10160000F70180818D1380CFDC2F7ECFD82F7CCF48
:10161000907FDECF2091F10122FD0C94720A80E0D0
:101620000895FC018091F80181839481907F9160FD
:1016300094838091F70180FF03C0CF010C940A0BC3
:1016400080E008958FEF8093F301E1EFF1E0808176
:101650008860808328E143E06FEF80E00E94D20041
:1016600061E00E94CF050C94720A0F931F93CF93F1
:10167000DF93EC01E0E06115710551F0FB01019091
:101680000020E9F73197E61BF70BE931F10500F58A
:101690000E2F10E08B818770980193E0220F331F8B
:1016A0009A95E1F7822B8B838C818F718C83EE234B
:1016B00029F0A801CE0107960E94681CFE01E00FE8
:1016C000F11F1782CE01DF91CF911F910F910895E5
:1016D000E9E1DECF1F93CF93DF93182F262FEA0186
:1016E00040E0682F80E00E94D2001F3F11F4C7E65F
:1016F000D1E0BE010E94350BDF91CF911F910C9478
:101700000A0B21E043E06FEF80E00E94D20068E91D
:1017100071E00E94350B0C940A0B8091F8018F3F09
:10172000B1F40E942E026F3F79F06093180123E01C
:1017300043E06091180180E00E94D20068E971E006
:101740000E94350B0C94720A10921801F0CF089584
:10175000E1EFF1E08081897F81608083E8EFF1E053
:101760008FEF8283818327E043E06FEF0E94D200F6
:1017700068E971E00E94350B0C94720AFC01248127
:10178000229526952770213011F487810895211123
:1017900004C007960E940819089580E00895EF920A
:1017A000FF920F931F93CF93DF93CDB7DEB7689768
:1017B0000FB6F894DEBF0FBECDBF8C01FC01858152
:1017C000823089F4F680F7E0FF1669F0C8010E94C4
:1017D000BE0B61E070E0811102C070E060E08F2D0F
:1017E00090E00E947412F80185818331B9F48681FA
:1017F0008035A1F0948194FD11C0823509F4A4C014
:10180000833509F4A9C0813549F46091C20181E0B2
:10181000682770E081E590E00E947412F8018581EC
:10182000883109F084C08681873109F080C0095F62
:101830001F4FF80101900020E9F7CF01801B910BA9
:101840000E94E317F82EE92EB8010E94611C84EB78
:1018500091E09F938F9385EA91E09F938F938DE61C
:1018600091E09F938F93EF92FF920E94771C60917B
:10187000A5017091A6010FB6F894DEBF0FBECDBFD3
:101880006430710584F48091B4019091B5010297A0
:1018900054F48EE991E00E944D1A6091B4018FE9F1
:1018A00091E00E944D1A6091B4017091B501CE0192
:1018B0000D960E94E0076091A5017091A601CE01EE
:1018C00001960E94E007BE016F5F7F4FCE01079631
:1018D0000E946208CE0107960E94BC07BE01635FAA
:1018E0007F4F0E942A08BC01CE0143960E946208E5
:1018F000CE0107960E945D08CE0101960E945D0808
:10190000CE010D960E945D080B891C896AE070E08B
:1019100080E090E00E944C12B80189E992E00E94B8
:10192000350B0E94110BCE0143960E945D0868960C
:101930000FB6F894DEBF0FBECDBFDF91CF911F91E0
:101940000F91FF90EF9008956091C10181E06827A9
:1019500070E082E590E060CF6091C00181E068278F
:1019600070E083E590E058CF3F924F925F926F9284
:101970007F928F929F92AF92BF92CF92DF92EF921F
:10198000FF920F931F93CF93DF93CDB7DEB72A97C4
:101990000FB6F894DEBF0FBECDBF8091F10184FB7E
:1019A000CC24C0F884FFDAC30E942E020091A1016A
:1019B0001091A2012091A3013091A401601B710B31
:1019C000820B930B613A7B4B8D409105A0F00E94F6
:1019D0002E026093A1017093A2018093A3019093C2
:1019E000A40186E00E941309873209F4BFC089E18F
:1019F00091E00E94F905B6E0FB2E16E0E12E00E52D
:101A0000D02E88248A949924939483E0A82E82E08F
:101A1000B82E87E10E94130980FD7BC3FA94FF2052
:101A200009F477C321E041E070E060E080E60E94C5
:101A30009C08182F813220F082EE0E94190910E0D4
:101A400021E0412F68E673E081E60E949C0860E493
:101A500087E20E94D90880916B03582E56945694C1
:101A6000569449E1451510F4A9E15A2E97E0950DD9
:101A700082FD90E29113CDCF8370823051F6709049
:101A80006C0310916D0300916903409068036090AE
:101A90006A038091F901481651F08091F801081706
:101AA00031F0802F90E0642D03960E944D1A872D0F
:101AB0008770782E8091F20180688093F201809186
:101AC000F8016812A6C280916B03282F26952695EF
:101AD00026952A3108F029E198E0299F90011124E8
:101AE0008770822B80936B03E52DF0E0E859FC4F63
:101AF000178280916C0383FF15C091E2E8E6F3E062
:101B0000A7E4B3E001900D929A95E1F7877F806199
:101B100080934B03609248030093490387E493E06A
:101B20000E940A0B90916C0394FD24C123E0721271
:101B300029C180916D0321EF280F233008F469CF6C
:101B40001430F9F480916E0390911801891719F0FF
:101B50008F3F09F05ECF88E693E00E94BE0B9FEFB7
:101B6000980F9E3F50F40E941F0953CF85E00E94BA
:101B700013098C3409F03BCF3ECF8FEF8093F801EF
:101B800048CF1830D9F41091F10110FF42CF88E608
:101B900093E00E94BE0B8F3F09F43BCF8F5F8F3FD6
:101BA00009F437CF9091FA01891708F032CF11FD6F
:101BB00030CF8093FA010093F9012BCF183151F403
:101BC00029E143E06FEF802F0E94D20061E00E9484
:101BD000CF051FC0193171F48091F10183FF19CF36
:101BE000877F8093F10188E693E00E94BE0B80938B
:101BF000F3010FCF1E3109F40CCF1D3169F42FE131
:101C000043E06FEF80E00E94D20060E07FEF0E942F
:101C1000C2050E94720AFDCE209169032111AFC056
:101C20008D3059F488E198E00FB6F894A895809328
:101C300060000FBE90936000FFCF8B3179F488E68F
:101C400093E00E94BE0B91E0811101C090E0809171
:101C5000F70190FB80F98093F701DBCE8630A1F489
:101C600090916F038C2D992321F081E09D3409F030
:101C700080E08093F60141E050E063E071E086EFA0
:101C800091E00E943D1AC5CE833119F40E94B4142C
:101C9000C0CE8231D9F40E94E6052B013C0126E139
:101CA00043E06FEF80E00E94D200FC0184818F71DD
:101CB000806A8483838187708062838347825086B1
:101CC00061867286CF010E940A0BA3CE8230A1F4F6
:101CD00022E043E06FEF80E00E94D200FC018481AB
:101CE0008F71806A84838381877080628383878217
:101CF0009086A186B286E6CF8130D9F492959695EA
:101D00009770953059F460916F03709170038091D2
:101D10007103909172030E94E1037BCE911105C083
:101D20008FE693E00E942619F6CF60E070E0CB01C9
:101D3000F2CF8A30E1F480916F03833409F069CEE9
:101D400003E010E06FEFC8010E944D1A0F5F1F4FB4
:101D5000033041E01407B1F72AE043E06FEF80E081
:101D60000E94D20063E771E00E94350BACCF8C314A
:101D700009F44FCE88E693E00E94CF0B4ACE8A3119
:101D8000C9F747CE84E07812F5CF10916D0311307A
:101D900009F085C08091A70181113BCE48E050E059
:101DA0006FE673E086EB91E00E944B1C892B11F3E8
:101DB00088E0EFE6F3E0A6EBB1E001900D928A95A2
:101DC000E1F78CB580938C038DB580938D0361E032
:101DD000809189030E9439010E944505D0928E03AB
:101DE00010938F030E94E90660E08BEA0E940807C7
:101DF0000E94E90680918A0390918B03892B91F5CB
:101E000061E081E00E94080780E00E94CD060E9408
:101E1000E90661E082E50E94080780E00E94CD06A5
:101E200080E00E94CD0680E00E94CD060E94E90677
:101E30000E94F8068111FCCF8091BA019091BB01FC
:101E40009093A00180939F0181E08093A701E0928D
:101E50009E0110929A0110929B0110929C01109287
:101E60009D01D7CD0E94D7068FE90E94CD0680E064
:101E70000E94CD06082F10E0102F002780E00E945E
:101E8000CD06082B0E94E90680918A0390918B036E
:101E90008017910709F4B4CF1092A701BACD13307F
:101EA00009F068CF8091A701882309F4B2CD009191
:101EB00073031091740360919F017091A001CB0195
:101EC00001970817190709F0A4CDE4E0660F771F02
:101ED000EA95E1F76650710990E080E020E130E09A
:101EE00045E753E00E9427070E94F8068111FCCFC6
:101EF0001093A00100939F01012B09F0A8CF10922D
:101F0000A7016AE0462E512C612C712C0FEF1FEFB8
:101F10008091BA019091BB0154E0880F991F5A95A6
:101F2000E1F7B0E0A0E0B301A2014A505109610914
:101F30007109481759076A077B0740F560E083E09D
:101F40000E940807862D0E94CD06852D0E94CD0691
:101F5000842D0E94CD0680E00E94CD06382E0E947E
:101F6000E906032588E09801217033271695079527
:101F7000232B21F091E0092790EA1927815099F746
:101F80002FEF421A520A620A720AC2CF8091BC0134
:101F90009091BD010817190709F059CF48E050E0AA
:101FA0006BE171E086EB91E00E943D1A8091BA01ED
:101FB0009091BB0124E0880F991F2A95E1F726E450
:101FC00029832CE42A8328E52B8329E42C832DE420
:101FD0002D8327E42E832AE32F832A8798878987F6
:101FE0002AE030E0AE014F5F5F4F60E070E0CB0170
:101FF0000E9427070E94F8068111FCCF88E198E033
:102000000FB6F894A895809360000FBE909360007F
:10201000FFCF4FEF641264C083E0781246C0809116
:10202000F10182FF26C0173021F58091F9010817D0
:1020300009F4EFCC0E942F11882309F4EACC0E9406
:102040002E026093ED017093EE018093EF01909367
:10205000F0010E942E027370882799270E94FB01CD
:1020600028E043E06FEF802F0E94D2006091FA01D8
:10207000AECD183009F4CDCC1431B9F48091F9010A
:10208000481213C00E942E027370882799270E945D
:10209000FB0125E143E06FEF802F0E94D2006091A9
:1020A000F9010E94CF050E94720A8091F90148123D
:1020B000B0CC8091F801081709F49AC08091F10121
:1020C00082FF96C088E693E00E94720A93E0791638
:1020D00009F49FCC8091F901481609F44BCE99CCB4
:1020E0008091F10182FF95CC23E072120FC018514C
:1020F000123060F488E693E00E94BE0B8E3F31F010
:1021000061E0680F88E693E00E94CF0588E693E0DF
:1021100080CD8091F10182FF21C00E942E0220918A
:10212000A7012223D9F000919A0110919B012091DF
:102130009C0130919D016B017C01C01AD10AE20A19
:10214000F30A97018601053F11402105310530F062
:1021500020919E0121111AC01092A7012A960FB654
:10216000F894DEBF0FBECDBFDF91CF911F910F91CD
:10217000FF90EF90DF90CF90BF90AF909F908F90A7
:102180007F906F905F904F903F90089521502093E3
:102190009E0160939A0170939B0180939C019093A0
:1021A0009D01C090B601D090B701E090B801F090C9
:1021B000B90100919F011091A0010150110922E085
:1021C00044E06FEF80E00E94D200FC0183818770C1
:1021D0008063838384818F71806C8483D086C7827F
:1021E000F286E18614870387CF010E940A0BB6CFDF
:1021F00083E07812BFCD0DCCCF92DF92EF92FF92A9
:10220000CF93DF93D82F0E942E026B017C01109296
:102210006D03C0E00E942E026C197D098E099F0992
:10222000603D77408105910590F4C11110C0A895DB
:102230000E94DB050E94B40C80916C038770833090
:1022400049F7C1E080916D038D13E3CFE3CF8C2F6D
:10225000DF91CF91FF90EF90DF90CF900895CF92D4
:10226000DF92EF92FF92CF930E942E02C090ED0179
:10227000D090EE01E090EF01F090F0016C197D0933
:102280008E099F09603177428105910510F481E044
:1022900008C08091F10183FBCC27C0F983FF07C000
:1022A00080E0CF91FF90EF90DF90CF9008959091D4
:1022B000F80191111CC01092F3018091F101877F08
:1022C0008093F101C091F301CF3F51F30E942E02A0
:1022D0006093ED017093EE018093EF019093F00114
:1022E0008091FA018C1799F2C093FA01D0CF8860DF
:1022F0008093F1018FEF8093F30128E143E06FEFCA
:1023000080E00E94D20061E00E94CF050E94720A24
:102310000E942E026B017C0110926D030E942E021E
:102320006C197D098E099F09603D774081059105F3
:1023300020F6C111C2CF0E94B40CA89580916C0305
:102340008770833059F7C1E080916D03893131F393
:10235000C0E0E4CFCF93DF93CDB7DEB768970FB679
:10236000F894DEBF0FBECDBF0E942F11811104C0B3
:1023700062E084E00E9481058091F10182FF04C047
:1023800061E082E00E9481056091B4017091B50125
:10239000CE010D960E94E0076091A5017091A60103
:1023A000CE0101960E94E007BE016F5F7F4FCE0114
:1023B00007960E946208CE0107960E94BC07BE01E4
:1023C000635F7F4F0E942A08BC01CE0143960E94A2
:1023D0006208CE0107960E945D08CE0101960E9418
:1023E0005D08CE010D960E945D086B897C8989E9A4
:1023F00092E00E94350B0E94110B82EA91E00E944C
:10240000351A61E070E0811102C070E060E08CEF8D
:1024100092E00E94C2050E94110B8091A50190914B
:10242000A601029784F083EA91E00E94351A61E0E8
:1024300070E0811102C070E060E08BED92E00E94DC
:10244000C2050E94110B8091A5019091A6010397EE
:1024500084F084EA91E00E94351A61E070E0811115
:1024600002C070E060E08AEB92E00E94C2050E9428
:10247000110B0E94810B61E088E00E940B01CE01EC
:1024800043960E945D0868960FB6F894DEBF0FBEB3
:10249000CDBFDF91CF9108958F929F92AF92BF925F
:1024A000CF92DF92EF92FF924B015C010E942E02CD
:1024B0006B017C010E942E026C197D098E099F0917
:1024C000681579058A059B0530F4A8950E94DB05FF
:1024D0000E94B40CEFCFFF90EF90DF90CF90BF90B1
:1024E000AF909F908F900895CF93DF93EB0182354B
:1024F000910511F183359105B9F18135910509F007
:102500004BC08EE00E940B016AE070E080E090E03A
:102510000E944C12BE018CEF92E00E94C2050E9404
:10252000110B8C2F81708093C2016C2F82EA91E095
:10253000DF91CF910C944D1A8FE00E940B016AE05D
:1025400070E080E090E00E944C12BE018BED92E0C2
:102550000E94C2050E94110B8C2F81708093C101D3
:102560006C2F83EA91E0E4CF80E10E940B016AE0E6
:1025700070E080E090E00E944C12BE018AEB92E095
:102580000E94C2050E94110B8C2F81708093C001A4
:102590006C2F84EA91E0CCCFDF91CF910895CF9258
:1025A000DF92EF92FF920F931F93CF93DF9389E314
:1025B00093E00E948C03F82E8BE293E00E948C0340
:1025C000182F8DE193E00E948C03C82FE090410307
:1025D00000913303D09125038091B4019091B5010E
:1025E000892B09F5FF2049F06091C20181E068273D
:1025F00070E081E590E00E947412112349F060912F
:10260000C10181E0682770E082E590E00E947412C9
:10261000CC2349F06091C00181E0682770E083E538
:1026200090E00E9474128091B4019091B5010197DD
:1026300039F5FF2059F0E0FC09C06091C20181E04A
:10264000682770E081E590E00E947412112359F030
:1026500000FD09C06091C10181E0682770E082E55A
:1026600090E00E947412CC2359F0D0FD09C0609113
:10267000C00181E0682770E083E590E00E94741259
:102680000E9406040E944C048091C701882311F027
:10269000C0E011C00E9406040E944C048091C60153
:1026A0008111F6CF0E9406040E944C04C1E0809183
:1026B000C5018111EDCF0E9406040E944C04809157
:1026C000C7018C3011F080E011C00E9406040E9406
:1026D0004C048091C6018111F6CF0E9406040E942D
:1026E0004C0481E09091C5019111EDCFC11102C060
:1026F000882341F064EF71E080E090E00E944C128A
:102700000E94810BC090B001D090B101E090B20165
:10271000F090B3018091C201882309F498C020E0B1
:1027200030E0A901C701B6010E94391B1816DCF47C
:1027300020E030E040E85FE3C701B6010E94961A4E
:102740006093B0017093B1018093B2019093B30193
:102750000E94031B83E00E94790165E070E080E045
:1027600090E00E94FB01C090AC01D090AD01E090E0
:10277000AE01F090AF018091C101882309F47AC0C5
:1027800020E030E0A901C701B6010E94391B1816EC
:10279000DCF420E030E040E85FE3C701B6010E94CE
:1027A000961A6093AC017093AD018093AE01909343
:1027B000AF010E94031B85E00E94790165E070E093
:1027C00080E090E00E94FB01C090A801D090A90198
:1027D000E090AA01F090AB018091C001882309F438
:1027E0005CC020E030E0A901C701B6010E94391B9E
:1027F00018160CF05CC020E030E040E85FE3C70151
:10280000B6010E94961A6093A8017093A901809363
:10281000AA019093AB010E94031B86E00E947901FC
:1028200065E070E080E090E0DF91CF911F910F9123
:10283000FF90EF90DF90CF900C94FB0120E030E010
:1028400040E85FE3C701B6010E94971ADCCF20E0A1
:1028500030E046E153E4C701B6010E94A81987FFA2
:1028600082CF20E030E040E85FE3C701B6010E947C
:10287000971A66CF20E030E046E153E4C701B60185
:102880000E94A81987FFA0CF20E030E040E85FE376
:10289000C701B6010E94971A84CF20E030E046E1DC
:1028A00053E4C701B6010E94A81987FDC7CFDF9185
:1028B000CF911F910F91FF90EF90DF90CF900895EF
:1028C0002BE043E06FEF80E00E94D20061E271E014
:1028D0000E94350B0E940A0B2CE043E06FEF80E072
:1028E0000E94D2006DE171E00E94350B0E940A0B3C
:1028F00062E370E080E090E00E944C1246E751E015
:1029000063E081E50E946A0B62E370E080E090E0A2
:102910000E944C128091A5019091A601029764F04B
:102920004DE751E063E082E50E946A0B62E370E0EC
:1029300080E090E00E944C128091A5019091A60148
:10294000039734F044E851E063E083E50E946A0BAA
:1029500062E370E080E090E00E944C124BE851E0AE
:1029600068E187E10C946A0BCF93DF93C7E4D3E06F
:102970008B81877080658B838C818871846C8C835C
:1029800088E0E6EBF1E0AEE4B3E001900D928A95C9
:10299000E1F783E090E0988B8F871092A70120E009
:1029A00044E06FEF80E00E94D2000E940A0B2FE00B
:1029B00043E06FEF80E00E94D20068E971E00E947E
:1029C000350B8B81877080618B838C818F71806CDC
:1029D0008C8381E08F831886CE010E940A0B8FE0E2
:1029E0000E94FC1048E951E062E18FEF0E946A0BFF
:1029F00026E043E06FEF80E00E94D2006091F90191
:102A00000E94CF050E940A0B86E00E94FC10DF9115
:102A1000CF910C946014CF938091F70181FD1FC07A
:102A20000E94B4148091F70181608093F701C4E0A3
:102A30002AE143E06FEF80E00E94D20062E00E9452
:102A4000CF050E940A0B8BE10E94FC10811102C08D
:102A5000C15071F78091F70182608093F701CF91A7
:102A600008951F920F920FB60F9211242F933F9348
:102A70008F939F93AF93BF938091DF019091E0017B
:102A8000A091E101B091E2013091DE0126E0230F37
:102A90002D3758F50296A11DB11D2093DE018093BC
:102AA000DF019093E001A093E101B093E2018091F6
:102AB000E3019091E401A091E501B091E601019656
:102AC000A11DB11D8093E3019093E401A093E50162
:102AD000B093E601BF91AF919F918F913F912F915C
:102AE0000F900FBE0F901F90189529E8230F0396A3
:102AF000A11DB11DD2CF1F920F920FB60F921124BC
:102B00002F933F934F935F936F937F938F939F93F5
:102B1000AF93BF93EF93FF93E0913701F0913801AA
:102B20000995FF91EF91BF91AF919F918F917F9107
:102B30006F915F914F913F912F910F900FBE0F902A
:102B40001F9018951F920F920FB60F9211242F937A
:102B50003F934F935F936F937F938F939F93AF9325
:102B6000BF93EF93FF93E0913501F0913601099502
:102B7000FF91EF91BF91AF919F918F917F916F9155
:102B80005F914F913F912F910F900FBE0F901F902B
:102B900018951F920F920FB60F9211242F933F9307
:102BA0004F935F936F937F938F939F93AF93BF9355
:102BB000EF93FF938CEF91E00E94AF02FF91EF91B2
:102BC000BF91AF919F918F917F916F915F914F9145
:102BD0003F912F910F900FBE0F901F9018951F924D
:102BE0000F920FB60F9211242F938F939F93EF9311
:102BF000FF93E0910C02F0910D028081E0911202AE
:102C0000F091130282FD1BC09081809115028F5FAD
:102C10008F7320911602821741F0E0911502F0E0C7
:102C2000E450FE4F958F80931502FF91EF919F9195
:102C30008F912F910F900FBE0F901F90189580814C
:102C4000F4CF1F920F920FB60F9211240F900FBE68
:102C50000F901F901895CF93DF93FC011082118283
:102C60001282148215821682DC0117968AE1ED0128
:102C700019928A95E9F782E08383DF91CF910895D5
:102C8000CF93ECEFF1E01382128288EE93E0A0E0A4
:102C9000B0E084839583A683B7838FE491E091832A
:102CA000808385EC90E09587848784EC90E097871B
:102CB000868780EC90E0918B808B81EC90E0938B09
:102CC000828B82EC90E0958B848B86EC90E0978BE6
:102CD000868B118E128E138E148EE9E8F3E080E558
:102CE000858381E0868388E0808385E69FE1928307
:102CF000818388E693E00E942B1687E493E00E948C
:102D00002B16E9E3F3E021E631E0318320831282E0
:102D10001382148215828AE090E09783868310865E
:102D20001186EBE2F3E03183208312821382148256
:102D300015829783868310861186EDE1F3E0318357
:102D400020831282138214821582978386831086D1
:102D500011868CEF92E00E942B16ECEFF2E081E5F9
:102D60008683C2E0C5838BED92E00E942B16EBEDCB
:102D7000F2E082E58683C5838AEB92E00E942B16FF
:102D8000EAEBF2E083E58683C58389E992E00E945D
:102D90002B16E9E9F2E087E1868388E18583CF910C
:102DA0000895789484B5826084BD84B5816084BDC3
:102DB00085B5826085BD85B5816085BD80916E00D9
:102DC000816080936E00109281008091810082600A
:102DD0008093810080918100816080938100809147
:102DE00080008160809380008091B1008460809336
:102DF000B1008091B00081608093B00080917A0032
:102E0000846080937A0080917A00826080937A0057
:102E100080917A008E7F80937A0080917A0080681A
:102E200080937A001092C100A89580E090E0892BF1
:102E300011F00E940000E0910C02F0910D0282E07E
:102E40008083E0910802F09109021082E0910A0269
:102E5000F0910B0287E6808310921402E091100239
:102E6000F091110286E08083E0910E02F0910F0252
:102E7000808180618083E0910E02F0910F02808159
:102E800088608083E0910E02F0910F02808180685B
:102E90008083E0910E02F0910F0280818F7D80830C
:102EA000C0E1D0E0F12CFE01F595E795E558FF4F24
:102EB000E491C0FF7AC0EF70E83008F078C0F0E02D
:102EC000E558FF4FF4906F2D8CEF91E00E94D102F6
:102ED0002196C23FD10539F7C4E7D0E0FE016491E5
:102EE000662339F08CEF91E00E94D1022196892B64
:102EF000A9F742E050E066E971E08CEF91E00E94B2
:102F00003B028091F7018D7F8093F7010E94E509D4
:102F100041E050E063E071E086EF91E00E94251A05
:102F200048E050E06BE171E086EB91E00E94251AE9
:102F30006FEF81E090E00E944D1A8091F2018F784E
:102F40008093F2011092E8011092E70180E391E092
:102F50000E94F9058BE095E19093BF018093BE013B
:102F60000E942E020E942E020E94DB050E94B40CD9
:102F70008091F10182FB882780F9A895882391F33D
:102F80000E94AA11A895C0E0D0E0A8950E94DB0598
:102F90000E94B40C0E94CF122097B9F30E94A502A0
:102FA000882399F30E940000F0CFE29584CF1BEFB5
:102FB0001E0F00E06F2D8CEF91E00E94D1020F5F99
:102FC0000117C0F385CF0F931F93CF93DF93823008
:102FD000910510F482E090E0E0919203F091930368
:102FE00030E020E0B0E0A0E0309799F42115310501
:102FF00009F44AC0281B390B24303105D8F58A81E1
:103000009B816115710589F1FB0193838283FE0128
:1030100011C0408151810281138148175907E0F0A6
:103020004817590799F4109761F012960C9312976C
:1030300013961C933296CF01DF91CF911F910F9180
:1030400008950093920310939303F4CF2115310553
:1030500051F04217530738F0A901DB019A01BD0175
:10306000DF01F801C1CFEF01F9CF90939303809373
:103070009203CDCFFE01E20FF31F81939193225073
:10308000310939832883D7CF209190033091910360
:10309000232B41F420913B0130913C01309391036B
:1030A000209390032091390130913A012115310587
:1030B00041F42DB73EB740913D0150913E01241B94
:1030C000350BE0919003F0919103E217F307A0F420
:1030D0002E1B3F0B2817390778F0AC014E5F5F4F6E
:1030E0002417350748F04E0F5F1F5093910340930C
:1030F0009003819391939FCFF0E0E0E09CCFCF933A
:10310000DF930097E9F0FC01329713821282A091BD
:103110009203B0919303ED0130E020E01097A1F409
:1031200020813181820F931F209190033091910370
:103130002817390709F061C0F0939103E0939003D9
:10314000DF91CF910895EA01CE17DF07E8F54A81B4
:103150005B819E0141155105B1F7E901FB83EA83CB
:1031600049915991C40FD51FEC17FD0761F4808177
:1031700091810296840F951FE9019983888382814A
:1031800093819B838A83F0E0E0E012968D919C917D
:1031900013970097B9F52D913C911197CD010296A7
:1031A000820F931F209190033091910328173907C4
:1031B00039F6309751F51092930310929203B09321
:1031C0009103A0939003BCCFD383C28340815181EC
:1031D000840F951FC817D90761F44E5F5F4F888130
:1031E0009981480F591F518340838A819B81938322
:1031F00082832115310509F0B0CFF0939303E0935A
:1032000092039ECFFD01DC01C0CF13821282D7CF83
:10321000FC0188279927E89421912032E9F329308D
:1032200010F02E30C8F32B3241F02D3239F468946F
:1032300004C00E946D19820F911D219120532A30E4
:10324000C0F31EF4909581959F4F08951F93FC0144
:1032500099278827BC01E89411911032E9F31930BD
:1032600010F01E30C8F31B3251F01D3249F468943F
:1032700006C00E945819610F711D811D911D119189
:1032800010531A30B0F33EF4909580957095619587
:103290007F4F8F4F9F4F1F910895BB274A3031F4C6
:1032A000992322F4BDE2909581959F4F0C94761955
:1032B000592F482F372F262F660F771F881F991FEA
:1032C000660F771F881F991F620F731F841F951F3A
:1032D000660F771F881F991F08957AE0979F902D9A
:1032E000879F802D910D11240895BB27FB01552741
:1032F000AA27880F991FAA1FA41710F0A41B839553
:103300005051B9F7A05DAA3308F0A95DA1930097C9
:1033100079F7B111B1931192CB010C9498199111D5
:103320000C94D119803219F089508550C8F708954E
:10333000DC01FC01672F71917723E1F7329704C01C
:103340007C916D9370836291AE17BF07C8F30895A7
:103350000E94AD1908F481E00895990F0008550FF7
:10336000AA0BE0E8FEEF16161706E807F907C0F00B
:1033700012161306E407F50798F0621B730B840B13
:10338000950B39F40A2661F0232B242B252B21F4ED
:1033900008950A2609F4A140A6958FEF811D811D8D
:1033A000089599278827089597F99F6780E870E026
:1033B00060E008959FEF80EC089500240A941616AB
:1033C000170618060906089500240A941216130613
:1033D000140605060895092E0394000C11F48823A1
:1033E00052F0BB0F40F4BF2B11F460FF04C06F5FBD
:1033F0007F4F8F4F9F4F089557FD9058440F551F93
:1034000059F05F3F71F04795880F97FB991F61F066
:103410009F3F79F087950895121613061406551FDD
:10342000F2CF4695F1DF08C0161617061806991F49
:10343000F1CF86957105610508940895E894BB273E
:1034400066277727CB0197F90895DC01CB01FC01B2
:10345000F999FECF06C0F2BDE1BDF89A319600B4ED
:103460000D9241505040B8F70895F999FECF92BDA2
:1034700081BDF89A992780B50895DC01A40FB51F86
:103480004150504048F0CB01840F951F2E910E946F
:103490004E1A41505040D0F70895262FF999FECF8B
:1034A00092BD81BDF89A019700B4021639F01FBA97
:1034B00020BD0FB6F894FA9AF99A0FBE08952F928C
:1034C0003F924F925F926F927F928F929F92AF92B4
:1034D000BF92CF92DF92EF92FF920F931F93CF9301
:1034E000DF93CDB7DEB7CA1BDB0B0FB6F894DEBF98
:1034F0000FBECDBF09942A88398848885F846E84BE
:103500007D848C849B84AA84B984C884DF80EE8007
:10351000FD800C811B81AA81B981CE0FD11D0FB610
:10352000F894DEBF0FBECDBFED0108955058BB2704
:10353000AA270E94AE1A0C94EB190E94DD1938F0EC
:103540000E94E41920F039F49F3F19F426F40C94FA
:10355000DA190EF4E095E7FB0C94D419E92F0E94D8
:10356000FC1958F3BA17620773078407950720F010
:1035700079F4A6F50C941E1A0EF4E0950B2EBA2FD2
:10358000A02D0B01B90190010C01CA01A001112469
:10359000FF27591B99F0593F50F4503E68F11A1615
:1035A000F040A22F232F342F4427585FF3CF4695A6
:1035B00037952795A795F0405395C9F77EF41F16C8
:1035C000BA0B620B730B840BBAF09150A1F0FF0F92
:1035D000BB1F661F771F881FC2F70EC0BA0F621F7E
:1035E000731F841F48F4879577956795B795F7956E
:1035F0009E3F08F0B0CF9395880F08F09927EE0F03
:103600009795879508950E940A1B6894B1110C94B0
:103610001F1A08950E94041A88F09F5798F0B92F36
:103620009927B751B0F0E1F0660F771F881F991FF7
:103630001AF0BA95C9F714C0B13091F00E941E1A61
:10364000B1E008950C941E1A672F782F8827B85F71
:1036500039F0B93FCCF3869577956795B395D9F74F
:103660003EF490958095709561957F4F8F4F9F4F59
:1036700008950E94AD1908F48FEF089597FB072E67
:1036800016F4009407D077FD09D00E94741B07FC44
:1036900005D03EF4909581959F4F08957095619562
:1036A0007F4F0895A1E21A2EAA1BBB1BFD010DC07E
:1036B000AA1FBB1FEE1FFF1FA217B307E407F507E2
:1036C00020F0A21BB30BE40BF50B661F771F881FBE
:1036D000991F1A9469F760957095809590959B0154
:1036E000AC01BD01CF010895AA1BBB1B51E107C06E
:1036F000AA1FBB1FA617B70710F0A61BB70B881F82
:10370000991F5A95A9F780959095BC01CD01089510
:10371000EE0FFF1F0590F491E02D0994B0E0A0E0BA
:10372000E4E9FBE10C94611A8C01009751F4CB01A0
:103730000E94E3178C01C801CDB7DEB7E0E10C941D
:103740007D1AFC01E60FF71F9C0122503109E21798
:10375000F30708F49DC0D901CD91DC911197C617EC
:10376000D70798F0C530D10530F3CE0104978617FE
:10377000970708F3C61BD70B2297C193D1936D937C
:103780007C93CF010E947F18D6CF5B01AC1ABD0A93
:103790004C018C0E9D1EA0919203B0919303512C6D
:1037A000412CF12CE12C109731F5809190039091F0
:1037B00091038815990509F05CC04616570608F074
:1037C00058C08091390190913A01009741F48DB72A
:1037D0009EB740913D0150913E01841B950BE81727
:1037E000F90708F055C0F0939103E0939003F901B5
:1037F00071836083A0CF8D919C91119712966C90EC
:10380000129713967C901397A815B90559F56C017A
:1038100042E0C40ED11CCA14DB0420F1AC014A19E9
:103820005B09DA011296159780F0628273825183E8
:103830004083D9016D937C93E114F10471F0D701B9
:103840001396FC93EE93129776CF22968C0F9D1FC2
:10385000F90191838083F301EFCFF0939303E09319
:10386000920369CF4816590608F42C017D01D30153
:103870009ACFCB010E94E3177C01009749F0AE017B
:10388000B8010E94581CC8010E947F18870153CFBD
:1038900010E000E050CFFB01DC0104C08D910190ED
:1038A000801921F441505040C8F7881B990B0895A6
:1038B000FB01DC0102C001900D9241505040D8F74D
:1038C0000895FB01DC0101900D920020E1F70895BD
:1038D000FB01DC014150504048F001900D92002066
:1038E000C9F701C01D9241505040E0F70895AEE085
:1038F000B0E0EDE7FCE10C946F1A85E08C838B89D6
:103900009C899A838983AE01495E5F4F6D897E8968
:10391000CE0101960E941B1E2E96E2E00C948B1A9B
:1039200020FD09C0FC0123FD05C022FF02C07383F6
:10393000628351834083089544FD17C046FD1DC036
:10394000DB01FC01AA0FBB1FEE1FFF1F1094D1F774
:103950006A0F7B1F8E1F9F1F660F771F881F991F7F
:10396000620F711D811D911D089533E0660F771F51
:10397000881F991F3150D1F7F3CF34E0F7CF0F9361
:103980001F93CF93DF938C01C8010E942B1FEC0182
:1039900097FD08C00E948F19892BB1F7B801CE019D
:1039A0000E94671FCE01DF91CF911F910F91089563
:1039B0008F929F92AF92BF92EF92FF920F931F93BD
:1039C000CF93DF938C01D62F7A01B22E0E942B1F4A
:1039D0009C0133272B32310529F02D323105A9F412
:1039E0006894B7F8D15061F480E0DF91CF911F91D6
:1039F0000F91FF90EF90BF90AF909F908F900895A0
:103A0000C8010E942B1F97FDEFCFCB2DCD7F2B2D13
:103A10002073F9F48033E9F4AA24AA94AD0E89F056
:103A2000C8010E942B1F97FD0CC0282F2F7D283521
:103A300061F4C264D25029F0C8010E942B1F97FF85
:103A400008C0812C912C54011BC0B6FE2BC0C26053
:103A5000DA2D812C912C540120ED280F283028F1EB
:103A6000C4FD09C02A3008F1C6FF05C02F7D3FEE16
:103A7000320F3630C8F0B8010E94671FC1FFB4CFC3
:103A8000C7FF08C0B094A09490948094811C911CAE
:103A9000A11CB11C2C2FB501A401C7010E94901CD0
:103AA00081E0A3CFC261D4CF27504C2FC501B40110
:103AB0000E949C1C4B015C01C260D15009F3C801FB
:103AC0000E942B1F97FFC8CFD9CFA0E2B0E0EBE652
:103AD000FDE10C94641A5C01962E7A01CE010196E8
:103AE0006C0180E2F60111928A95E9F7F501B38144
:103AF000890130E020E0712C812CA0E041E050E011
:103B0000F801B3FD8591B3FF8191982F8F01811149
:103B100007C010E000E0C801A096EDE00C94801A08
:103B20008E3519F42115310541F1A21713064CF415
:103B30008D3549F18D3229F4811006C08824839493
:103B40001DC0882009F464C0E92FE695E695E69546
:103B5000EC0DFD2DF11D892F8770BA0101C0660F94
:103B60008A95EAF78081682B6083791651F0971562
:103B700010F49F5FE9CF9150E7CFA1E02F5F3F4F57
:103B8000BFCF812CFBCF882019F08E8180628E837D
:103B9000AA2359F0F6019E012F5D3F4F8081809549
:103BA00080833196E217F307C9F788248394C5010F
:103BB0000E942B1F97FD16C0E82FE695E695E69527
:103BC000EC0DFD2DF11D208130E0AC014770552733
:103BD00002C0359527954A95E2F720FD06C0B5014C
:103BE0000E94671F882069F094CFE114F10429F046
:103BF000F7018083C70101967C019A94812C911072
:103C0000D6CFE114F10409F486CFF701108283CFF7
:103C1000E82FE695E695E695EC0DFD2DF11D982F24
:103C20009770BA0101C0660F9A95EAF79081692BE7
:103C30006083782EA3CFB0E0A0E0E1E2FEE10C9437
:103C4000621A6C01EB015A01FC0117821682512C99
:103C5000F601E380FE01E3FC8591E3FE8191182FDC
:103C6000EF018823E9F090E00E948F19892B21F061
:103C7000C6010E94BF1CECCF153241F4FE01E3FCEB
:103C80001591E3FE1191EF01153269F4C6010E940E
:103C90002B1F97FD8EC01817D9F2B6010E94671F1F
:103CA000852D90E08AC000E01A3231F4E3FC1591D2
:103CB000E3FE1191EF0101E0F12C20ED210F2A30FC
:103CC00048F101FF37C0FF2059F31836B1F11C3617
:103CD00009F43DC0112321F3612F70E088E690E0E4
:103CE0000E94201F892BE1F2912C812C00FD06C03F
:103CF000F50180809180C50102965C011E3679F540
:103D0000F6014681578170E060E0202FC4010E94D7
:103D1000901C9ECF02606F2D70E090E080E040E24A
:103D20000E949C1CF62EFE01E3FC1591E3FE11910E
:103D3000EF01C3CFFF24FA94C8CFFE01E3FC159135
:103D4000E3FE1191EF01183609F0C4CF086004605A
:103D5000FE01E3FC1591E3FE1191EF01BBCF133699
:103D6000C1F401FD02C0FF24F394C6010E942B1F81
:103D700097FD1FC08114910429F0F4018083C401D0
:103D800001964C01FA94F110F0CF00FD61CF5394ED
:103D90005FCF1B35B9F49E01A4016F2DC6010E94AF
:103DA000651DEC01892B89F7F6018381807309F485
:103DB00077CF8FEF9FEF511073CFCDB7DEB7EFE026
:103DC0000C947E1AC6010E94BF1C97FDF2CF1F36CD
:103DD000A9F130F4143641F0193639F0006405C009
:103DE0001337B9F01537D1F70062202FA4016F2DDA
:103DF000C6010E94D81C8111C8CFD6CF811491046E
:103E000029F0F4016082C40101964C01FA94FF206C
:103E100071F0C6010E942B1F3C0197FD08C00E9453
:103E20008F19892B59F3B601C3010E94671F8114B2
:103E3000910409F4AACFF4011082A7CF0061D5CF75
:103E4000FC010590061621F00020D9F7C001089565
:103E50003197CF010895CF93DF93EC012B8120FFA1
:103E60001AC026FF0CC02F7B2B838E819F81019669
:103E70009F838E838A8190E0DF91CF91089522FF06
:103E800018C0E881F9818081082E000C990B0097F9
:103E900029F420622B838FEF9FEFEECF3196F983C9
:103EA000E8832E813F812F5F3F4F3F832E839927E9
:103EB000E3CFEA85FB85099597FFF3CF2B81019628
:103EC00021F080E2822B8B83E6CF80E1FBCFFB01E8
:103ED000238120FF11C026FD0FC08F3F980771F08E
:103EE00082832F7D206423832681378121503109ED
:103EF00037832683992708958FEF9FEF0895F894CD
:023F0000FFCFF1
:103F0200FFFFFF00FCE1A8A88D0B9006220B6106C3
:103F12004F064506A80BAA06FFEA082506312E30F1
:103F22000052656C6179204163747561746F72002F
:103F3200C5093909FF3A023A020000940380001FC2
:103F42001C1F1E1F1E1F1F1E1F1E1F00000000D150
:103F5200023B0268021E03990277028B02000000F4
:103F620000480375013A00322E332E310025643A9F
:103F72002564004F4B0052656C6179310052656CCB
:103F82006179320052656C6179330052656C6179F6
:0A3F92003A4D6F6465000D0A00004F
:1078000011E0A0E0B1E0E0EFFFE702C005900D92CB
:10781000A630B107D9F721E0A6E0B1E001C01D9282
:10782000AD34B207E1F7CDB7DEB72997DEBFCDBFE4
:10783000112484B78093270114BE88E180936000EF
:1078400089E280936000259A86E020E295B1922734
:1078500095B93FE748E391E0315040409040E1F76F
:1078600000C00000815091F78091270181FD16C072
:107870008EE284B981E58CBD81E08DBD412C512C17
:107880002224239433243394AA24AA94BA2C78E093
:10789000972ECC24C394E3E0DE2E40C182E0809397
:1078A000C00088E18093C10086E08093C20080E13F
:1078B0008093C400E12CF12CC12CD12CAA24AA94D1
:1078C000BA2C01E0A8952BD2813461F428D28987A3
:1078D00037D38985823821F0813811F485E64FC08D
:1078E00083E04DC0823411F484E103C0853419F47F
:1078F00085E032D35FC0853541F411D2E82E0FD236
:10790000F12CF82AEE0CFF1C54C0863521F484E0DB
:1079100023D380E034C08436E1F401D200D2882E33
:10792000FED1C80CD11C912C981480F4F8D1182FDA
:10793000F6D1F701E90DF11D212F30E0382B0901B7
:1079400007BFE895112493949394EECFC701A8D173
:1079500030C0843761F4E3D1E2D1182FE0D1F0D206
:10796000F70185917F01E5D21150D1F724C0853709
:1079700041F4E6D28EE1DDD285E9DBD28FE0D9D2C7
:1079800019C08135B1F4BA82A982BC82AB82C6012A
:1079900034E0969587953A95E1F79E838D83C601ED
:1079A00091D198878F83CE010196DDD2C9D211E0A3
:1079B00002C0C6D210E080E1BCD2112309F482CF0C
:1079C00057CF43E050E060E070E089E291E0EED212
:1079D00048E050E06BE171E0CE010196E7D22998D2
:1079E0002A9A63E083E2D4D16CE485E2D1D167E2E4
:1079F00086E2CED163E780E5CBD164E08DE3C8D1E8
:107A000061E082E2C5D161E081E2C2D161E08CE354
:107A1000BFD121E041E060E070E086E08CD18732A8
:107A200009F028C180912A01809328018FEF80936B
:107A30002A0180932B018093080163E584E2A8D199
:107A400043E26AE087E05FD161E08EEFC0D110923F
:107A500008016FE584E29CD180912A018F3F09F4EF
:107A600009C18091290181508E3F08F05AC030929F
:107A70000D0110920E0143EC62E18FE044D160E011
:107A80008FE0A5D18D819E8124E0880F991F2A95D2
:107A9000E1F718D198878F83FE013196ADE0B1E010
:107AA000892D01900D928A95E1F7D0921601C0922E
:107AB000150144EC62E580E026D163E081E087D1E6
:107AC000882309F4D7C048E050E063E371E0CE01B9
:107AD00001965FD2892B09F4CDC080913701909136
:107AE0003801009709F045C08091390190913A0121
:107AF0008A379A4D09F041C0809133019091340149
:107B00008130910571F500E010E06FEFC8015ED2A1
:107B10000F5F1F4F011524E01207B9F7F999FECF47
:107B200050CF43E262E083E0EED063E084E04FD1E7
:107B3000882309F496CF80912F01869586958695A6
:107B4000E3E3F1E060E0815048F02191660F962F69
:107B5000990F990F690F6053620FF5CF80E090E0A5
:107B600006C0029782309105C8F6609135012ED289
:107B7000D5CF8038974008F07DC0E3E3F1E0DE0127
:107B80001196892D01900D928A95E1F7EF80F88486
:107B9000B886AF82CE010196E6D16D807E80898164
:107BA0009A8190930E0180930D018B819C8190931B
:107BB000100180930F0183010150110910931201EC
:107BC0000093110144EC62E382E09DD063E083E026
:107BD000FED0882309F44BCF46E050E063E371E028
:107BE0008DE091E0D6D1892BD1F6C3018150904F21
:107BF000282F22952077822E40E050E0622F70E0FF
:107C0000DA01A45DBE4FFA01E60FF71F1E962C9114
:107C10001E9730E0322F22271D96AC912A2B0901A6
:107C200027BEE89511244E5F5F4F4031510541F763
:107C3000811006C044E0880F991F4A95E1F730D0C3
:107C40000115110511F03801AACFF886EF828D8158
:107C50009E8134E0880F991F3A95E1F733D08E1555
:107C60009F0521F01E821D8218861F82CE0101967B
:107C70007AD154CF8D819E8124E0880F991F2A9557
:107C8000E1F720D02F8138858217930709F046CF7E
:107C90001CBCA89580912701282EF20109953ECFA2
:107CA00023E0FC0127BFE89507B600FCFDCF25E0E7
:107CB000FC0127BFE89507B600FCFDCF81E187BF37
:107CC000E8950895BC01E0E0F0E08FEF9FEFE61744
:107CD000F707C0F4E11528E7F207A0F42591822701
:107CE00048E0DC01B695A7959C01217033273195BA
:107CF000219531092170307AC9018A279B2741508B
:107D000081F7E5CF089590912901E6E0F1E09183B4
:107D100090839FEF96838583448363830895809146
:107D2000C00087FFFCCF8091C00084FD01C0A895F2
:107D30008091C60008952A989AE19A95F1F700C0BB
:107D40008EBD0DB407FEFDCF8EB59FEF4150D0F034
:107D5000222369F09EBD0DB407FEFDCF8EB56115DF
:107D60007105A1F3DB018C936F5F7F4FEFCFFB01B8
:107D70003196DB018C918EBD0DB407FEFDCF8EB523
:107D8000BF01E4CF2A9ABAE1BA95F1F700C008958D
:107D9000CF93DF931F92CDB7DEB7698320E041E038
:107DA000BE016F5F7F4FC7DF0F90DF91CF910895C6
:107DB00020E040E060E070E082EEBDDF20E040E0E7
:107DC00060E070E081EEB7DF60E787E2E1CFFF922D
:107DD0000F931F93CF93DF93F82ED62FC0910901F5
:107DE000C695C695C695C95F10912A0129986EE07F
:107DF00080E2CEDF1093000120E045E060E071E01A
:107E00008AE299DF20E045E060E071E080E393DF03
:107E100020E04C2F66E071E080EA8DDF299A8AE04D
:107E20008A95F1F700C020E040E060E070E08FEF5D
:107E300082DF8073C1F32998BBDF6FE080E2A8DFA7
:107E4000609129018AE2A4DF299A0FEF1FEFA8951C
:107E500021E041E060E070E087E16DDF80FF02C07B
:107E60008FEF4BC021E041E060E070E080E663DF2F
:107E7000C82F813208F0C0E021E04C2F6CE271E0A5
:107E800081E659DF95DF4C2F50E020912F01269598
:107E90002695269530E0295F3F4F4217530701F79B
:107EA00090912E01809129019813DACF80913101B0
:107EB000909130019770933001F58830F1F4209162
:107EC0002A0190912801291302C09F3FB1F420910B
:107ED0002D01291304C090932A018EEF0EC030911A
:107EE000330191E0930F9093330140912B013417AC
:107EF00020F490932B0120932A0191E08F1190E0C0
:107F000088E08A95F1F70150110921F4892FD111E8
:107F100005C009C0992309F49ACF04C0D150992310
:107F200009F45CCF81E0DF91CF911F910F91FF9019
:107F300008959091C00095FFFCCF8093C6000895EE
:107F4000EEDE803239F088E18093600088E0809333
:107F50006000FFCF84E1EDCFCF93C82FE0DEC150AA
:107F6000E9F7CF91EDCF0F931F93CF93DF938C0160
:107F7000CBE1D1E0F80161918F01CE0127D02196AC
:107F8000C332F1E0DF07B1F7DF91CF911F910F917D
:107F90000895FB01DC0104C08D910190801921F44A
:107FA00041505040C8F7881B990B0895DC01CB0164
:107FB000FC01F999FECF06C0F2BDE1BDF89A3196F9
:107FC00000B40D9241505040B8F70895262FF9990A
:107FD000FECF92BD81BDF89A019700B4021639F028
:107FE0001FBA20BD0FB6F894FA9AF99A0FBE0895F9
:067FF00000FCE1A8A8005E
:040000030000780081
:00000001FF
