:200000000C9429040C94001D0C94D91C0C9451040C9451040C9451040C949A1E0C94510495
:200020000C9451040C9451040C9451040C9451040C9451040C9451040C9451040C94510418
:200040000C948F1C0C9451040C944D1D0C94271D0C9451040C9451040C9451040C9451049E
:200060000C947F1D0C94510400407A10F35A00A0724E18090010A5D4E80000E87648170089
:2000800000E40B54020000CA9A3B000000E1F505000080969800000040420F000000A0863C
:2000A00001000000102700000000E803000000006400000000000A000000000001000000AE
:2000C00000002C76D888DC674F0823DFC1DFAE59E1B1B796E5E3E453C63AE651997696E839
:2000E000E6C28426EB898C9B62ED407C6FFCEFBC9C9F40F2BAA56FA5F490055A2AF75C931F
:200100006B6CF9676DC11BFCE0E40D47FEF520E6B500D0ED902E0300943577050080841EB8
:20012000080000204E0A000000C80C333333330F986E12831141EF8D2114893BE65516CF0E
:20014000FEE6DB18D1844B381BF77C1D901DA4BBE424203284725E228100C9F124ECA1E598
:200160003D276364696E6F70737578585B00200054534D3A494E49540A002154534D3A4967
:200180004E49543A545350204641494C0A0054534D3A494E49543A545350204F4B0A005452
:2001A000534D3A465041520A002154534D3A465041523A4E4F205245504C590A0021545365
:2001C0004D3A465041523A4641494C0A0054534D3A465041523A4F4B0A0054534D3A49441F
:2001E0003A5245510A0054534D3A49440A002154534D3A49443A4641494C0A0054534D3AA4
:2002000049443A4F4B0A0054534D3A55504C0A002154534D3A55504C3A4641494C0A005456
:20022000534D3A55504C3A444757432C4F3D25752C4E3D25750A0054534D3A55504C3A4F3F
:200240004B0A0054534D3A52454144593A49443D25752C5041523D25752C4449533D25753F
:200260000A002154534D3A52454144593A55504C204641494C2C534E500A005453463A54A7
:2002800044493A54534C0A0054534D3A4641494C3A4449530A0054534D3A4641494C3A4365
:2002A0004E543D25750A0054534D3A4641494C3A52452D494E49540A005453463A5349442E
:2002C0003A4F4B2C49443D25750A00215453463A5349443A4641494C2C49443D25750A0098
:2002E00025735453463A4D53473A53454E442C25752D25752D25752D25752C733D25752C37
:20030000633D25752C743D25752C70743D25752C6C3D25752C73673D25752C66743D25751C
:200320002C73743D25733A25730A00215453463A5254453A257520554E4B4E4F574E0A0098
:20034000215453463A5254453A46504152204143544956450A00215453463A534E443A5466
:200360004E520A004F54413A4652513A4657205245512C543D253034582C563D25303458AF
:200380002C423D253034580A00214F54413A4652513A465720555044204641494C0A005425
:2003A00053463A4352543A4F4B0A004D434F3A50494D3A4E4F4445205245473D25750A0065
:2003C0004F54413A4352433A423D253034582C433D253034582C463D253034580A00214FF6
:2003E00054413A4657503A4E4F205550444154450A00214F54413A4657503A4352432046D9
:2004000041494C0A004F54413A4657503A435243204F4B0A004F54413A4657503A46572019
:20042000454E440A00214F54413A4657503A57524F4E47204657420A004F54413A465750D4
:200440003A5245435620423D253034580A004F54413A4657503A55504441544520534B4999
:20046000505045440A00214F54413A4657503A464C41534820494E4954204641494C0A00DB
:200480004F54413A4657503A5550444154450A00214F54413A4657503A5550444F0A00544E
:2004A00053463A4D53473A52454C204D53470A005453463A4D53473A52454C2050784E47AC
:2004C0002C48503D25750A005453463A4D53473A5243562043420A005453463A4D53473A4D
:2004E000465744204243204D53470A00215453463A4D53473A47574C204641494C0A005478
:2005000053463A4D53473A47574C204F4B0A005453463A4D53473A46504152205245512C94
:2005200049443D25750A005453463A4D53473A42430A005453463A4D53473A41434B0A0055
:20054000215453463A4D53473A504F4E4720524543562C494E4143544956450A0054534638
:200560003A4D53473A504F4E4720524543562C48503D25750A005453463A4D53473A504916
:200580004E4745442C49443D25752C48503D25750A00215453463A4D53473A465041522056
:2005A000494E4143544956450A005453463A4D53473A46504152204F4B2C49443D25752CF7
:2005C000443D25750A00215453463A4D53473A494420544B20494E56414C49440A00545369
:2005E000463A4D53473A41434B205245510A00215453463A4D53473A505645522C257521EC
:200600003D25750A00215453463A4D53473A4C454E3D25752C4558503D25750A00545346F3
:200620003A4D53473A524541442C25752D25752D25752C733D25752C633D25752C743D2511
:20064000752C70743D25752C6C3D25752C73673D25753A25730A00215453463A53414E3AB2
:200660004641494C0A005453463A53414E3A4F4B0A004D434F3A5245473A5245510A003218
:200680002E332E310A00207C5F5C2F602C0A0702200220B287100340012000240222100222
:2006A0002202022002220022200202202227101341010101032220304020305203402214EA
:2006C0000203105224022171010010101210122210100224010103220300200101003220A0
:2006E0003712100121322601284032221210121222432224121001222470C122240F0F5427
:2007000053463A5755523A4D533D256C750A004D434F3A42474E3A494E4954204F4B2C5449
:2007200053503D25750A004D434F3A42474E3A5354500A004D434F3A42474E3A4246520AFC
:20074000004D434F3A42474E3A494E49542052455045415445522C43503D524E4F52412D18
:200760002D2D2C52454C3D25752C5645523D322E332E310A00000000002300260029000075
:20078000000000240027002A0000000000250028002B000404040404040404020202020242
:2007A0000203030303030301020408102040800102040810200102040810200000000800A0
:2007C0000201000003040700000000000000005453463A504E473A53454E442C544F3D2567
:2007E000750A00215453463A504E473A4143544956450A005453463A434B553A4641494CED
:200800000A005453463A434B553A444757432C4F3D25752C4E3D25750A005453463A434B03
:20082000553A4F4B0A005453463A434B553A4F4B2C464354524C0A00214D434F3A534E44D7
:200840003A4E4F4445204E4F54205245470A0000B91E11241FBECFEFD8E0DEBFCDBF11E0A6
:20086000A0E0B1E0E0E7F8E502C005900D92AC3AB107D9F724E0ACEAB1E001C01D92AC33E5
:20088000B207E1F714E0C9E2D4E004C02197FE010E943F28C832D107C9F70E944A1F0C94B3
:2008A000362C0C940000942FEFEEF3E03091A00231838283668325834481487F492B477E51
:2008C0004483CF010895833081F028F4813099F08230A9F008958730A9F08830C9F084300D
:2008E000B1F4809180008F7D03C0809180008F7780938000089584B58F7784BD089584B5D6
:200900008F7DFBCF8091B0008F778093B00008958091B0008F7DF9CF1F93CF93DF93282F68
:2009200030E0F901E554F84F8491F901E955F84FD491F901ED56F84FC491CC23A9F0162F8E
:2009400081110E946304EC2FF0E0EE0FFF1FE757F84FA591B4918FB7F894EC91111108C0BD
:20096000D095DE23DC938FBFDF91CF911F910895DE2BF8CFCF93DF9390E0FC01E955F84FA1
:2009800024918D56984FFC0184918823C9F090E0880F991FFC01E158F84FA591B491FC01AE
:2009A000E757F84FC591D49161110DC09FB7F8948C91209582238C938881282328839FBFE3
:2009C000DF91CF910895623051F49FB7F8943C91822F809583238C93E8812E2BEFCF8FB7D3
:2009E000F894EC912E2B2C938FBFEACF3FB7F8948091580290915902A0915A02B0915B023B
:200A000026B5A89B05C02F3F19F00196A11DB11D3FBFBA2FA92F982F8827BC01CD01620F28
:200A2000711D811D911D43E0660F771F881F991F4A95D1F708958F929F92AF92BF92CF92C6
:200A4000DF92EF92FF926B017C010E94F6044B015C01C114D104E104F104B9F00E94F6041C
:200A6000681979098A099B09683E73408105910580F321E0C21AD108E108F10888EE880EB0
:200A800083E0981EA11CB11CE4CFFF90EF90DF90CF90BF90AF909F908F9008952FB7F89439
:200AA000609154027091550280915602909157022FBF08950895AF92BF92CF92DF92EF92A7
:200AC000FF920F931F93CF93DF936C017B018B01040F151FEB015E01AE18BF08C017D1071A
:200AE00059F06991D601ED91FC910190F081E02DC6010995892B79F7C501DF91CF911F91F3
:200B00000F91FF90EF90DF90CF90BF90AF900895FC01538D448D252F30E0842F90E0821B5C
:200B2000930B541710F0CF96089501970895FC01918D828D981761F0A28DAE0FBF2FB11DA3
:200B40005D968C91928D9F5F9F73928F90E008958FEF9FEF0895FC01918D828D981731F085
:200B6000828DE80FF11D858D90E008958FEF9FEF0895FC01918D228D892F90E0805C9F4FDD
:200B8000821B91098F739927089584EA92E00E94B90521E0892B09F420E0822F0895FC0182
:200BA000A48DA80FB92FB11DA35ABF4F2C91848D90E001968F739927848FA689B7892C93B4
:200BC000A089B1898C91837080648C93938D848D981306C00288F389E02D80818F7D8083DA
:200BE0000895EF92FF920F931F93CF93DF93EC0181E0888F9B8D8C8D98131AC0E889F98900
:200C0000808185FF15C09FB7F894EE89FF896083E889F98980818370806480839FBF81E029
:200C200090E0DF91CF911F910F91FF90EF900895F62E0B8D10E00F5F1F4F0F731127E02E29
:200C40008C8D8E110CC00FB607FCFACFE889F989808185FFF5CFCE010E94CF05F1CFEB8DC6
:200C6000EC0FFD2FF11DE35AFF4FF0829FB7F8940B8FEA89FB8980818062CFCF0F931F93FA
:200C8000CF93DF938C01D0E0C0E0F801EC0FFD1F6491662341F084EA92E00E94F105892BB8
:200CA00011F02196F2CFCE01DF91CF911F910F910895CF93DF93EC01888D8823B9F0AA89D2
:200CC000BB89E889F9898C9185FD03C0808186FD0DC00FB607FCF7CF8C9185FFF2CF808139
:200CE00085FFEDCFCE010E94CF05E9CFDF91CF91089580E090E0892B29F00E94C5058111AF
:200D00000C9400000895862F642F0C94BA04CF93DF93FC01218530E0F901E554F84F8491DA
:200D2000F901E955F84FD491F901ED56F84FC491CC2379F081110E946304EC2FF0E0EE0F1B
:200D4000FF1FEB58F84FA591B491EC91ED2381E009F480E08170DF91CF910895CF93DF93F3
:200D6000EC01698718860E948706882319F08885836088870E944E056A837B838C839D8307
:200D8000DF91CF910895CF92DF92EF92FF921F93CF93DF93EC0188858B7F8887CE010E94F8
:200DA0008706182F8885869581701817B1F00E944E056A837B838C839D83888592E0892738
:200DC0008887888582FB882780F9DF91CF911F91FF90EF90DF90CF9008950E944E05CA801A
:200DE000DB80EC80FD80AB01BC014C195D096E097F098E819F81B0E0A0E0481759076A070D
:200E00007B07F8F2888581701817D9F20E944E056A837B838C839D83888591E0892784604D
:200E200088870E944E056A877B878C879D87C9CF60934F0270935002809351029093520276
:200E4000645D7E4F8F4F9F4F60934B0270934C0280934D0290934E0282E090E090934A0291
:200E6000809349020E944E05609345027093460280934702909348020895CF92DF92EF92E1
:200E8000FF920F931F930E944E058B019C01C0904502D0904602E0904702F090480260919C
:200EA0004F027091500280915102909152020C191D092E093F09083E134021053105E0F026
:200EC000DC01CB010196A11DB11D80934F0290935002A0935102B0935202B701A601485158
:200EE0005C4F6F4F7F4F40934502509346026093470270934802C7CF1F910F91FF90EF90F9
:200F0000DF90CF9008954F925F926F927F928F929F92AF92BF92CF92DF92EF92FF920F9318
:200F20001F93CF93DF934B015C018091410290914202A0914302B091440288159905AA05E2
:200F4000BB0509F4C6C08CE3C82ED12CE12CF12CC501A70196010E94092860933A02CA01F0
:200F6000B901A70196010E94092860933B02C501B40120E13EE040E050E00E940928CA01ED
:200F8000B90128E130E040E050E00E94092860933C02C501B40120E831E541E050E00E949E
:200FA000092869017A01CA01B9016C5F7F4F8F4F9F4F27E030E040E050E00E9409286F5F29
:200FC00060933D02412C512C320140E004E610E0C0E9D1E0242F30E02E54384FF901E370B5
:200FE000FF273097F9F4C901B8010E94F527892B31F4C901BE010E94F527892B99F48EE601
:2010000091E0A0E0B0E0480E591E6A1E7B1ED301C201AA27BB27C816D906EA06FB0638F041
:201020004F5FD8CF8DE691E0A0E0B0E0ECCF40934002C90164E670E00E94F527EC01C901BE
:2010400060E971E00E94F527309721F42097D9F40097C9F04DE651E060E070E0441A550AD7
:20106000660A770AC418D508E608F708A1E4B1E020E0213069F43097E9F5209711F400971D
:20108000C9F54DE106C04EE651E060E070E0E6CF4C9150E070E060E031E0320FC416D50650
:2010A000E606F70640F0C41AD50AE60AF70A1196232F3C30F1F62F5F20933F02C394C092F2
:2010C0003E028092410290924202A0924302B0924402DF91CF911F910F91FF90EF90DF9079
:2010E000CF90BF90AF909F908F907F906F905F904F9008954CE1CDCF85ED8093BC00809121
:20110000BC0084FDFCCF1092140208952091F001260F3327331F21323105ECF420911402BF
:20112000FC0190E080E0243069F082E00895A091F0012191AC0140535E4FA40FB52FB11D10
:201140002C930196861798F38091F001680F6093F00180E0089581E0089508958FEF9FEF10
:2011600008958FEF9FEF08958091CF0190E09195819591090895CF93DF93CB01EA01642F47
:201180000E948608CE01DF91CF910895CF93DF931F92CDB7DEB7698361E0CE0101960E9410
:2011A000860881E090E00F90DF91CF91089590E080E00895CF93CFB7F8948091CE01811171
:2011C00027C0EDE9F7E08491E1EBF7E09491E82FF0E0EE0FFF1FE158F84FA591B491EC9124
:2011E000E92321F461E08AE00E948C0461E08AE00E94BA048CB580618CBD8CB580648CBD0D
:2012000061E08DE00E94BA0461E08BE00E94BA048091CE018F5F8093CE01CFBFCF91089579
:201220008FB7F8948091CD018FBF0895CF92DF92EF92FF920F931F93CF93DF93D0E0C0E0B6
:20124000062F10E0E82EF12CC017D1072CF5D12CC12CCE14DF04C4F461E088E00E948C0424
:2012600064E170E080E090E00E941B0560E088E00E948C0464E670E080E090E00E941B0541
:201280008FEFC81AD80AE5CF64E670E080E090E00E941B052196D8CFDF91CF911F910F91AE
:2012A000FF90EF90DF90CF9008950C941807FC0184818F7180648483838187708061838327
:2012C00070876783CF010895FC01838187708860838384818F71806284836783CF01089595
:2012E000E0915C02F0915D02309721F00280F381E02D099408950F931F930E944E05009150
:201300005E0210915F022091600230916102601B710B820B930B1F910F9108959C01809177
:201320005C0290915D0282179307F1F0909166029F719093660230935D0220935C02E091F3
:201340005C02F0915D02309721F00190F081E02D09950E944E0560935E0270935F0280930B
:20136000600290936102089580916602805E80936602E5CF8EBD00000DB407FEFDCF8EB542
:2013800008958CBD9DBD0895CF93DF938CB5C1E3D4E08B838DB58C838D819E810E94C1090B
:2013A00060E08881DF91CF910C948C04CF93DF93C1E3D4E061E088810E948C048B818CBDE7
:2013C0008C818DBDDF91CF910895CF930E94C40985E00E94BA0980E00E94BA09C82F0E9450
:2013E000D6098C2F8170CF910895CF93DF93C82F662331F060E086E00E94F5090E94D60929
:201400000E94C40985E00E94BA0980E00E94BA09D82F0E94D609D0FDF3CF0E94C4098C2F8D
:20142000DF91CF910C94BA094F925F926F927F928F929F92AF92BF92CF92DF92EF92FF92CD
:201440000F931F93CF93DF932B013C014A01E9019B01332780E091E0821B930BF12CE12C9A
:201460008E018C179D0708F48C0161E082E00E94F509862D0E94BA09852D0E94BA09842DEA
:201480000E94BA095401AE0CBF1C6501F60181916F010E94BA09C6018A199B09801791077C
:2014A000A8F30E94D609400E511E611C711CE00EF11EC01BD10B80E091E091F6DF91CF916D
:2014C0001F910F91FF90EF90DF90CF90BF90AF909F908F907F906F905F904F9008950F93E9
:2014E0001F93CF93DF93EC018C81829586958770A9F44B8146954695469550E0BE01695F92
:201500007F4F8DE692E00E941F29EB81E695E695E695F0E0E359FD4F108209C0813071F488
:201520008F814AE06DE672E090E00E9414228DE692E0DF91CF911F910F910895823031F40B
:201540004AE06DE672E08F819885EFCF833041F44AE06DE672E08F8198850E946D22E7CF06
:20156000843051F46F81788589859A852AE04DE652E00E941F22DBCF853051F46F81788575
:2015800089859A852AE04DE652E00E944B22CFCF873051F1ADE6B2E09E01295F3F4F40E00F
:2015A000EB81E695E695E6954E1780F5B901F9018081082E000C990B54E0959587955A9570
:2015C000E1F78F708A30F0F4805D8C932F5F3F4FFB0180818F708A30B8F4805D11968C9379
:2015E00011974F5F1296DCCF2B85293008F028E06F81788589859A850DE612E042E00E9476
:201600008C2095CF895CE1CF895CE8CFF0E0EE0FFF1F80CFFC0101900020E9F73197AF0149
:20162000481B590BBC0184EA92E00C945B050F931F93CF93DF93EC01E0E06115710551F044
:20164000FB0101900020E9F73197E61BF70BE931F10500F50E2F10E08B818770980193E0F1
:20166000220F331F9A95E1F7822B8B838C818F718C83EE2329F0A801CE0107960E941F29E0
:20168000FE01E00FF11F1782CE01DF91CF911F910F910895E9E1DECF0F931F93CF93DF9388
:2016A000EC0188819981009759F02A813B812617370730F081E0DF91CF911F910F9108951A
:2016C0008B016F5F7F4F0E944528009759F0998388831B830A832C813D81232B59F7FC019B
:2016E0001082E8CF80E0E7CFCF93DF93EC0188819981009711F00E944621198218821D8232
:201700001C821B821A82DF91CF9108950F931F93CF93DF93EC010C811D810F5F1F4FB801B0
:201720000E944C0B882391F0288139818C819D8167E671E0820F931F0E9418291D830C8303
:20174000CE01DF91CF911F910F910895CE010E94740BF6CFCF92DF92EF92FF920F931F9310
:20176000CF93DF93CDB7DEB762970FB6F894DEBF0FBECDBF8C01CB01F80111821082138230
:201780001282158214824AE09E012F5F3F4F6901B9010E941422F60101900020E9F7319757
:2017A0007F01EC18FD08B701C8010E944C0B811112C0C8010E94740B62960FB6F894DEBFF2
:2017C0000FBECDBFDF91CF911F910F91FF90EF90DF90CF900895F801F582E482B601808189
:2017E00091810E941829E8CFEF92FF920F931F93CF93DF93EC01FB01E080F180E114F1045F
:2018000011F10481158101151105A9F08C819D81080F191FB801CE010E944C0B882399F0B7
:20182000288139818C819D81B701820F931F0E9418291D830C83CE01DF91CF911F910F911E
:20184000FF90EF900895CE010E94740BF4CFFC01808191810C944621EF92FF920F931F93AD
:20186000CF93DF93EC01198218821B821A821D821C828617970719F1FB0100811181011592
:201880001105E9F0E480F580B7010E944C0B811109C0CE01DF91CF911F910F91FF90EF9077
:2018A0000C94740BFD82EC82B80188819981DF91CF911F910F91FF90EF900C941829DF91C1
:2018C000CF911F910F91FF90EF900895CF92DF92EF92FF920F931F93CF93DF93C82F7B012E
:2018E000142F022F80E590E00E94C1092A9880E190E00197F1F78C2F0E94BA09E7011150B7
:20190000A0F0002349F08FEF0E94BA09E114F104B1F388832196F3CF6E018FEFC81AD80A35
:2019200088810E94BA09E601EACF2A9AE0E1F0E03197F1F7DF91CF911F910F91FF90EF9066
:20194000DF90CF900895CF93DF931F92CDB7DEB7698320E041E0BE016F5F7F4F0E94660C02
:201960000F90DF91CF9108956FE080E20E94A30C609118016F3F19F08AE20E94A30C299A18
:20198000089521E041E070E060E00C94660C81E10E94C10C873231F485E00E94C10C91E0F2
:2019A0008C3409F090E0892F089520E040E070E060E00C94660CCF93DF9361E088E00E94C8
:2019C000BA0461E087E00E94BA0461E086E00E94BA0461E085E00E94BA0460E080E10E94F1
:2019E000BA0460E081E10E94BA0460E082E10E94BA0461E080E10E948C0461E081E10E940B
:201A00008C0461E082E10E948C048EEE91E00E94942761E0811101C060E087E00E948C04A9
:201A20008FEE91E00E94942761E0811101C060E086E00E948C0480EF91E00E94942761E071
:201A4000811101C060E085E00E948C0460E170E081EE93E00E94AE06C5E0D0E0D093E803F0
:201A6000C093E70361E170E083ED93E00E94AE06D093DA03C093D90362E170E085EC93E078
:201A80000E94AE06D093CC03C093CB03DF91CF910895FC012481229526952770213011F42F
:201AA00087810895211104C007960E94CF21089580E00895CF92DF92EF92FF920F931F938A
:201AC000CF93DF93CDB7DEB7C857D1090FB6F894DEBF0FBECDBF0E944E059B01AC0119A2E0
:201AE0008E010F5D1F4F8AE0C82ED12CE12CF12CCA01B901A70196010E940928605DF801A9
:201B000062938F01211531054105510589F7309719F0CF010E940A0B8EE691E00E943E0696
:201B20009E012B573F4FCD57DF4F48815981C358D04068E770E0CE0101960E948722CE01B7
:201B400001960E940A0B84EA92E00E945906C858DF4F0FB6F894DEBF0FBECDBFDF91CF91F1
:201B60001F910F91FF90EF90DF90CF900895AF92BF92CF92DF92EF92FF920F931F93CF9370
:201B8000DF93EC010A818091660280FF17C00F3FB1F180E493E09F938F930E945A0D0F90C9
:201BA0000F9000E0802FDF91CF911F910F91FF90EF90DF90CF90BF90AF9008951091A1028C
:201BC0000023F1F00F3FD9F0802F90E003960E949427182F8F3FA1F41F920F938BE293E0F8
:201BE0009F938F930E945A0D1091A1020F900F900F900F908881811303C0102F01C01FEF5A
:201C00008091A00288834B8100E242FD05C046954695469507E0040FF090A3028F2D8170F7
:201C2000E82E299880E091E00197F1F76EE080E20E94A30C84EC90E00197F1F7612F8AE21F
:201C40000E94A30C612F80E30E94A30C81EE0E94D50C1F3F11F080EAE11080EB402F013236
:201C600008F040E220E0BE010E94660C299AD12CC12C8FEF0E94D50C082F807321F491E019
:201C8000C91AD108B1F7299860E387E20E94A30C04FF03C081EE0E94D50C0E94B40C05FF04
:201CA00002C0FF24F39481E01F3F09F080E00F2D0170082B8C818770833029F48D81E9E60F
:201CC000F1E0813121F0CE010E946F0AFC0164E771E0002311F061E771E0509167025F7017
:201CE0009B8192FBAA24A0F8492F4695469546959C81B92EB294B69487E0B822ED80977083
:201D0000CE80DA80A12FB0E0F88089812091A30220FD07C02BE731E0002329F02BEA31E07A
:201D200002C029E731E0FF93EF937F936F931F925F931F92AF921F924F931F92BF921F92BD
:201D4000EF921F929F931F92CF921F92DF92BF93AF931F92FF921F928F933F932F9380EE40
:201D600092E09F938F930E945A0D8DB79EB74E960FB6F8949EBF0FBE8DBF8091A102811308
:201D800011CF80916702011108C091E0980F9F70807F892B8093670205CF807FFBCF20916B
:201DA000660222FD0C94B70D86E593E09F938F930E945A0D0F900F9080E008951F93CF93AE
:201DC000DF93182F262FEA0140E0682F80E00E9453041F3F11F4CDE7D1E0BE010E94170BAF
:201DE000DF91CF911F910C94CF0E21E043E06FEF80E00E9453046BEA71E00E94170B0C9401
:201E0000CF0EFC018091A00281839481907F9160948380916C0280FF03C0CF010C94CF0EF7
:201E200088E398E09F938F930E945A0D0F900F9080E00895CF93C82F8FEF8C0F8E3F10F5E3
:201E4000C093A002C093180163E082E20E94A30C61E081E20E94A30C0E94B40C6C2F90E0C7
:201E600080E00E94AC271F92CF9389EB92E09F938F930E945A0D0F900F900F900F9081E05A
:201E8000CF9108951F92CF938BEC92E09F938F930E945A0D8FEF8093A0020F900F900F90DC
:201EA0000F9080E0EDCF2F923F924F925F926F927F928F929F92AF92BF92CF92DF92EF92BA
:201EC000FF920F931F93CF93DF93CDB7DEB72A970FB6F894DEBF0FBECDBF8091660284FB30
:201EE000442440F884FF2CC50E944E050091B3011091B4012091B5013091B601601B710B68
:201F0000820B930B613A7B4B8D409105D0F00E944E056093B3017093B4018093B5019093D2
:201F2000B6010E94C70C8111A0C087E596E09F938F930E945A0D8AE191E00E948E090F9090
:201F40000F9086E0782E9EED292E93E0392E87E10E94C10C80FDC7C47A94772009F4C3C412
:201F600021E041E070E060E080E60E94660CD82E40E2481720F482EE0E94D50CD12C21E0A9
:201F80004D2D60E174E081E60E94660C60E487E20E94A30C80911304C82EC694C694C6948D
:201FA00099E19C1510F409E1C02E17E0512E5C0C82FF02C0B0E25B2E809114048770F82E98
:201FC0001091150400911104E090100460901204A3E08A1304C089E691E0113121F080E19F
:201FE00094E00E946F0AAC2CB12C802E912C9F938F938091130482FB882780F91F928F933E
:202000001F92CF92809114048295869587701F928F931F921F931F92FF92809116041F9208
:202020008F931F926F921F92EF921F920F938DE196E09F938F930E945A0D0FB6F894DEBF18
:202040000FBECDBF5D14C1F01F925F921F92DF9285E096E09F938F930E945A0D0F900F90CB
:202060000F900F900F900F9072CF86E696E09F938F930E945A0D63CF809113048370823065
:2020800041F01F9292E09F931F928F938FEE95E0E1CF8091A102E81649F08091A002081788
:2020A00029F06E2DC40103960E94AC27809167028068809367028091A002681244C3809176
:2020C0001304282F2695269526952A3108F029E198E0299F900111248770822B8093130430
:2020E000F501E05FFB4F17828091140483FF21C08EED95E09F938F930E945A0D81E2E0E1CB
:20210000F4E0AFEEB3E001900D928A95E1F78091F303877F80618093F3038091A0028093D7
:20212000F0030093F1038FEE93E00E94CF0E0F900F909091140494FD01C3A3E0FA125AC140
:202140008091150421EF280F233008F400CF1430B1F48091160490911901891711F08F3F32
:2021600039F480E194E00E94490D0E941A0FEFCE86EC95E09F938F930E945A0D2DC1183063
:2021800021F51091660210FF1DC080E194E00E94490D8F3F09F4DBCE8F5F8F3F09F4D7CE95
:2021A0009091A202891708F0D2CE11FDD0CE8093A2020093A1021F928F931F920F938AEAEF
:2021C00095E048CF82E995E0D5CF1831D1F480E194E00E94490D1F928F931F920F9386E781
:2021E00095E09F938F930E945A0D29E143E06FEF802F0E94530461E00E9464090E94B70D24
:202200002DCF1931E9F48091660283FF16C0877F8093660280E194E00E94490D80936802FF
:202220001F928F938DE595E09F938F930E945A0D0F900F900F900F908ACE80E495E09ACF71
:202240001E3109F484CE1D3169F42FE143E06FEF80E00E94530460E07FEF0E9457090E94F9
:20226000B70D75CE209111042111C1C08D3059F488E198E00FB6F894A895809360000FBE25
:2022800090936000FFCF8B3199F480E194E00E94490D91E0811101C090E080916C0290FB99
:2022A00080F980936C021F929F938BEA93E0BCCF8630A1F490911704842D992321F081E068
:2022C0009D3409F080E080936B0241E050E063E071E08BE692E00E949C2739CE833119F45F
:2022E0000E94941934CE8231D9F40E947B096B017C0126E143E06FEF80E00E945304FC0120
:2023000084818F71806A84838381877080628383C782D086E186F286CF010E94CF0E17CE32
:202320008230C1F422E043E06FEF80E00E945304FC0184818F71806A84838381877080628A
:202340008383CC24CA94DD24D394A3E0EA2EA2E0FA2EDECF8130D9F4929596959770953033
:2023600059F460911704709118048091190490911A040E941807EBCD911105C087E194E0BE
:202380000E94ED21F6CF60E070E0CB01F2CF8A3031F580911704833409F0D9CD03E010E076
:2023A0006FEFC8010E94AC270F5F1F4F033021E01207B1F78FE993E09F938F930E945A0D68
:2023C0002AE043E06FEF80E00E94530461E771E00E94170B0E94CF0E0F900F90B8CD8C31BD
:2023E00009F4B5CD80E194E00E943817B0CD8A31C9F7ADCD44E0F412F5CF1091150411303D
:2024000009F0A2C08091B701882319F080E994E0B1CE48E050E067E174E080EC91E00E9415
:202420000229892B09F487C080E894E09F938F930E945A0D88E0E7E1F4E0A0ECB1E001908E
:202440000D928A95E1F78CB5809334048DB58093350461E0809131040E94BA040E94DA0861
:2024600080E580933604109337040E94D60960E08BEA0E94F5090E94D6090F900F90809126
:20248000320490913304892B99F561E081E00E94F50980E00E94BA090E94D60961E082E53C
:2024A0000E94F50980E00E94BA0980E00E94BA0980E00E94BA090E94D6090E94E50981118A
:2024C000FCCF8091C4019091C5019093B2018093B10181E08093B70186E08093B0011092E1
:2024E000AC011092AD011092AE011092AF012FCD0E94C4098FE90E94BA0980E00E94BA092F
:20250000082F10E0102F002780E00E94BA09082B0E94D609809132049091330480179107E7
:2025200009F4B3CF86E694E09F938F930E945A0D1092B70151CF8EE494E09F938F930E9489
:202540005A0D0F900F904ECF133009F04BCF8091B701882309F4EFC000911B0410911C04D2
:202560001F930F9389E394E09F938F930E945A0D6091B1017091B201CB0101970F900F90D1
:202580000F900F900817190719F085E294E0F2CDE4E0660F771FEA95E1F76650710990E055
:2025A00080E020E130E04DE154E00E94140A0E94E5098111FCCF1093B2010093B101012BD4
:2025C00009F08ACF85E194E09F938F930E945A0D1092B7010F900F90812C912C54010FEF1D
:2025E0001FEF8091C4019091C501AC0164E0440F551F6A95E1F770E060E084169506A60610
:20260000B70680F560E083E00E94F509750164018AE0C80ED11CE11CF11C8E2D0E94BA0913
:202620008D2D0E94BA098AE0880D0E94BA0980E00E94BA09F82E0E94D6090F2588E0980176
:202640002170332716950795232B21F091E0092790EA1927815099F7AFEF8A1A9A0AAA0A93
:20266000BA0ABFCF2091C7012F932091C6012F931F930F939F938F9380EC93E09F938F93B8
:202680000E945A0D0FB6F894DEBF0FBECDBF8091C6019091C7010817190709F043C085E089
:2026A00094E09F938F930E945A0D48E050E06BE171E080EC91E00E949C278091C40190911B
:2026C000C50144E0880F991F4A95E1F726E429832CE42A8328E52B8329E42C832DE42D835F
:2026E00027E42E832AE32F832A87988789872AE030E0AE014F5F5F4F60E070E0CB010E945C
:20270000140A0F900F900E94E5098111FCCF88E198E00FB6F894A895809360000FBE90939E
:202720006000FFCF82EF93E09F938F930E945A0D0F900F90D1CE3F922F921ECDA3E3B5E0B5
:20274000BF93AF93FCCEDD24DA946D109EC087E295E09F938F930E945A0D0F900F90B3E0C5
:20276000FB1265C08091660282FF45C0173009F042C08091A102081709F4E9CB1F920F930F
:202780003FE0C32E35E0D32EDF92CF920E945A0D0E9433150F900F900F900F90882321F115
:2027A0000E944E05609362027093630280936402909365028FEF94E09F938F930E945A0D13
:2027C0000E944E057370882799270E941B0528E043E06FEF802F0E9453046091A2020E9488
:2027E00064090E94B70DF8CD2CEEC22E24E0D22EDF92CF92C1CC183009F4A9CB1431B9F429
:202800008091A102E81213C00E944E057370882799270E941B0525E143E06FEF802F0E9456
:2028200053046091A1020E9464090E94B70D8091A102E8128CCB8091A002081709F4DCC0C8
:202840008091660282FFD8C088ED94E09F938F930E945A0D80E194E00E94B70D0F900F9027
:20286000B3E0FB1609F473CB8091A102E8126FCB98ECC92E94E0D92EDF92CF920E945A0DC0
:2028800080E194E00E943817A7CD8091660282FF5ECB23E0F2121CC018511230C8F480E130
:2028A00094E00E94490D182F1F928F9380EB94E09F938F930E945A0D0F900F900F900F90DA
:2028C0001E3F31F061E0610F80E194E00E9464098FE9C82E84E0D82EDF92CF920E945A0D32
:2028E00080E194E07ECF8091660282FF29C00E944E052091B701222319F10091AC01109147
:20290000AD012091AE013091AF016B017C01C01AD10AE20AF30A97018601053F11402105D7
:20292000310570F02091B001211123C089E893E09F938F930E945A0D1092B7010F900F90B1
:202940002A960FB6F894DEBF0FBECDBFDF91CF911F910F91FF90EF90DF90CF90BF90AF90E6
:202960009F908F907F906F905F904F903F902F90089521502093B0016093AC017093AD01DC
:202980008093AE019093AF01C090C001D090C101E090C201F090C3010091B1011091B20161
:2029A000015011091F930F93FF92EF92DF92CF9284E693E09F938F930E945A0D22E044E014
:2029C0006FEF80E00E945304FC01838187708063838384818F71806C8483C782D086E18661
:2029E000F28614870387CF010E94CF0E0FB6F894DEBF0FBECDBFA4CF93E0F91239CFA7CA3A
:202A0000CF92DF92EF92FF92CF93DF93D82F0E944E056B017C0110921504C0E00E944E05C9
:202A20006C197D098E099F09603D77408105910590F4C11110C0A8950E9470090E94530F5A
:202A4000809114048770833049F7C1E0809115048D13E3CFE3CF8C2FDF91CF91FF90EF90FB
:202A6000DF90CF900895CF92DF92EF92FF92CF930E944E05C0906202D0906302E090640261
:202A8000F09065026C197D098E099F09603177428105910550F486E298E09F938F930E9485
:202AA0005A0D0F900F9081E02CC08091660283FBCC27C0F983FD60C01F921F928FEC97E08D
:202AC0009F938F930E945A0D0F900F900F900F908091A00281111BC0109268028091660278
:202AE000877F80936602C0916802CF3F09F04DC084EF97E09F938F930E945A0D0F900F9001
:202B000080E0CF91FF90EF90DF90CF900895809166028860809366028FEF8093680228E19C
:202B200043E06FEF80E00E94530461E00E9464090E94B70D0E944E056B017C01109215046C
:202B40000E944E056C197D098E099F09603D77408105910518F6C111C1CF0E94530FA89515
:202B6000809114048770833059F7C1E080911504893131F3C0E0E4CF83EE97E09F938F93FA
:202B80000E945A0D0F900F90B3CF0E944E05609362027093630280936402909365028AE14A
:202BA00098E09F938F930E945A0D8091A2020F900F908C1709F477CF1F92CF931F928F9381
:202BC00082E098E09F938F930E945A0DC093A2020F900F900F900F900F900F9064CF1F9328
:202BE000CF93DF93CDB7DEB768970FB6F894DEBF0FBECDBF0E943315811104C062E084E0BC
:202C00000E9416098091660282FF04C061E082E00E9416098EEE91E00E94942761E070E0F6
:202C2000811102C070E060E084EA93E00E9457090E94010F8091310190913201029784F077
:202C40008FEE91E00E94942761E070E0811102C070E060E083E893E00E9457090E94010F22
:202C60008091310190913201039784F080EF91E00E94942761E070E0811102C070E060E0FD
:202C800082E693E00E9457090E94010F0E94F50E8EE991E00E949427182F882349F08FE918
:202CA00091E00E949427813019F4143008F451C081E090E090933201809331011092BF0169
:202CC0001092BE016091BE017091BF01CE010D960E94AA0B6091310170913201CE0101969C
:202CE0000E94AA0BBE016F5F7F4FCE0107960E942C0CCE0107960E94860BBE01635F7F4FEE
:202D00000E94F40BBC01CE0143960E942C0CCE0107960E94270CCE0101960E94270CCE0188
:202D20000D960E94270C6B897C8981E493E00E94170B0E94010FCE0143960E94270C689659
:202D40000FB6F894DEBF0FBECDBFDF91CF911F910895812F90E090933201809331018FE9DC
:202D600091E00E94942790E09093BF018093BE01A9CF8F929F92AF92BF92CF92DF92EF92B1
:202D8000FF924B015C010E944E056B017C010E944E056C197D098E099F09681579058A0552
:202DA0009B0530F4A8950E9470090E94530FEFCFFF90EF90DF90CF90BF90AF909F908F907D
:202DC0000895CF93DF93EB018235910511F183359105A9F18135910509F047C087E00E940A
:202DE0008C048C2F81708093CC016C2F8EEE91E00E94AC2764E170E080E090E00E94B916E4
:202E0000BE0184EA93E00E945709DF91CF910C94010F86E00E948C048C2F81708093CB016D
:202E20006C2F8FEE91E00E94AC2764E170E080E090E00E94B916BE0183E893E0E4CF85E009
:202E40000E948C048C2F81708093CA016C2F80EF91E00E94AC2764E170E080E090E00E94BF
:202E6000B916BE0182E693E0CECFDF91CF910895EF92FF920F931F93CF93DF93CDB7DEB78C
:202E800068970FB6F894DEBF0FBECDBF8C01FC0185818230A9F4F680F7E0FF1689F0F80139
:202EA000848184FD0DC0C8010E94490D61E070E0811102C070E060E08F2D90E00E94E116C4
:202EC000F80185818331B9F486818035A1F0948194FD11C0823509F49EC0833509F4A3C0A4
:202EE000813549F46091CC0181E0682770E081E590E00E94E116F8018581883109F07EC083
:202F00008681873109F07AC0095F1F4FF80101900020E9F7CF01801B910B0E94AA20F82EC6
:202F2000E92EB8010E9418298EEB91E09F938F9381E391E09F938F9383E891E09F938F9347
:202F4000EF92FF920E942E2960913101709132010FB6F894DEBF0FBECDBF643071053CF48E
:202F60008091BE019091BF0102970CF464C081E090E090933201809331011092BF01109273
:202F8000BE016091BE017091BF01CE010D960E94AA0B6091310170913201CE0101960E94D9
:202FA000AA0BBE016F5F7F4FCE0107960E942C0CCE0107960E94860BBE01635F7F4F0E942B
:202FC000F40BBC01CE0143960E942C0CCE0107960E94270CCE0101960E94270CCE010D96C5
:202FE0000E94270C6B897C8981E493E00E94170B0E94010FCE0143960E94270C68960FB675
:20300000F894DEBF0FBECDBFDF91CF911F910F91FF90EF9008956091CB0181E0682770E066
:2030200082E590E066CF6091CA0181E0682770E083E590E05ECF8EE991E00E94AC27609135
:20304000BE018FE991E00E94AC279BCFBF92CF92DF92EF92FF920F931F93CF93DF9381EE1D
:2030600093E00E94C30683ED93E00E94C30685EC93E00E94C3068091E9038170B82EE82EEB
:20308000F12C8091DB038170C82E082F10E08091CD038170D82EC82FD0E08091BE019091A6
:2030A000BF01892B09F048C08091BC019091BD018E159F0549F06091CC0181E0682770E070
:2030C00081E590E00E94E116F092BD01E092BC018091BA019091BB018017910779F08091C0
:2030E00031019091320102974CF06091CB0181E0682770E082E590E00E94E1161093BB01A9
:203100000093BA018091B8019091B9018C179D0779F0809131019091320103974CF06091AE
:20312000CA0181E0682770E083E590E00E94E116D093B901C093B8018091BE019091BF0139
:20314000019709F04EC08091BC019091BD018E159F0559F0B11009C06091CC0181E068275B
:2031600070E081E590E00E94E116F092BD01E092BC018091BA019091BB018017910789F0D0
:20318000C1100FC0809131019091320102974CF06091CB0181E0682770E082E590E00E94AD
:2031A000E1161093BB010093BA018091B8019091B9018C179D0789F0D1100FC08091310113
:2031C0009091320103974CF06091CA0181E0682770E083E590E00E94E116D093B901C093E8
:2031E000B8010E943D070E94830780913C02882311F0C0E011C00E943D070E948307809175
:203200003B028111F6CF0E943D070E948307C1E080913A028111EDCF0E943D070E948307BA
:2032200080913C028C3011F080E011C00E943D070E94830780913B028111F6CF0E943D07B4
:203240000E94830781E090913A029111EDCFC11102C0882389F064EF71E080E090E00E9458
:20326000B916DF91CF911F910F91FF90EF90DF90CF90BF900C94F50EDF91CF911F910F9171
:20328000FF90EF90DF90CF90BF9008952BE043E06FEF80E00E94530462E271E00E94170B28
:2032A0000E94CF0E2CE043E06FEF80E00E9453046EE171E00E94170B0E94CF0E62E370E031
:2032C00080E090E00E94B91649E851E063E081E50E94DE0E62E370E080E090E00E94B9163E
:2032E0008091310190913201029764F040E951E063E082E50E94DE0E62E370E080E090E053
:203300000E94B9168091310190913201039734F047E951E063E083E50E94DE0E4EE951E0E5
:2033200068E187E10C94DE0ECF93DF93CFEED3E08B81877080658B838C818871846C8C8311
:2033400088E0E0ECF1E0A6EFB3E001900D928A95E1F783E090E0988B8F871092B70120E0B3
:2033600044E06FEF80E00E9453040E94CF0E2FE043E06FEF80E00E9453046BEA71E00E94C2
:20338000170B8B81877080618B838C818F71806C8C8381E08F831886CE010E94CF0E8FE043
:2033A0000E9400154BEA51E062E18FEF0E94DE0E26E043E06FEF80E00E9453046091A1022D
:2033C0000E9464090E94CF0E86E00E940015DF91CF910C944619CF9380916C0281FD27C02D
:2033E0000E94941982E796E09F938F930E945A0D80916C02816080936C020F900F90C4E07F
:203400002AE143E06FEF80E00E94530462E00E9464090E94CF0E8BE10E940015811102C080
:20342000C15071F780916C02826080936C02CF9108950F931F930E947B0920916702207709
:203440002037B9F000E117E220E030E0061717072807390798F487EA92E09F938F930E9473
:203460005A0D0F900F9083E391E01F910F910C948E0900E61AEE20E030E0E8CF1F910F9144
:20348000089580916702982F9077903759F0982F92959F709F5F97709295907F8F78892B44
:2034A0008093670280916702829587701F928F9386E992E09F938F930E945A0D809166027E
:2034C0008B7F8F7E8093660288E892E09F938F930E945A0D8BE792E09F938F930E945A0DDA
:2034E00029988DB79EB708960FB6F8949EBF0FBE8DBF6CE080E20C94A30C809167028F7097
:203500008B3060F082E692E09F938F930E945A0D0F900F9084E191E00C948E090895809170
:20352000A2021F928F938091A1021F928F938091A0021F928F9383E492E09F938F930E9438
:203540005A0D8091660284608093660280916702807880936702E091C801F091C9018DB775
:203560009EB708960FB6F8949EBF0FBE8DBF309709F009940895809168028F3F81F10E943A
:203580004E056093620270936302809364029093650287E392E09F938F930E945A0D9091BC
:2035A00068028091A2020F900F909817A1F01F929F931F928F938FE192E09F938F930E94E0
:2035C0005A0D809168028093A2020F900F900F900F900F900F9080E191E00C948E090E94ED
:2035E0007B09613D774081059105B8F080916602803618F48CE091E0F0CF80E192E09F9352
:203600008F930E945A0D80916602877F809366020F900F9084E191E0E0CF089587E092E04C
:203620009F938F930E945A0D8FEF80936802E6E6F2E080818860808328E143E06FEF80E0BE
:203640000E94530461E00E9464090F900F900C94B70D8091A0028F3F61F08CEF91E09F938F
:203660008F930E945A0D0F900F908CE091E00C948E090E947B09613D77408105910590F0B6
:2036800080916602803618F488E091E0F0CF8EEE91E09F938F930E945A0D0F900F908AE164
:2036A00091E0E5CF0895CF9386EE91E09F938F930E945A0D0F900F908091A0028F3F01F5EF
:2036C0000E944E056F3FC9F060931901C09119018AED91E09F938F930E945A0D23E043E0AB
:2036E0006C2F80E00E9453046BEA71E00E94170B0F900F90CF910C94B70D10921901E6CFF9
:20370000CF9108950E947B09613D77408105910520F48091660281FF2FC08091A1028F3F97
:2037200089F08DEC91E09F938F930E945A0D809166028E7F809366020F900F9088E091E0B1
:203740000C948E0980916602803658F489EA91E09F938F930E945A0D0F900F9084E191E062
:20376000EFCF8DEB91E09F938F930E945A0D0F900F908AE191E0E4CF08958FE991E09F93C0
:203780008F930E945A0DE6E6F2E08081897F81608083E0EAF2E08FEF8283818327E043E026
:2037A0006FEF0E9453046BEA71E00E94170B0F900F900C94B70D219A229A29982A9A0E9408
:2037C000DA0829986EE080E20E94A30C84E293E20197F1F763E083E20E94A30C6FE584E237
:2037E0000E94A30C6CE485E20E94A30C67E281E30E94A30C64E08DE30E94A30C8DE10E945D
:20380000C10C843041F063E780E50E94A30C64E08DE30E94A30C0E94C70C81110BC08AE7AE
:2038200091E09F938F930E945A0D0F900F908AE191E046C062E082E20E94A30C60E081E200
:203840000E94A30C63E08CE30E94A30C8FEF8093030120E045E063E071E08BE20E94660C45
:2038600020E045E063E071E08AE20E94660C20E045E063E071E080E30E94660C82EE0E94CD
:20388000D50C81EE0E94D50C60E787E20E94A30C8EE891E09F938F930E945A0D8091660297
:2038A0008061809366028091A3028E7F8093A3028091A0020F900F908F3F21F484E191E087
:2038C0000C948E090E941A0F8111F8CFB0CF80E791E09F938F930E945A0DE6E6F2E080813A
:2038E000877F8F7E8083109262021092630210926402109265020E944E056093B3017093F5
:20390000B4018093B5019093B6010F900F9044E050E070E060E080EA92E00C9484271F9255
:203920000F920FB60F9211242F933F938F939F93AF93BF938091540290915502A091560267
:20394000B09157023091530226E0230F2D3758F50296A11DB11D2093530280935402909316
:203960005502A0935602B09357028091580290915902A0915A02B0915B020196A11DB11D94
:203980008093580290935902A0935A02B0935B02BF91AF919F918F913F912F910F900FBE31
:2039A0000F901F90189529E8230F0396A11DB11DD2CF1F920F920FB60F9211242F933F9382
:2039C0004F935F936F937F938F939F93AF93BF93EF93FF93E0913901F0913A010995FF916E
:2039E000EF91BF91AF919F918F917F916F915F914F913F912F910F900FBE0F901F90189590
:203A00001F920F920FB60F9211242F933F934F935F936F937F938F939F93AF93BF93EF93D3
:203A2000FF93E0913701F09138010995FF91EF91BF91AF919F918F917F916F915F914F9123
:203A40003F912F910F900FBE0F901F9018951F920F920FB60F9211242F933F934F935F931A
:203A60006F937F938F939F93AF93BF93EF93FF9384EA92E00E94CF05FF91EF91BF91AF9140
:203A80009F918F917F916F915F914F913F912F910F900FBE0F901F9018951F920F920FB6E8
:203AA0000F9211242F938F939F93EF93FF93E091B402F091B5028081E091BA02F091BB023B
:203AC00082FD1BC090818091BD028F5F8F732091BE02821741F0E091BD02F0E0EC55FD4FF3
:203AE000958F8093BD02FF91EF919F918F912F910F900FBE0F901F9018958081F4CF1F92D4
:203B00000F920FB60F9211242F933F934F935F936F937F938F939F93AF93BF93EF93FF93F1
:203B20008091B900887F803609F44AC0F0F5883209F4A5C018F5803109F499C0B8F488238B
:203B400009F4F5C0883009F492C0FF91EF91BF91AF919F918F917F916F915F914F913F910C
:203B60002F910F900FBE0F901F901895883109F486C0803251F78093130214C0803409F47B
:203B80009BC040F48033B9F38833F9F68093130285ECAEC0803509F483C0883509F494C083
:203BA000883499F60E947C08D0CF883909F48AC038F5883729F050F4883611F0803729F60F
:203BC00083E0809314021092120255C0883809F479C0803919F0803809F0B7CF809112027A
:203BE000803208F06FC0E091120281E08E0F809312028091BB00F0E0EE50FE4F80833BC01D
:203C0000803B39F0D0F4803A09F477C0883A09F09CCF84E0809314021092F1011092F00134
:203C2000F0E0E0E009958091F00181110FC081E08093F0011092D00109C0803C09F4A8CF22
:203C4000883C09F4A5CF883B09F07FCFE091F10181E08E0F8093F101F0E0E053FE4F80816E
:203C60008093BB009091F1018091F00129C0809139028093BB0085EC8093BC0066CF9091C8
:203C8000380280913702981758F5E091380281E08E0F80933802F0E0E95EFD4F8081E9CF92
:203CA000E091380281E08E0F809338028091BB00F0E0E95EFD4F8083909138028091370237
:203CC0009817C8F285E8D8CFE091380281E08E0F809338028091BB00F0E0E95EFD4F80833F
:203CE0008091160281115ECF81E08093150284EA8093BC001092140228CF85EC8093BC0025
:203D00001092140280911202803230F4E0911202F0E0EE50FE4F10826091120270E082EFB8
:203D200091E0F0E0E0E00995109212020ECF1092130238CF1F920F920FB60F9211240F9007
:203D40000FBE0F901F901895CF93DF93FC01108211821282148215821682DC0117968AE157
:203D6000ED0119928A95E9F782E08383DF91CF910895CF93E4EAF2E01382128288EE93E0C2
:203D8000A0E0B0E084839583A683B78381E591E09183808385EC90E09587848784EC90E0BB
:203DA0009787868780EC90E0918B808B81EC90E0938B828B82EC90E0958B848B86EC90E0DE
:203DC000978B868B118E128E138E148EE1E3F4E080E5858381E0868388E0808385E69FE169
:203DE0009283818380E194E00E94A41E8FEE93E00E94A41EE1EEF3E023E631E0318320830A
:203E000012821382148215828AE090E09783868310861186E3EDF3E03183208312821382FF
:203E2000148215829783868310861186E5ECF3E03183208312821382148215829783868391
:203E40001086118684EA93E00E94A41EE4EAF3E081E58683C2E0C58383E893E00E94A41EB4
:203E6000E3E8F3E082E58683C58382E693E00E94A41EE2E6F3E083E58683C58381E493E081
:203E80000E94A41EE1E4F3E087E1868388E18583CF910895789484B5826084BD84B58160C5
:203EA00084BD85B5826085BD85B5816085BD80916E00816080936E00109281008091810070
:203EC00082608093810080918100816080938100809180008160809380008091B1008460BA
:203EE0008093B1008091B00081608093B00080917A00846080937A0080917A00826080931D
:203F00007A0080917A008E7F80937A0080917A00806880937A001092C100A89580E090E092
:203F2000892B11F00E940000E091B402F091B50282E08083E091B002F091B1021082E0910C
:203F4000B202F091B30287E680831092BC02E091B802F091B90286E08083E091B602F0912D
:203F6000B702808180618083E091B602F091B702808188608083E091B602F091B7028081F0
:203F800080688083E091B602F091B70280818F7D8083C0E1D0E0F12CFE01F595E795EA570F
:203FA000F94FE491C0FFAAC0EF70E83008F0A8C0F0E0EA57F94FF4906F2D84EA92E00E9449
:203FC000F1052196C23FD10539F78FE796E00E943E0689EA91E00E940A0B1F928FEF8F936F
:203FE00081E497E09F938F930E945A0D80916C028D7F80936C0284E397E09F938F930E94A8
:204000005A0D0E94DB0C41E050E063E071E08BE692E00E94842748E050E06BE171E080EC3A
:2040200091E00E9484276FEF81E090E00E94AC27809167028F788093670210925D0210927E
:204040005C0283E391E00E948E098BEE99E19093C9018093C8011F921F921F921F928FEFF4
:2040600096E09F938F930E945A0D0E944E058DB79EB70C960FB6F8949EBF0FBE8DBF0E94D4
:204080004E050E9470090E94530F8091660282FB882780F9A895882391F387E297E09F9312
:2040A0008F930E945A0D0E94EF15909166020F900F9092FB882780F992FD0E94C70C1F92FE
:2040C0008F938FE097E09F938F930E945A0DA8950F900F900F900F90C0E0D0E0A8950E9493
:2040E00070090E94530F0E9426182097B9F30E94C505882399F30E940000F0CFE29554CF62
:204100001BEF1E0F00E06F2D84EA92E00E94F1050F5F0117C0F355CFEF920F931F93CF93E0
:20412000DF93E80134E047FD34E1042E000C550B57FF03C0519541955109E32E022F242F55
:20414000AE010E948D24CE01DF91CF911F910F91EF9008950F931F93CF93DF9382309105E2
:2041600010F482E090E0E0913A04F0913B0430E020E0B0E0A0E0309799F42115310509F41D
:204180004AC0281B390B24303105D8F58A819B816115710589F1FB0193838283FE0111C0C3
:2041A000408151810281138148175907E0F04817590799F4109761F012960C9312971396E9
:2041C0001C933296CF01DF91CF911F910F91089500933A0410933B04F4CF2115310551F0B8
:2041E0004217530738F0A901DB019A01BD01DF01F801C1CFEF01F9CF90933B0480933A0431
:20420000CDCFFE01E20FF31F819391932250310939832883D7CF2091380430913904232BD6
:2042200041F420913D0130913E01309339042093380420913B0130913C012115310541F4DF
:204240002DB73EB740913F0150914001241B350BE0913804F0913904E217F307A0F42E1B98
:204260003F0B2817390778F0AC014E5F5F4F2417350748F04E0F5F1F50933904409338044C
:20428000819391939FCFF0E0E0E09CCFCF93DF930097E9F0FC01329713821282A0913A04DB
:2042A000B0913B04ED0130E020E01097A1F420813181820F931F2091380430913904281784
:2042C000390709F061C0F0933904E0933804DF91CF910895EA01CE17DF07E8F54A815B816E
:2042E0009E0141155105B1F7E901FB83EA8349915991C40FD51FEC17FD0761F480819181FC
:204300000296840F951FE90199838883828193819B838A83F0E0E0E012968D919C9113973E
:204320000097B9F52D913C911197CD010296820F931F20913804309139042817390739F6C3
:20434000309751F510923B0410923A04B0933904A0933804BCCFD383C28340815181840F54
:20436000951FC817D90761F44E5F5F4F88819981480F591F518340838A819B81938382834F
:204380002115310509F0B0CFF0933B04E0933A049ECFFD01DC01C0CF13821282D7CFFC0123
:2043A00088279927E89421912032E9F3293010F02E30C8F32B3241F02D3239F4689404C0E6
:2043C0000E944322820F911D219120532A30C0F31EF4909581959F4F08951F93FC0199271E
:2043E0008827BC01E89411911032E9F3193010F01E30C8F31B3251F01D3249F4689406C0E7
:204400000E942E22610F711D811D911D119110531A30B0F33EF490958095709561957F4F39
:204420008F4F9F4F1F910895BB274A3031F4992322F4BDE2909581959F4F0C946E22BB2736
:204440002A3051F4992342F4BDE290958095709561957F4F8F4F9F4F0C944C22592F482F50
:20446000372F262F660F771F881F991F660F771F881F991F620F731F841F951F660F771F48
:20448000881F991F08957AE0979F902D879F802D910D11240895BB27FA01A62F62177105EF
:2044A00081059105330B30FB66F0AA27660F771F881F991FAA1FA21710F0A21B6395385027
:2044C000A9F7A05DAA3308F0A95DA19336F7B111B1931082CA010C94E326BB27FB0155279D
:2044E000AA27880F991FAA1FA41710F0A41B83955051B9F7A05DAA3308F0A95DA19300974D
:2045000079F7B111B1931192CB010C94E326AEE0B0E0EDE8F2E20C94CC278C01FA018EE0BD
:204520008C831A83098377FF02C060E070E8615071097E836D83A901BF01CE0101960E94E5
:20454000B3224D815E8157FD0AC02F813885421753070CF49A01020F131FF80110822E966E
:20456000E4E00C94E827ABE0B0E0E9EBF2E20C94BE277C013B018A01FC011782168283810A
:2045800081FFC8C1CE0101965C01F7019381F30193FD859193FF81913F01882309F453C109
:2045A000853239F493FD859193FF81913F01853229F4B70190E00E94F326E7CF912C212C16
:2045C000312CFFE1F31538F08B3211F190F4803209F1833229F137FC3CC020ED280F2A30E3
:2045E00050F536FE20C08AE0989E200D1124922E06C08D3291F0803371F7689430F8F30167
:2046000093FD859193FF81913F018111DACF21C0689431F8689432F8F2CF689433F8EFCF03
:20462000689434F8ECCFEAE02E9E200D1124222E689435F8E4CF8E3229F436FC04C16894A3
:2046400036F8DDCF8C3619F4689437F8D8CF8836B1F2982F9F7D95549330E0F08336A1F1D4
:204660008337C1F1833509F063C02801F2E04F0E511CF801C080D180692D70E036FC02C0D1
:204680006FEF7FEFC6010E94CD264C01689437F882010AC00C5F1F4FFFE3F9838824839433
:2046A000912C6501E89437F833FE2DC0522C8114910471F5552009F468CFB70180E290E0CD
:2046C0000E94F3265A94F6CFF801808189830E5F1F4FE4CF2801F2E04F0E511CF801C080DA
:2046E000D180692D70E036FC02C06FEF7FEFC6010E94D8264C018201D5CFB70180E290E05E
:204700000E94F3262A942814190409F0B0F7CECFF60137FC859137FE81916F01B70190E06B
:204720000E94F32651105A94F1E08F1A9108BFCF843619F0893609F077C0F80137FE6BC0C3
:2047400060817181828193810C5F1F4FF32DFF763F2E97FF09C090958095709561957F4F32
:204760008F4F9F4F689437F82AE030E0A5010E942327C82ECA188C2C432C36FE0CC0E8941B
:2047800040F8C91440F434FE05C032FC03C0F32DFE7E4F2E892C44FE95C0FE01EC0DF11D7D
:2047A0008081803309F087C0242D297E422E842D8870582E43FC95C040FE8FC09C2C8214EF
:2047C00018F42C0C922C981844FE91C0B70180E390E00E94F32642FE09C088E790E041FE27
:2047E00002C088E590E0B7010E94F326C91408F48AC0CA94D12C9FEFC91AD90ACA0CDB1C08
:20480000F60182916F01B70190E00E94F326AC14BD04B1F74FCF60817181072E000C880B4D
:20482000990B0E5F1F4F92CFD32CE894D4F82AE030E0853739F1232D297FD22E8F3601F1A2
:2048400048F48835A9F0F701868197812B96E2E10C94DA27803749F08837A9F7D4FE02C0A7
:204860006894D2F820E130E00DC06894D4F8F6CF34FE03C0822F8660D82E20E132E002C0A0
:2048800028E030E0F801D7FE0FC060817181828193810C5F1F4FA5010E942327C82ECA1836
:2048A0003D2CE89437F867CF6081718190E080E00E5F1F4FF0CF42FC02C0839478CF8394FC
:2048C000839475CF842D867809F471CFF6CFB70180E290E00E94F32683948214C0F3512CAA
:2048E00073CF522C5818821408F46ECFF8CF842D867809F47BCF8BE241FE80E247FC8DE23C
:20490000B70190E071CFB70180E390E00E94F3269A946CCF8FEF9FEF99CFA9E0B0E0E3E927
:20492000F4E20C94C4276A01F22EB02E102FFBE3AF2EA01608F41BE31F5F012F27E0AE019F
:204940004F5F5F4F0E94EC25BC018981982F9970913009F43FC09BE2E1FC04C09E2D91700A
:20496000E0FC3AC05E2D5071E82FE87083FF46C084E0911101C083E0EF2DE81B8F1508F039
:20498000E0E0D6018E2F20E2552351F1992329F0D6019C93C60101966C0196012D5F3F4FB0
:2049A000E2FE24C08EE4D6018C9391E411969C93119712968C93D9018E2F90E281111BC09B
:2049C000E20FF32FF11D10828EEF9FEF2996ECE00C94E0279DE2C6CF90E2C4CF2D9381503D
:2049E0008111FCCFCE0ED11CE0E0D0CF8EE6D6018C9391E6DBCF9D938150E0CF482F4470CC
:204A000082FF3DC084E0911101C083E08F1510F4EF2DE81BD6018E2F20E2552309F1992363
:204A200029F0D6019C93C60101966C0196012D5F3F4FE2FE1BC089E4D6018C938EE41196A4
:204A40008C93119786E412968C93D9018E2F90E2882309F4B5CF9D938150FACF2D938150CE
:204A60008111FCCFCE0ED11CE0E0D9CF89E6D6018C938EE611968C93119786E6E4CF9B01A6
:204A800077FF02C030E020E0A1E0B0E0911102C0B0E0A0E0F9013196AE0FBF1F8B2C912C79
:204AA000BB2009F461C05401EFEFAE1ABE0AAA0DBB1DFA161B0619F014F04F2D4A1B51112A
:204AC00088C0E3FC59C07601A42FB0E2A1114FC0C40ED11C992309F45BC040E0D6011196C8
:204AE000F60190836D01552309F448C0012F060F9A81582F507184FF03C0913309F40150C1
:204B000010160CF047C0093008F008E0EEE2FE2E5B01A01AB10885019194819491082F3FC1
:204B2000320729F4D601FC92F60131966F016217730794F1021713077CF5DB01A21BB30B19
:204B4000AA24A394B12CAC0EBD1EAA0DBB1D11968C9121503109D601119628153905F4F003
:204B6000F60180836D01DBCFB12CA12CA0CFF701B1937F01A150AACF9111B0CFD601942F29
:204B800050E302C05D9391509111FCCFC40ED11C40E0ACCF01E0BACF80E3DBCF621773071E
:204BA00031F4963388F4953311F4552369F0F6018083FD01842F90E2811108C0A40FB11DF5
:204BC0001C9290E080E002CF81E3F1CF91938150F3CF911183CF8ACF283008F027E03327AD
:204BE000DA01990F311D87FD916000966105710539F432602E5F3D9330E32A95E1F708959A
:204C00009F3F30F080387105610509F03C5F3C5F3D93913008F08068911DDF93CF931F932E
:204C20000F93FF92EF92192F987F9695E92F96959695E90FFF27EE53FF4F99273327EE24EF
:204C4000FF24A701E70105900894079428F4360FE71EF81E491F511D660F771F881F991F19
:204C60000694A1F70590079428F4E70EF81E491F561FC11D770F881F991F661F0694A1F754
:204C80000590079428F4F80E491F561FC71FD11D880F991F661F771F0694A1F70590079445
:204CA00020F4490F561FC71FD81F990F661F771F881F0694A9F784911095177041F0D695B5
:204CC000C79557954795F794E7941A95C1F7E8E6F0E06894159015913591659195910590E7
:204CE0007FE27395E118F10A430B560BC90BD009C0F7E10CF11E431F561FC91FD01D7EF42A
:204D0000703311F48A95E6CFE894015030F0080F0AF40027021708F4202F2395022F7A33F4
:204D200028F079E37D932A95E9F710C07D932A9589F6069497956795379517951794E11854
:204D4000F10A430B560BC90BD00998F023957E9173957A3308F070E37C932013B8F77E91AD
:204D600070617D9330F0839571E37D9370E32A95E1F71124EF90FF900F911F91CF91DF9169
:204D8000992787FD9095089591110C948127803219F089508550C8F70895FC01059061501B
:204DA00070400110D8F7809590958E0F9F1F0895FC016150704001900110D8F78095909528
:204DC0008E0F9F1F0895DC01FC01672F71917723E1F7329704C07C916D9370836291AE17B2
:204DE000BF07C8F308950F931F93CF93DF93182F092FEB018B8181FD09C01FEF0FEF812FF3
:204E0000902FDF91CF911F910F91089582FF14C02E813F818C819D81281739073CF4E8810F
:204E2000F981CF0101969983888310838E819F8101969F838E83E3CFE885F985812F0995F3
:204E4000892BA1F3DACFFA01AA27283051F1203181F1E8946F936E7F6E5F7F4F8F4F9F4F66
:204E6000AF4FB1E03ED0B4E03CD0670F781F891F9A1FA11D680F791F8A1F911DA11D6A0F2C
:204E8000711D811D911DA11D20D009F468943F912AE0269F11243019305D3193DEF6CF017F
:204EA0000895462F4770405D4193B3E00FD0C9F7F6CF462F4F70405D4A3318F0495D31FD97
:204EC0004052419302D0A9F7EACFB4E0A6959795879577956795BA95C9F7009761057105A0
:204EE00008959B01AC010A2E06945795479537952795BA95C9F7620F731F841F951FA01D84
:204F00000895992788270895DC01CB01FC01F999FECF06C0F2BDE1BDF89A319600B40D9224
:204F200041505040B8F70895F999FECF92BD81BDF89A992780B50895DC01A40FB51F4150FF
:204F4000504048F0CB01840F951F2E910E94AD2741505040D0F70895262FF999FECF92BDB9
:204F600081BDF89A019700B4021639F01FBA20BD0FB6F894FA9AF99A0FBE08952F923F92AA
:204F80004F925F926F927F928F929F92AF92BF92CF92DF92EF92FF920F931F93CF93DF933D
:204FA000CDB7DEB7CA1BDB0B0FB6F894DEBF0FBECDBF09942A88398848885F846E847D8410
:204FC0008C849B84AA84B984C884DF80EE80FD800C811B81AA81B981CE0FD11D0FB6F894F7
:204FE000DEBF0FBECDBFED01089597FB072E16F4009407D077FD09D00E942B2807FC05D0DA
:205000003EF4909581959F4F0895709561957F4F0895A1E21A2EAA1BBB1BFD010DC0AA1F38
:20502000BB1FEE1FFF1FA217B307E407F50720F0A21BB30BE40BF50B661F771F881F991F1D
:205040001A9469F760957095809590959B01AC01BD01CF010895AA1BBB1B51E107C0AA1F3D
:20506000BB1FA617B70710F0A61BB70B881F991F5A95A9F780959095BC01CD010895EE0F0B
:20508000FF1F0590F491E02D0994B0E0A0E0EBE4F8E20C94C0278C01009751F4CB010E9417
:2050A000AA208C01C801CDB7DEB7E0E10C94DC27FC01E60FF71F9C0122503109E217F3070F
:2050C00008F49DC0D901CD91DC911197C617D70798F0C530D10530F3CE0104978617970754
:2050E00008F3C61BD70B2297C193D1936D937C93CF010E944621D6CF5B01AC1ABD0A4C01BE
:205100008C0E9D1EA0913A04B0913B04512C412CF12CE12C109731F58091380490913904BF
:205120008815990509F05CC04616570608F058C080913B0190913C01009741F48DB79EB746
:2051400040913F0150914001841B950BE817F90708F055C0F0933904E0933804F901718374
:205160006083A0CF8D919C91119712966C90129713967C901397A815B90559F56C0142E0E6
:20518000C40ED11CCA14DB0420F1AC014A195B09DA011296159780F06282738251834083FF
:2051A000D9016D937C93E114F10471F0D7011396FC93EE93129776CF22968C0F9D1FF90133
:2051C00091838083F301EFCFF0933B04E0933A0469CF4816590608F42C017D01D3019ACFBA
:2051E000CB010E94AA207C01009749F0AE01B8010E940F29C8010E944621870153CF10E07C
:2052000000E050CFFB01DC0104C08D910190801921F441505040C8F7881B990B0895FB01D5
:20522000DC0102C001900D9241505040D8F70895FB01DC0101900D920020E1F70895FB0178
:20524000DC014150504048F001900D920020C9F701C01D9241505040E0F70895AEE0B0E0E5
:20526000E4E3F9E20C94CE2785E08C838B899C899A838983AE01495E5F4F6D897E89CE0151
:2052800001960E94D22A2E96E2E00C94EA2720FD09C0FC0123FD05C022FF02C0738362831C
:2052A00051834083089544FD17C046FD1DC0DB01FC01AA0FBB1FEE1FFF1F1094D1F76A0F06
:2052C0007B1F8E1F9F1F660F771F881F991F620F711D811D911D089533E0660F771F881FB2
:2052E000991F3150D1F7F3CF34E0F7CF0F931F93CF93DF938C01C8010E94E22BEC0197FD63
:2053000008C00E94C426892BB1F7B801CE010E941E2CCE01DF91CF911F910F9108958F92BC
:205320009F92AF92BF92EF92FF920F931F93CF93DF938C01D62F7A01B22E0E94E22B9C0137
:2053400033272B32310529F02D323105A9F46894B7F8D15061F480E0DF91CF911F910F9174
:20536000FF90EF90BF90AF909F908F900895C8010E94E22B97FDEFCFCB2DCD7F2B2D2073AD
:20538000F9F48033E9F4AA24AA94AD0E89F0C8010E94E22B97FD0CC0282F2F7D283561F4C3
:2053A000C264D25029F0C8010E94E22B97FF08C0812C912C54011BC0B6FE2BC0C260DA2D54
:2053C000812C912C540120ED280F283028F1C4FD09C02A3008F1C6FF05C02F7D3FEE320FD8
:2053E0003630C8F0B8010E941E2CC1FFB4CFC7FF08C0B094A09490948094811C911CA11C62
:20540000B11C2C2FB501A401C7010E94472981E0A3CFC261D4CF27504C2FC501B4010E9487
:2054200053294B015C01C260D15009F3C8010E94E22B97FFC8CFD9CFA0E2B0E0E2E2FAE209
:205440000C94C3275C01962E7A01CE0101966C0180E2F60111928A95E9F7F501B3818901A4
:2054600030E020E0712C812CA0E041E050E0F801B3FD8591B3FF8191982F8F01811107C0CE
:2054800010E000E0C801A096EDE00C94DF278E3519F42115310541F1A21713064CF48D3588
:2054A00049F18D3229F4811006C0882483941DC0882009F464C0E92FE695E695E695EC0D94
:2054C000FD2DF11D892F8770BA0101C0660F8A95EAF78081682B6083791651F0971510F4FD
:2054E0009F5FE9CF9150E7CFA1E02F5F3F4FBFCF812CFBCF882019F08E8180628E83AA233D
:2055000059F0F6019E012F5D3F4F8081809580833196E217F307C9F788248394C5010E94D4
:20552000E22B97FD16C0E82FE695E695E695EC0DFD2DF11D208130E0AC014770552702C0E8
:20554000359527954A95E2F720FD06C0B5010E941E2C882069F094CFE114F10429F0F70129
:205560008083C70101967C019A94812C9110D6CFE114F10409F486CFF701108283CFE82FFC
:20558000E695E695E695EC0DFD2DF11D982F9770BA0101C0660F9A95EAF79081692B608312
:2055A000782EA3CFB0E0A0E0E8EDFAE20C94C1276C01EB015A01FC0117821682512CF60134
:2055C000E380FE01E3FC8591E3FE8191182FEF018823E9F090E00E94C426892B21F0C6013E
:2055E0000E947629ECCF153241F4FE01E3FC1591E3FE1191EF01153269F4C6010E94E22B22
:2056000097FD8EC01817D9F2B6010E941E2C852D90E08AC000E01A3231F4E3FC1591E3FEE8
:205620001191EF0101E0F12C20ED210F2A3048F101FF37C0FF2059F31836B1F11C3609F469
:205640003DC0112321F3612F70E082E691E00E94D72B892BE1F2912C812C00FD06C0F501FE
:2056600080809180C50102965C011E3679F5F6014681578170E060E0202FC4010E94472950
:205680009ECF02606F2D70E090E080E040E20E945329F62EFE01E3FC1591E3FE1191EF0124
:2056A000C3CFFF24FA94C8CFFE01E3FC1591E3FE1191EF01183609F0C4CF08600460FE0174
:2056C000E3FC1591E3FE1191EF01BBCF1336C1F401FD02C0FF24F394C6010E94E22B97FDD6
:2056E0001FC08114910429F0F4018083C40101964C01FA94F110F0CF00FD61CF53945FCF57
:205700001B35B9F49E01A4016F2DC6010E941C2AEC01892B89F7F6018381807309F477CFAB
:205720008FEF9FEF511073CFCDB7DEB7EFE00C94DD27C6010E94762997FDF2CF1F36A9F1E2
:2057400030F4143641F0193639F0006405C01337B9F01537D1F70062202FA4016F2DC60149
:205760000E948F298111C8CFD6CF8114910429F0F4016082C40101964C01FA94FF2071F030
:20578000C6010E94E22B3C0197FD08C00E94C426892B59F3B601C3010E941E2C81149104DD
:2057A00009F4AACFF4011082A7CF0061D5CFFC010590061621F00020D9F7C001089531979C
:2057C000CF010895CF93DF93EC012B8120FF1AC026FF0CC02F7B2B838E819F8101969F83C5
:2057E0008E838A8190E0DF91CF91089522FF18C0E881F9818081082E000C990B009729F439
:2058000020622B838FEF9FEFEECF3196F983E8832E813F812F5F3F4F3F832E839927E3CF71
:20582000EA85FB85099597FFF3CF2B81019621F080E2822B8B83E6CF80E1FBCFFB01238192
:2058400020FF11C026FD0FC08F3F980771F082832F7D2064238326813781215031093783F9
:205860002683992708958FEF9FEF0895F894FFCFFFFFFF00FCE1A8A8531B291B0E1BBB1A45
:205880008F1A7D1ABD1B821BFFFF411A191A312E330052656C6179204163747561746F72D5
:2058A000000100671CDB1B5A055A0500003C0480001F1C1F1E1F1E1F1F1E1F1E1F00000083
:2058C00000F1055B0588055906B9059705AB0500000000870683063A003C4E4F4E43453E3F
:2058E000004F4B004E41434B003F002100322E332E310025643A25640052656C6179310025
:2059000052656C6179320052656C6179330052656C61793B4D6F6465000D0A00FFFFFFFF58
:20592000FFFFFFFFFFFFFFFFFFFFFFFFFFFFFFFFFFFFFFFFFFFFFFFFFFFFFFFFFFFFFFFF87
:20594000FFFFFFFFFFFFFFFFFFFFFFFFFFFFFFFFFFFFFFFFFFFFFFFFFFFFFFFFFFFFFFFF67
:20596000FFFFFFFFFFFFFFFFFFFFFFFFFFFFFFFFFFFFFFFFFFFFFFFFFFFFFFFFFFFFFFFF47
:2059800025640052656C6179310052656C6179320052656C6179330052656C61793B4D6FFD
:2059A0006465000D0A00FFFFFFFFFFFFFFFFFFFFFFFFFFFFFFFFFFFFFFFFFFFFFFFFFFFF21
:2059C000FFFFFFFFFFFFFFFFFFFFFFFFFFFFFFFFFFFFFFFFFFFFFFFFFFFFFFFFFFFFFFFFE7
:2059E000FFFFFFFFFFFFFFFFFFFFFFFFFFFFFFFFFFFFFFFFFFFFFFFFFFFFFFFFFFFFFFFFC7
:205A0000FFFFFFFFFFFFFFFFFFFFFFFFFFFFFFFFFFFFFFFFFFFFFFFFFFFFFFFFFFFFFFFFA6
:205A2000FFFFFFFFFFFFFFFFFFFFFFFFFFFFFFFFFFFFFFFFFFFFFFFFFFFFFFFFFFFFFFFF86
:206D0000F9F48033E9F4AA24AA94AD0E89F0C8010E94A23897FD0CC0282F2F7D283561F45C
:206D2000C264D25029F0C8010E94A23897FF08C0812C912C54011BC0B6FE2BC0C260DA2DED
:206D4000812C912C540120ED280F283028F1C4FD09C02A3008F1C6FF05C02F7D3FEE320F3E
:206D60003630C8F0B8010E94DE38C1FFB4CFC7FF08C0B094A09490948094811C911CA11CFC
:206D8000B11C2C2FB501A401C7010E94073681E0A3CFC261D4CF27504C2FC501B4010E9421
:206DA00013364B015C01C260D15009F3C8010E94A23897FFC8CFD9CFA0E2B0E0E2EEF6E3CD
:206DC0000C942A355C01962E7A01CE0101966C0180E2F60111928A95E9F7F501B381890196
:206DE00030E020E0712C812CA0E041E050E0F801B3FD8591B3FF8191982F8F01811107C035
:206E000010E000E0C801A096EDE00C9446358E3519F42115310541F1A21713064CF48D3579
:206E200049F18D3229F4811006C0882483941DC0882009F464C0E92FE695E695E695EC0DFA
:206E4000FD2DF11D892F8770BA0101C0660F8A95EAF78081682B6083791651F0971510F463
:206E60009F5FE9CF9150E7CFA1E02F5F3F4FBFCF812CFBCF882019F08E8180628E83AA23A3
:206E800059F0F6019E012F5D3F4F8081809580833196E217F307C9F788248394C5010E943B
:206EA000A23897FD16C0E82FE695E695E695EC0DFD2DF11D208130E0AC014770552702C082
:206EC000359527954A95E2F720FD06C0B5010E94DE38882069F094CFE114F10429F0F701C4
:206EE0008083C70101967C019A94812C9110D6CFE114F10409F486CFF701108283CFE82F63
:206F0000E695E695E695EC0DFD2DF11D982F9770BA0101C0660F9A95EAF79081692B608378
:206F2000782EA3CFB0E0A0E0E8E9F7E30C9428356C01EB015A01FC0117821682512CF6012B
:206F4000E380FE01E3FC8591E3FE8191182FEF018823E9F090E00E940434892B21F0C60156
:206F60000E943636ECCF153241F4FE01E3FC1591E3FE1191EF01153269F4C6010E94A238EE
:206F800097FD8EC01817D9F2B6010E94DE38852D90E08AC000E01A3231F4E3FC1591E3FE83
:206FA0001191EF0101E0F12C20ED210F2A3048F101FF37C0FF2059F31836B1F11C3609F4D0
:206FC0003DC0112321F3612F70E082E691E00E949738892BE1F2912C812C00FD06C0F50198
:206FE00080809180C50102965C011E3679F5F6014681578170E060E0202FC4010E940736EA
:207000009ECF02606F2D70E090E080E040E20E941336F62EFE01E3FC1591E3FE1191EF01BD
:20702000C3CFFF24FA94C8CFFE01E3FC1591E3FE1191EF01183609F0C4CF08600460FE01DA
:20704000E3FC1591E3FE1191EF01BBCF1336C1F401FD02C0FF24F394C6010E94A23897FD6F
:207060001FC08114910429F0F4018083C40101964C01FA94F110F0CF00FD61CF53945FCFBD
:207080001B35B9F49E01A4016F2DC6010E94DC36EC01892B89F7F6018381807309F477CF46
:2070A0008FEF9FEF511073CFCDB7DEB7EFE00C944435C6010E94363697FDF2CF1F36A9F107
:2070C00030F4143641F0193639F0006405C01337B9F01537D1F70062202FA4016F2DC601B0
:2070E0000E944F368111C8CFD6CF8114910429F0F4016082C40101964C01FA94FF2071F0CA
:20710000C6010E94A2383C0197FD08C00E940434892B59F3B601C3010E94DE38811491045C
:2071200009F4AACFF4011082A7CF0061D5CFFC010590061621F00020D9F7C0010895319702
:20714000CF010895CF93DF93EC012B8120FF1AC026FF0CC02F7B2B838E819F8101969F832B
:207160008E838A8190E0DF91CF91089522FF18C0E881F9818081082E000C990B009729F49F
:2071800020622B838FEF9FEFEECF3196F983E8832E813F812F5F3F4F3F832E839927E3CFD8
:2071A000EA85FB85099597FFF3CF2B81019621F080E2822B8B83E6CF80E1FBCFFB012381F9
:2071C00020FF11C026FD0FC08F3F980771F082832F7D206423832681378121503109378360
:2071E0002683992708958FEF9FEF0895F894FFCFFFFFFF00FCE1A8A8B7228D226E221B2207
:20720000EF21DD212623EB22FFFFA1217921312E330052656C6179204163747561746F72BE
:2072200000010081244923AB06AB06010000F9068000010000001F1C1F1E1F1E1F1F1E1F29
:207240001E1F000000004207AC06D906AA070A07E806FC0600000000D807D4073C4E4F4E84
:2072600043453E004F4B004E41434B003F002100322E332E310025643A256400286E756D7B
:20728000293A286D6F6465290052656C6179310052656C6179320052656C61793300526551
:2072A0006C617973004D6F6465004655434B594F55000D0A0000FFFFFFFFFFFFFFFFFFFF5D
:2072C000FFFFFFFFFFFFFFFFFFFFFFFFFFFFFFFFFFFFFFFFFFFFFFFFFFFFFFFFFFFFFFFFCE
:2072E000FFFFFFFFFFFFFFFFFFFFFFFFFFFFFFFFFFFFFFFFFFFFFFFFFFFFFFFFFFFFFFFFAE
:20730000FFFFFFFFFFFFFFFFFFFFFFFFFFFFFFFFFFFFFFFFFFFFFFFFFFFFFFFFFFFFFFFF8D
:20732000FFFFFFFFFFFFFFFFFFFFFFFFFFFFFFFFFFFFFFFFFFFFFFFFFFFFFFFFFFFFFFFF6D
:2078000011E0A0E0B1E0E0EFFFE702C005900D92A630B107D9F721E0A6E0B1E001C01D92D5
:20782000AD34B207E1F7CDB7DEB72997DEBFCDBF112484B78093270114BE88E1809360007B
:2078400089E280936000259A86E020E295B1922795B93FE748E391E0315040409040E1F76B
:2078600000C00000815091F78091270181FD16C08EE284B981E58CBD81E08DBD412C512C71
:207880002224239433243394AA24AA94BA2C78E0972ECC24C394E3E0DE2E40C182E0809332
:2078A000C00088E18093C10086E08093C20080E18093C400E12CF12CC12CD12CAA24AA9438
:2078C000BA2C01E0A8952BD2813461F428D2898737D38985823821F0813811F485E64FC078
:2078E00083E04DC0823411F484E103C0853419F485E032D35FC0853541F411D2E82E0FD21D
:20790000F12CF82AEE0CFF1C54C0863521F484E023D380E034C08436E1F401D200D2882E97
:20792000FED1C80CD11C912C981480F4F8D1182FF6D1F701E90DF11D212F30E0382B09013A
:2079400007BFE895112493949394EECFC701A8D130C0843761F4E3D1E2D1182FE0D1F0D242
:20796000F70185917F01E5D21150D1F724C0853741F4E6D28EE1DDD285E9DBD28FE0D9D2B9
:2079800019C08135B1F4BA82A982BC82AB82C60134E0969587953A95E1F79E838D83C60120
:2079A00091D198878F83CE010196DDD2C9D211E002C0C6D210E080E1BCD2112309F482CFD8
:2079C00057CF43E050E060E070E089E291E0EED248E050E06BE171E0CE010196E7D229982D
:2079E0002A9A63E083E2D4D16CE485E2D1D167E286E2CED163E780E5CBD164E08DE3C8D135
:207A000061E082E2C5D161E081E2C2D161E08CE3BFD121E041E060E070E086E08CD1873286
:207A200009F028C180912A01809328018FEF80932A0180932B018093080163E584E2A8D1AE
:207A400043E26AE087E05FD161E08EEFC0D1109208016FE584E29CD180912A018F3F09F4F8
:207A600009C18091290181508E3F08F05AC030920D0110920E0143EC62E18FE044D160E09A
:207A80008FE0A5D18D819E8124E0880F991F2A95E1F718D198878F83FE013196ADE0B1E0EC
:207AA000892D01900D928A95E1F7D0921601C092150144EC62E580E026D163E081E087D13E
:207AC000882309F4D7C048E050E063E371E0CE0101965FD2892B09F4CDC080913701909139
:207AE0003801009709F045C08091390190913A018A379A4D09F041C08091330190913401D4
:207B00008130910571F500E010E06FEFC8015ED20F5F1F4F011524E01207B9F7F999FECF73
:207B200050CF43E262E083E0EED063E084E04FD1882309F496CF80912F0186958695869538
:207B4000E3E3F1E060E0815048F02191660F962F990F990F690F6053620FF5CF80E090E0D9
:207B600006C0029782309105C8F6609135012ED2D5CF8038974008F07DC0E3E3F1E0DE019B
:207B80001196892D01900D928A95E1F7EF80F884B886AF82CE010196E6D16D807E808981F5
:207BA0009A8190930E0180930D018B819C819093100180930F018301015011091093120132
:207BC0000093110144EC62E382E09DD063E083E0FED0882309F44BCF46E050E063E371E099
:207BE0008DE091E0D6D1892BD1F6C3018150904F282F22952077822E40E050E0622F70E08B
:207C0000DA01A45DBE4FFA01E60FF71F1E962C911E9730E0322F22271D96AC912A2B090146
:207C200027BEE89511244E5F5F4F4031510541F7811006C044E0880F991F4A95E1F730D0D2
:207C40000115110511F03801AACFF886EF828D819E8134E0880F991F3A95E1F733D08E1579
:207C60009F0521F01E821D8218861F82CE0101967AD154CF8D819E8124E0880F991F2A95BE
:207C8000E1F720D02F8138858217930709F046CF1CBCA89580912701282EF20109953ECF2C
:207CA00023E0FC0127BFE89507B600FCFDCF25E0FC0127BFE89507B600FCFDCF81E187BF4A
:207CC000E8950895BC01E0E0F0E08FEF9FEFE617F707C0F4E11528E7F207A0F42591822791
:207CE00048E0DC01B695A7959C01217033273195219531092170307AC9018A279B274150B1
:207D000081F7E5CF089590912901E6E0F1E0918390839FEF96838583448363830895809187
:207D2000C00087FFFCCF8091C00084FD01C0A8958091C60008952A989AE19A95F1F700C05A
:207D40008EBD0DB407FEFDCF8EB59FEF4150D0F0222369F09EBD0DB407FEFDCF8EB56115E0
:207D60007105A1F3DB018C936F5F7F4FEFCFFB013196DB018C918EBD0DB407FEFDCF8EB5C8
:207D8000BF01E4CF2A9ABAE1BA95F1F700C00895CF93DF931F92CDB7DEB7698320E041E0D2
:207DA000BE016F5F7F4FC7DF0F90DF91CF91089520E040E060E070E082EEBDDF20E040E0DA
:207DC00060E070E081EEB7DF60E787E2E1CFFF920F931F93CF93DF93F82ED62FC09109016F
:207DE000C695C695C695C95F10912A0129986EE080E2CEDF1093000120E045E060E071E006
:207E00008AE299DF20E045E060E071E080E393DF20E04C2F66E071E080EA8DDF299A8AE0DE
:207E20008A95F1F700C020E040E060E070E08FEF82DF8073C1F32998BBDF6FE080E2A8DFB2
:207E4000609129018AE2A4DF299A0FEF1FEFA89521E041E060E070E087E16DDF80FF02C065
:207E60008FEF4BC021E041E060E070E080E663DFC82F813208F0C0E021E04C2F6CE271E0C2
:207E800081E659DF95DF4C2F50E020912F0126952695269530E0295F3F4F4217530701F741
:207EA00090912E01809129019813DACF80913101909130019770933001F58830F1F4209140
:207EC0002A0190912801291302C09F3FB1F420912D01291304C090932A018EEF0EC0309173
:207EE000330191E0930F9093330140912B01341720F490932B0120932A0191E08F1190E0DA
:207F000088E08A95F1F70150110921F4892FD11105C009C0992309F49ACF04C0D150992387
:207F200009F45CCF81E0DF91CF911F910F91FF9008959091C00095FFFCCF8093C6000895B6
:207F4000EEDE803239F088E18093600088E080936000FFCF84E1EDCFCF93C82FE0DEC150AC
:207F6000E9F7CF91EDCF0F931F93CF93DF938C01CBE1D1E0F80161918F01CE0127D02196FB
:207F8000C332F1E0DF07B1F7DF91CF911F910F910895FB01DC0104C08D910190801921F4D6
:207FA00041505040C8F7881B990B0895DC01CB01FC01F999FECF06C0F2BDE1BDF89A31968C
:207FC00000B40D9241505040B8F70895262FF999FECF92BD81BDF89A019700B4021639F081
:167FE0001FBA20BD0FB6F894FA9AF99A0FBE089500FCE1A8A800C6
:00000001FF
