:100000000C9429040C94701D0C94491D0C945104FB
:100010000C9451040C9451040C94EF1D0C94510455
:100020000C9451040C9451040C9451040C945104FC
:100030000C9451040C9451040C9451040C945104EC
:100040000C94FF1C0C9451040C94BD1D0C94971D32
:100050000C9451040C9451040C9451040C945104CC
:100060000C9451040C94510400407A10F35A00A0EF
:10007000724E18090010A5D4E80000E87648170071
:1000800000E40B54020000CA9A3B000000E1F505B1
:10009000000080969800000040420F000000A086FB
:1000A00001000000102700000000E803000000002D
:1000B0006400000000000A000000000001000000D1
:1000C00000002C76D888DC674F0823DFC1DFAE59EB
:1000D000E1B1B796E5E3E453C63AE651997696E87E
:1000E000E6C28426EB898C9B62ED407C6FFCEFBC02
:1000F0009C9F40F2BAA56FA5F490055A2AF75C932D
:100100006B6CF9676DC11BFCE0E40D47FEF520E662
:10011000B500D0ED902E0300943577050080841E45
:10012000080000204E0A000000C80C333333330FA0
:10013000986E12831141EF8D2114893BE65516CF3D
:10014000FEE6DB18D1844B381BF77C1D901DA4BB49
:10015000E424203284725E228100C9F124ECA1E5FE
:100160003D276364696E6F70737578585B0020007B
:1001700054534D3A494E49540A002154534D3A497B
:100180004E49543A545350204641494C0A00545366
:100190004D3A494E49543A545350204F4B0A00545B
:1001A000534D3A465041520A002154534D3A46505D
:1001B00041523A4E4F205245504C590A0021545357
:1001C0004D3A465041523A4641494C0A0054534D2B
:1001D0003A465041523A4F4B0A0054534D3A494423
:1001E0003A5245510A0054534D3A49440A002154A9
:1001F000534D3A49443A4641494C0A0054534D3A0A
:1002000049443A4F4B0A0054534D3A55504C0A005A
:100210002154534D3A55504C3A4641494C0A0054EA
:10022000534D3A55504C3A444757432C4F3D257552
:100230002C4E3D25750A0054534D3A55504C3A4FBB
:100240004B0A0054534D3A52454144593A49443DB2
:1002500025752C5041523D25752C4449533D25753B
:100260000A002154534D3A52454144593A55504C95
:10027000204641494C2C534E500A005453463A54A0
:1002800044493A54534C0A0054534D3A4641494C60
:100290003A4449530A0054534D3A4641494C3A4373
:1002A0004E543D25750A0054534D3A4641494C3A47
:1002B00052452D494E49540A005453463A53494435
:1002C0003A4F4B2C49443D25750A00215453463A78
:1002D0005349443A4641494C2C49443D25750A004E
:1002E00025735453463A4D53473A53454E442C25B3
:1002F000752D25752D25752D25752C733D25752C92
:10030000633D25752C743D25752C70743D25752C29
:100310006C3D25752C73673D25752C66743D2575E0
:100320002C73743D25733A25730A00215453463AC1
:100330005254453A257520554E4B4E4F574E0A00A4
:10034000215453463A5254453A4650415220414373
:10035000544956450A00215453463A534E443A54A0
:100360004E520A004F54413A4652513A4657205293
:1003700045512C543D253034582C563D25303458A9
:100380002C423D253034580A00214F54413A465200
:10039000513A465720555044204641494C0A005492
:1003A00053463A4352543A4F4B0A004D434F3A504A
:1003B000494D3A4E4F4445205245473D25750A0068
:1003C0004F54413A4352433A423D253034582C432E
:1003D0003D253034582C463D253034580A00214FF5
:1003E00054413A4657503A4E4F2055504441544597
:1003F0000A00214F54413A4657503A43524320464F
:1004000041494C0A004F54413A4657503A435243EF
:10041000204F4B0A004F54413A4657503A46572016
:10042000454E440A00214F54413A4657503A5752DC
:100430004F4E47204657420A004F54413A465750C4
:100440003A5245435620423D253034580A004F5415
:10045000413A4657503A55504441544520534B4930
:10046000505045440A00214F54413A4657503A46AD
:100470004C41534820494E4954204641494C0A00BA
:100480004F54413A4657503A5550444154450A005A
:10049000214F54413A4657503A5550444F0A005460
:1004A00053463A4D53473A52454C204D53470A0064
:1004B0005453463A4D53473A52454C2050784E4794
:1004C0002C48503D25750A005453463A4D53473A3F
:1004D0005243562043420A005453463A4D53473A3A
:1004E000465744204243204D53470A002154534667
:1004F0003A4D53473A47574C204641494C0A00541D
:1005000053463A4D53473A47574C204F4B0A0054F5
:1005100053463A4D53473A46504152205245512C8A
:1005200049443D25750A005453463A4D53473A42D3
:10053000430A005453463A4D53473A41434B0A004D
:10054000215453463A4D53473A504F4E4720524557
:1005500043562C494E4143544956450A005453468C
:100560003A4D53473A504F4E4720524543562C4838
:10057000503D25750A005453463A4D53473A504969
:100580004E4745442C49443D25752C48503D257522
:100590000A00215453463A4D53473A46504152209F
:1005A000494E4143544956450A005453463A4D5327
:1005B000473A46504152204F4B2C49443D25752C1B
:1005C000443D25750A00215453463A4D53473A4954
:1005D0004420544B20494E56414C49440A00545340
:1005E000463A4D53473A41434B205245510A002168
:1005F0005453463A4D53473A505645522C2575218F
:100600003D25750A00215453463A4D53473A4C450F
:100610004E3D25752C4558503D25750A00545346CE
:100620003A4D53473A524541442C25752D25752D99
:1006300025752C733D25752C633D25752C743D2542
:10064000752C70743D25752C6C3D25752C73673D9C
:1006500025753A25730A00215453463A53414E3AC0
:100660004641494C0A005453463A53414E3A4F4B87
:100670000A004D434F3A5245473A5245510A00321B
:100680002E332E310A00207C5F5C2F602C0A07027B
:10069000200220B287100340012000240222100211
:1006A000220202200222002220020220222710130E
:1006B0004101010103222030402030520340221426
:1006C0000203105224022171010010101210122294
:1006D0001010022401010322030020010100322036
:1006E0003712100121322601284032221210121234
:1006F00022432224121001222470C122240F0F54FD
:1007000053463A5755523A4D533D256C750A004DA4
:10071000434F3A42474E3A494E4954204F4B2C548E
:1007200053503D25750A004D434F3A42474E3A53C8
:1007300054500A004D434F3A42474E3A4246520AFD
:10074000004D434F3A42474E3A494E495420524594
:100750005045415445522C43503D524E4F52412D2D
:100760002D2D2C52454C3D25752C5645523D322E93
:10077000332E310A0000000000230026002900006B
:10078000000000240027002A0000000000250028A7
:10079000002B000404040404040404020202020204
:1007A0000203030303030301020408102040800135
:1007B00002040810200102040810200000000800B4
:1007C00002010000030407000000000000000054C4
:1007D00053463A504E473A53454E442C544F3D25CC
:1007E000750A00215453463A504E473A4143544902
:1007F00056450A005453463A434B553A4641494CF4
:100800000A005453463A434B553A444757432C4FFA
:100810003D25752C4E3D25750A005453463A434BF1
:10082000553A4F4B0A005453463A434B553A4F4BB7
:100830002C464354524C0A00214D434F3A534E44E8
:100840003A4E4F4445204E4F54205245470A00002F
:100850000E1E11241FBECFEFD8E0DEBFCDBF11E0CA
:10086000A0E0B1E0EEE5F9E502C005900D92AA3AEC
:10087000B107D9F723E0AAEAB1E001C01D92A73D74
:10088000B207E1F714E0C9E2D4E004C02197FE0109
:100890000E94B628C832D107C9F70E949F1E0C9447
:1008A000AD2C0C940000942FEAE8F3E030913B0269
:1008B00031838283668325834481487F492B477E29
:1008C0004483CF010895833081F028F4813099F07A
:1008D0008230A9F008958730A9F08830C9F08430BB
:1008E000B1F4809180008F7D03C0809180008F776C
:1008F00080938000089584B58F7784BD089584B572
:100900008F7DFBCF8091B0008F778093B0000895EA
:100910008091B0008F7DF9CF1F93CF93DF93282F65
:1009200030E0F901E554F84F8491F901E955F84FA9
:10093000D491F901ED56F84FC491CC23A9F0162FAC
:1009400081110E946304EC2FF0E0EE0FFF1FE757C8
:10095000F84FA591B4918FB7F894EC91111108C09C
:10096000D095DE23DC938FBFDF91CF911F91089547
:10097000DE2BF8CFCF93DF9390E0FC01E955F84FE1
:1009800024918D56984FFC0184918823C9F090E002
:10099000880F991FFC01E158F84FA591B491FC0113
:1009A000E757F84FC591D49161110DC09FB7F894E6
:1009B0008C91209582238C938881282328839FBF44
:1009C000DF91CF910895623051F49FB7F8943C9134
:1009D000822F809583238C93E8812E2BEFCF8FB7C6
:1009E000F894EC912E2B2C938FBFEACF862F642F97
:1009F0000C94BA041F93CF93DF93182FEB0161E09F
:100A00000E94BA04209739F460E0812FDF91CF91E2
:100A10001F910C948C04CF3FD10511F461E0F5CF08
:100A2000E12FF0E0E554F84FE491E33031F140F488
:100A3000E130B1F0E230E1F0C038D1057CF7E4CF2D
:100A4000E73029F1E83059F1E430B1F780918000C6
:100A5000806280938000D0938B00C0938A0004C092
:100A600084B5806884BDC7BDDF91CF911F91089583
:100A700084B5806284BDC8BDF7CF80918000806856
:100A800080938000D0938900C0938800EDCF80913F
:100A9000B00080688093B000C093B300E5CF809130
:100AA000B00080628093B000C093B400DDCF3FB748
:100AB000F8948091F3019091F401A091F501B09127
:100AC000F60126B5A89B05C02F3F19F00196A11D80
:100AD000B11D3FBFBA2FA92F982F8827BC01CD0188
:100AE000620F711D811D911D43E0660F771F881FE6
:100AF000991F4A95D1F708958F929F92AF92BF9216
:100B0000CF92DF92EF92FF926B017C010E9457051A
:100B10004B015C01C114D104E104F104B9F00E945D
:100B20005705681979098A099B09683E7340810550
:100B3000910580F321E0C21AD108E108F10888EE9E
:100B4000880E83E0981EA11CB11CE4CFFF90EF90AB
:100B5000DF90CF90BF90AF909F908F9008952FB768
:100B6000F8946091EF017091F0018091F101909102
:100B7000F2012FBF08950895AF92BF92CF92DF92F6
:100B8000EF92FF920F931F93CF93DF936C017B0142
:100B90008B01040F151FEB015E01AE18BF08C017D3
:100BA000D10759F06991D601ED91FC910190F08146
:100BB000E02DC6010995892B79F7C501DF91CF9109
:100BC0001F910F91FF90EF90DF90CF90BF90AF906B
:100BD0000895FC01538D448D252F30E0842F90E043
:100BE000821B930B541710F0CF9608950197089528
:100BF000FC01918D828D981761F0A28DAE0FBF2FF1
:100C0000B11D5D968C91928D9F5F9F73928F90E046
:100C100008958FEF9FEF0895FC01918D828D9817B5
:100C200031F0828DE80FF11D858D90E008958FEFF2
:100C30009FEF0895FC01918D228D892F90E0805CBB
:100C40009F4F821B91098F73992708958FE392E03C
:100C50000E941A0621E0892B09F420E0822F0895D2
:100C6000FC01A48DA80FB92FB11DA35ABF4F2C9121
:100C7000848D90E001968F739927848FA689B78918
:100C80002C93A089B1898C91837080648C93938D0F
:100C9000848D981306C00288F389E02D80818F7DB2
:100CA00080830895EF92FF920F931F93CF93DF936A
:100CB000EC0181E0888F9B8D8C8D98131AC0E88998
:100CC000F989808185FF15C09FB7F894EE89FF8967
:100CD0006083E889F98980818370806480839FBF05
:100CE00081E090E0DF91CF911F910F91FF90EF9005
:100CF0000895F62E0B8D10E00F5F1F4F0F73112715
:100D0000E02E8C8D8E110CC00FB607FCFACFE8894F
:100D1000F989808185FFF5CFCE010E943006F1CFA1
:100D2000EB8DEC0FFD2FF11DE35AFF4FF0829FB7C3
:100D3000F8940B8FEA89FB8980818062CFCF0F9373
:100D40001F93CF93DF938C01D0E0C0E0F801EC0F4C
:100D5000FD1F6491662341F08FE392E00E945206EA
:100D6000892B11F02196F2CFCE01DF91CF911F9107
:100D70000F910895CF93DF93EC01888D8823B9F00C
:100D8000AA89BB89E889F9898C9185FD03C0808196
:100D900086FD0DC00FB607FCF7CF8C9185FFF2CF13
:100DA000808185FFEDCFCE010E943006E9CFDF9133
:100DB000CF91089580E090E0892B29F00E942606CB
:100DC00081110C9400000895CF93DF93FC012185DD
:100DD00030E0F901E554F84F8491F901E955F84FF5
:100DE000D491F901ED56F84FC491CC2379F08111DB
:100DF0000E946304EC2FF0E0EE0FFF1FEB58F84F5A
:100E0000A591B491EC91ED2381E009F480E081702B
:100E1000DF91CF9108951F93CF93DF93EC01162FAD
:100E200062E0812F0E94BA0419871886CE010E94C1
:100E3000E406882319F08885836088870E94AF05BF
:100E40006A837B838C839D83DF91CF911F9108956B
:100E5000CF92DF92EF92FF921F93CF93DF93EC013B
:100E600088858B7F8887CE010E94E406182F8885AD
:100E7000869581701817B1F00E94AF056A837B8355
:100E80008C839D83888592E089278887888582FB6B
:100E9000882780F9DF91CF911F91FF90EF90DF902D
:100EA000CF9008950E94AF05CA80DB80EC80FD8062
:100EB000AB01BC014C195D096E097F098E819F81D0
:100EC000B0E0A0E0481759076A077B07F8F2888569
:100ED00081701817D9F20E94AF056A837B838C83D7
:100EE0009D83888591E08927846088870E94AF056B
:100EF0006A877B878C879D87C9CF6093EA0170934F
:100F0000EB018093EC019093ED01645D7E4F8F4F78
:100F10009F4F6093E6017093E7018093E8019093FF
:100F2000E90182E090E09093E5018093E4010E9462
:100F3000AF056093E0017093E1018093E20190932B
:100F4000E3010895CF92DF92EF92FF920F931F93E8
:100F50000E94AF058B019C01C090E001D090E1019F
:100F6000E090E201F090E3016091EA017091EB0101
:100F70008091EC019091ED010C191D092E093F099A
:100F8000083E134021053105E0F0DC01CB0101965C
:100F9000A11DB11D8093EA019093EB01A093EC0198
:100FA000B093ED01B701A60148515C4F6F4F7F4FE1
:100FB0004093E0015093E1016093E2017093E301FB
:100FC000C7CF1F910F91FF90EF90DF90CF900895C2
:100FD0004F925F926F927F928F929F92AF92BF9249
:100FE000CF92DF92EF92FF920F931F93CF93DF93F5
:100FF0004B015C018091DC019091DD01A091DE014B
:10100000B091DF0188159905AA05BB0509F4C6C092
:101010008CE3C82ED12CE12CF12CC501A70196013F
:101020000E9480286093D501CA01B901A7019601E9
:101030000E9480286093D601C501B40120E13EE002
:1010400040E050E00E948028CA01B90128E130E068
:1010500040E050E00E9480286093D701C501B401B0
:1010600020E831E541E050E00E94802869017A01E2
:10107000CA01B9016C5F7F4F8F4F9F4F27E030E06F
:1010800040E050E00E9480286F5F6093D801412CBF
:10109000512C320140E004E610E0C0E9D1E0242FF9
:1010A00030E02E54384FF901E370FF273097F9F400
:1010B000C901B8010E946C28892B31F4C901BE0115
:1010C0000E946C28892B99F48EE691E0A0E0B0E0B4
:1010D000480E591E6A1E7B1ED301C201AA27BB27D8
:1010E000C816D906EA06FB0638F04F5FD8CF8DE662
:1010F00091E0A0E0B0E0ECCF4093DB01C90164E6F1
:1011000070E00E946C28EC01C90160E971E00E9466
:101110006C28309721F42097D9F40097C9F04DE658
:1011200051E060E070E0441A550A660A770AC41874
:10113000D508E608F708AFE3B1E020E0213069F414
:101140003097E9F5209711F40097C9F54DE106C0F5
:101150004EE651E060E070E0E6CF4C9150E070E088
:1011600060E031E0320FC416D506E606F70640F01F
:10117000C41AD50AE60AF70A1196232F3C30F1F675
:101180002F5F2093DA01C394C092D9018092DC01D1
:101190009092DD01A092DE01B092DF01DF91CF914C
:1011A0001F910F91FF90EF90DF90CF90BF90AF9085
:1011B0009F908F907F906F905F904F9008954CE13B
:1011C000CDCFCF93CFB7F8948091D401811127C0B0
:1011D000EDE9F7E08491E1EBF7E09491E82FF0E09E
:1011E000EE0FFF1FE158F84FA591B491EC91E92360
:1011F00021F461E08AE00E948C0461E08AE00E94B0
:10120000BA048CB580618CBD8CB580648CBD61E006
:101210008DE00E94BA0461E08BE00E94BA048091E4
:10122000D4018F5F8093D401CFBFCF9108958FB742
:10123000F8948091D3018FBF0895CF92DF92EF92FF
:10124000FF920F931F93CF93DF93D0E0C0E0062F60
:1012500010E0E82EF12CC017D1072CF5D12CC12CB1
:10126000CE14DF04C4F461E088E00E948C0464E1E1
:1012700070E080E090E00E947C0560E088E00E94E1
:101280008C0464E670E080E090E00E947C058FEFC3
:10129000C81AD80AE5CF64E670E080E090E00E94CA
:1012A0007C052196D8CFDF91CF911F910F91FF90B0
:1012B000EF90DF90CF9008950C947D07FC0184811E
:1012C0008F7180648483838187708061838370875A
:1012D0006783CF010895FC018381877088608383D1
:1012E00084818F71806284836783CF010895E09148
:1012F000F701F091F801309721F00280F381E02DA1
:10130000099408950F931F930E94AF050091F9016E
:101310001091FA012091FB013091FC01601B710BCF
:10132000820B930B1F910F9108959C018091F701FF
:101330009091F80182179307F1F0909101029F714B
:10134000909301023093F8012093F701E091F701A7
:10135000F091F801309721F00190F081E02D09958E
:101360000E94AF056093F9017093FA018093FB012D
:101370009093FC01089580910102805E80930102A8
:10138000E5CF8EBD00000DB407FEFDCF8EB50895EC
:101390008CBD9DBD0895CF93DF938CB5CCECD3E08D
:1013A0008B838DB58C838D819E810E94C80960E0FE
:1013B0008881DF91CF910C948C04CF93DF93CCEC98
:1013C000D3E061E088810E948C048B818CBD8C818C
:1013D0008DBDDF91CF910895CF930E94CB0985E019
:1013E0000E94C10980E00E94C109C82F0E94DD0946
:1013F0008C2F8170CF910895CF93DF93C82F6623F0
:1014000031F060E086E00E94FC090E94DD090E9444
:10141000CB0985E00E94C10980E00E94C109D82F54
:101420000E94DD09D0FDF3CF0E94CB098C2FDF9104
:10143000CF910C94C1094F925F926F927F928F92DD
:101440009F92AF92BF92CF92DF92EF92FF920F9353
:101450001F93CF93DF932B013C014A01E9019B01CC
:10146000332780E091E0821B930BF12CE12C8E015D
:101470008C179D0708F48C0161E082E00E94FC0952
:10148000862D0E94C109852D0E94C109842D0E94CC
:10149000C1095401AE0CBF1C6501F60181916F01B9
:1014A0000E94C109C6018A199B0980179107A8F3F8
:1014B0000E94DD09400E511E611C711CE00EF11EE0
:1014C000C01BD10B80E091E091F6DF91CF911F918D
:1014D0000F91FF90EF90DF90CF90BF90AF909F90D3
:1014E0008F907F906F905F904F9008950F931F9310
:1014F000CF93DF93EC018C81829586958770A9F458
:101500004B8146954695469550E0BE01695F7F4FF9
:1015100088E092E00E949629EB81E695E695E695B3
:10152000F0E0E85FFD4F108209C0813071F48F81D7
:101530004AE068E072E090E00E94692188E092E071
:10154000DF91CF911F910F910895823031F44AE0DD
:1015500068E072E08F819885EFCF833041F44AE0F4
:1015600068E072E08F8198850E94C221E7CF8430C5
:1015700051F46F81788589859A852AE048E052E0A8
:101580000E947421DBCF853051F46F817885898585
:101590009A852AE048E052E00E94A021CFCF873010
:1015A00051F1A8E0B2E09E01295F3F4F40E0EB819E
:1015B000E695E695E6954E1780F5B901F90180812B
:1015C000082E000C990B54E0959587955A95E1F7F4
:1015D0008F708A30F0F4805D8C932F5F3F4FFB015A
:1015E00080818F708A30B8F4805D11968C9311974A
:1015F0004F5F1296DCCF2B85293008F028E06F81F1
:10160000788589859A8508E012E042E00E94E11F12
:1016100095CF895CE1CF895CE8CFF0E0EE0FFF1F4A
:1016200080CFFC0101900020E9F73197AF01481B02
:10163000590BBC018FE392E00C94BC050F931F93F0
:10164000CF93DF93EC01E0E06115710551F0FB01F0
:1016500001900020E9F73197E61BF70BE931F1051E
:1016600000F50E2F10E08B818770980193E0220F18
:10167000331F9A95E1F7822B8B838C818F718C833A
:10168000EE2329F0A801CE0107960E949629FE01BB
:10169000E00FF11F1782CE01DF91CF911F910F91C3
:1016A0000895E9E1DECF0F931F93CF93DF93EC0111
:1016B00088819981009759F02A813B812617370745
:1016C00030F081E0DF91CF911F910F9108958B0150
:1016D0006F5F7F4F0E94BC28009759F099838883E1
:1016E0001B830A832C813D81232B59F7FC01108237
:1016F000E8CF80E0E7CFCF93DF93EC018881998139
:10170000009711F00E949B20198218821D821C8272
:101710001B821A82DF91CF9108950F931F93CF936D
:10172000DF93EC010C811D810F5F1F4FB8010E94F8
:10173000530B882391F0288139818C819D8165E646
:1017400071E0820F931F0E948F291D830C83CE01AD
:10175000DF91CF911F910F910895CE010E947B0BD5
:10176000F6CFCF92DF92EF92FF920F931F93CF931A
:10177000DF93CDB7DEB762970FB6F894DEBF0FBE2A
:10178000CDBF8C01CB01F80111821082138212822D
:10179000158214824AE09E012F5F3F4F6901B90113
:1017A0000E946921F60101900020E9F731977F013D
:1017B000EC18FD08B701C8010E94530B811112C03B
:1017C000C8010E947B0B62960FB6F894DEBF0FBE75
:1017D000CDBFDF91CF911F910F91FF90EF90DF90E0
:1017E000CF900895F801F582E482B601808191815D
:1017F0000E948F29E8CFEF92FF920F931F93CF9310
:10180000DF93EC01FB01E080F180E114F10411F1C0
:101810000481158101151105A9F08C819D81080FA6
:10182000191FB801CE010E94530B882399F028811B
:1018300039818C819D81B701820F931F0E948F296E
:101840001D830C83CE01DF91CF911F910F91FF90EB
:10185000EF900895CE010E947B0BF4CFFC018081B4
:1018600091810C949B20EF92FF920F931F93CF9343
:10187000DF93EC01198218821B821A821D821C825E
:101880008617970719F1FB010081118101151105D8
:10189000E9F0E480F580B7010E94530B811109C083
:1018A000CE01DF91CF911F910F91FF90EF900C949B
:1018B0007B0BFD82EC82B80188819981DF91CF9109
:1018C0001F910F91FF90EF900C948F29DF91CF9192
:1018D0001F910F91FF90EF900895CF92DF92EF92BA
:1018E000FF920F931F93CF93DF93C82F7B01142F89
:1018F000022F80E590E00E94C8092A9880E190E0DC
:101900000197F1F78C2F0E94C109E7011150A0F057
:10191000002349F08FEF0E94C109E114F104B1F3F3
:1019200088832196F3CF6E018FEFC81AD80A888179
:101930000E94C109E601EACF2A9AE0E1F0E031977E
:10194000F1F7DF91CF911F910F91FF90EF90DF9012
:10195000CF900895CF93DF931F92CDB7DEB7698301
:1019600020E041E0BE016F5F7F4F0E946D0C0F9041
:10197000DF91CF9108956FE080E20E94AA0C609100
:1019800018016F3F19F08AE20E94AA0C299A089563
:1019900021E041E070E060E00C946D0C86E00E9474
:1019A000C80C873231F485E00E94C80C91E08C3479
:1019B00009F090E0892F089520E040E070E060E0B9
:1019C0000C946D0C1F93CF93DF9361E08EE00E9427
:1019D000BA0461E08FE00E94BA0461E080E10E94F5
:1019E000BA0461E083E00E94BA0461E085E00E94ED
:1019F000BA0461E086E00E94BA0461E088E00E94D7
:101A0000BA0461E170E08CE793E00E940B07C5E047
:101A1000D0E0D0938303C093820362E170E08EE64E
:101A200093E00E940B07D0937503C093740363E1A6
:101A300070E080E693E00E940B07D0936703C093A9
:101A400066038EE991E00E946327C82FD0E0D0930F
:101A5000B601C093B5018FE991E00E94632790E041
:101A60009093C5018093C401249714F4029754F015
:101A700081E090E09093B6018093B5011092C5018A
:101A80001092C40182EA91E00E94632711E0811163
:101A900001C010E01093D20183EA91E00E94632715
:101AA000D1E0811101C0D0E0D093D10184EA91E06E
:101AB0000E946327C1E0811101C0C0E0C093D00142
:101AC000612F8EE00E948C046D2F8FE00E948C04A9
:101AD0006C2F80E1DF91CF911F910C948C04FC015D
:101AE0002481229526952770213011F4878108954D
:101AF000211104C007960E942421089580E00895D2
:101B0000CF92DF92EF92FF920F931F93CF93DF93C9
:101B1000CDB7DEB7C857D1090FB6F894DEBF0FBEF8
:101B2000CDBF0E94AF059B01AC0119A28E010F5DD4
:101B30001F4F8AE0C82ED12CE12CF12CCA01B9012B
:101B4000A70196010E948028605DF80162938F01D1
:101B5000211531054105510589F7309719F0CF015D
:101B60000E94110B8EE691E00E949F069E012B576A
:101B70003F4FCD57DF4F48815981C358D04068E768
:101B800070E0CE0101960E94DC21CE0101960E94F8
:101B9000110B8FE392E00E94BA06C858DF4F0FB6D0
:101BA000F894DEBF0FBECDBFDF91CF911F910F9193
:101BB000FF90EF90DF90CF900895AF92BF92CF92B9
:101BC000DF92EF92FF920F931F93CF93DF93EC017D
:101BD0000A818091010280FF17C00F3FB1F180E4BC
:101BE00093E09F938F930E94800D0F900F9000E0E1
:101BF000802FDF91CF911F910F91FF90EF90DF9099
:101C0000CF90BF90AF90089510913C020023F1F067
:101C10000F3FD9F0802F90E003960E946327182F82
:101C20008F3FA1F41F920F938BE293E09F938F93CA
:101C30000E94800D10913C020F900F900F900F901A
:101C40008881811303C0102F01C01FEF80913B02D8
:101C500088834B8100E242FD05C046954695469536
:101C600007E0040FF0903E028F2D8170E82E299836
:101C700080E091E00197F1F76EE080E20E94AA0C0B
:101C800084EC90E00197F1F7612F8AE20E94AA0CA0
:101C9000612F80E30E94AA0C81EE0E94DC0C1F3FA2
:101CA00011F080EAE11080EB402F013208F040E2B1
:101CB00020E0BE010E946D0C299AD12CC12C8FEF1F
:101CC0000E94DC0C082F807321F491E0C91AD1081E
:101CD000B1F7299860E387E20E94AA0C04FF03C0D1
:101CE00081EE0E94DC0C0E94BB0C05FF02C0FF24A9
:101CF000F39481E01F3F09F080E00F2D0170082B65
:101D00008C818770833029F48D81E7E6F1E08131A1
:101D100021F0CE010E94760AFC0162E771E0002307
:101D200011F06FE671E0509102025F709B8192FBAF
:101D3000AA24A0F8492F4695469546959C81B92E30
:101D4000B294B69487E0B822ED809770CE80DA80A6
:101D5000A12FB0E0F880898120913E0220FD07C0CC
:101D600029E731E0002329F029EA31E002C027E722
:101D700031E0FF93EF937F936F931F925F931F92D6
:101D8000AF921F924F931F92BF921F92EF921F929A
:101D90009F931F92CF921F92DF92BF93AF931F9298
:101DA000FF921F928F933F932F9380EE92E09F9329
:101DB0008F930E94800D8DB79EB74E960FB6F89404
:101DC0009EBF0FBE8DBF80913C02811311CF8091C9
:101DD0000202011108C091E0980F9F70807F892B4B
:101DE0008093020205CF807FFBCF2091010222FD6C
:101DF0000C94DD0D86E593E09F938F930E94800DF8
:101E00000F900F9080E008951F93CF93DF93182FCA
:101E1000262FEA0140E0682F80E00E9453041F3F14
:101E200011F4CBE7D1E0BE010E941E0BDF91CF91F0
:101E30001F910C94F50E21E043E06FEF80E00E94CB
:101E4000530469EA71E00E941E0B0C94F50EFC012C
:101E500080913B0281839481907F916094838091F3
:101E6000070280FF03C0CF010C94F50E88E398E0D1
:101E70009F938F930E94800D0F900F9080E00895A4
:101E8000CF93C82F8FEF8C0F8E3F10F5C0933B027E
:101E9000C093180163E082E20E94AA0C61E081E233
:101EA0000E94AA0C0E94BB0C6C2F90E080E00E9464
:101EB0007B271F92CF9389EB92E09F938F930E9491
:101EC000800D0F900F900F900F9081E0CF910895AB
:101ED0001F92CF938BEC92E09F938F930E94800D83
:101EE0008FEF80933B020F900F900F900F9080E048
:101EF000EDCF2F923F924F925F926F927F928F928F
:101F00009F92AF92BF92CF92DF92EF92FF920F9388
:101F10001F93CF93DF93CDB7DEB72A970FB6F89410
:101F2000DEBF0FBECDBF8091010284FB442440F888
:101F300084FF2CC50E94AF050091B1011091B20140
:101F40002091B3013091B401601B710B820B930B94
:101F5000613A7B4B8D409105D0F00E94AF056093B4
:101F6000B1017093B2018093B3019093B4010E94C8
:101F7000CE0C8111A0C087E596E09F938F930E94BD
:101F8000800D8AE191E00E9495090F900F9086E004
:101F9000782E9EED292E93E0392E87E10E94C80C01
:101FA00080FDC7C47A94772009F4C3C421E041E0DE
:101FB00070E060E080E60E946D0CD82E40E2481789
:101FC00020F482EE0E94DC0CD12C21E04D2D6BEA36
:101FD00073E081E60E946D0C60E487E20E94AA0C27
:101FE0008091AE03C82EC694C694C69499E19C1500
:101FF00010F409E1C02E17E0512E5C0C82FF02C0E4
:10200000B0E25B2E8091AF038770F82E1091B00381
:102010000091AC03E090AB036090AD03A3E08A13A2
:1020200004C087E691E0113121F08BEA93E00E9431
:10203000760AAC2CB12C802E912C9F938F9380919B
:10204000AE0382FB882780F91F928F931F92CF9255
:102050008091AF038295869587701F928F931F9210
:102060001F931F92FF928091B1031F928F931F9233
:102070006F921F92EF921F920F938DE196E09F93C4
:102080008F930E94800D0FB6F894DEBF0FBECDBFB8
:102090005D14C1F01F925F921F92DF9285E096E07F
:1020A0009F938F930E94800D0F900F900F900F9031
:1020B0000F900F9072CF86E696E09F938F930E94C9
:1020C000800D63CF8091AE038370823041F01F9208
:1020D00092E09F931F928F938FEE95E0E1CF8091D6
:1020E0003C02E81649F080913B02081729F06E2D5A
:1020F000C40103960E947B2780910202806880932E
:10210000020280913B02681244C38091AE03282FE3
:102110002695269526952A3108F029E198E0299FF1
:10212000900111248770822B8093AE03F501E55551
:10213000FC4F17828091AF0383FF21C08EED95E0A5
:102140009F938F930E94800D81E2EBEAF3E0AAE86F
:10215000B3E001900D928A95E1F780918E03877F1D
:10216000806180938E0380913B0280938B03009368
:102170008C038AE893E00E94F50E0F900F909091E7
:10218000AF0394FD01C3A3E0FA125AC18091B003DA
:1021900021EF280F233008F400CF1430B1F48091E0
:1021A000B10390911901891711F08F3F39F48BEA2F
:1021B00093E00E946F0D0E94400FEFCE86EC95E0F9
:1021C0009F938F930E94800D2DC1183021F510919F
:1021D000010210FF1DC08BEA93E00E946F0D8F3F3C
:1021E00009F4DBCE8F5F8F3F09F4D7CE90913D028B
:1021F000891708F0D2CE11FDD0CE80933D02009316
:102200003C021F928F931F920F938AEA95E048CF6A
:1022100082E995E0D5CF1831D1F48BEA93E00E94A2
:102220006F0D1F928F931F920F9386E795E09F93F8
:102230008F930E94800D29E143E06FEF802F0E9471
:10224000530461E00E946B090E94DD0D2DCF19310E
:10225000E9F48091010283FF16C0877F8093010219
:102260008BEA93E00E946F0D809303021F928F937D
:102270008DE595E09F938F930E94800D0F900F90B6
:102280000F900F908ACE80E495E09ACF1E3109F42A
:1022900084CE1D3169F42FE143E06FEF80E00E94AE
:1022A000530460E07FEF0E945E090E94DD0D75CE51
:1022B0002091AC032111C1C08D3059F488E198E020
:1022C0000FB6F894A895809360000FBE90936000BD
:1022D000FFCF8B3199F48BEA93E00E946F0D91E070
:1022E000811101C090E08091070290FB80F98093FA
:1022F00007021F929F938BEA93E0BCCF8630A1F434
:102300009091B203842D992321F081E09D3409F04E
:1023100080E08093060241E050E063E071E086E0F7
:1023200092E00E946B2739CE833119F40E941F1965
:1023300034CE8231D9F40E9482096B017C0126E1FE
:1023400043E06FEF80E00E945304FC0184818F71B1
:10235000806A84838381877080628383C782D0860A
:10236000E186F286CF010E94F50E17CE8230C1F4CD
:1023700022E043E06FEF80E00E945304FC0184817F
:102380008F71806A84838381877080628383CC2489
:10239000CA94DD24D394A3E0EA2EA2E0FA2EDECF85
:1023A0008130D9F4929596959770953059F4609153
:1023B000B2037091B3038091B4039091B5030E946E
:1023C0007D07EBCD911105C082EB93E00E94422185
:1023D000F6CF60E070E0CB01F2CF8A3031F580912A
:1023E000B203833409F0D9CD03E010E06FEFC801E8
:1023F0000E947B270F5F1F4F033021E01207B1F7C8
:102400008FE993E09F938F930E94800D2AE043E031
:102410006FEF80E00E9453046FE671E00E941E0B94
:102420000E94F50E0F900F90B8CD8C3109F4B5CD08
:102430008BEA93E00E94A419B0CD8A31C9F7ADCDE3
:1024400044E0F412F5CF1091B003113009F0A2C0AE
:102450008091B701882319F080E994E0B1CE48E07B
:1024600050E062EB73E086EC91E00E947929892BC1
:1024700009F487C080E894E09F938F930E94800DB9
:1024800088E0E2EBF3E0A6ECB1E001900D928A95D2
:10249000E1F78CB58093CF038DB58093D00361E0D5
:1024A0008091CC030E94BA040E94E10880E58093E9
:1024B000D1031093D2030E94DD0960E08BEA0E94F1
:1024C000FC090E94DD090F900F908091CD0390913F
:1024D000CE03892B99F561E081E00E94FC0980E040
:1024E0000E94C1090E94DD0961E082E50E94FC09A9
:1024F00080E00E94C10980E00E94C10980E00E9442
:10250000C1090E94DD090E94EC098111FCCF809174
:10251000CA019091CB019093B0018093AF0181E00B
:102520008093B70186E08093AE011092AA011092C9
:10253000AB011092AC011092AD012FCD0E94CB09DE
:102540008FE90E94C10980E00E94C109082F10E0B4
:10255000102F002780E00E94C109082B0E94DD098E
:102560008091CD039091CE038017910709F4B3CFEA
:1025700086E694E09F938F930E94800D1092B7019E
:1025800051CF8EE494E09F938F930E94800D0F9023
:102590000F904ECF133009F04BCF8091B7018823B5
:1025A00009F4EFC00091B6031091B7031F930F9386
:1025B00089E394E09F938F930E94800D6091AF0117
:1025C0007091B001CB0101970F900F900F900F9079
:1025D0000817190719F085E294E0F2CDE4E0660FE0
:1025E000771FEA95E1F76650710990E080E020E1FD
:1025F00030E048EB53E00E941B0A0E94EC09811175
:10260000FCCF1093B0010093AF01012B09F08ACFEA
:1026100085E194E09F938F930E94800D1092B70103
:102620000F900F90812C912C54010FEF1FEF809190
:10263000CA019091CB01AC0164E0440F551F6A952B
:10264000E1F770E060E084169506A606B70680F50F
:1026500060E083E00E94FC09750164018AE0C80E15
:10266000D11CE11CF11C8E2D0E94C1098D2D0E94F0
:10267000C1098AE0880D0E94C10980E00E94C10959
:10268000F82E0E94DD090F2588E09801217033277C
:1026900016950795232B21F091E0092790EA192739
:1026A000815099F7AFEF8A1A9A0AAA0ABA0ABFCFDD
:1026B0002091CD012F932091CC012F931F930F9345
:1026C0009F938F9380EC93E09F938F930E94800D54
:1026D0000FB6F894DEBF0FBECDBF8091CC019091B4
:1026E000CD010817190709F043C085E094E09F93D6
:1026F0008F930E94800D48E050E06BE171E086EC22
:1027000091E00E946B278091CA019091CB0144E037
:10271000880F991F4A95E1F726E429832CE42A8340
:1027200028E52B8329E42C832DE42D8327E42E83B5
:102730002AE32F832A87988789872AE030E0AE0131
:102740004F5F5F4F60E070E0CB010E941B0A0F906B
:102750000F900E94EC098111FCCF88E198E00FB640
:10276000F894A895809360000FBE90936000FFCF0F
:1027700082EF93E09F938F930E94800D0F900F90B4
:10278000D1CE3F922F921ECDA3E3B5E0BF93AF937E
:10279000FCCEDD24DA946D109EC087E295E09F9315
:1027A0008F930E94800D0F900F90B3E0FB1265C0D5
:1027B0008091010282FF45C0173009F042C080912C
:1027C0003C02081709F4E9CB1F920F933FE0C32E98
:1027D00035E0D32EDF92CF920E94800D0E945915D2
:1027E0000F900F900F900F90882321F10E94AF055A
:1027F0006093FD017093FE018093FF0190930002AE
:102800008FEF94E09F938F930E94800D0E94AF05FD
:102810007370882799270E947C0528E043E06FEFBA
:10282000802F0E94530460913D020E946B090E9418
:10283000DD0DF8CD2CEEC22E24E0D22EDF92CF9209
:10284000C1CC183009F4A9CB1431B9F480913C0201
:10285000E81213C00E94AF057370882799270E9461
:102860007C0525E143E06FEF802F0E9453046091C7
:102870003C020E946B090E94DD0D80913C02E8122F
:102880008CCB80913B02081709F4DCC080910102D7
:1028900082FFD8C088ED94E09F938F930E94800DB3
:1028A0008BEA93E00E94DD0D0F900F90B3E0FB16D2
:1028B00009F473CB80913C02E8126FCB98ECC92EDF
:1028C00094E0D92EDF92CF920E94800D8BEA93E0A4
:1028D0000E94A419A7CD8091010282FF5ECB23E064
:1028E000F2121CC018511230C8F48BEA93E00E9417
:1028F0006F0D182F1F928F9380EB94E09F938F930F
:102900000E94800D0F900F900F900F901E3F31F09E
:1029100061E0610F8BEA93E00E946B098FE9C82E9A
:1029200084E0D82EDF92CF920E94800D8BEA93E054
:102930007ECF8091010282FF29C00E94AF052091C5
:10294000B701222319F10091AA011091AB01209146
:10295000AC013091AD016B017C01C01AD10AE20AD1
:10296000F30A97018601053F11402105310570F0FA
:102970002091AE01211123C089E893E09F938F93AA
:102980000E94800D1092B7010F900F902A960FB6FB
:10299000F894DEBF0FBECDBFDF91CF911F910F9195
:1029A000FF90EF90DF90CF90BF90AF909F908F906F
:1029B0007F906F905F904F903F902F90089521509F
:1029C0002093AE016093AA017093AB018093AC0198
:1029D0009093AD01C090C601D090C701E090C801AE
:1029E000F090C9010091AF011091B001015011099F
:1029F0001F930F93FF92EF92DF92CF9284E693E0C2
:102A00009F938F930E94800D22E044E06FEF80E05F
:102A10000E945304FC0183818770806383838481D7
:102A20008F71806C8483C782D086E186F28614879A
:102A30000387CF010E94F50E0FB6F894DEBF0FBEDC
:102A4000CDBFA4CF93E0F91239CFA7CACF92DF92BE
:102A5000EF92FF92CF93DF93D82F0E94AF056B01C7
:102A60007C011092B003C0E00E94AF056C197D0993
:102A70008E099F09603D77408105910590F4C11151
:102A800010C0A8950E9477090E94790F8091AF032A
:102A90008770833049F7C1E08091B0038D13E3CF95
:102AA000E3CF8C2FDF91CF91FF90EF90DF90CF900D
:102AB0000895CF92DF92EF92FF92CF930E94AF05DD
:102AC000C090FD01D090FE01E090FF01F090000267
:102AD0006C197D098E099F09603177428105910546
:102AE00050F486E298E09F938F930E94800D0F90A0
:102AF0000F9081E02CC08091010283FBCC27C0F9AC
:102B000083FD60C01F921F928FEC97E09F938F937D
:102B10000E94800D0F900F900F900F9080913B02BC
:102B200081111BC01092030280910102877F809364
:102B30000102C0910302CF3F09F04DC084EF97E03E
:102B40009F938F930E94800D0F900F9080E0CF9104
:102B5000FF90EF90DF90CF90089580910102886000
:102B6000809301028FEF8093030228E143E06FEF2F
:102B700080E00E94530461E00E946B090E94DD0D19
:102B80000E94AF056B017C011092B0030E94AF055B
:102B90006C197D098E099F09603D7740810591057B
:102BA00018F6C111C1CF0E94790FA8958091AF038B
:102BB0008770833059F7C1E08091B003893131F3D8
:102BC000C0E0E4CF83EE97E09F938F930E94800D47
:102BD0000F900F90B3CF0E94AF056093FD017093EB
:102BE000FE018093FF01909300028AE198E09F9399
:102BF0008F930E94800D80913D020F900F908C1753
:102C000009F477CF1F92CF931F928F9382E098E0C1
:102C10009F938F930E94800DC0933D020F900F9061
:102C20000F900F900F900F9064CFCF93DF93CDB79D
:102C3000DEB768970FB6F894DEBF0FBECDBF0E9417
:102C40005915811104C062E084E00E941D09809141
:102C5000010282FF04C061E082E00E941D096091D0
:102C6000C4017091C501CE010D960E94B10B609117
:102C7000B5017091B601CE0101960E94B10BBE0163
:102C80006F5F7F4FCE0107960E94330CCE010796EF
:102C90000E948D0BBE01635F7F4F0E94FB0BBC0146
:102CA000CE0143960E94330CCE0107960E942E0C53
:102CB000CE0101960E942E0CCE010D960E942E0C84
:102CC0006B897C898CED92E00E941E0B0E94270F7D
:102CD00082EA91E00E94632761E070E0811102C006
:102CE00070E060E08FE393E00E945E090E94270F8E
:102CF0008091B5019091B601029784F083EA91E04A
:102D00000E94632761E070E0811102C070E060E022
:102D10008EE193E00E945E090E94270F8091B50129
:102D20009091B601039784F084EA91E00E946327B2
:102D300061E070E0811102C070E060E08DEF92E030
:102D40000E945E090E94270F0E941B0F61E088E02D
:102D50000E948C04CE0143960E942E0C68960FB6FA
:102D6000F894DEBF0FBECDBFDF91CF9108958F9253
:102D70009F92AF92BF92CF92DF92EF92FF924B0160
:102D80005C010E94AF056B017C010E94AF056C19CC
:102D90007D098E099F09681579058A059B0530F420
:102DA000A8950E9477090E94790FEFCFFF90EF90CE
:102DB000DF90CF90BF90AF909F908F900895CF936A
:102DC000DF93EB018235910511F183359105B9F15E
:102DD0008135910509F04BC08EE00E948C046AE0B9
:102DE00070E080E090E00E94B716BE018FE393E0B0
:102DF0000E945E090E94270F8C2F81708093D20160
:102E00006C2F82EA91E0DF91CF910C947B278FE0C9
:102E10000E948C046AE070E080E090E00E94B716A7
:102E2000BE018EE193E00E945E090E94270F8C2F65
:102E300081708093D1016C2F83EA91E0E4CF80E12F
:102E40000E948C046AE070E080E090E00E94B71677
:102E5000BE018DEF92E00E945E090E94270F8C2F29
:102E600081708093D0016C2F84EA91E0CCCFDF9108
:102E7000CF910895CF92DF92EF92FF920F931F931D
:102E8000CF93DF938CE793E00E942807F82E8EE61D
:102E900093E00E942807182F80E693E00E942807FD
:102EA000C82FE090840300917603D091680380914D
:102EB000C4019091C501892B09F5FF2049F060916B
:102EC000D20181E0682770E081E590E00E94DF1682
:102ED000112349F06091D10181E0682770E082E51B
:102EE00090E00E94DF16CC2349F06091D00181E090
:102EF000682770E083E590E00E94DF168091C401AE
:102F00009091C501019739F5FF2059F0E0FC09C007
:102F10006091D20181E0682770E081E590E00E9435
:102F2000DF16112359F000FD09C06091D10181E045
:102F3000682770E082E590E00E94DF16CC2359F00C
:102F4000D0FD09C06091D00181E0682770E083E581
:102F500090E00E94DF160E94A2070E94E80780917D
:102F6000D701882311F0C0E011C00E94A2070E947F
:102F7000E8078091D6018111F6CF0E94A2070E9436
:102F8000E807C1E08091D5018111EDCF0E94A20731
:102F90000E94E8078091D7018C3011F080E011C0C9
:102FA0000E94A2070E94E8078091D6018111F6CF06
:102FB0000E94A2070E94E80781E09091D50191113B
:102FC000EDCFC11102C0882341F064EF71E080E0D1
:102FD00090E00E94B7160E941B0FC090C001D090D5
:102FE000C101E090C201F090C3018091D201882319
:102FF00009F498C020E030E0A901C701B6010E94A1
:1030000067281816DCF420E030E040E85FE3C701F1
:10301000B6010E94C4276093C0017093C1018093E0
:10302000C2019093C3010E94312883E00E94FA04F8
:1030300065E070E080E090E00E947C05C090BC01FB
:10304000D090BD01E090BE01F090BF018091D10110
:10305000882309F47AC020E030E0A901C701B60155
:103060000E9467281816DCF420E030E040E85FE3B7
:10307000C701B6010E94C4276093BC017093BD01D3
:103080008093BE019093BF010E94312885E00E9489
:10309000FA0465E070E080E090E00E947C05C0905A
:1030A000B801D090B901E090BA01F090BB018091D5
:1030B000D001882309F45CC020E030E0A901C701F9
:1030C000B6010E94672818160CF05CC020E030E0C2
:1030D00040E85FE3C701B6010E94C4276093B801CE
:1030E0007093B9018093BA019093BB010E9431287B
:1030F00086E00E94FA0465E070E080E090E0DF91F5
:10310000CF911F910F91FF90EF90DF90CF900C9493
:103110007C0520E030E040E85FE3C701B6010E9493
:10312000C527DCCF20E030E046E153E4C701B6011B
:103130000E94D62687FF82CF20E030E040E85FE3A0
:10314000C701B6010E94C52766CF20E030E046E106
:1031500053E4C701B6010E94D62687FFA0CF20E026
:1031600030E040E85FE3C701B6010E94C52784CF85
:1031700020E030E046E153E4C701B6010E94D626C4
:1031800087FDC7CFDF91CF911F910F91FF90EF90F7
:10319000DF90CF9008952BE043E06FEF80E00E9436
:1031A000530462E271E00E941E0B0E94F50E2CE0B7
:1031B00043E06FEF80E00E9453046EE171E00E94F3
:1031C0001E0B0E94F50E62E370E080E090E00E942A
:1031D000B71641E851E063E081E50E94040F62E325
:1031E00070E080E090E00E94B7168091B501909168
:1031F000B601029764F048E851E063E082E50E947E
:10320000040F62E370E080E090E00E94B7168091C6
:10321000B5019091B601039734F04FE851E063E0B7
:1032200083E50E94040F62E370E080E090E00E947A
:10323000B71646E951E068E187E10C94040FCF939B
:10324000DF93CAE8D3E08B81877080658B838C81A4
:103250008871846C8C8388E0E6ECF1E0A1E9B3E04E
:1032600001900D928A95E1F783E090E0988B8F872B
:103270001092B70120E044E06FEF80E00E94530419
:103280000E94F50E2FE043E06FEF80E00E945304B0
:1032900069EA71E00E941E0B8B81877080618B83CD
:1032A0008C818F71806C8C8381E08F831886CE0136
:1032B0000E94F50E8FE00E94261549EA51E062E176
:1032C0008FEF0E94040F26E043E06FEF80E00E9442
:1032D000530460913C020E946B090E94F50E86E047
:1032E0000E942615DF91CF910C94CB18CF9380913B
:1032F000070281FD27C00E941F1982E796E09F9375
:103300008F930E94800D8091070281608093070255
:103310000F900F90C4E02AE143E06FEF80E00E943D
:10332000530462E00E946B090E94F50E8BE10E943B
:103330002615811102C0C15071F780910702826089
:1033400080930702CF910895EF92FF920F931F93FE
:10335000CF93DF93CDB7DEB768970FB6F894DEBF93
:103360000FBECDBF8C01FC018581823089F4F680CF
:10337000F7E0FF1669F0C8010E946F0D61E070E090
:10338000811102C070E060E08F2D90E00E94DF1696
:10339000F80185818331B9F486818035A1F094816B
:1033A00094FD11C0823509F4A4C0833509F4A9C085
:1033B000813549F46091D20181E0682770E081E5B0
:1033C00090E00E94DF16F8018581883109F084C001
:1033D0008681873109F080C0095F1F4FF801019095
:1033E0000020E9F7CF01801B910B0E94FF1FF82EF0
:1033F000E92EB8010E948F2984EC91E09F938F936E
:1034000085EB91E09F938F9381EA91E09F938F9357
:10341000EF92FF920E94A5296091B5017091B601CB
:103420000FB6F894DEBF0FBECDBF6430710584F4D3
:103430008091C4019091C501029754F48EE991E006
:103440000E947B276091C4018FE991E00E947B2755
:103450006091C4017091C501CE010D960E94B10B1F
:103460006091B5017091B601CE0101960E94B10B39
:10347000BE016F5F7F4FCE0107960E94330CCE01D5
:1034800007960E948D0BBE01635F7F4F0E94FB0B6E
:10349000BC01CE0143960E94330CCE0107960E94D8
:1034A0002E0CCE0101960E942E0CCE010D960E948C
:1034B0002E0C0B891C896AE070E080E090E00E948D
:1034C000B716B8018CED92E00E941E0B0E94270FE8
:1034D000CE0143960E942E0C68960FB6F894DEBF7C
:1034E0000FBECDBFDF91CF911F910F91FF90EF9055
:1034F00008956091D10181E0682770E082E590E055
:1035000060CF6091D00181E0682770E083E590E0B2
:1035100058CF0F931F930E948209209102022077B7
:103520002037B9F000E117E220E030E00617170776
:103530002807390798F487EA92E09F938F930E94B7
:10354000800D0F900F9081E391E01F910F910C94EB
:10355000950900E61AEE20E030E0E8CF1F910F91C8
:10356000089580910202982F9077903759F0982F04
:1035700092959F709F5F97709295907F8F78892B1F
:103580008093020280910202829587701F928F932E
:1035900086E992E09F938F930E94800D80910102B3
:1035A0008B7F8F7E8093010288E892E09F938F93B8
:1035B0000E94800D8BE792E09F938F930E94800D75
:1035C00029988DB79EB708960FB6F8949EBF0FBE88
:1035D0008DBF6CE080E20C94AA0C809102028F7087
:1035E0008B3060F082E692E09F938F930E94800D73
:1035F0000F900F9084E191E00C94950908958091CB
:103600003D021F928F9380913C021F928F93809175
:103610003B021F928F9383E492E09F938F930E94CB
:10362000800D8091010284608093010280910202EA
:10363000807880930202E091CE01F091CF018DB7A6
:103640009EB708960FB6F8949EBF0FBE8DBF3097F9
:1036500009F009940895809103028F3F81F10E943F
:10366000AF056093FD017093FE018093FF0190937D
:10367000000287E392E09F938F930E94800D9091C8
:10368000030280913D020F900F909817A1F01F92B6
:103690009F931F928F938FE192E09F938F930E944D
:1036A000800D8091030280933D020F900F900F9048
:1036B0000F900F900F9080E191E00C9495090E947B
:1036C0008209613D774081059105B8F08091010242
:1036D000803618F48CE091E0F0CF80E192E09F9387
:1036E0008F930E94800D80910102877F8093010259
:1036F0000F900F9084E191E0E0CF089587E092E091
:103700009F938F930E94800D8FEF80930302E1E0DF
:10371000F2E080818860808328E143E06FEF80E001
:103720000E94530461E00E946B090F900F900C946B
:10373000DD0D80913B028F3F61F08CEF91E09F9314
:103740008F930E94800D0F900F908CE091E00C946D
:1037500095090E948209613D77408105910590F0AD
:1037600080910102803618F488E091E0F0CF8EEE6F
:1037700091E09F938F930E94800D0F900F908AE1AC
:1037800091E0E5CF0895CF9386EE91E09F938F93DC
:103790000E94800D0F900F9080913B028F3F01F5AA
:1037A0000E94AF056F3FC9F060931901C0911901E4
:1037B0008AED91E09F938F930E94800D23E043E078
:1037C0006C2F80E00E94530469EA71E00E941E0B96
:1037D0000F900F90CF910C94DD0D10921901E6CF50
:1037E000CF9108950E948209613D7740810591053E
:1037F00020F48091010281FF2FC080913C028F3F15
:1038000089F08DEC91E09F938F930E94800D8091C1
:1038100001028E7F809301020F900F9088E091E06B
:103820000C94950980910102803658F489EA91E060
:103830009F938F930E94800D0F900F9084E191E0F1
:10384000EFCF8DEB91E09F938F930E94800D0F90AF
:103850000F908AE191E0E4CF08958FE991E09F9382
:103860008F930E94800DE1E0F2E08081897F81608A
:103870008083EBE3F2E08FEF8283818327E043E0F4
:103880006FEF0E94530469EA71E00E941E0B0F90D3
:103890000F900C94DD0D219A229A29982A9A0E9461
:1038A000E10829986EE080E20E94AA0C84E293E28B
:1038B0000197F1F763E083E20E94AA0C6FE584E2CE
:1038C0000E94AA0C6CE485E20E94AA0C67E286E2E0
:1038D0000E94AA0C64E08DE30E94AA0C8DE10E9474
:1038E000C80C843041F063E780E50E94AA0C64E0D4
:1038F0008DE30E94AA0C0E94CE0C81110BC08AE7B6
:1039000091E09F938F930E94800D0F900F908AE11A
:1039100091E046C062E082E20E94AA0C60E081E28F
:103920000E94AA0C63E08CE30E94AA0C8FEF8093A4
:10393000030120E045E063E071E08BE20E946D0C42
:1039400020E045E063E071E08AE20E946D0C20E037
:1039500045E063E071E080E30E946D0C82EE0E941E
:10396000DC0C81EE0E94DC0C60E787E20E94AA0C6E
:103970008EE891E09F938F930E94800D80910102C9
:1039800080618093010280913E028E7F80933E028F
:1039900080913B020F900F908F3F21F484E191E0E2
:1039A0000C9495090E94400F8111F8CFB0CF80E7A9
:1039B00091E09F938F930E94800DE1E0F2E080817F
:1039C000877F8F7E80831092FD011092FE011092FE
:1039D000FF01109200020E94AF056093B101709345
:1039E000B2018093B3019093B4010F900F9044E023
:1039F00050E070E060E08BE392E00C9453271F925C
:103A00000F920FB60F9211242F933F938F939F9392
:103A1000AF93BF938091EF019091F001A091F101DC
:103A2000B091F2013091EE0126E0230F2D3758F5C9
:103A30000296A11DB11D2093EE018093EF0190939A
:103A4000F001A093F101B093F2018091F301909104
:103A5000F401A091F501B091F6010196A11DB11DEF
:103A60008093F3019093F401A093F501B093F601D4
:103A7000BF91AF919F918F913F912F910F900FBE6A
:103A80000F901F90189529E8230F0396A11DB11DD3
:103A9000D2CF1F920F920FB60F9211242F933F9304
:103AA0004F935F936F937F938F939F93AF93BF9346
:103AB000EF93FF93E0913701F09138010995FF9161
:103AC000EF91BF91AF919F918F917F916F915F9196
:103AD0004F913F912F910F900FBE0F901F9018950F
:103AE0001F920F920FB60F9211242F933F934F9373
:103AF0005F936F937F938F939F93AF93BF93EF9356
:103B0000FF93E0913501F09136010995FF91EF9116
:103B1000BF91AF919F918F917F916F915F914F91E5
:103B20003F912F910F900FBE0F901F9018951F92ED
:103B30000F920FB60F9211242F933F934F935F93E1
:103B40006F937F938F939F93AF93BF93EF93FF9365
:103B50008FE392E00E943006FF91EF91BF91AF9109
:103B60009F918F917F916F915F914F913F912F9195
:103B70000F900FBE0F901F9018951F920F920FB6C7
:103B80000F9211242F938F939F93EF93FF93E091C4
:103B90004F02F09150028081E0915502F09156025F
:103BA00082FD1BC09081809158028F5F8F7320919E
:103BB0005902821741F0E0915802F0E0E15CFD4FBC
:103BC000958F80935802FF91EF919F918F912F9144
:103BD0000F900FBE0F901F9018958081F4CF1F9209
:103BE0000F920FB60F9211240F900FBE0F901F90DF
:103BF0001895CF93DF93FC011082118212821482F8
:103C000015821682DC0117968AE1ED0119928A95D8
:103C1000E9F782E08383DF91CF910895CF93EFE3BB
:103C2000F2E01382128288EE93E0A0E0B0E0848399
:103C30009583A683B7838FE491E09183808385EC9D
:103C400090E09587848784EC90E09787868780EC66
:103C500090E0918B808B81EC90E0938B828B82EC57
:103C600090E0958B848B86EC90E0978B868B118E01
:103C7000128E138E148EECECF3E080E5858381E0E8
:103C8000868388E0808385E69FE1928381838BEA47
:103C900093E00E94F91D8AE893E00E94F91DECE789
:103CA000F3E021E631E03183208312821382148213
:103CB00015828AE090E09783868310861186EEE66F
:103CC000F3E031832083128213821482158297835A
:103CD000868310861186E0E6F3E03183208312822A
:103CE00013821482158297838683108611868FE350
:103CF00093E00E94F91DEFE3F3E081E58683C2E0E3
:103D0000C5838EE193E00E94F91DEEE1F3E082E5C8
:103D10008683C5838DEF92E00E94F91DEDEFF2E0FE
:103D200083E58683C5838CED92E00E94F91DECED5E
:103D3000F2E087E1868388E18583CF9108957894C6
:103D400084B5826084BD84B5816084BD85B58260A0
:103D500085BD85B5816085BD80916E008160809351
:103D60006E001092810080918100826080938100BA
:103D700080918100816080938100809180008160CA
:103D8000809380008091B10084608093B100809125
:103D9000B00081608093B00080917A00846080934D
:103DA0007A0080917A00826080937A0080917A0014
:103DB0008E7F80937A0080917A00806880937A0069
:103DC0001092C100A89580E090E0892B11F00E942C
:103DD0000000E0914F02F091500282E08083E09178
:103DE0004B02F0914C021082E0914D02F0914E0294
:103DF00087E6808310925702E0915302F0915402BB
:103E000086E08083E0915102F091520280818061CE
:103E10008083E0915102F09152028081886080831A
:103E2000E0915102F0915202808180688083E0919C
:103E30005102F091520280818F7D8083C0E1D0E0F9
:103E4000F12CFE01F595E795EA57F94FE491C0FF93
:103E5000AAC0EF70E83008F0A8C0F0E0EA57F94FC8
:103E6000F4906F2D8FE392E00E9452062196C23F9C
:103E7000D10539F78FE796E00E949F0687EA91E027
:103E80000E94110B1F928FEF8F9381E497E09F9315
:103E90008F930E94800D809107028D7F809307028F
:103EA00084E397E09F938F930E94800D0E94E20C21
:103EB00041E050E063E071E086E092E00E94532729
:103EC00048E050E06BE171E086EC91E00E945327FE
:103ED0006FEF81E090E00E947B27809102028F7853
:103EE000809302021092F8011092F70181E391E0B1
:103EF0000E94950986E799E19093CF018093CE01C6
:103F00001F921F921F921F928FEF96E09F938F93A5
:103F10000E94800D0E94AF058DB79EB70C960FB61C
:103F2000F8949EBF0FBE8DBF0E94AF050E94770917
:103F30000E94790F8091010282FB882780F9A89561
:103F4000882391F387E297E09F938F930E94800DDF
:103F50000E941516909101020F900F9092FB8827F6
:103F600080F992FD0E94CE0C1F928F938FE097E014
:103F70009F938F930E94800DA8950F900F900F90A4
:103F80000F90C0E0D0E0A8950E9477090E94790FB9
:103F90000E943A172097B9F30E942606882399F3C6
:103FA0000E940000F0CFE29554CF1BEF1E0F00E0FF
:103FB0006F2D8FE392E00E9452060F5F0117C0F34E
:103FC00055CFEF920F931F93CF93DF93E80134E027
:103FD00047FD34E1042E000C550B57FF03C05195EB
:103FE00041955109E32E022F242FAE010E94E223B6
:103FF000CE01DF91CF911F910F91EF9008950F9314
:104000001F93CF93DF938230910510F482E090E00C
:10401000E091D503F091D60330E020E0B0E0A0E0DD
:10402000309799F42115310509F44AC0281B390B42
:1040300024303105D8F58A819B816115710589F19C
:10404000FB0193838283FE0111C040815181028173
:10405000138148175907E0F04817590799F410974A
:1040600061F012960C93129713961C933296CF011F
:10407000DF91CF911F910F9108950093D503109375
:10408000D603F4CF2115310551F04217530738F00C
:10409000A901DB019A01BD01DF01F801C1CFEF01E8
:1040A000F9CF9093D6038093D503CDCFFE01E20FD5
:1040B000F31F819391932250310939832883D7CFFD
:1040C0002091D3033091D403232B41F420913B0161
:1040D00030913C013093D4032093D30320913901D4
:1040E00030913A012115310541F42DB73EB7409189
:1040F0003D0150913E01241B350BE091D303F0911B
:10410000D403E217F307A0F42E1B3F0B281739073F
:1041100078F0AC014E5F5F4F2417350748F04E0F23
:104120005F1F5093D4034093D303819391939FCF08
:10413000F0E0E0E09CCFCF93DF930097E9F0FC0143
:10414000329713821282A091D503B091D603ED016C
:1041500030E020E01097A1F420813181820F931F7D
:104160002091D3033091D4032817390709F061C097
:10417000F093D403E093D303DF91CF910895EA0144
:10418000CE17DF07E8F54A815B819E014115510595
:10419000B1F7E901FB83EA8349915991C40FD51F17
:1041A000EC17FD0761F4808191810296840F951FC1
:1041B000E90199838883828193819B838A83F0E0DC
:1041C000E0E012968D919C9113970097B9F52D918F
:1041D0003C911197CD010296820F931F2091D3033A
:1041E0003091D4032817390739F6309751F51092DA
:1041F000D6031092D503B093D403A093D303BCCFBE
:10420000D383C28340815181840F951FC817D9077A
:1042100061F44E5F5F4F88819981480F591F518328
:1042200040838A819B81938382832115310509F024
:10423000B0CFF093D603E093D5039ECFFD01DC0110
:10424000C0CF13821282D7CFFC0188279927E89428
:1042500021912032E9F3293010F02E30C8F32B32AF
:1042600041F02D3239F4689404C00E949821820FE5
:10427000911D219120532A30C0F31EF49095819511
:104280009F4F08951F93FC0199278827BC01E8944C
:1042900011911032E9F3193010F01E30C8F31B32BF
:1042A00051F01D3249F4689406C00E948321610FC9
:1042B000711D811D911D119110531A30B0F33EF400
:1042C00090958095709561957F4F8F4F9F4F1F916F
:1042D0000895BB274A3031F4992322F4BDE290952A
:1042E00081959F4F0C94C321BB272A3051F4992309
:1042F00042F4BDE290958095709561957F4F8F4F08
:104300009F4F0C94A121592F482F372F262F660F2E
:10431000771F881F991F660F771F881F991F620FCD
:10432000731F841F951F660F771F881F991F08959D
:104330007AE0979F902D879F802D910D11240895ED
:10434000BB27FA01A62F6217710581059105330B72
:1043500030FB66F0AA27660F771F881F991FAA1FD8
:10436000A21710F0A21B63953850A9F7A05DAA33DD
:1043700008F0A95DA19336F7B111B1931082CA017B
:104380000C943826BB27FB015527AA27880F991FB5
:10439000AA1FA41710F0A41B83955051B9F7A05D74
:1043A000AA3308F0A95DA193009779F7B111B193F1
:1043B0001192CB010C943826AEE0B0E0E2EEF1E2CF
:1043C0000C949B278C01FA018EE08C831A8309835D
:1043D00077FF02C060E070E8615071097E836D83F1
:1043E000A901BF01CE0101960E9408224D815E8184
:1043F00057FD0AC02F813885421753070CF49A01E4
:10440000020F131FF80110822E96E4E00C94B727D8
:10441000ABE0B0E0EEE0F2E20C948D277C013B01D2
:104420008A01FC0117821682838181FFC8C1CE01F7
:1044300001965C01F7019381F30193FD859193FF50
:1044400081913F01882309F453C1853239F493FDEA
:10445000859193FF81913F01853229F4B70190E066
:104460000E944826E7CF912C212C312CFFE1F31537
:1044700038F08B3211F190F4803209F1833229F156
:1044800037FC3CC020ED280F2A3050F536FE20C006
:104490008AE0989E200D1124922E06C08D3291F054
:1044A000803371F7689430F8F30193FD859193FFA1
:1044B00081913F018111DACF21C0689431F868946D
:1044C00032F8F2CF689433F8EFCF689434F8ECCF39
:1044D000EAE02E9E200D1124222E689435F8E4CFB8
:1044E0008E3229F436FC04C1689436F8DDCF8C3660
:1044F00019F4689437F8D8CF8836B1F2982F9F7D99
:1045000095549330E0F08336A1F18337C1F18335C0
:1045100009F063C02801F2E04F0E511CF801C08081
:10452000D180692D70E036FC02C06FEF7FEFC601CD
:104530000E9422264C01689437F882010AC00C5F61
:104540001F4FFFE3F98388248394912C6501E8943D
:1045500037F833FE2DC0522C8114910471F555208B
:1045600009F468CFB70180E290E00E9448265A948F
:10457000F6CFF801808189830E5F1F4FE4CF2801B9
:10458000F2E04F0E511CF801C080D180692D70E01F
:1045900036FC02C06FEF7FEFC6010E942D264C0152
:1045A0008201D5CFB70180E290E00E9448262A948C
:1045B0002814190409F0B0F7CECFF60137FC859125
:1045C00037FE81916F01B70190E00E94482651109B
:1045D0005A94F1E08F1A9108BFCF843619F08936CA
:1045E00009F077C0F80137FE6BC06081718182816C
:1045F00093810C5F1F4FF32DFF763F2E97FF09C06D
:1046000090958095709561957F4F8F4F9F4F6894DF
:1046100037F82AE030E0A5010E947826C82ECA1893
:104620008C2C432C36FE0CC0E89440F8C91440F49E
:1046300034FE05C032FC03C0F32DFE7E4F2E892CC4
:1046400044FE95C0FE01EC0DF11D8081803309F020
:1046500087C0242D297E422E842D8870582E43FC3D
:1046600095C040FE8FC09C2C821418F42C0C922C08
:10467000981844FE91C0B70180E390E00E9448265C
:1046800042FE09C088E790E041FE02C088E590E064
:10469000B7010E944826C91408F48AC0CA94D12CD4
:1046A0009FEFC91AD90ACA0CDB1CF60182916F016F
:1046B000B70190E00E944826AC14BD04B1F74FCF7B
:1046C00060817181072E000C880B990B0E5F1F4FC4
:1046D00092CFD32CE894D4F82AE030E0853739F132
:1046E000232D297FD22E8F3601F148F48835A9F089
:1046F000F701868197812B96E2E10C94A9278037F8
:1047000049F08837A9F7D4FE02C06894D2F820E1B6
:1047100030E00DC06894D4F8F6CF34FE03C0822F89
:104720008660D82E20E132E002C028E030E0F801B7
:10473000D7FE0FC060817181828193810C5F1F4F12
:10474000A5010E947826C82ECA183D2CE89437F897
:1047500067CF6081718190E080E00E5F1F4FF0CFE6
:1047600042FC02C0839478CF8394839475CF842DC8
:10477000867809F471CFF6CFB70180E290E00E940D
:10478000482683948214C0F3512C73CF522C5818AE
:10479000821408F46ECFF8CF842D867809F47BCF8D
:1047A0008BE241FE80E247FC8DE2B70190E071CFE1
:1047B000B70180E390E00E9448269A946CCF8FEF77
:1047C0009FEF99CFA9E0B0E0E8EEF3E20C949327D5
:1047D0006A01F22EB02E102FFBE3AF2EA01608F4C4
:1047E0001BE31F5F012F27E0AE014F5F5F4F0E9469
:1047F0004125BC018981982F9970913009F43FC0FF
:104800009BE2E1FC04C09E2D9170E0FC3AC05E2D5D
:104810005071E82FE87083FF46C084E0911101C019
:1048200083E0EF2DE81B8F1508F0E0E0D6018E2F16
:1048300020E2552351F1992329F0D6019C93C6011A
:1048400001966C0196012D5F3F4FE2FE24C08EE47D
:10485000D6018C9391E411969C93119712968C93A8
:10486000D9018E2F90E281111BC0E20FF32FF11DB1
:1048700010828EEF9FEF2996ECE00C94AF279DE21B
:10488000C6CF90E2C4CF2D9381508111FCCFCE0EC4
:10489000D11CE0E0D0CF8EE6D6018C9391E6DBCF41
:1048A0009D938150E0CF482F447082FF3DC084E04B
:1048B000911101C083E08F1510F4EF2DE81BD60194
:1048C0008E2F20E2552309F1992329F0D6019C93DC
:1048D000C60101966C0196012D5F3F4FE2FE1BC0A1
:1048E00089E4D6018C938EE411968C93119786E41B
:1048F00012968C93D9018E2F90E2882309F4B5CFBC
:104900009D938150FACF2D9381508111FCCFCE0E13
:10491000D11CE0E0D9CF89E6D6018C938EE61196C2
:104920008C93119786E6E4CF9B0177FF02C030E0BD
:1049300020E0A1E0B0E0911102C0B0E0A0E0F901F8
:104940003196AE0FBF1F8B2C912CBB2009F461C098
:104950005401EFEFAE1ABE0AAA0DBB1DFA161B06D4
:1049600019F014F04F2D4A1B511188C0E3FC59C0B7
:104970007601A42FB0E2A1114FC0C40ED11C99231F
:1049800009F45BC040E0D6011196F60190836D01F9
:10499000552309F448C0012F060F9A81582F5071F2
:1049A00084FF03C0913309F4015010160CF047C086
:1049B000093008F008E0EEE2FE2E5B01A01AB10813
:1049C00085019194819491082F3F320729F4D601F3
:1049D000FC92F60131966F016217730794F102178A
:1049E00013077CF5DB01A21BB30BAA24A394B12C03
:1049F000AC0EBD1EAA0DBB1D11968C912150310924
:104A0000D601119628153905F4F0F60180836D0161
:104A1000DBCFB12CA12CA0CFF701B1937F01A15026
:104A2000AACF9111B0CFD601942F50E302C05D936D
:104A300091509111FCCFC40ED11C40E0ACCF01E0ED
:104A4000BACF80E3DBCF6217730731F4963388F473
:104A5000953311F4552369F0F6018083FD01842F0D
:104A600090E2811108C0A40FB11D1C9290E080E07B
:104A700002CF81E3F1CF91938150F3CF911183CF96
:104A80008ACF283008F027E03327DA01990F311D4B
:104A900087FD916000966105710539F432602E5FE3
:104AA0003D9330E32A95E1F708959F3F30F0803839
:104AB0007105610509F03C5F3C5F3D93913008F062
:104AC0008068911DDF93CF931F930F93FF92EF9216
:104AD000192F987F9695E92F96959695E90FFF27C0
:104AE000EE53FF4F99273327EE24FF24A701E70158
:104AF00005900894079428F4360FE71EF81E491F06
:104B0000511D660F771F881F991F0694A1F7059006
:104B1000079428F4E70EF81E491F561FC11D770F92
:104B2000881F991F661F0694A1F70590079428F423
:104B3000F80E491F561FC71FD11D880F991F661FEA
:104B4000771F0694A1F70590079420F4490F561F8C
:104B5000C71FD81F990F661F771F881F0694A9F7D4
:104B600084911095177041F0D695C7955795479544
:104B7000F794E7941A95C1F7E8E6F0E06894159089
:104B8000159135916591959105907FE27395E118A6
:104B9000F10A430B560BC90BD009C0F7E10CF11E0B
:104BA000431F561FC91FD01D7EF4703311F48A9520
:104BB000E6CFE894015030F0080F0AF400270217FE
:104BC00008F4202F2395022F7A3328F079E37D9380
:104BD0002A95E9F710C07D932A9589F60694979552
:104BE0006795379517951794E118F10A430B560B03
:104BF000C90BD00998F023957E9173957A3308F00C
:104C000070E37C932013B8F77E9170617D9330F050
:104C1000839571E37D9370E32A95E1F71124EF907A
:104C2000FF900F911F91CF91DF91992787FD90956C
:104C3000089591110C94FF26803219F08950855007
:104C4000C8F70895FC010590615070400110D8F735
:104C5000809590958E0F9F1F0895FC0161507040C4
:104C600001900110D8F7809590958E0F9F1F0895A1
:104C7000DC01FC01672F71917723E1F7329704C0C3
:104C80007C916D9370836291AE17BF07C8F308954E
:104C90000F931F93CF93DF93182F092FEB018B8175
:104CA00081FD09C01FEF0FEF812F902FDF91CF9172
:104CB0001F910F91089582FF14C02E813F818C8136
:104CC0009D81281739073CF4E881F981CF010196CD
:104CD0009983888310838E819F8101969F838E8321
:104CE000E3CFE885F985812F0995892BA1F3DACFE8
:104CF000FA01AA27283051F1203181F1E8946F930D
:104D00006E7F6E5F7F4F8F4F9F4FAF4FB1E03ED0B2
:104D1000B4E03CD0670F781F891F9A1FA11D680F50
:104D2000791F8A1F911DA11D6A0F711D811D911D83
:104D3000A11D20D009F468943F912AE0269F1124F8
:104D40003019305D3193DEF6CF010895462F47705C
:104D5000405D4193B3E00FD0C9F7F6CF462F4F70B7
:104D6000405D4A3318F0495D31FD4052419302D015
:104D7000A9F7EACFB4E0A6959795879577956795BB
:104D8000BA95C9F700976105710508959B01AC01BB
:104D90000A2E06945795479537952795BA95C9F7E2
:104DA000620F731F841F951FA01D08950E94DB26AC
:104DB00008F481E00895990F0008550FAA0BE0E868
:104DC000FEEF16161706E807F907C0F012161306CD
:104DD000E407F50798F0621B730B840B950B39F40D
:104DE0000A2661F0232B242B252B21F408950A2673
:104DF00009F4A140A6958FEF811D811D0895992783
:104E00008827089597F99F6780E870E060E008952B
:104E10009FEF80EC089500240A94161617061806D2
:104E20000906089500240A941216130614060506AE
:104E30000895092E0394000C11F4882352F0BB0F3F
:104E400040F4BF2B11F460FF04C06F5F7F4F8F4FA2
:104E50009F4F089557FD9058440F551F59F05F3FDD
:104E600071F04795880F97FB991F61F09F3F79F08C
:104E700087950895121613061406551FF2CF46950E
:104E8000F1DF08C0161617061806991FF1CF869590
:104E90007105610508940895E894BB276627772774
:104EA000CB0197F90895DC01CB01FC01F999FECF04
:104EB00006C0F2BDE1BDF89A319600B40D924150A2
:104EC0005040B8F70895F999FECF92BD81BDF89A88
:104ED000992780B50895DC01A40FB51F41505040BB
:104EE00048F0CB01840F951F2E910E947C274150E2
:104EF0005040D0F70895262FF999FECF92BD81BD7D
:104F0000F89A019700B4021639F01FBA20BD0FB607
:104F1000F894FA9AF99A0FBE08952F923F924F9201
:104F20005F926F927F928F929F92AF92BF92CF9239
:104F3000DF92EF92FF920F931F93CF93DF93CDB742
:104F4000DEB7CA1BDB0B0FB6F894DEBF0FBECDBFBA
:104F500009942A88398848885F846E847D848C848B
:104F60009B84AA84B984C884DF80EE80FD800C8194
:104F70001B81AA81B981CE0FD11D0FB6F894DEBF77
:104F80000FBECDBFED0108955058BB27AA270E9440
:104F9000DC270C9419270E940B2738F00E94122757
:104FA00020F039F49F3F19F426F40C9408270EF4EE
:104FB000E095E7FB0C940227E92F0E942A2758F37B
:104FC000BA17620773078407950720F079F4A6F5EE
:104FD0000C944C270EF4E0950B2EBA2FA02D0B014C
:104FE000B90190010C01CA01A0011124FF27591B2E
:104FF00099F0593F50F4503E68F11A16F040A22F34
:10500000232F342F4427585FF3CF469537952795A4
:10501000A795F0405395C9F77EF41F16BA0B620BA3
:10502000730B840BBAF09150A1F0FF0FBB1F661FEA
:10503000771F881FC2F70EC0BA0F621F731F841F2D
:1050400048F4879577956795B795F7959E3F08F053
:10505000B0CF9395880F08F09927EE0F9795879515
:1050600008950E9438286894B1110C944D27089532
:105070000E94322788F09F5798F0B92F9927B7518F
:10508000B0F0E1F0660F771F881F991F1AF0BA95EC
:10509000C9F714C0B13091F00E944C27B1E00895D7
:1050A0000C944C27672F782F8827B85F39F0B93FC9
:1050B000CCF3869577956795B395D9F73EF490959F
:1050C0008095709561957F4F8F4F9F4F08950E94F7
:1050D000DB2608F48FEF089597FB072E16F4009453
:1050E00007D077FD09D00E94A22807FC05D03EF426
:1050F000909581959F4F0895709561957F4F089584
:10510000A1E21A2EAA1BBB1BFD010DC0AA1FBB1FCB
:10511000EE1FFF1FA217B307E407F50720F0A21B3D
:10512000B30BE40BF50B661F771F881F991F1A94AA
:1051300069F760957095809590959B01AC01BD01D4
:10514000CF010895AA1BBB1B51E107C0AA1FBB1FBB
:10515000A617B70710F0A61BB70B881F991F5A9503
:10516000A9F780959095BC01CD010895EE0FFF1F22
:105170000590F491E02D0994B0E0A0E0E2ECF8E2B3
:105180000C948F278C01009751F4CB010E94FF1FD4
:105190008C01C801CDB7DEB7E0E10C94AB27FC0170
:1051A000E60FF71F9C0122503109E217F30708F4BC
:1051B0009DC0D901CD91DC911197C617D70798F002
:1051C000C530D10530F3CE0104978617970708F351
:1051D000C61BD70B2297C193D1936D937C93CF01BC
:1051E0000E949B20D6CF5B01AC1ABD0A4C018C0EED
:1051F0009D1EA091D503B091D603512C412CF12CCA
:10520000E12C109731F58091D3039091D403881548
:10521000990509F05CC04616570608F058C0809101
:10522000390190913A01009741F48DB79EB74091B2
:105230003D0150913E01841B950BE817F90708F0DA
:1052400055C0F093D403E093D303F90171836083D5
:10525000A0CF8D919C91119712966C9012971396F6
:105260007C901397A815B90559F56C0142E0C40E5E
:10527000D11CCA14DB0420F1AC014A195B09DA0124
:105280001296159780F06282738251834083D90110
:105290006D937C93E114F10471F0D7011396FC93A4
:1052A000EE93129776CF22968C0F9D1FF901918372
:1052B0008083F301EFCFF093D603E093D50369CF5A
:1052C0004816590608F42C017D01D3019ACFCB0171
:1052D0000E94FF1F7C01009749F0AE01B8010E94B7
:1052E0008629C8010E949B20870153CF10E000E06F
:1052F00050CFFB01DC0104C08D910190801921F495
:1053000041505040C8F7881B990B0895FB01DC0100
:1053100002C001900D9241505040D8F70895FB0112
:10532000DC0101900D920020E1F70895FB01DC0102
:105330004150504048F001900D920020C9F701C043
:105340001D9241505040E0F70895AEE0B0E0EBEA26
:10535000F9E20C949D2785E08C838B899C899A8344
:105360008983AE01495E5F4F6D897E89CE010196CA
:105370000E94492B2E96E2E00C94B92720FD09C02B
:10538000FC0123FD05C022FF02C0738362835183A9
:105390004083089544FD17C046FD1DC0DB01FC019C
:1053A000AA0FBB1FEE1FFF1F1094D1F76A0F7B1FC0
:1053B0008E1F9F1F660F771F881F991F620F711D19
:1053C000811D911D089533E0660F771F881F991F77
:1053D0003150D1F7F3CF34E0F7CF0F931F93CF9332
:1053E000DF938C01C8010E94592CEC0197FD08C085
:1053F0000E941926892BB1F7B801CE010E94952C85
:10540000CE01DF91CF911F910F9108958F929F92BE
:10541000AF92BF92EF92FF920F931F93CF93DF93C0
:105420008C01D62F7A01B22E0E94592C9C01332771
:105430002B32310529F02D323105A9F46894B7F8E3
:10544000D15061F480E0DF91CF911F910F91FF90D7
:10545000EF90BF90AF909F908F900895C8010E94E9
:10546000592C97FDEFCFCB2DCD7F2B2D2073F9F449
:105470008033E9F4AA24AA94AD0E89F0C8010E94F1
:10548000592C97FD0CC0282F2F7D283561F4C2645C
:10549000D25029F0C8010E94592C97FF08C0812CD6
:1054A000912C54011BC0B6FE2BC0C260DA2D812C9A
:1054B000912C540120ED280F283028F1C4FD09C09B
:1054C0002A3008F1C6FF05C02F7D3FEE320F36307F
:1054D000C8F0B8010E94952CC1FFB4CFC7FF08C027
:1054E000B094A09490948094811C911CA11CB11C38
:1054F0002C2FB501A401C7010E94BE2981E0A3CFD2
:10550000C261D4CF27504C2FC501B4010E94CA29D3
:105510004B015C01C260D15009F3C8010E94592CB3
:1055200097FFC8CFD9CFA0E2B0E0E9E9FAE20C9446
:1055300092275C01962E7A01CE0101966C0180E2E1
:10554000F60111928A95E9F7F501B381890130E0FE
:1055500020E0712C812CA0E041E050E0F801B3FD87
:105560008591B3FF8191982F8F01811107C010E0C1
:1055700000E0C801A096EDE00C94AE278E3519F43A
:105580002115310541F1A21713064CF48D3549F16F
:105590008D3229F4811006C0882483941DC0882090
:1055A00009F464C0E92FE695E695E695EC0DFD2D2E
:1055B000F11D892F8770BA0101C0660F8A95EAF73D
:1055C0008081682B6083791651F0971510F49F5FE6
:1055D000E9CF9150E7CFA1E02F5F3F4FBFCF812CA4
:1055E000FBCF882019F08E8180628E83AA2359F028
:1055F000F6019E012F5D3F4F80818095808331961B
:10560000E217F307C9F788248394C5010E94592C37
:1056100097FD16C0E82FE695E695E695EC0DFD2D75
:10562000F11D208130E0AC014770552702C035954F
:1056300027954A95E2F720FD06C0B5010E94952CFA
:10564000882069F094CFE114F10429F0F7018083F8
:10565000C70101967C019A94812C9110D6CFE11458
:10566000F10409F486CFF701108283CFE82FE69585
:10567000E695E695EC0DFD2DF11D982F9770BA017A
:1056800001C0660F9A95EAF79081692B6083782EA6
:10569000A3CFB0E0A0E0EFE4FBE20C9490276C0114
:1056A000EB015A01FC0117821682512CF601E380AE
:1056B000FE01E3FC8591E3FE8191182FEF01882321
:1056C000E9F090E00E941926892B21F0C6010E9482
:1056D000ED29ECCF153241F4FE01E3FC1591E3FE18
:1056E0001191EF01153269F4C6010E94592C97FD02
:1056F0008EC01817D9F2B6010E94952C852D90E026
:105700008AC000E01A3231F4E3FC1591E3FE1191F6
:10571000EF0101E0F12C20ED210F2A3048F101FFCB
:1057200037C0FF2059F31836B1F11C3609F43DC0DB
:10573000112321F3612F70E082E691E00E944E2C4C
:10574000892BE1F2912C812C00FD06C0F5018080AF
:105750009180C50102965C011E3679F5F6014681FD
:10576000578170E060E0202FC4010E94BE299ECFC7
:1057700002606F2D70E090E080E040E20E94CA2954
:10578000F62EFE01E3FC1591E3FE1191EF01C3CF6C
:10579000FF24FA94C8CFFE01E3FC1591E3FE1191BA
:1057A000EF01183609F0C4CF08600460FE01E3FC85
:1057B0001591E3FE1191EF01BBCF1336C1F401FD4A
:1057C00002C0FF24F394C6010E94592C97FD1FC00C
:1057D0008114910429F0F4018083C40101964C01E5
:1057E000FA94F110F0CF00FD61CF53945FCF1B35D9
:1057F000B9F49E01A4016F2DC6010E94932AEC0109
:10580000892B89F7F6018381807309F477CF8FEFB5
:105810009FEF511073CFCDB7DEB7EFE00C94AC27FC
:10582000C6010E94ED2997FDF2CF1F36A9F130F491
:10583000143641F0193639F0006405C01337B9F059
:105840001537D1F70062202FA4016F2DC6010E94E9
:10585000062A8111C8CFD6CF8114910429F0F40112
:105860006082C40101964C01FA94FF2071F0C601D8
:105870000E94592C3C0197FD08C00E941926892BD3
:1058800059F3B601C3010E94952C8114910409F4C7
:10589000AACFF4011082A7CF0061D5CFFC010590FB
:1058A000061621F00020D9F7C00108953197CF01E5
:1058B0000895CF93DF93EC012B8120FF1AC026FFC0
:1058C0000CC02F7B2B838E819F8101969F838E83BB
:1058D0008A8190E0DF91CF91089522FF18C0E8817E
:1058E000F9818081082E000C990B009729F4206221
:1058F0002B838FEF9FEFEECF3196F983E8832E81D4
:105900003F812F5F3F4F3F832E839927E3CFEA8567
:10591000FB85099597FFF3CF2B81019621F080E25B
:10592000822B8B83E6CF80E1FBCFFB01238120FF1D
:1059300011C026FD0FC08F3F980771F082832F7D25
:1059400020642383268137812150310937832683C0
:0E595000992708958FEF9FEF0895F894FFCFE9
:10595E00FFFFFF00FCE1A8A8C31B991B7E1B2B1B9E
:10596E00FF1AED1A2D1CF21BFFFFB11A891A312EE8
:10597E00390052656C6179204163747561746F7280
:10598E0000D71C4B1CBB05BB050000D70380001FB6
:10599E001C1F1E1F1E1F1F1E1F1E1F000000005259
:1059AE0006BC05E905BA061A06F8050C0600000045
:1059BE0000E406F6043A003C4E4F4E43453E004F7F
:1059CE004B004E41434B003F002100322E332E310F
:1059DE000052656C6179310052656C61793200520A
:1059EE00656C6179330052656C61793A4D6F64650F
:0A59FE000025643A2564000D0A003C
:1078000011E0A0E0B1E0E0EFFFE702C005900D92CB
:10781000A630B107D9F721E0A6E0B1E001C01D9282
:10782000AD34B207E1F7CDB7DEB72997DEBFCDBFE4
:10783000112484B78093270114BE88E180936000EF
:1078400089E280936000259A86E020E295B1922734
:1078500095B93FE748E391E0315040409040E1F76F
:1078600000C00000815091F78091270181FD16C072
:107870008EE284B981E58CBD81E08DBD412C512C17
:107880002224239433243394AA24AA94BA2C78E093
:10789000972ECC24C394E3E0DE2E40C182E0809397
:1078A000C00088E18093C10086E08093C20080E13F
:1078B0008093C400E12CF12CC12CD12CAA24AA94D1
:1078C000BA2C01E0A8952BD2813461F428D28987A3
