:100000000C94A8000C94C3160C949C160C94D0006D
:100010000C94D0000C94D0000C9442170C94D00097
:100020000C94D0000C94D0000C94D0000C94D00010
:100030000C94D0000C94D0000C94D0000C94D00000
:100040000C9452160C94D0000C9410170C94EA16D1
:100050000C94D0000C94D0000C94D0000C94D000E0
:100060000C94D0000C94D0006364696E6F7073754B
:1000700078585B00322E332E310A00207C5F5C2FD3
:10008000602C0A0702200220B287100340012000E2
:100090002402221002220202200222002220020256
:1000A000202227101341010101032220304020307B
:1000B0005203402214020310522402217101001045
:1000C000101210122210100224010103220300203A
:1000D000010100322037121001213226012840325E
:1000E000221210121222432224121001222470C163
:1000F00022240F0F0000000023002600290000002A
:100100000000240027002A0000000000250028002D
:100110002B00040404040404040402020202020288
:1001200003030303030301020408102040800102BB
:10013000040810200102040810200000000800023A
:100140000100000304070000000000000000611728
:1001500011241FBECFEFD8E0DEBFCDBF11E0A0E07D
:10016000B1E0EEE5F1E402C005900D92AA39B107C5
:10017000D9F724E0AAE9B1E001C01D92A334B20787
:10018000E1F710E0C8EAD0E004C02197FE010E9428
:10019000B61CC73AD107C9F70E94FF170C94AD20CF
:1001A0000C940000942FECE4F3E03091FD013183D6
:1001B0008283668325834481487F492B477E44831D
:1001C000CF010895833081F028F4813099F0823096
:1001D000A9F008958730A9F08830C9F08430B1F4CF
:1001E000809180008F7D03C0809180008F77809305
:1001F0008000089584B58F7784BD089584B58F7D80
:10020000FBCF8091B0008F778093B00008958091EC
:10021000B0008F7DF9CF1F93CF93DF93282F30E06D
:10022000F901E65CFE4F8491F901EA5DFE4FD4913D
:10023000F901EE5EFE4FC491CC23A9F0162F811177
:100240000E94E200EC2FF0E0EE0FFF1FE85FFE4F90
:10025000A591B4918FB7F894EC91111108C0D09585
:10026000DE23DC938FBFDF91CF911F910895DE2BAA
:10027000F8CFCF93DF9390E0FC01EA5DFE4F24912D
:100280008E5E9E4FFC0184918823C9F090E0880F18
:10029000991FFC01E250FF4FA591B491FC01E85F6A
:1002A000FE4FC591D49161110DC09FB7F8948C9108
:1002B000209582238C938881282328839FBFDF91F8
:1002C000CF910895623051F49FB7F8943C91822FFA
:1002D000809583238C93E8812E2BEFCF8FB7F894F2
:1002E000EC912E2B2C938FBFEACF862F642F0C948A
:1002F00039011F93CF93DF93182FEB0161E00E9428
:100300003901209739F460E0812FDF91CF911F915F
:100310000C940B01CF3FD10511F461E0F5CFE12F33
:10032000F0E0E65CFE4FE491E33031F140F4E1307F
:10033000B1F0E230E1F0C038D1057CF7E4CFE7302E
:1003400029F1E83059F1E430B1F780918000806202
:1003500080938000D0938B00C0938A0004C084B542
:10036000806884BDC7BDDF91CF911F91089584B58A
:10037000806284BDC8BDF7CF809180008068809383
:100380008000D0938900C0938800EDCF8091B000A9
:1003900080688093B000C093B300E5CF8091B00037
:1003A00080628093B000C093B400DDCF3FB7F89473
:1003B0008091E7019091E801A091E901B091EA01F3
:1003C00026B5A89B05C02F3F19F00196A11DB11DB0
:1003D0003FBFBA2FA92F982F8827BC01CD01620FEC
:1003E000711D811D911D43E0660F771F881F991FA6
:1003F0004A95D1F708958F929F92AF92BF92CF9274
:10040000DF92EF92FF926B017C010E94D6014B01BB
:100410005C01C114D104E104F104B9F00E94D601D9
:10042000681979098A099B09683E7340810591051D
:1004300080F321E0C21AD108E108F10888EE880EA5
:1004400083E0981EA11CB11CE4CFFF90EF90DF90D9
:10045000CF90BF90AF909F908F9008952FB7F89452
:100460006091E3017091E4018091E5019091E601D2
:100470002FBF08950895AF92BF92CF92DF92EF926F
:10048000FF920F931F93CF93DF936C017B018B013E
:10049000040F151FEB015E01AE18BF08C017D1078E
:1004A00059F06991D601ED91FC910190F081E02D18
:1004B000C6010995892B79F7C501DF91CF911F916D
:1004C0000F91FF90EF90DF90CF90BF90AF90089585
:1004D000FC01538D448D252F30E0842F90E0821B4A
:1004E000930B541710F0CF96089501970895FC01CF
:1004F000918D828D981761F0A28DAE0FBF2FB11D27
:100500005D968C91928D9F5F9F73928F90E008957E
:100510008FEF9FEF0895FC01918D828D981731F038
:10052000828DE80FF11D858D90E008958FEF9FEF8C
:100530000895FC01918D228D892F90E0805C9F4F62
:10054000821B91098F739927089581E092E00E94A0
:10055000990221E0892B09F420E0822F0895FC0103
:10056000A48DA80FB92FB11DA35ABF4F2C91848D14
:1005700090E001968F739927848FA689B7892C9371
:10058000A089B1898C91837080648C93938D848DC4
:10059000981306C00288F389E02D80818F7D8083C7
:1005A0000895EF92FF920F931F93CF93DF93EC0187
:1005B00081E0888F9B8D8C8D98131AC0E889F9890A
:1005C000808185FF15C09FB7F894EE89FF8960830D
:1005D000E889F98980818370806480839FBF81E08E
:1005E00090E0DF91CF911F910F91FF90EF900895D0
:1005F000F62E0B8D10E00F5F1F4F0F731127E02EAB
:100600008C8D8E110CC00FB607FCFACFE889F989E2
:10061000808185FFF5CFCE010E94AF02F1CFEB8D37
:10062000EC0FFD2FF11DE35AFF4FF0829FB7F894B6
:100630000B8FEA89FB8980818062CFCFCF93DF93D4
:10064000EC01888D8823B9F0AA89BB89E889F989EA
:100650008C9185FD03C0808186FD0DC00FB607FC1F
:10066000F7CF8C9185FFF2CF808185FFEDCFCE0152
:100670000E94AF02E9CFDF91CF91089580E090E032
:10068000892B29F00E94A50281110C940000089585
:10069000CF93DF93FC01218530E0F901E65CFE4F4A
:1006A0008491F901EA5DFE4FD491F901EE5EFE4FAF
:1006B000C491CC2379F081110E94E200EC2FF0E08C
:1006C000EE0FFF1FEC50FF4FA591B491EC91ED237D
:1006D00081E009F480E08170DF91CF9108951F934C
:1006E000CF93DF93EC01162F62E0812F0E94390136
:1006F00019871886CE010E944803882319F088853F
:10070000836088870E942E026A837B838C839D830B
:10071000DF91CF911F910895CF92DF92EF92FF92D8
:100720001F93CF93DF93EC0188858B7F8887CE0161
:100730000E944803182F8885869581701817B1F09C
:100740000E942E026A837B838C839D83888592E03E
:1007500089278887888582FB882780F9DF91CF9158
:100760001F91FF90EF90DF90CF9008950E942E028E
:10077000CA80DB80EC80FD80AB01BC014C195D09B7
:100780006E097F098E819F81B0E0A0E0481759076C
:100790006A077B07F8F2888581701817D9F20E94E2
:1007A0002E026A837B838C839D83888591E08927D1
:1007B000846088870E942E026A877B878C879D874A
:1007C000C9CF6093DE017093DF018093E0019093C5
:1007D000E101645D7E4F8F4F9F4F6093DA0170930C
:1007E000DB018093DC019093DD0182E090E0909347
:1007F000D9018093D8010E942E026093D401709396
:10080000D5018093D6019093D7010895CF92DF92BE
:10081000EF92FF920F931F930E942E028B019C0177
:10082000C090D401D090D501E090D601F090D701CE
:100830006091DE017091DF018091E0019091E10112
:100840000C191D092E093F09083E134021053105E9
:10085000E0F0DC01CB010196A11DB11D8093DE010A
:100860009093DF01A093E001B093E101B701A601ED
:1008700048515C4F6F4F7F4F4093D4015093D50147
:100880006093D6017093D701C7CF1F910F91FF904E
:10089000EF90DF90CF9008954F925F926F927F928A
:1008A0008F929F92AF92BF92CF92DF92EF92FF9280
:1008B0000F931F93CF93DF934B015C018091D00185
:1008C0009091D101A091D201B091D30188159905E1
:1008D000AA05BB0509F4C6C08CE3C82ED12CE12CB7
:1008E000F12CC501A70196010E94801C6093C901EB
:1008F000CA01B901A70196010E94801C6093CA0138
:10090000C501B40120E13EE040E050E00E94801CBF
:10091000CA01B90128E130E040E050E00E94801CAB
:100920006093CB01C501B40120E831E541E050E01E
:100930000E94801C69017A01CA01B9016C5F7F4F76
:100940008F4F9F4F27E030E040E050E00E94801C36
:100950006F5F6093CC01412C512C320140E004E6E2
:1009600010E0C0E9D1E0242F30E02E54384FF901D7
:10097000E370FF273097F9F4C901B8010E946C1C9D
:10098000892B31F4C901BE010E946C1C892B99F49A
:100990008EE691E0A0E0B0E0480E591E6A1E7B1E74
:1009A000D301C201AA27BB27C816D906EA06FB064F
:1009B00038F04F5FD8CF8DE691E0A0E0B0E0ECCF0B
:1009C0004093CF01C90164E670E00E946C1CEC0109
:1009D000C90160E971E00E946C1C309721F42097F6
:1009E000D9F40097C9F04DE651E060E070E0441A98
:1009F000550A660A770AC418D508E608F708AFE36F
:100A0000B1E020E0213069F43097E9F5209711F446
:100A10000097C9F54DE106C04EE651E060E070E098
:100A2000E6CF4C9150E070E060E031E0320FC41648
:100A3000D506E606F70640F0C41AD50AE60AF70A14
:100A40001196232F3C30F1F62F5F2093CE01C394F3
:100A5000C092CD018092D0019092D101A092D2019A
:100A6000B092D301DF91CF911F910F91FF90EF9042
:100A7000DF90CF90BF90AF909F908F907F906F90BE
:100A80005F904F9008954CE1CDCFCF93CFB7F894BE
:100A90008091C801811127C0ECE1F1E08491E0E38D
:100AA000F1E09491E82FF0E0EE0FFF1FE250FF4FCE
:100AB000A591B491EC91E92321F461E08AE00E94D0
:100AC0000B0161E08AE00E9439018CB580618CBD28
:100AD0008CB580648CBD61E08DE00E94390161E0DD
:100AE0008BE00E9439018091C8018F5F8093C8011B
:100AF000CFBFCF9108959FB7F8942091FC018091CA
:100B0000C701213019F48DBB9FBF08958FBF089591
:100B1000CF92DF92EF92FF920F931F93CF93DF93C9
:100B2000D0E0C0E0062F10E0E82EF12CC017D1076E
:100B30002CF5D12CC12CCE14DF04C4F461E088E084
:100B40000E940B0164E170E080E090E00E94FB01F4
:100B500060E088E00E940B0164E670E080E090E0D5
:100B60000E94FB018FEFC81AD80AE5CF64E670E057
:100B700080E090E00E94FB012196D8CFDF91CF91D9
:100B80001F910F91FF90EF90DF90CF9008950C94FC
:100B9000E103FC0184818F71806484838381877089
:100BA0008061838370876783CF010895FC0183810F
:100BB00087708860838384818F7180628483678378
:100BC000CF010895E091EB01F091EC01309721F015
:100BD0000280F381E02D099408950F931F930E94E2
:100BE0002E020091ED011091EE012091EF01309164
:100BF000F001601B710B820B930B1F910F910895F5
:100C00009C018091EB019091EC0182179307F1F028
:100C10009091F5019F719093F5013093EC01209331
:100C2000EB01E091EB01F091EC01309721F00190A4
:100C3000F081E02D09950E942E026093ED017093E2
:100C4000EE018093EF019093F00108958091F501FA
:100C5000805E8093F501E5CF0F931F930E94ED0511
:100C60002091F6012077203779F000E117E220E0AB
:100C700030E0061717072807390758F480E391E09A
:100C80001F910F910C94000600E61AEE20E030E070
:100C9000F0CF1F910F9108958091F6018F708B30E6
:100CA00020F084E191E00C94000608958091F50114
:100CB00084608093F5018091F60180788093F6013D
:100CC000E091C201F091C301309709F009940895B1
:100CD000CF93C091F701CF3FA1F00E942E02609305
:100CE000F1017093F2018093F3019093F4018091EC
:100CF000FF01C813C093FF0180E191E0CF910C94F4
:100D000000060E94ED05613D77408105910568F080
:100D10008091F501803618F48CE091E0EFCF877F69
:100D20008093F50184E191E0E9CFCF91089580911E
:100D3000FD018F3F21F08CE091E00C9400060E94B1
:100D4000ED05613D77408105910550F08091F501F9
:100D5000803618F488E091E0F0CF89E191E0EDCFA2
:100D600008950E94ED05613D77408105910520F4CD
:100D70008091F50181FF17C08091FE018F3F49F0FE
:100D80008091F5018E7F8093F50188E091E00C94CD
:100D900000068091F501803618F484E191E0F7CFE8
:100DA00089E191E0F4CF08958EBD00000DB407FEF7
:100DB000FDCF8EB508952091FC01222381F03FB72D
:100DC000F8942091FC01213069F42DB32093C701E0
:100DD0004DB320919D01209524232DBB3FBF8CBD99
:100DE0009DBD08953093C701FACFCF93DF938CB5A3
:100DF000C8E3D4E08B838DB58C838D819E810E9466
:100E0000DB0660E08881DF91CF910C940B0161E0FB
:100E1000809138040E940B018091FC0181110E9495
:100E20007B0580913B048CBD80913C048DBD089571
:100E3000CF930E94F50685E00E94D40680E00E94D0
:100E4000D406C82F0E9407078C2F8170CF91089578
:100E5000CF93DF93C82F662331F060E086E00E94D5
:100E600028070E9407070E94F50685E00E94D40625
:100E700080E00E94D406D82F0E940707D0FDF3CF50
:100E80000E94F5068C2FDF91CF910C94D4064F92DF
:100E90005F926F927F928F929F92AF92BF92CF920A
:100EA000DF92EF92FF920F931F93CF93DF932B016B
:100EB0003C014A01E9019B01332780E091E0821B5C
:100EC000930BF12CE12C8E018C179D0708F48C01FB
:100ED00061E082E00E942807862D0E94D406852DBD
:100EE0000E94D406842D0E94D4065401AE0CBF1C6F
:100EF0006501F60181916F010E94D406C6018A192D
:100F00009B0980179107A8F30E940707400E511E06
:100F1000611C711CE00EF11EC01BD10B80E091E042
:100F200091F6DF91CF911F910F91FF90EF90DF909D
:100F3000CF90BF90AF909F908F907F906F905F9079
:100F40004F9008950F931F93CF93DF93EC01888107
:100F50009981009759F02A813B812617370730F095
:100F600081E0DF91CF911F910F9108958B016F5F09
:100F70007F4F0E94BC1C009759F0998388831B8384
:100F80000A832C813D81232B59F7FC011082E8CF85
:100F900080E0E7CFCF93DF93EC01888199810097C0
:100FA00011F00E94AD19198218821D821C821B82C9
:100FB0001A82DF91CF9108950F931F93CF93DF9300
:100FC000EC010C811D810F5F1F4FB8010E94A20729
:100FD000882391F0288139818C819D8165E671E0BB
:100FE000820F931F0E948F1D1D830C83CE01DF9102
:100FF000CF911F910F910895CE010E94CA07F6CF9D
:10100000CF92DF92EF92FF920F931F93CF93DF93D4
:10101000CDB7DEB762970FB6F894DEBF0FBECDBF77
:101020008C01CB01F8011182108213821282158289
:1010300014824AE09E012F5F3F4F6901B9010E946F
:101040007B1AF60101900020E9F731977F01EC1837
:10105000FD08B701C8010E94A207811112C0C80192
:101060000E94CA0762960FB6F894DEBF0FBECDBFCE
:10107000DF91CF911F910F91FF90EF90DF90CF9074
:101080000895F801F582E482B601808191810E9481
:101090008F1DE8CFEF92FF920F931F93CF93DF93B3
:1010A000EC01FB01E080F180E114F10411F1048115
:1010B000158101151105A9F08C819D81080F191F5B
:1010C000B801CE010E94A207882399F028813981B6
:1010D0008C819D81B701820F931F0E948F1D1D83FC
:1010E0000C83CE01DF91CF911F910F91FF90EF9074
:1010F0000895CE010E94CA07F4CFFC01808191813E
:101100000C94AD19EF92FF920F931F93CF93DF933F
:10111000EC01198218821B821A821D821C8286179A
:10112000970719F1FB010081118101151105E9F003
:10113000E480F580B7010E94A207811109C0CE01A9
:10114000DF91CF911F910F91FF90EF900C94CA0700
:10115000FD82EC82B80188819981DF91CF911F9146
:101160000F91FF90EF900C948F1DDF91CF911F9105
:101170000F91FF90EF900895BF92CF92DF92EF9280
:10118000FF920F931F93CF93DF93C82F7B01042F00
:10119000B22E80E590E00E94DB062A9880E190E084
:1011A0000197F1F78C2F0E94D406182FE701015008
:1011B000B0F0BB2051F08FEF0E94D406182FE1143D
:1011C000F104A9F388832196F2CF6E018FEFC81A3C
:1011D000D80A88810E94D406182FE601E8CF2A9AFF
:1011E0008091FC0181110E947B0580E190E00197D4
:1011F000F1F7812FDF91CF911F910F91FF90EF9029
:10120000DF90CF90BF900895CF93DF931F92CDB71B
:10121000DEB7698320E041E0BE016F5F7F4F0E942F
:10122000BC080F90DF91CF9108958091F601982F1F
:101230009077903759F0982F92959F709F5F977095
:101240009295907F8F78892B8093F6018091F5019C
:101250008B7F8F7E8093F50129986CE380E20C945C
:1012600004096FE380E20E940409609134016F3F3A
:1012700019F08AE20E940409299A089521E041E0C8
:1012800070E060E00C94BC0880919B0190919C01FF
:10129000892B59F087E10E943E0980FD0AC0E09148
:1012A0009B01F0919C010995F5CF60E487E20C94D5
:1012B0000409089520E040E070E060E00C94BC0870
:1012C0000F931F93CF938C0121E041E070E060E029
:1012D00080E60E94BC08C82F813220F082EE0E9476
:1012E0005A09C0E021E04C2FB80181E60E94BC08F9
:1012F00060E487E20E9404098C2FCF911F910F9127
:101300000895CF93DF932FB7F8949091370480918D
:1013100033042FBF981709F454C08FB7F8943FB720
:10132000F89420913704909133043FBF291317C0DC
:101330008FBFD0E0C0E0CE0101960E946009888393
:101340002FB7F8943FB7F894909137048091330405
:101350003FBF981311C02FBFDF91CF910895909197
:101360003604C0913404D091350421E2929FC00D1F
:10137000D11D11248FBFDFCF80913604A09134049A
:10138000B091350491E2899FA00DB11D1124AC17D5
:10139000BD0731F081E2FE0101900D928A95E1F7DF
:1013A0008091360490E001966091330470E00E94D1
:1013B0006C1C80933604809137048F5F80933704D0
:1013C000CACF90E080E00E94600980919A018F3F2F
:1013D00019F280919A018F5F80939A01BDCFCF93CC
:1013E000C82F8093FD018F3F51F08093340163E05B
:1013F00082E20E94040961E081E20E9404090E94E5
:1014000031096C2F90E080E00E947B1B81E0CF913E
:101410000895CF938FB7F89421E839E030939C0179
:1014200020939B018FBF5298219A229A29982A9A39
:101430000E9445059FB7F89480919D01816080933B
:101440009D018091FC01811103C081E08093FC012A
:101450009FBF84E499E09093360180933501809199
:1014600069008C7F826080936900E89A29986EE316
:1014700080E20E94040984E293E20197F1F763E0BD
:1014800083E20E9404096FE584E20E9404096CE48F
:1014900085E20E94040967E286E20E94040964E092
:1014A0008DE30E9404098DE10E943E09843041F0E1
:1014B00063E780E50E94040964E08DE30E9404096B
:1014C00086E00E943E09873209F04DC085E00E9407
:1014D0003E098C3409F047C062E082E20E940409B0
:1014E00060E081E20E94040963E08CE30E94040949
:1014F000CFEFC093030120E045E063E071E08BE2B1
:101500000E94BC0820E045E063E071E08AE20E94AE
:10151000BC0820E045E063E071E080E30E94BC0885
:1015200082EE0E945A0981EE0E945A0960E787E222
:101530000E9404098091F50180618093F5018091FA
:1015400000028E7F809300028091FD018F3F19F48D
:1015500084E191E00AC09FEF980F9E3F48F40E94FB
:10156000EF098111F5CF89E191E0CF910C9400064C
:10157000C093FD01F8CFE5EFF1E08081877F8F7E9A
:1015800080831092F1011092F2011092F3011092F7
:10159000F4010E942E026093A5017093A60180932E
:1015A000A7019093A80144E050E070E060E08DEF67
:1015B00091E00C94531B1F93CF93DF9361E08EE077
:1015C0000E94390161E08FE00E94390161E080E111
:1015D0000E94390161E083E00E94390161E085E009
:1015E0000E94390161E086E00E94390161E088E0F3
:1015F0000E94390161E170E08EE393E00E946F0385
:10160000C5E0D0E0D0934503C093440362E170E0AD
:1016100080E393E00E946F03D0933703C0933603B7
:1016200063E170E082E293E00E946F03D0932903AC
:10163000C09328038EE991E00E94631BC82FD0E07D
:10164000D093AA01C093A9018FE991E00E94631B86
:1016500090E09093B9018093B801249714F4029715
:1016600054F081E090E09093AA018093A901109238
:10167000B9011092B80182EA91E00E94631B11E067
:10168000811101C010E01093C60183EA91E00E942D
:10169000631BD1E0811101C0D0E0D093C50184EA81
:1016A00091E00E94631BC1E0811101C0C0E0C093C2
:1016B000C401612F8EE00E940B016D2F8FE00E940C
:1016C0000B016C2F80E1DF91CF911F910C940B01E6
:1016D000EF92FF920F931F93CF93DF937C01FC0156
:1016E000C2818091F50180FF72C080E0CF3F09F098
:1016F00067C0DFEF8091FD01F70180834381C0E285
:1017000042FD05C0469546954695C7E0C40F109129
:101710000002012F0170299880E091E00197F1F714
:101720006EE380E20E94040984EC90E00197F1F7F7
:101730006D2F8AE20E9404096D2F80E30E94040944
:1017400081EE0E945A09DF3F11F080EA011180EB1F
:101750004C2FC13208F040E220E0B7010E94BC08E3
:10176000299AF12CE12C8FEF0E945A09C82F80731F
:1017700021F4F1E0EF1AF108B1F7299860E387E26C
:101780000E940409C4FF03C081EE0E945A090E940E
:101790003109C5FD11E081E0DF3F09F080E0117003
:1017A000812B9091FE019D130BC09091F601811148
:1017B00025C021E0290F2F70907F922B9093F60186
:1017C000DF91CF911F910F91FF90EF900895D091ED
:1017D000FE01CC2309F48ECFCF3F09F48ACF8C2FA2
:1017E00090E003960E94631B8F3F31F4F7018081E4
:1017F0008D1380CFDC2F7ECFD82F7CCF907FDECF94
:101800002091F50122FD0C94680B80E00895FC0105
:101810008091FD0181839481907F91609483809178
:10182000FB0180FF03C0CF010C94000C80E0089501
:101830008FEF8093F701E5EFF1E08081886080838E
:1018400028E143E06FEF80E00E94D20061E00E9457
:10185000D6050C94680B0F931F93CF93DF93EC0185
:10186000E0E06115710551F0FB0101900020E9F7FE
:101870003197E61BF70BE931F10500F50E2F10E06B
:101880008B818770980193E0220F331F9A95E1F7BF
:10189000822B8B838C818F718C83EE2329F0A8019E
:1018A000CE0107960E94961DFE01E00FF11F1782E0
:1018B000CE01DF91CF911F910F910895E9E1DECF25
:1018C0001F93CF93DF93182F262FEA0140E0682F54
:1018D00080E00E94D2001F3F11F4C7E6D1E0BE01B4
:1018E0000E942B0CDF91CF911F910C94000C21E0F2
:1018F00043E06FEF80E00E94D20068E971E00E944F
:101900002B0C0C94000C8091FD018F3FB1F40E94D0
:101910002E026F3F79F06093180123E043E060915D
:10192000180180E00E94D20068E971E00E942B0C4F
:101930000C94680B10921801F0CF0895E5EFF1E0D8
:101940008081897F81608083EDEFF1E08FEF82837A
:10195000818327E043E06FEF0E94D20068E971E0E5
:101960000E942B0C0C94680BFC0124812295269577
:101970002770213011F487810895211104C0079642
:101980000E94361A089580E00895EF92FF920F9317
:101990001F93CF93DF93CDB7DEB768970FB6F89458
:1019A000DEBF0FBECDBF8C01FC018581823089F482
:1019B000F680F7E0FF1669F0C8010E94B40C61E000
:1019C00070E0811102C070E060E08F2D90E00E9415
:1019D0009513F80185818331B9F486818035A1F0B2
:1019E000948194FD11C0823509F4A4C0833509F4B3
:1019F000A9C0813549F46091C60181E0682770E093
:101A000081E590E00E949513F8018581883109F005
:101A100084C08681873109F080C0095F1F4FF801BB
:101A200001900020E9F7CF01801B910B0E94111952
:101A3000F82EE92EB8010E948F1D88EB91E09F934C
:101A40008F9389EA91E09F938F938DE691E09F9326
:101A50008F93EF92FF920E94A51D6091A901709152
:101A6000AA010FB6F894DEBF0FBECDBF643071057A
:101A700084F48091B8019091B901029754F48EE9F1
:101A800091E00E947B1B6091B8018FE991E00E9478
:101A90007B1B6091B8017091B901CE010D960E9437
:101AA00000086091A9017091AA01CE0101960E94DF
:101AB0000008BE016F5F7F4FCE0107960E9482082B
:101AC000CE0107960E94DC07BE01635F7F4F0E9434
:101AD0004A08BC01CE0143960E948208CE010796B7
:101AE0000E947D08CE0101960E947D08CE010D96D0
:101AF0000E947D080B891C896AE070E080E090E01C
:101B00000E946D13B8018EE992E00E942B0C0E9496
:101B1000070CCE0143960E947D0868960FB6F89494
:101B2000DEBF0FBECDBFDF91CF911F910F91FF9010
:101B3000EF9008956091C50181E0682770E082E52B
:101B400090E060CF6091C40181E0682770E083E598
:101B500090E058CF2F923F924F925F926F927F9278
:101B60008F929F92AF92BF92CF92DF92EF92FF92AD
:101B70000F931F93CF93DF93CDB7DEB72A970FB69E
:101B8000F894DEBF0FBECDBF8091F50184FB3324F6
:101B900030F884FF03C40E942E020091A501109129
:101BA000A6012091A7013091A801601B710B820B47
:101BB000930B613A7B4B8D40910598F00E942E0269
:101BC0006093A5017093A6018093A7019093A8014B
:101BD00086E00E943E09873261F189E191E00E942E
:101BE0000006B6E0FB2E11E2C12E06E0E02E80E5F5
:101BF000D82E88248A949924939493E0A92E92E075
:101C0000B92E9FB7F894809137049FBF882309F4B9
:101C1000A0C3FA94FF2009F49CC32FB7F8949FB790
:101C2000F894809137049FBF811109C02FBF10E045
:101C300032C085E00E943E098C3479F6D2CF809183
:101C40003604909137046091330470E0891B990B3E
:101C5000860F971F0E946C1C6091340470913504AC
:101C60008C9D600D711D11242FBF61157105F9F256
:101C7000FB011191BF01412F50E08DE693E00E94DE
:101C8000861D9FB7F8942FB7F894809137042FBF23
:101C900081118DC09FBF80917003582E5694569429
:101CA0005694F9E1F51510F4A9E15A2E97E0950D37
:101CB00082FD90E29113A5CF8370823009F0A1CF0D
:101CC000709071031091720300916E0340906D0348
:101CD00060906F038091FE01481651F08091FD01E4
:101CE000081731F0802F90E0642D03960E947B1B33
:101CF000272D2770722E8091F60180688093F6015F
:101D00008091FD016812A5C280917003282F26954D
:101D1000269526952A3108F029E148E0249F900174
:101D200011248770822B80937003E52DF0E0E35936
:101D3000FC4F17828091710383FF15C091E2EDE69D
:101D4000F3E0ACE4B3E001900D929A95E1F7877F60
:101D500080618093500360924D0300934E038CE4A6
:101D600093E00E94000C9091710394FD23C183E0E5
:101D7000781228C18091720321EF280F233008F4D4
:101D800040CF1430F1F480917303909118018917BA
:101D900019F08F3F09F035CF8DE693E00E94B40C27
:101DA0009FEF980F9E3F48F40E94EF092ACF809141
:101DB00037048150809337046DCF8FEF8093FD01FE
:101DC00020CF1830D9F41091F50110FF1ACF8DE60D
:101DD00093E00E94B40C8F3F09F413CF8F5F8F3FC5
:101DE00009F40FCF9091FF01891708F00ACF11FD78
:101DF00008CF8093FF010093FE0103CF183151F407
:101E000029E143E06FEF802F0E94D20061E00E9441
:101E1000D6051FC0193171F48091F50183FFF1CE11
:101E2000877F8093F5018DE693E00E94B40C809348
:101E3000F701E7CE1E3109F4E4CE1D3169F42FE13C
:101E400043E06FEF80E00E94D20060E07FEF0E94ED
:101E5000C9050E94680BD5CE20916E032111AFC039
:101E60008D3059F488E198E00FB6F894A8958093E6
:101E700060000FBE90936000FFCF8B3179F48DE648
:101E800093E00E94B40C91E0811101C090E0809138
:101E9000FB0190FB80F98093FB01B3CE8630A1F467
:101EA00090917403832D992321F081E09D3409F0F2
:101EB00080E08093FA0141E050E063E071E08AEF56
:101EC00091E00E946B1B9DCE833119F40E94D515C1
:101ED00098CE8231D9F40E94ED052B013C0126E118
:101EE00043E06FEF80E00E94D200FC0184818F719B
:101EF000806A84838381877080628383478250866F
:101F000061867286CF010E94000C7BCE8230A1F4E4
:101F100022E043E06FEF80E00E94D200FC01848168
:101F20008F71806A848383818770806283838782D4
:101F30009086A186B286E6CF8130D9F492959695A7
:101F40009770953059F46091740370917503809186
:101F50007603909177030E94E10353CE911105C05F
:101F600084E793E00E94541AF6CF60E070E0CB0162
:101F7000F2CF8A30E1F480917403833409F041CECA
:101F800003E010E06FEFC8010E947B1B0F5F1F4F43
:101F9000033091E01907B1F72AE043E06FEF80E0EA
:101FA0000E94D20063E771E00E942B0CACCF8C3111
:101FB00009F427CE8DE693E00E94C50C22CE8A312B
:101FC000C9F71FCEE4E07E12F5CF109172031130F5
:101FD00009F085C08091AB01811113CE48E050E03B
:101FE00064E773E08AEB91E00E94791D892B11F37D
:101FF00088E0E4E7F3E0AAEBB1E001900D928A9566
:10200000E1F78CB580933B048DB580933C0461E08F
:10201000809138040E9439010E944505D0923D0408
:1020200010933E040E94070760E08BEA0E94280795
:102030000E9407078091390490913A04892B91F509
:1020400061E081E00E94280780E00E94D4060E949F
:10205000070761E082E50E94280780E00E94D4061D
:1020600080E00E94D40680E00E94D4060E94070708
:102070000E9418078111FCCF8091BE019091BF0191
:102080009093A4018093A30181E08093AB01E0923F
:10209000A20110929E0110929F011092A001109235
:1020A000A101AFCD0E94F5068FE90E94D40680E021
:1020B0000E94D406082F10E0102F002780E00E9415
:1020C000D406082B0E9407078091390490913A04A6
:1020D0008017910709F4B4CF1092AB0192CD133061
:1020E00009F068CF8091AB01882309F48ACD009173
:1020F0007803109179036091A3017091A401CB0141
:1021000001970817190709F07CCDE4E0660F771FE7
:10211000EA95E1F76650710990E080E020E130E057
:102120004AE753E00E9447070E9418078111FCCF3D
:102130001093A4010093A301012B09F0A8CF1092E2
:10214000AB016AE0462E512C612C712C0FEF1FEF72
:102150008091BE019091BF0154E0880F991F5A955C
:10216000E1F7B0E0A0E0B301A2014A5051096109D2
:102170007109481759076A077B0740F560E083E05B
:102180000E942807862D0E94D406852D0E94D40621
:10219000842D0E94D40680E00E94D406282E0E943E
:1021A0000707022588E098012170332716950795C7
:1021B000232B21F0F1E00F27F0EA1F27815099F738
:1021C0002FEF421A520A620A720AC2CF8091C001EE
:1021D0009091C1010817190709F059CF48E050E064
:1021E0006BE171E08AEB91E00E946B1B8091BE0174
:1021F0009091BF0124E0880F991F2A95E1F726E40A
:1022000029832CE42A8328E52B8329E42C832DE4DD
:102210002D8327E42E832AE32F832A8798878987B3
:102220002AE030E0AE014F5F5F4F60E070E0CB012D
:102230000E9447070E9418078111FCCF88E198E0AF
:102240000FB6F894A895809360000FBE909360003D
:10225000FFCF4FEF641264C083E0281346C0809123
:10226000F50182FF26C0173021F58091FE01081785
:1022700009F4C7CC0E945012882309F4C2CC0E94F2
:102280002E026093F1017093F2018093F301909319
:10229000F4010E942E027370882799270E94FB0187
:1022A00028E043E06FEF802F0E94D2006091FF0191
:1022B000AECD183009F4A5CC1431B9F48091FE01EB
:1022C000481213C00E942E027370882799270E941B
:1022D000FB0125E143E06FEF802F0E94D200609167
:1022E000FE010E94D6050E94680B8091FE014812F3
:1022F00088CC8091FD01081709F49BC08091F501FD
:1023000082FF97C08DE693E00E94680B93E07916F8
:1023100009F477CC8091FE01481609F44BCE71CCBC
:102320008091F50182FF6DCCE3E02E130FC01851B0
:10233000123060F48DE693E00E94B40C8E3F31F0D1
:1023400061E0680F8DE693E00E94D6058DE693E08C
:1023500080CD8091F50182FF21C00E942E02209144
:10236000AB012223D9F000919E0110919F01209191
:10237000A0013091A1016B017C01C01AD10AE20ACF
:10238000F30A97018601053F11402105310530F020
:102390002091A20121111BC01092AB012A960FB609
:1023A000F894DEBF0FBECDBFDF91CF911F910F918B
:1023B000FF90EF90DF90CF90BF90AF909F908F9065
:1023C0007F906F905F904F903F902F900895215095
:1023D0002093A20160939E0170939F018093A001BE
:1023E0009093A101C090BA01D090BB01E090BC01D4
:1023F000F090BD010091A3011091A40101501109B9
:1024000022E044E06FEF80E00E94D200FC01838173
:1024100087708063838384818F71806C8483D0868E
:10242000C782F286E18614870387CF010E94000CE1
:10243000B5CF83E07812BECDE4CBCF92DF92EF929E
:10244000FF92CF93DF93D82F0E942E026B017C0165
:1024500010927203C0E00E942E026C197D098E0951
:102460009F09603D77408105910590F4C11110C02E
:10247000A8950E94E2050E94AA0D809171038770C1
:10248000833049F7C1E0809172038D13E3CFE3CF2E
:102490008C2FDF91CF91FF90EF90DF90CF90089538
:1024A000CF92DF92EF92FF92CF930E942E02C090C4
:1024B000F101D090F201E090F301F090F4016C1979
:1024C0007D098E099F09603177428105910510F4DD
:1024D00081E008C08091F50183FBCC27C0F983FF20
:1024E00007C080E0CF91FF90EF90DF90CF900895EC
:1024F0009091FD0191111CC01092F7018091F5019E
:10250000877F8093F501C091F701CF3F51F30E947F
:102510002E026093F1017093F2018093F301909386
:10252000F4018091FF018C1799F2C093FF01D0CF85
:1025300088608093F5018FEF8093F70128E143E0F5
:102540006FEF80E00E94D20061E00E94D6050E94F9
:10255000680B0E942E026B017C01109272030E9494
:102560002E026C197D098E099F09603D7740810517
:10257000910520F6C111C2CF0E94AA0DA8958091A5
:1025800071038770833059F7C1E0809172038931FC
:1025900031F3C0E0E4CFCF93DF93CDB7DEB76897D8
:1025A0000FB6F894DEBF0FBECDBF0E94501281114E
:1025B00004C062E084E00E9488058091F50182FFFA
:1025C00004C061E082E00E9488056091B8017091CA
:1025D000B901CE010D960E9400086091A901709189
:1025E000AA01CE0101960E940008BE016F5F7F4FD5
:1025F000CE0107960E948208CE0107960E94DC0752
:10260000BE01635F7F4F0E944A08BC01CE01439622
:102610000E948208CE0107960E947D08CE01019695
:102620000E947D08CE010D960E947D086B897C89F1
:102630008EE992E00E942B0C0E94070C82EA91E046
:102640000E94631B61E070E0811102C070E060E0F5
:1026500081E093E00E94C9050E94070C8091A901C6
:102660009091AA01029784F083EA91E00E94631B93
:1026700061E070E0811102C070E060E080EE92E005
:102680000E94C9050E94070C8091A9019091AA019E
:10269000039784F084EA91E00E94631B61E070E09C
:1026A000811102C070E060E08FEB92E00E94C905EA
:1026B0000E94070C0E94770C61E088E00E940B01E9
:1026C000CE0143960E947D0868960FB6F894DEBF4F
:1026D0000FBECDBFDF91CF9108958F929F92AF92A1
:1026E000BF92CF92DF92EF92FF924B015C010E946A
:1026F0002E026B017C010E942E026C197D098E094D
:102700009F09681579058A059B0530F4A8950E94F4
:10271000E2050E94AA0DEFCFFF90EF90DF90CF90DF
:10272000BF90AF909F908F900895CF93DF93EB0170
:102730008235910511F183359105B9F18135910506
:1027400009F04BC08EE00E940B016AE070E080E06F
:1027500090E00E946D13BE0181E093E00E94C905E4
:102760000E94070C8C2F81708093C6016C2F82EA27
:1027700091E0DF91CF910C947B1B8FE00E940B01C5
:102780006AE070E080E090E00E946D13BE0180EE90
:1027900092E00E94C9050E94070C8C2F81708093E3
:1027A000C5016C2F83EA91E0E4CF80E10E940B0128
:1027B0006AE070E080E090E00E946D13BE018FEB54
:1027C00092E00E94C9050E94070C8C2F81708093B3
:1027D000C4016C2F84EA91E0CCCFDF91CF910895B2
:1027E000CF92DF92EF92FF920F931F93CF93DF93DD
:1027F0008EE393E00E948C03F82E80E393E00E9426
:102800008C03182F82E293E00E948C03C82FE09083
:10281000460300913803D0912A038091B80190912A
:10282000B901892B09F5FF2049F06091C60181E0CB
:10283000682770E081E590E00E949513112349F02C
:102840006091C50181E0682770E082E590E00E9418
:102850009513CC2349F06091C40181E0682770E0B2
:1028600083E590E00E9495138091B8019091B901A1
:10287000019739F5FF2059F0E0FC09C06091C601CD
:1028800081E0682770E081E590E00E9495131123B4
:1028900059F000FD09C06091C50181E0682770E032
:1028A00082E590E00E949513CC2359F0D0FD09C039
:1028B0006091C40181E0682770E083E590E00E94A8
:1028C00095130E9406040E944C048091CB0188233A
:1028D00011F0C0E011C00E9406040E944C048091D7
:1028E000CA018111F6CF0E9406040E944C04C1E087
:1028F0008091C9018111EDCF0E9406040E944C0411
:102900008091CB018C3011F080E011C00E94060450
:102910000E944C048091CA018111F6CF0E940604E6
:102920000E944C0481E09091C9019111EDCFC11139
:1029300002C0882341F064EF71E080E090E00E94E3
:102940006D130E94770CC090B401D090B501E09057
:10295000B601F090B7018091C601882309F498C0B0
:1029600020E030E0A901C701B6010E94671C1816DB
:10297000DCF420E030E040E85FE3C701B6010E94EC
:10298000C41B6093B4017093B5018093B60190931A
:10299000B7010E94311C83E00E94790165E070E07C
:1029A00080E090E00E94FB01C090B001D090B101A6
:1029B000E090B201F090B3018091C501882309F441
:1029C0007AC020E030E0A901C701B6010E94671C6F
:1029D0001816DCF420E030E040E85FE3C701B60100
:1029E0000E94C41B6093B0017093B1018093B20147
:1029F0009093B3010E94311C85E00E94790165E04B
:102A000070E080E090E00E94FB01C090AC01D090AB
:102A1000AD01E090AE01F090AF018091C401882338
:102A200009F45CC020E030E0A901C701B6010E94B2
:102A3000671C18160CF05CC020E030E040E85FE353
:102A4000C701B6010E94C41B6093AC017093AD0135
:102A50008093AE019093AF010E94311C86E00E94EA
:102A6000790165E070E080E090E0DF91CF911F9107
:102A70000F91FF90EF90DF90CF900C94FB0120E03E
:102A800030E040E85FE3C701B6010E94C51BDCCF20
:102A900020E030E046E153E4C701B6010E94D61AB7
:102AA00087FF82CF20E030E040E85FE3C701B60156
:102AB0000E94C51B66CF20E030E046E153E4C70129
:102AC000B6010E94D61A87FFA0CF20E030E040E890
:102AD0005FE3C701B6010E94C51B84CF20E030E050
:102AE00046E153E4C701B6010E94D61A87FDC7CF5D
:102AF000DF91CF911F910F91FF90EF90DF90CF90DA
:102B000008952BE043E06FEF80E00E94D20061E285
:102B100071E00E942B0C0E94000C2CE043E06FEF50
:102B200080E00E94D2006DE171E00E942B0C0E94B7
:102B3000000C62E370E080E090E00E946D1346E7D5
:102B400051E063E081E50E94600C62E370E080E0A8
:102B500090E00E946D138091A9019091AA010297C3
:102B600064F04DE751E063E082E50E94600C62E3AF
:102B700070E080E090E00E946D138091A901909137
:102B8000AA01039734F044E851E063E083E50E9432
:102B9000600C62E370E080E090E00E946D134BE80F
:102BA00051E068E187E10C94600CCF93DF93CCE4B3
:102BB000D3E08B81877080658B838C818871846C76
:102BC0008C8388E0EAEBF1E0A3E5B3E001900D929D
:102BD0008A95E1F783E090E0988B8F871092AB01A4
:102BE00020E044E06FEF80E00E94D2000E94000CE1
:102BF0002FE043E06FEF80E00E94D20068E971E0CF
:102C00000E942B0C8B81877080618B838C818F71EC
:102C1000806C8C8381E08F831886CE010E94000C2B
:102C20008FE00E941D1248E951E062E18FEF0E949F
:102C3000600C26E043E06FEF80E00E94D2006091DC
:102C4000FE010E94D6050E94000C86E00E941D1223
:102C5000DF91CF910C948115CF938091FB0181FD81
:102C60001FC00E94D5158091FB0181608093FB01FC
:102C7000C4E02AE143E06FEF80E00E94D20062E00E
:102C80000E94D6050E94000C8BE10E941D1281114A
:102C900002C0C15071F78091FB0182608093FB01FB
:102CA000CF9108951F920F920FB60F9211242F9378
:102CB0003F938F939F93AF93BF938091E301909144
:102CC000E401A091E501B091E6013091E20126E036
:102CD000230F2D3758F50296A11DB11D2093E20157
:102CE0008093E3019093E401A093E501B093E601A2
:102CF0008091E7019091E801A091E901B091EA018A
:102D00000196A11DB11D8093E7019093E801A09366
:102D1000E901B093EA01BF91AF919F918F913F91EB
:102D20002F910F900FBE0F901F90189529E8230F39
:102D30000396A11DB11DD2CF1F920F920FB60F9215
:102D400011242F933F934F935F936F937F938F93B0
:102D50009F93AF93BF93EF93FF93E0913701F0916F
:102D600038010995FF91EF91BF91AF919F918F919C
:102D70007F916F915F914F913F912F910F900FBE77
:102D80000F901F9018951F920F920FB60F9211245B
:102D90002F933F934F935F936F937F938F939F9363
:102DA000AF93BF93EF93FF93E0913501F09136011C
:102DB0000995FF91EF91BF91AF919F918F917F9175
:102DC0006F915F914F913F912F910F900FBE0F9098
:102DD0001F9018951F920F920FB60F9211242F93E8
:102DE0003F934F935F936F937F938F939F93AF9393
:102DF000BF93EF93FF9381E092E00E94AF02FF91B7
:102E0000EF91BF91AF919F918F917F916F915F9162
:102E10004F913F912F910F900FBE0F901F901895DB
:102E20001F920F920FB60F9211242F938F939F939F
:102E3000EF93FF93E0911102F09112028081E091F3
:102E40001702F091180282FD1BC0908180911A0236
:102E50008F5F8F7320911B02821741F0E0911A025D
:102E6000F0E0EF5FFD4F958F80931A02FF91EF9195
:102E70009F918F912F910F900FBE0F901F901895DB
:102E80008081F4CF1F920F920FB60F9211240F90F2
:102E90000FBE0F901F901895CF93DF93FC01108207
:102EA00011821282148215821682DC0117968AE141
:102EB000ED0119928A95E9F782E08383DF91CF9142
:102EC0000895CF93E1E0F2E01382128288EE93E05E
:102ED000A0E0B0E084839583A683B7838FE491E07C
:102EE0009183808385EC90E09587848784EC90E0E3
:102EF0009787868780EC90E0918B808B81EC90E0C7
:102F0000938B828B82EC90E0958B848B86EC90E0A7
:102F1000978B868B118E128E138E148EE8E3F4E05D
:102F200080E5858381E0868388E0808385E69FE174
:102F300092838183E3E3F4E085E080838EE893E08D
:102F4000928381838FB7F894138214828FBF8DE6AA
:102F500093E00E944C178CE493E00E944C17EEE340
:102F6000F3E021E631E03183208312821382148260
:102F700015828AE090E09783868310861186E0E3CD
:102F8000F3E03183208312821382148215829783A7
:102F9000868310861186E2E2F3E031832083128279
:102FA000138214821582978386831086118681E0AE
:102FB00093E00E944C17E1E0F3E081E58683C2E0F4
:102FC000C58380EE92E00E944C17E0EEF2E082E5CD
:102FD0008683C5838FEB92E00E944C17EFEBF2E003
:102FE00083E58683C5838EE992E00E944C17EEE963
:102FF000F2E087E1868388E18583CF910895789414
:1030000084B5826084BD84B5816084BD85B58260ED
:1030100085BD85B5816085BD80916E00816080939E
:103020006E00109281008091810082608093810007
:103030008091810081608093810080918000816017
:10304000809380008091B10084608093B100809172
:10305000B00081608093B00080917A00846080939A
:103060007A0080917A00826080937A0080917A0061
:103070008E7F80937A0080917A00806880937A00B6
:103080001092C100A89580E090E0892B11F00E9479
:103090000000E0911102F091120282E08083E09141
:1030A0000D02F0910E021082E0910F02F0911002D9
:1030B00087E6808310921902E0911502F0911602C2
:1030C00086E08083E0911302F09114028081806198
:1030D0008083E0911302F0911402808188608083E4
:1030E000E0911302F0911402808180688083E09166
:1030F0001302F091140280818F7D8083C0E1D0E0C3
:10310000F12CFE01F595E795E558FF4FE491C0FFDE
:103110007AC0EF70E83008F078C0F0E0E558FF4F73
:10312000F4906F2D81E092E00E94D1022196C23F7F
:10313000D10539F7C4E7D0E0FE016491662339F088
:1031400081E092E00E94D1022196892BA9F742E00A
:1031500050E066E971E081E092E00E943B028091DC
:10316000FB018D7F8093FB010E94DB0A41E050E070
:1031700063E071E08AEF91E00E94531B48E050E069
:103180006BE171E08AEB91E00E94531B6FEF81E0ED
:1031900090E00E947B1B8091F6018F788093F6016E
:1031A0001092EC011092EB0180E391E00E94000686
:1031B0008CE296E19093C3018093C2010E942E029B
:1031C0000E942E020E94E2050E94AA0D8091F50144
:1031D00082FB882780F9A895882391F30E94CB125F
:1031E000A895C0E0D0E0A8950E94E2050E94AA0D33
:1031F0000E94F0132097B9F30E94A502882399F347
:103200000E940000F0CFE29584CF1BEF1E0F00E07C
:103210006F2D81E092E00E94D1020F5F0117C0F391
:1032200085CF0F931F93CF93DF938230910510F4D6
:1032300082E090E0E0914104F091420430E020E02F
:10324000B0E0A0E0309799F42115310509F44AC0A7
:10325000281B390B24303105D8F58A819B816115F3
:10326000710589F1FB0193838283FE0111C04081C6
:1032700051810281138148175907E0F04817590717
:1032800099F4109761F012960C93129713961C9371
:103290003296CF01DF91CF911F910F910895009346
:1032A000410410934204F4CF2115310551F0421727
:1032B000530738F0A901DB019A01BD01DF01F801D4
:1032C000C1CFEF01F9CF9093420480934104CDCF59
:1032D000FE01E20FF31F819391932250310939834C
:1032E0002883D7CF20913F0430914004232B41F411
:1032F00020913B0130913C013093400420933F04E6
:103300002091390130913A012115310541F42DB751
:103310003EB740913D0150913E01241B350BE09199
:103320003F04F0914004E217F307A0F42E1B3F0B7B
:103330002817390778F0AC014E5F5F4F2417350727
:1033400048F04E0F5F1F5093400440933F04819319
:1033500091939FCFF0E0E0E09CCFCF93DF93009775
:10336000E9F0FC01329713821282A0914104B091DE
:103370004204ED0130E020E01097A1F4208131817A
:10338000820F931F20913F04309140042817390782
:1033900009F061C0F0934004E0933F04DF91CF91C6
:1033A0000895EA01CE17DF07E8F54A815B819E01A7
:1033B00041155105B1F7E901FB83EA834991599120
:1033C000C40FD51FEC17FD0761F48081918102962F
:1033D000840F951FE90199838883828193819B8360
:1033E0008A83F0E0E0E012968D919C91139700970C
:1033F000B9F52D913C911197CD010296820F931F43
:1034000020913F04309140042817390739F630974E
:1034100051F51092420410924104B0934004A093DD
:103420003F04BCCFD383C28340815181840F951F59
:10343000C817D90761F44E5F5F4F88819981480FA3
:10344000591F518340838A819B81938382832115F5
:10345000310509F0B0CFF0934204E09341049ECFD0
:10346000FD01DC01C0CF13821282D7CFFC01882777
:103470009927E89421912032E9F3293010F02E3079
:10348000C8F32B3241F02D3239F4689404C00E9405
:103490009B1A820F911D219120532A30C0F31EF4F4
:1034A000909581959F4F08951F93FC019927882738
:1034B000BC01E89411911032E9F3193010F01E307C
:1034C000C8F31B3251F01D3249F4689406C00E94C3
:1034D000861A610F711D811D911D119110531A30B3
:1034E000B0F33EF490958095709561957F4F8F4F26
:1034F0009F4F1F910895BB274A3031F4992322F43E
:10350000BDE2909581959F4F0C94A41A592F482F96
:10351000372F262F660F771F881F991F660F771F7B
:10352000881F991F620F731F841F951F660F771FD7
:10353000881F991F08957AE0979F902D879F802D6F
:10354000910D11240895BB27FB015527AA27880F49
:10355000991FAA1FA41710F0A41B83955051B9F707
:10356000A05DAA3308F0A95DA193009779F7B11186
:10357000B1931192CB010C94C61A91110C94FF1ABD
:10358000803219F089508550C8F70895DC01FC019C
:10359000672F71917723E1F7329704C07C916D9387
:1035A00070836291AE17BF07C8F308950E94DB1ABB
:1035B00008F481E00895990F0008550FAA0BE0E880
:1035C000FEEF16161706E807F907C0F012161306E5
:1035D000E407F50798F0621B730B840B950B39F425
:1035E0000A2661F0232B242B252B21F408950A268B
:1035F00009F4A140A6958FEF811D811D089599279B
:103600008827089597F99F6780E870E060E0089543
:103610009FEF80EC089500240A94161617061806EA
:103620000906089500240A941216130614060506C6
:103630000895092E0394000C11F4882352F0BB0F57
:1036400040F4BF2B11F460FF04C06F5F7F4F8F4FBA
:103650009F4F089557FD9058440F551F59F05F3FF5
:1036600071F04795880F97FB991F61F09F3F79F0A4
:1036700087950895121613061406551FF2CF469526
:10368000F1DF08C0161617061806991FF1CF8695A8
:103690007105610508940895E894BB27662777278C
:1036A000CB0197F90895DC01CB01FC01F999FECF1C
:1036B00006C0F2BDE1BDF89A319600B40D924150BA
:1036C0005040B8F70895F999FECF92BD81BDF89AA0
:1036D000992780B50895DC01A40FB51F41505040D3
:1036E00048F0CB01840F951F2E910E947C1B415006
:1036F0005040D0F70895262FF999FECF92BD81BD95
:10370000F89A019700B4021639F01FBA20BD0FB61F
:10371000F894FA9AF99A0FBE08952F923F924F9219
:103720005F926F927F928F929F92AF92BF92CF9251
:10373000DF92EF92FF920F931F93CF93DF93CDB75A
:10374000DEB7CA1BDB0B0FB6F894DEBF0FBECDBFD2
:1037500009942A88398848885F846E847D848C84A3
:103760009B84AA84B984C884DF80EE80FD800C81AC
:103770001B81AA81B981CE0FD11D0FB6F894DEBF8F
:103780000FBECDBFED0108955058BB27AA270E9458
:10379000DC1B0C94191B0E940B1B38F00E94121B9F
:1037A00020F039F49F3F19F426F40C94081B0EF412
:1037B000E095E7FB0C94021BE92F0E942A1B58F3AB
:1037C000BA17620773078407950720F079F4A6F506
:1037D0000C944C1B0EF4E0950B2EBA2FA02D0B0170
:1037E000B90190010C01CA01A0011124FF27591B46
:1037F00099F0593F50F4503E68F11A16F040A22F4C
:10380000232F342F4427585FF3CF469537952795BC
:10381000A795F0405395C9F77EF41F16BA0B620BBB
:10382000730B840BBAF09150A1F0FF0FBB1F661F02
:10383000771F881FC2F70EC0BA0F621F731F841F45
:1038400048F4879577956795B795F7959E3F08F06B
:10385000B0CF9395880F08F09927EE0F979587952D
:1038600008950E94381C6894B1110C944D1B089562
:103870000E94321B88F09F5798F0B92F9927B751B3
:10388000B0F0E1F0660F771F881F991F1AF0BA9504
:10389000C9F714C0B13091F00E944C1BB1E00895FB
:1038A0000C944C1B672F782F8827B85F39F0B93FED
:1038B000CCF3869577956795B395D9F73EF49095B7
:1038C0008095709561957F4F8F4F9F4F08950E940F
:1038D000DB1A08F48FEF089597FB072E16F4009477
:1038E00007D077FD09D00E94A21C07FC05D03EF44A
:1038F000909581959F4F0895709561957F4F08959C
:10390000A1E21A2EAA1BBB1BFD010DC0AA1FBB1FE3
:10391000EE1FFF1FA217B307E407F50720F0A21B55
:10392000B30BE40BF50B661F771F881F991F1A94C2
:1039300069F760957095809590959B01AC01BD01EC
:10394000CF010895AA1BBB1B51E107C0AA1FBB1FD3
:10395000A617B70710F0A61BB70B881F991F5A951B
:10396000A9F780959095BC01CD010895EE0FFF1F3A
:103970000590F491E02D0994B0E0A0E0E2ECFCE1C8
:103980000C948F1B8C01009751F4CB010E941119EC
:103990008C01C801CDB7DEB7E0E10C94AB1BFC0194
:1039A000E60FF71F9C0122503109E217F30708F4D4
:1039B0009DC0D901CD91DC911197C617D70798F01A
:1039C000C530D10530F3CE0104978617970708F369
:1039D000C61BD70B2297C193D1936D937C93CF01D4
:1039E0000E94AD19D6CF5B01AC1ABD0A4C018C0EFA
:1039F0009D1EA0914104B0914204512C412CF12C08
:103A0000E12C109731F580913F0490914004881586
:103A1000990509F05CC04616570608F058C0809119
:103A2000390190913A01009741F48DB79EB74091CA
:103A30003D0150913E01841B950BE817F90708F0F2
:103A400055C0F0934004E0933F04F9017183608313
:103A5000A0CF8D919C91119712966C90129713960E
:103A60007C901397A815B90559F56C0142E0C40E76
:103A7000D11CCA14DB0420F1AC014A195B09DA013C
:103A80001296159780F06282738251834083D90128
:103A90006D937C93E114F10471F0D7011396FC93BC
:103AA000EE93129776CF22968C0F9D1FF90191838A
:103AB0008083F301EFCFF0934204E093410469CF98
:103AC0004816590608F42C017D01D3019ACFCB0189
:103AD0000E9411197C01009749F0AE01B8010E94C3
:103AE000861DC8010E94AD19870153CF10E000E088
:103AF00050CFFB01DC0104C08D910190801921F4AD
:103B000041505040C8F7881B990B0895FB01DC0118
:103B100002C001900D9241505040D8F70895FB012A
:103B2000DC0101900D920020E1F70895FB01DC011A
:103B30004150504048F001900D920020C9F701C05B
:103B40001D9241505040E0F70895AEE0B0E0EBEA3E
:103B5000FDE10C949D1B85E08C838B899C899A8365
:103B60008983AE01495E5F4F6D897E89CE010196E2
:103B70000E94491F2E96E2E00C94B91B20FD09C05B
:103B8000FC0123FD05C022FF02C0738362835183C1
:103B90004083089544FD17C046FD1DC0DB01FC01B4
:103BA000AA0FBB1FEE1FFF1F1094D1F76A0F7B1FD8
:103BB0008E1F9F1F660F771F881F991F620F711D31
:103BC000811D911D089533E0660F771F881F991F8F
:103BD0003150D1F7F3CF34E0F7CF0F931F93CF934A
:103BE000DF938C01C8010E945920EC0197FD08C0A9
:103BF0000E94BD1A892BB1F7B801CE010E94952011
:103C0000CE01DF91CF911F910F9108958F929F92D6
:103C1000AF92BF92EF92FF920F931F93CF93DF93D8
:103C20008C01D62F7A01B22E0E9459209C01332795
:103C30002B32310529F02D323105A9F46894B7F8FB
:103C4000D15061F480E0DF91CF911F910F91FF90EF
:103C5000EF90BF90AF909F908F900895C8010E9401
:103C6000592097FDEFCFCB2DCD7F2B2D2073F9F46D
:103C70008033E9F4AA24AA94AD0E89F0C8010E9409
:103C8000592097FD0CC0282F2F7D283561F4C26480
:103C9000D25029F0C8010E94592097FF08C0812CFA
:103CA000912C54011BC0B6FE2BC0C260DA2D812CB2
:103CB000912C540120ED280F283028F1C4FD09C0B3
:103CC0002A3008F1C6FF05C02F7D3FEE320F363097
:103CD000C8F0B8010E949520C1FFB4CFC7FF08C04B
:103CE000B094A09490948094811C911CA11CB11C50
:103CF0002C2FB501A401C7010E94BE1D81E0A3CFF6
:103D0000C261D4CF27504C2FC501B4010E94CA1DF7
:103D10004B015C01C260D15009F3C8010E945920D7
:103D200097FFC8CFD9CFA0E2B0E0E9E9FEE10C945B
:103D3000921B5C01962E7A01CE0101966C0180E205
:103D4000F60111928A95E9F7F501B381890130E016
:103D500020E0712C812CA0E041E050E0F801B3FD9F
:103D60008591B3FF8191982F8F01811107C010E0D9
:103D700000E0C801A096EDE00C94AE1B8E3519F45E
:103D80002115310541F1A21713064CF48D3549F187
:103D90008D3229F4811006C0882483941DC08820A8
:103DA00009F464C0E92FE695E695E695EC0DFD2D46
:103DB000F11D892F8770BA0101C0660F8A95EAF755
:103DC0008081682B6083791651F0971510F49F5FFE
:103DD000E9CF9150E7CFA1E02F5F3F4FBFCF812CBC
:103DE000FBCF882019F08E8180628E83AA2359F040
:103DF000F6019E012F5D3F4F808180958083319633
:103E0000E217F307C9F788248394C5010E9459205B
:103E100097FD16C0E82FE695E695E695EC0DFD2D8D
:103E2000F11D208130E0AC014770552702C0359567
:103E300027954A95E2F720FD06C0B5010E9495201E
:103E4000882069F094CFE114F10429F0F701808310
:103E5000C70101967C019A94812C9110D6CFE11470
:103E6000F10409F486CFF701108283CFE82FE6959D
:103E7000E695E695EC0DFD2DF11D982F9770BA0192
:103E800001C0660F9A95EAF79081692B6083782EBE
:103E9000A3CFB0E0A0E0EFE4FFE10C94901B6C0135
:103EA000EB015A01FC0117821682512CF601E380C6
:103EB000FE01E3FC8591E3FE8191182FEF01882339
:103EC000E9F090E00E94BD1A892B21F0C6010E9402
:103ED000ED1DECCF153241F4FE01E3FC1591E3FE3C
:103EE0001191EF01153269F4C6010E94592097FD26
:103EF0008EC01817D9F2B6010E949520852D90E04A
:103F00008AC000E01A3231F4E3FC1591E3FE11910E
:103F1000EF0101E0F12C20ED210F2A3048F101FFE3
:103F200037C0FF2059F31836B1F11C3609F43DC0F3
:103F3000112321F3612F70E088E690E00E944E206B
:103F4000892BE1F2912C812C00FD06C0F5018080C7
:103F50009180C50102965C011E3679F5F601468115
:103F6000578170E060E0202FC4010E94BE1D9ECFEB
:103F700002606F2D70E090E080E040E20E94CA1D78
:103F8000F62EFE01E3FC1591E3FE1191EF01C3CF84
:103F9000FF24FA94C8CFFE01E3FC1591E3FE1191D2
:103FA000EF01183609F0C4CF08600460FE01E3FC9D
:103FB0001591E3FE1191EF01BBCF1336C1F401FD62
:103FC00002C0FF24F394C6010E94592097FD1FC030
:103FD0008114910429F0F4018083C40101964C01FD
:103FE000FA94F110F0CF00FD61CF53945FCF1B35F1
:103FF000B9F49E01A4016F2DC6010E94931EEC012D
:10400000892B89F7F6018381807309F477CF8FEFCD
:104010009FEF511073CFCDB7DEB7EFE00C94AC1B20
:10402000C6010E94ED1D97FDF2CF1F36A9F130F4B5
:10403000143641F0193639F0006405C01337B9F071
:104040001537D1F70062202FA4016F2DC6010E9401
:10405000061E8111C8CFD6CF8114910429F0F40136
:104060006082C40101964C01FA94FF2071F0C601F0
:104070000E9459203C0197FD08C00E94BD1A892B5F
:1040800059F3B601C3010E9495208114910409F4EB
:10409000AACFF4011082A7CF0061D5CFFC01059013
:1040A000061621F00020D9F7C00108953197CF01FD
:1040B0000895CF93DF93EC012B8120FF1AC026FFD8
:1040C0000CC02F7B2B838E819F8101969F838E83D3
:1040D0008A8190E0DF91CF91089522FF18C0E88196
:1040E000F9818081082E000C990B009729F4206239
:1040F0002B838FEF9FEFEECF3196F983E8832E81EC
:104100003F812F5F3F4F3F832E839927E3CFEA857F
:10411000FB85099597FFF3CF2B81019621F080E273
:10412000822B8B83E6CF80E1FBCFFB01238120FF35
:1041300011C026FD0FC08F3F980771F082832F7D3D
:1041400020642383268137812150310937832683D8
:0E415000992708958FEF9FEF0895F894FFCF01
:10415E00FFFFFF00FCE1A8A8830C9706180C680669
:10416E0056064C069E0CB106FF15092C06312E3054
:10417E000052656C6179204163747561746F7200D1
:10418E00BB0A090AFF3A023A020000430480001FEC
:10419E001C1F1E1F1E1F1F1E1F1E1F00000000D1F2
:1041AE00023B0268021E03990277028B0200000096
:1041BE0000480375013A00322E332E310025643A41
:1041CE002564004F4B0052656C6179310052656C6D
:1041DE006179320052656C6179330052656C617998
:0A41EE003A4D6F6465000D0A0000F1
:1078000011E0A0E0B1E0E0EFFFE702C005900D92CB
:10781000A630B107D9F721E0A6E0B1E001C01D9282
:10782000AD34B207E1F7CDB7DEB72997DEBFCDBFE4
:10783000112484B78093270114BE88E180936000EF
:1078400089E280936000259A86E020E295B1922734
:1078500095B93FE748E391E0315040409040E1F76F
:1078600000C00000815091F78091270181FD16C072
:107870008EE284B981E58CBD81E08DBD412C512C17
:107880002224239433243394AA24AA94BA2C78E093
:10789000972ECC24C394E3E0DE2E40C182E0809397
:1078A000C00088E18093C10086E08093C20080E13F
:1078B0008093C400E12CF12CC12CD12CAA24AA94D1
:1078C000BA2C01E0A8952BD2813461F428D28987A3
:1078D00037D38985823821F0813811F485E64FC08D
:1078E00083E04DC0823411F484E103C0853419F47F
:1078F00085E032D35FC0853541F411D2E82E0FD236
:10790000F12CF82AEE0CFF1C54C0863521F484E0DB
:1079100023D380E034C08436E1F401D200D2882E33
:10792000FED1C80CD11C912C981480F4F8D1182FDA
:10793000F6D1F701E90DF11D212F30E0382B0901B7
:1079400007BFE895112493949394EECFC701A8D173
:1079500030C0843761F4E3D1E2D1182FE0D1F0D206
:10796000F70185917F01E5D21150D1F724C0853709
:1079700041F4E6D28EE1DDD285E9DBD28FE0D9D2C7
:1079800019C08135B1F4BA82A982BC82AB82C6012A
:1079900034E0969587953A95E1F79E838D83C601ED
:1079A00091D198878F83CE010196DDD2C9D211E0A3
:1079B00002C0C6D210E080E1BCD2112309F482CF0C
:1079C00057CF43E050E060E070E089E291E0EED212
:1079D00048E050E06BE171E0CE010196E7D22998D2
:1079E0002A9A63E083E2D4D16CE485E2D1D167E2E4
:1079F00086E2CED163E780E5CBD164E08DE3C8D1E8
:107A000061E082E2C5D161E081E2C2D161E08CE354
:107A1000BFD121E041E060E070E086E08CD18732A8
:107A200009F028C180912A01809328018FEF80936B
:107A30002A0180932B018093080163E584E2A8D199
:107A400043E26AE087E05FD161E08EEFC0D110923F
:107A500008016FE584E29CD180912A018F3F09F4EF
:107A600009C18091290181508E3F08F05AC030929F
:107A70000D0110920E0143EC62E18FE044D160E011
:107A80008FE0A5D18D819E8124E0880F991F2A95D2
:107A9000E1F718D198878F83FE013196ADE0B1E010
:107AA000892D01900D928A95E1F7D0921601C0922E
:107AB000150144EC62E580E026D163E081E087D1E6
:107AC000882309F4D7C048E050E063E371E0CE01B9
:107AD00001965FD2892B09F4CDC080913701909136
:107AE0003801009709F045C08091390190913A0121
:107AF0008A379A4D09F041C0809133019091340149
:107B00008130910571F500E010E06FEFC8015ED2A1
:107B10000F5F1F4F011524E01207B9F7F999FECF47
:107B200050CF43E262E083E0EED063E084E04FD1E7
:107B3000882309F496CF80912F01869586958695A6
:107B4000E3E3F1E060E0815048F02191660F962F69
:107B5000990F990F690F6053620FF5CF80E090E0A5
:107B600006C0029782309105C8F6609135012ED289
:107B7000D5CF8038974008F07DC0E3E3F1E0DE0127
:107B80001196892D01900D928A95E1F7EF80F88486
:107B9000B886AF82CE010196E6D16D807E80898164
:107BA0009A8190930E0180930D018B819C8190931B
:107BB000100180930F0183010150110910931201EC
:107BC0000093110144EC62E382E09DD063E083E026
:107BD000FED0882309F44BCF46E050E063E371E028
:107BE0008DE091E0D6D1892BD1F6C3018150904F21
:107BF000282F22952077822E40E050E0622F70E0FF
:107C0000DA01A45DBE4FFA01E60FF71F1E962C9114
:107C10001E9730E0322F22271D96AC912A2B0901A6
:107C200027BEE89511244E5F5F4F4031510541F763
:107C3000811006C044E0880F991F4A95E1F730D0C3
:107C40000115110511F03801AACFF886EF828D8158
:107C50009E8134E0880F991F3A95E1F733D08E1555
:107C60009F0521F01E821D8218861F82CE0101967B
:107C70007AD154CF8D819E8124E0880F991F2A9557
:107C8000E1F720D02F8138858217930709F046CF7E
:107C90001CBCA89580912701282EF20109953ECFA2
:107CA00023E0FC0127BFE89507B600FCFDCF25E0E7
:107CB000FC0127BFE89507B600FCFDCF81E187BF37
:107CC000E8950895BC01E0E0F0E08FEF9FEFE61744
:107CD000F707C0F4E11528E7F207A0F42591822701
:107CE00048E0DC01B695A7959C01217033273195BA
:107CF000219531092170307AC9018A279B2741508B
:107D000081F7E5CF089590912901E6E0F1E09183B4
:107D100090839FEF96838583448363830895809146
:107D2000C00087FFFCCF8091C00084FD01C0A895F2
:107D30008091C60008952A989AE19A95F1F700C0BB
:107D40008EBD0DB407FEFDCF8EB59FEF4150D0F034
:107D5000222369F09EBD0DB407FEFDCF8EB56115DF
:107D60007105A1F3DB018C936F5F7F4FEFCFFB01B8
:107D70003196DB018C918EBD0DB407FEFDCF8EB523
:107D8000BF01E4CF2A9ABAE1BA95F1F700C008958D
:107D9000CF93DF931F92CDB7DEB7698320E041E038
:107DA000BE016F5F7F4FC7DF0F90DF91CF910895C6
:107DB00020E040E060E070E082EEBDDF20E040E0E7
:107DC00060E070E081EEB7DF60E787E2E1CFFF922D
:107DD0000F931F93CF93DF93F82ED62FC0910901F5
:107DE000C695C695C695C95F10912A0129986EE07F
:107DF00080E2CEDF1093000120E045E060E071E01A
:107E00008AE299DF20E045E060E071E080E393DF03
:107E100020E04C2F66E071E080EA8DDF299A8AE04D
:107E20008A95F1F700C020E040E060E070E08FEF5D
:107E300082DF8073C1F32998BBDF6FE080E2A8DFA7
:107E4000609129018AE2A4DF299A0FEF1FEFA8951C
:107E500021E041E060E070E087E16DDF80FF02C07B
:107E60008FEF4BC021E041E060E070E080E663DF2F
:107E7000C82F813208F0C0E021E04C2F6CE271E0A5
:107E800081E659DF95DF4C2F50E020912F01269598
:107E90002695269530E0295F3F4F4217530701F79B
:107EA00090912E01809129019813DACF80913101B0
:107EB000909130019770933001F58830F1F4209162
:107EC0002A0190912801291302C09F3FB1F420910B
:107ED0002D01291304C090932A018EEF0EC030911A
:107EE000330191E0930F9093330140912B013417AC
:107EF00020F490932B0120932A0191E08F1190E0C0
:107F000088E08A95F1F70150110921F4892FD111E8
:107F100005C009C0992309F49ACF04C0D150992310
:107F200009F45CCF81E0DF91CF911F910F91FF9019
:107F300008959091C00095FFFCCF8093C6000895EE
:107F4000EEDE803239F088E18093600088E0809333
:107F50006000FFCF84E1EDCFCF93C82FE0DEC150AA
:107F6000E9F7CF91EDCF0F931F93CF93DF938C0160
:107F7000CBE1D1E0F80161918F01CE0127D02196AC
:107F8000C332F1E0DF07B1F7DF91CF911F910F917D
:107F90000895FB01DC0104C08D910190801921F44A
:107FA00041505040C8F7881B990B0895DC01CB0164
:107FB000FC01F999FECF06C0F2BDE1BDF89A3196F9
:107FC00000B40D9241505040B8F70895262FF9990A
:107FD000FECF92BD81BDF89A019700B4021639F028
:107FE0001FBA20BD0FB6F894FA9AF99A0FBE0895F9
:067FF00000FCE1A8A8005E
:040000030000780081
:00000001FF
