:100000000C94A8000C9452150C942B150C94D00051
:100010000C94D0000C94D0000C94D1150C94D0000A
:100020000C94D0000C94D0000C94D0000C94D00010
:100030000C94D0000C94D0000C94D0000C94D00000
:100040000C94E1140C94D0000C949F150C94791529
:100050000C94D0000C94D0000C94D0000C94D000E0
:100060000C94D0000C94D0006364696E6F7073754B
:1000700078585B00322E332E310A00207C5F5C2FD3
:10008000602C0A0702200220B287100340012000E2
:100090002402221002220202200222002220020256
:1000A000202227101341010101032220304020307B
:1000B0005203402214020310522402217101001045
:1000C000101210122210100224010103220300203A
:1000D000010100322037121001213226012840325E
:1000E000221210121222432224121001222470C163
:1000F00022240F0F0000000023002600290000002A
:100100000000240027002A0000000000250028002D
:100110002B00040404040404040402020202020288
:1001200003030303030301020408102040800102BB
:10013000040810200102040810200000000800023A
:100140000100000304070000000000000000F0159B
:1001500011241FBECFEFD8E0DEBFCDBF11E0A0E07D
:10016000B1E0EEE1FCE302C005900D92AA39B107BF
:10017000D9F723E0AAE9B1E001C01D92A239B20784
:10018000E1F710E0C8EAD0E004C02197FE010E9428
:10019000161AC73AD107C9F70E9481160C940D1E92
:1001A0000C940000942FE5E4F3E03091F6013183E4
:1001B0008283668325834481487F492B477E44831D
:1001C000CF010895833081F028F4813099F0823096
:1001D000A9F008958730A9F08830C9F08430B1F4CF
:1001E000809180008F7D03C0809180008F77809305
:1001F0008000089584B58F7784BD089584B58F7D80
:10020000FBCF8091B0008F778093B00008958091EC
:10021000B0008F7DF9CF1F93CF93DF93282F30E06D
:10022000F901E65CFE4F8491F901EA5DFE4FD4913D
:10023000F901EE5EFE4FC491CC23A9F0162F811177
:100240000E94E200EC2FF0E0EE0FFF1FE85FFE4F90
:10025000A591B4918FB7F894EC91111108C0D09585
:10026000DE23DC938FBFDF91CF911F910895DE2BAA
:10027000F8CFCF93DF9390E0FC01EA5DFE4F24912D
:100280008E5E9E4FFC0184918823C9F090E0880F18
:10029000991FFC01E250FF4FA591B491FC01E85F6A
:1002A000FE4FC591D49161110DC09FB7F8948C9108
:1002B000209582238C938881282328839FBFDF91F8
:1002C000CF910895623051F49FB7F8943C91822FFA
:1002D000809583238C93E8812E2BEFCF8FB7F894F2
:1002E000EC912E2B2C938FBFEACF862F642F0C948A
:1002F0003901CF93DF93EC0161E083E00E94390183
:10030000209731F460E083E0DF91CF910C940B01F2
:10031000CF3FD10511F461E0F6CFEDE3F1E0E491D8
:10032000E33029F140F4E130B1F0E230D9F0C038E7
:10033000D1058CF7E7CFE73021F1E83051F1E43017
:10034000B1F780918000806280938000D0938B0011
:10035000C0938A0004C084B5806884BDC7BDDF91A6
:10036000CF91089584B5806284BDC8BDF8CF8091D7
:100370008000806880938000D0938900C0938800BB
:10038000EECF8091B00080688093B000C093B3003E
:10039000E6CF8091B00080628093B000C093B4003B
:1003A000DECF3FB7F8948091E1019091E201A091F6
:1003B000E301B091E40126B5A89B05C02F3F19F0D9
:1003C0000196A11DB11D3FBFBA2FA92F982F8827D5
:1003D000BC01CD01620F711D811D911D43E0660FAF
:1003E000771F881F991F4A95D1F708958F929F9282
:1003F000AF92BF92CF92DF92EF92FF926B017C019E
:100400000E94D1014B015C01C114D104E104F1044B
:10041000B9F00E94D101681979098A099B09683EDF
:1004200073408105910580F321E0C21AD108E108EB
:10043000F10888EE880E83E0981EA11CB11CE4CF61
:10044000FF90EF90DF90CF90BF90AF909F908F90F4
:1004500008952FB7F8946091DD017091DE018091CD
:10046000DF019091E0012FBF08950895AF92BF92F0
:10047000CF92DF92EF92FF920F931F93CF93DF9370
:100480006C017B018B01040F151FEB015E01AE189F
:10049000BF08C017D10759F06991D601ED91FC91C1
:1004A0000190F081E02DC6010995892B79F7C501EE
:1004B000DF91CF911F910F91FF90EF90DF90CF9040
:1004C000BF90AF900895FC01538D448D252F30E0EF
:1004D000842F90E0821B930B541710F0CF96089551
:1004E00001970895FC01918D828D981761F0A28D7E
:1004F000AE0FBF2FB11D5D968C91928D9F5F9F7344
:10050000928F90E008958FEF9FEF0895FC01918DF9
:10051000828D981731F0828DE80FF11D858D90E066
:1005200008958FEF9FEF0895FC01918D228D892F03
:1005300090E0805C9F4F821B91098F7399270895EB
:100540008AEF91E00E94940221E0892B09F420E0D7
:10055000822F0895FC01A48DA80FB92FB11DA35AB5
:10056000BF4F2C91848D90E001968F739927848FD3
:10057000A689B7892C93A089B1898C9183708064F6
:100580008C93938D848D981306C00288F389E02D97
:1005900080818F7D80830895EF92FF920F931F9348
:1005A000CF93DF93EC0181E0888F9B8D8C8D981326
:1005B0001AC0E889F989808185FF15C09FB7F89432
:1005C000EE89FF896083E889F9898081837080647E
:1005D00080839FBF81E090E0DF91CF911F910F91C9
:1005E000FF90EF900895F62E0B8D10E00F5F1F4FD8
:1005F0000F731127E02E8C8D8E110CC00FB607FCE7
:10060000FACFE889F989808185FFF5CFCE010E9474
:10061000AA02F1CFEB8DEC0FFD2FF11DE35AFF4F36
:10062000F0829FB7F8940B8FEA89FB898081806202
:10063000CFCFCF93DF93EC01888D8823B9F0AA89BF
:10064000BB89E889F9898C9185FD03C0808186FD8D
:100650000DC00FB607FCF7CF8C9185FFF2CF8081DC
:1006600085FFEDCFCE010E94AA02E9CFDF91CF91A5
:10067000089580E090E0892B29F00E94A00281116A
:100680000C9400000895CF93DF93FC01218530E0A6
:10069000F901E65CFE4F8491F901EA5DFE4FD491C9
:1006A000F901EE5EFE4FC491CC2379F081110E94D6
:1006B000E200EC2FF0E0EE0FFF1FEC50FF4FA59192
:1006C000B491EC91ED2381E009F480E08170DF9139
:1006D000CF9108951F93CF93DF93EC01162F62E023
:1006E000812F0E94390119871886CE010E94430389
:1006F000882319F08885836088870E9429026A838D
:100700007B838C839D83DF91CF911F910895CF923E
:10071000DF92EF92FF921F93CF93DF93EC018885D6
:100720008B7F8887CE010E944303182F888586958A
:1007300081701817B1F00E9429026A837B838C8331
:100740009D83888592E089278887888582FB882712
:1007500080F9DF91CF911F91FF90EF90DF90CF90C4
:1007600008950E942902CA80DB80EC80FD80AB01E5
:10077000BC014C195D096E097F098E819F81B0E033
:10078000A0E0481759076A077B07F8F2888581704F
:100790001817D9F20E9429026A837B838C839D8378
:1007A000888591E08927846088870E9429026A876A
:1007B0007B878C879D87C9CF6093D8017093D901BF
:1007C0008093DA019093DB01645D7E4F8F4F9F4FE2
:1007D0006093D4017093D5018093D6019093D70193
:1007E00082E090E09093D3018093D2010E9429028D
:1007F0006093CE017093CF018093D0019093D1018B
:100800000895CF92DF92EF92FF920F931F930E9471
:1008100029028B019C01C090CE01D090CF01E090C5
:10082000D001F090D1016091D8017091D9018091EF
:10083000DA019091DB010C191D092E093F09083ED0
:10084000134021053105E0F0DC01CB010196A11D2B
:10085000B11D8093D8019093D901A093DA01B09390
:10086000DB01B701A60148515C4F6F4F7F4F4093AA
:10087000CE015093CF016093D0017093D101C7CFC7
:100880001F910F91FF90EF90DF90CF9008954F92BE
:100890005F926F927F928F929F92AF92BF92CF9210
:1008A000DF92EF92FF920F931F93CF93DF934B0151
:1008B0005C018091CA019091CB01A091CC01B091D3
:1008C000CD0188159905AA05BB0509F4C6C08CE3BE
:1008D000C82ED12CE12CF12CC501A70196010E9454
:1008E000E0196093C301CA01B901A70196010E94F2
:1008F000E0196093C401C501B40120E13EE040E08D
:1009000050E00E94E019CA01B90128E130E040E05E
:1009100050E00E94E0196093C501C501B40120E8D0
:1009200031E541E050E00E94E01969017A01CA0115
:10093000B9016C5F7F4F8F4F9F4F27E030E040E061
:1009400050E00E94E0196F5F6093C601412C512C6A
:10095000320140E004E610E0C0E9D1E0242F30E0AD
:100960002E54384FF901E370FF273097F9F4C9018D
:10097000B8010E94CC19892B31F4C901BE010E9433
:10098000CC19892B99F48EE691E0A0E0B0E0480EF6
:10099000591E6A1E7B1ED301C201AA27BB27C81697
:1009A000D906EA06FB0638F04F5FD8CF8DE691E016
:1009B000A0E0B0E0ECCF4093C901C90164E670E06B
:1009C0000E94CC19EC01C90160E971E00E94CC19C8
:1009D000309721F42097D9F40097C9F04DE651E003
:1009E00060E070E0441A550A660A770AC418D50810
:1009F000E608F708AFE3B1E020E0213069F4309772
:100A0000E9F5209711F40097C9F54DE106C04EE6CF
:100A100051E060E070E0E6CF4C9150E070E060E0C3
:100A200031E0320FC416D506E606F70640F0C41AC8
:100A3000D50AE60AF70A1196232F3C30F1F62F5F0C
:100A40002093C801C394C092C7018092CA019092BA
:100A5000CB01A092CC01B092CD01DF91CF911F913B
:100A60000F91FF90EF90DF90CF90BF90AF909F904D
:100A70008F907F906F905F904F9008954CE1CDCF15
:100A8000CF93CFB7F8948091C201811127C0ECE1D8
:100A9000F1E08491E0E3F1E09491E82FF0E0EE0FD3
:100AA000FF1FE250FF4FA591B491EC91E92321F48F
:100AB00061E08AE00E940B0161E08AE00E94390156
:100AC0008CB580618CBD8CB580648CBD61E08DE09F
:100AD0000E94390161E08BE00E9439018091C201DE
:100AE0008F5F8093C201CFBFCF9108958FB7F894E5
:100AF0008091C1018FBF0895CF92DF92EF92FF9254
:100B00000F931F93CF93DF93D0E0C0E0062F10E048
:100B1000E82EF12CC017D1072CF5D12CC12CCE1406
:100B2000DF04C4F461E088E00E940B0164E170E03E
:100B300080E090E00E94F60160E088E00E940B01F6
:100B400064E670E080E090E00E94F6018FEFC81A42
:100B5000D80AE5CF64E670E080E090E00E94F601FC
:100B60002196D8CFDF91CF911F910F91FF90EF90F9
:100B7000DF90CF9008950C94DC03FC0184818F7189
:100B800080648483838187708061838370876783B7
:100B9000CF010895FC0183818770886083838481FD
:100BA0008F71806284836783CF010895E091E501AE
:100BB000F091E601309721F00280F381E02D099455
:100BC00008950F931F930E9429020091E70110914D
:100BD000E8012091E9013091EA01601B710B820B61
:100BE000930B1F910F9108959C018091E5019091C5
:100BF000E60182179307F1F09091EF019F719093B6
:100C0000EF013093E6012093E501E091E501F091D9
:100C1000E601309721F00190F081E02D09950E94C6
:100C200029026093E7017093E8018093E9019093B2
:100C3000EA0108958091EF01805E8093EF01E5CF96
:100C40000F931F930E94E1052091F0012077203738
:100C500079F000E117E220E030E0061717072807D7
:100C6000390758F480E391E01F910F910C94F4053B
:100C700000E61AEE20E030E0F0CF1F910F910895CA
:100C80008091F0018F708B3020F084E191E00C9422
:100C9000F40508958091EF0184608093EF018091C5
:100CA000F00180788093F001E091B801F091B901F2
:100CB000309709F009940895CF93C091F101CF3F87
:100CC000A1F00E9429026093EB017093EC018093E4
:100CD000ED019093EE018091F801C813C093F801E3
:100CE00080E191E0CF910C94F4050E94E105613D13
:100CF00077408105910568F08091EF01803618F406
:100D00008CE091E0EFCF877F8093EF0184E191E069
:100D1000E9CFCF9108958091F6018F3F21F08CE0CB
:100D200091E00C94F4050E94E105613D7740810556
:100D3000910550F08091EF01803618F488E091E041
:100D4000F0CF89E191E0EDCF08950E94E105613D8A
:100D500077408105910520F48091EF0181FF17C054
:100D60008091F7018F3F49F08091EF018E7F809352
:100D7000EF0188E091E00C94F4058091EF0180365A
:100D800018F484E191E0F7CF89E191E0F4CF089580
:100D90008EBD00000DB407FEFDCF8EB508958CBD4D
:100DA0009DBD0895CF93DF938CB5C7E8D3E08B83C7
:100DB0008DB58C838D819E810E94CF0660E08881F5
:100DC000DF91CF910C940B01CF93DF93C7E8D3E071
:100DD00061E088810E940B018B818CBD8C818DBD6F
:100DE000DF91CF910895CF930E94D20685E00E94B3
:100DF000C80680E00E94C806C82F0E94E4068C2F17
:100E00008170CF910895CF93DF93C82F662331F07F
:100E100060E086E00E9403070E94E4060E94D2067A
:100E200085E00E94C80680E00E94C806D82F0E9474
:100E3000E406D0FDF3CF0E94D2068C2FDF91CF9134
:100E40000C94C8064F925F926F927F928F929F92FE
:100E5000AF92BF92CF92DF92EF92FF920F931F93C8
:100E6000CF93DF932B013C014A01E9019B0133271A
:100E700080E091E0821B930BF12CE12C8E018C170A
:100E80009D0708F48C0161E082E00E940307862D33
:100E90000E94C806852D0E94C806842D0E94C8069F
:100EA0005401AE0CBF1C6501F60181916F010E94D7
:100EB000C806C6018A199B0980179107A8F30E94EA
:100EC000E406400E511E611C711CE00EF11EC01B99
:100ED000D10B80E091E091F6DF91CF911F910F91BE
:100EE000FF90EF90DF90CF90BF90AF909F908F904A
:100EF0007F906F905F904F9008950F931F93CF93C3
:100F0000DF93EC0188819981009759F02A813B8118
:100F10002617370730F081E0DF91CF911F910F91B5
:100F200008958B016F5F7F4F0E941C1A009759F044
:100F3000998388831B830A832C813D81232B59F756
:100F4000FC011082E8CF80E0E7CFCF93DF93EC0184
:100F500088819981009711F00E942F1819821882B8
:100F60001D821C821B821A82DF91CF9108950F93FC
:100F70001F93CF93DF93EC010C811D810F5F1F4FF7
:100F8000B8010E947D07882391F0288139818C81E6
:100F90009D8165E671E0820F931F0E94EF1A1D8309
:100FA0000C83CE01DF91CF911F910F910895CE0157
:100FB0000E94A507F6CFCF92DF92EF92FF920F9398
:100FC0001F93CF93DF93CDB7DEB762970FB6F89438
:100FD000DEBF0FBECDBF8C01CB01F80111821082A4
:100FE00013821282158214824AE09E012F5F3F4FC6
:100FF0006901B9010E94FD18F60101900020E9F78E
:1010000031977F01EC18FD08B701C8010E947D07E8
:10101000811112C0C8010E94A50762960FB6F8940C
:10102000DEBF0FBECDBFDF91CF911F910F91FF901B
:10103000EF90DF90CF900895F801F582E482B60139
:10104000808191810E94EF1AE8CFEF92FF920F9377
:101050001F93CF93DF93EC01FB01E080F180E1145B
:10106000F10411F10481158101151105A9F08C819C
:101070009D81080F191FB801CE010E947D078823AA
:1010800099F0288139818C819D81B701820F931F4E
:101090000E94EF1A1D830C83CE01DF91CF911F9127
:1010A0000F91FF90EF900895CE010E94A507F4CF15
:1010B000FC01808191810C942F18EF92FF920F9385
:1010C0001F93CF93DF93EC01198218821B821A823F
:1010D0001D821C828617970719F1FB01008111817F
:1010E00001151105E9F0E480F580B7010E947D0744
:1010F000811109C0CE01DF91CF911F910F91FF9017
:10110000EF900C94A507FD82EC82B801888199814B
:10111000DF91CF911F910F91FF90EF900C94EF1AF8
:10112000DF91CF911F910F91FF90EF900895CF9293
:10113000DF92EF92FF920F931F93CF93DF93C82F0D
:101140007B01142F022F80E590E00E94CF062A98A1
:1011500080E190E00197F1F78C2F0E94C806E7012B
:101160001150A0F0002349F08FEF0E94C806E1144F
:10117000F104B1F388832196F3CF6E018FEFC81A83
:10118000D80A88810E94C806E601EACF2A9AE0E1DF
:10119000F0E03197F1F7DF91CF911F910F91FF9020
:1011A000EF90DF90CF900895CF93DF931F92CDB74C
:1011B000DEB7698320E041E0BE016F5F7F4F0E9490
:1011C00097080F90DF91CF9108958091F001982FAB
:1011D0009077903759F0982F92959F709F5F9770F6
:1011E0009295907F8F78892B8093F0018091EF0109
:1011F0008B7F8F7E8093EF0129986CE080E20C94C6
:10120000D4086FE080E20E94D408609134016F3FFF
:1012100019F08AE20E94D408299A089521E041E059
:1012200070E060E00C94970820E040E070E060E03F
:101230000C949708CF93C82F8093F6018F3F51F0FD
:101240008093340163E082E20E94D40861E081E28D
:101250000E94D4080E9401096C2F90E080E00E9457
:10126000831981E0CF910895CF93219A229A2998EA
:101270002A9A0E94400529986EE080E20E94D408D4
:1012800084E293E20197F1F763E083E20E94D408DD
:101290006FE584E20E94D4086CE485E20E94D408E1
:1012A00067E286E20E94D40864E08DE30E94D408DD
:1012B0008DE10E940E09843041F063E780E50E94D1
:1012C000D40864E08DE30E94D40886E00E940E09F1
:1012D000873209F04DC085E00E940E098C3409F078
:1012E00047C062E082E20E94D40860E081E20E948E
:1012F000D40863E08CE30E94D408CFEFC0930301CD
:1013000020E045E063E071E08BE20E94970820E076
:1013100045E063E071E08AE20E94970820E045E042
:1013200063E071E080E30E94970882EE0E94140956
:1013300081EE0E94140960E787E20E94D408809140
:10134000EF0180618093EF018091F9018E7F80939E
:10135000F9018091F6018F3F19F484E191E00AC010
:101360009FEF980F9E3F48F40E941A098111F5CF14
:1013700089E191E0CF910C94F405C093F601F8CF88
:10138000EFEEF1E08081877F8F7E80831092EB010A
:101390001092EC011092ED011092EE010E942902D0
:1013A0006093A1017093A2018093A3019093A40183
:1013B00044E050E070E060E086EF91E00C945B194F
:1013C000CF93DF9361E08EE00E94390161E08FE00E
:1013D0000E94390161E080E10E94390161E088E00A
:1013E0000E94390161E170E087E393E00E946A03A3
:1013F000C5E0D0E0D0933E03C0933D0362E170E0CE
:1014000089E293E00E946A03D0933003C0932F03D4
:1014100063E170E08BE193E00E946A03D0932203C2
:10142000C09321038EE991E00E946B19C82FD0E090
:10143000D093A901C093A8018FE991E00E946B1994
:1014400090E09093AF018093AE01249714F402973B
:1014500054F081E090E09093A9018093A80110924C
:10146000AF011092AE018EEE91E00E946B1961E027
:10147000811101C060E08EE00E940B018FEE91E0CF
:101480000E946B1961E0811101C060E08FE00E9451
:101490000B0180EF91E00E946B1961E0811101C0A6
:1014A00060E080E1DF91CF910C940B01EF92FF920D
:1014B0000F931F93CF93DF937C01FC01C281809136
:1014C000EF0180FF72C080E0CF3F09F067C0DFEF1F
:1014D0008091F601F70180834381C0E242FD05C09F
:1014E000469546954695C7E0C40F1091F901012F26
:1014F0000170299880E091E00197F1F76EE080E2B9
:101500000E94D40884EC90E00197F1F76D2F8AE2F5
:101510000E94D4086D2F80E30E94D40881EE0E94BF
:101520001409DF3F11F080EA011180EB4C2FC1322A
:1015300008F040E220E0B7010E949708299AF12CB8
:10154000E12C8FEF0E941409C82F807321F4F1E081
:10155000EF1AF108B1F7299860E387E20E94D408F6
:10156000C4FF03C081EE0E9414090E940109C5FD59
:1015700011E081E0DF3F09F080E01170812B909154
:10158000F7019D130BC09091F001811125C021E05E
:10159000290F2F70907F922B9093F001DF91CF91C4
:1015A0001F910F91FF90EF900895D091F701CC23F8
:1015B00009F48ECFCF3F09F48ACF8C2F90E00396A9
:1015C0000E946B198F3F31F4F70180818D1380CF1A
:1015D000DC2F7ECFD82F7CCF907FDECF2091EF0104
:1015E00022FD0C94560A80E00895FC018091F601DA
:1015F00081839481907F916094838091F50180FF35
:1016000003C0CF010C94EE0A80E00895CF93DF93DE
:10161000EB0182359105A1F18335910509F445C0AF
:1016200081359105F9F48EE00E940B018C2F8170B9
:101630008093C0016C2F8EEE91E00E948319BE0151
:101640008AEF92E00E94BD050E94F50ACD2B69F455
:101650001092BD011092BC018FEF90E09093BB01FE
:101660008093BA01DF91CF9108958FEF90E090932E
:10167000BD018093BC011092BB011092BA01F2CF60
:101680008FE00E940B018C2F81708093BF016C2F23
:101690008FEE91E00E948319BE0189ED92E00E94D5
:1016A000BD05DF91CF910C94F50A80E10E940B01FA
:1016B0008C2F81708093BE016C2F80EF91E00E948F
:1016C0008319BE0188EB92E0EACF8FEF8093F1019E
:1016D000EFEEF1E080818860808328E143E06FEFE6
:1016E00080E00E94D20061E00E94CA050C94560A74
:1016F0000F931F93CF93DF93EC01E0E06115710529
:1017000051F0FB0101900020E9F73197E61BF70B40
:10171000E931F10500F50E2F10E08B8187709801FB
:1017200093E0220F331F9A95E1F7822B8B838C81F4
:101730008F718C83EE2329F0A801CE0107960E94B9
:10174000F61AFE01E00FF11F1782CE01DF91CF9153
:101750001F910F910895E9E1DECF1F93CF93DF939F
:10176000182F262FEA0140E0682F80E00E94D20067
:101770001F3F11F4C7E6D1E0BE010E94780BDF9154
:10178000CF911F910C94EE0A21E043E06FEF80E0CF
:101790000E94D20068E971E00E94780B0C94EE0A76
:1017A0008091F6018F3FB1F40E9429026F3F79F0DA
:1017B0006093180123E043E06091180180E00E94EB
:1017C000D20068E971E00E94780B0C94560A1092DE
:1017D0001801F0CF0895EFEEF1E08081897F8160FC
:1017E0008083E6EFF1E08FEF8283818327E043E09F
:1017F0006FEF0E94D20068E971E00E94780B0C94B0
:10180000560AFC012481229526952770213011F477
:1018100087810895211104C007960E94B818089581
:1018200080E00895EF92FF920F931F93CF93DF9381
:10183000CDB7DEB768970FB6F894DEBF0FBECDBF49
:101840008C01FC0185818230A9F4F680F7E0FF1657
:1018500089F0F801848184FD0DC0C8010E94010C4B
:1018600061E070E0811102C070E060E08F2D90E0D7
:101870000E94060BF80185818331B9F48681803599
:10188000A1F0948194FD11C0823509F49DC0833587
:1018900009F4A2C0813549F46091C00181E0682754
:1018A00070E081E590E00E94060BF80185818831A7
:1018B00009F07DC08681873109F079C0095F1F4F2B
:1018C000F80101900020E9F7CF01801B910B0E94E5
:1018D0009317F82EE92EB8010E94EF1A8EEA91E0D4
:1018E0009F938F9388EA91E09F938F938DE691E089
:1018F0009F938F93EF92FF920E94051B6091A80126
:101900007091A9010FB6F894DEBF0FBECDBF643051
:10191000710584F48091AE019091AF01029754F467
:101920008EE991E00E9483196091AE018FE991E008
:101930000E9483196091AE017091AF01CE010D96A6
:101940000E94DB076091A8017091A901CE01019668
:101950000E94DB07BE016F5F7F4FCE0107960E949A
:101960005D08CE0107960E94B707BE01635F7F4FF7
:101970000E942508BC01CE0143960E945D08CE015D
:1019800007960E945808CE0101960E945808CE0181
:101990000D960E9458086B897C8987E992E00E9425
:1019A000780B0E94F50ACE0143960E94580868966B
:1019B0000FB6F894DEBF0FBECDBFDF91CF911F9160
:1019C0000F91FF90EF9008956091BF0181E068272B
:1019D00070E082E590E067CF6091BE0181E068270A
:1019E00070E083E590E05FCF3F924F925F926F92FD
:1019F0007F928F929F92AF92BF92CF92DF92EF929F
:101A0000FF920F931F93CF93DF93CDB7DEB72A9743
:101A10000FB6F894DEBF0FBECDBF8091EF0184FBFF
:101A2000CC24C0F884FFDAC30E9429020091A101EE
:101A30001091A2012091A3013091A401601B710BB0
:101A4000820B930B613A7B4B8D409105A0F00E9475
:101A500029026093A1017093A2018093A301909346
:101A6000A40186E00E940E09873209F4BFC089E113
:101A700091E00E94F405B6E0FB2E16E0E12E00E5B1
:101A8000D02E88248A949924939483E0A82E82E00F
:101A9000B82E87E10E940E0980FD7BC3FA94FF20D7
:101AA00009F477C321E041E070E060E080E60E9445
:101AB0009708182F813220F082EE0E94140910E05E
:101AC00021E0412F66E673E081E60E94970860E41A
:101AD00087E20E94D40880916903582E5694569448
:101AE000569449E1451510F4A9E15A2E97E0950D59
:101AF00082FD90E29113CDCF8370823051F67090C9
:101B00006A0310916B030091670340906603609035
:101B100068038091F701481651F08091F60108178B
:101B200031F0802F90E0642D03960E948319872D59
:101B30008770782E8091F00180688093F001809109
:101B4000F6016812A6C280916903282F2695269572
:101B500026952A3108F029E198E0299F9001112467
:101B60008770822B80936903E52DF0E0EA59FC4FE2
:101B7000178280916A0383FF15C091E2E6E6F3E0E5
:101B8000A5E4B3E001900D929A95E1F7877F80611B
:101B900080934903609246030093470385E493E0F2
:101BA0000E94EE0A90916A0394FD24C123E0721210
:101BB00029C180916B0321EF280F233008F469CFEE
:101BC0001430F9F480916C0390911801891719F081
:101BD0008F3F09F05ECF86E693E00E94010C9FEFF5
:101BE000980F9E3F50F40E941A0953CF85E00E943F
:101BF0000E098C3409F03BCF3ECF8FEF8093F60176
:101C000048CF1830D9F41091EF0110FF42CF86E68B
:101C100093E00E94010C8F3F09F43BCF8F5F8F3F11
:101C200009F437CF9091F801891708F032CF11FDF0
:101C300030CF8093F8010093F7012BCF183151F486
:101C400029E143E06FEF802F0E94D20061E00E9403
:101C5000CA051FC0193171F48091EF0183FF19CFBC
:101C6000877F8093EF0186E693E00E94010C8093CA
:101C7000F1010FCF1E3109F40CCF1D3169F42FE1B2
:101C800043E06FEF80E00E94D20060E07FEF0E94AF
:101C9000BD050E94560AFDCE209167032111AFC0F9
:101CA0008D3059F488E198E00FB6F894A8958093A8
:101CB00060000FBE90936000FFCF8B3179F486E611
:101CC00093E00E94010C91E0811101C090E08091AD
:101CD000F50190FB80F98093F501DBCE8630A1F40D
:101CE00090916D038C2D992321F081E09D3409F0B2
:101CF00080E08093F40141E050E063E071E084EF24
:101D000091E00E947319C5CE833119F40E946414C6
:101D1000C0CE8231D9F40E94E1052B013C0126E1BD
:101D200043E06FEF80E00E94D200FC0184818F715C
:101D3000806A848383818770806283834782508630
:101D400061867286CF010E94EE0AA3CE8230A1F492
:101D500022E043E06FEF80E00E94D200FC0184812A
:101D60008F71806A84838381877080628383878296
:101D70009086A186B286E6CF8130D9F49295969569
:101D80009770953059F460916D0370916E03809156
:101D90006F03909170030E94DC037BCE911105C00C
:101DA0008DE693E00E94D618F6CF60E070E0CB019C
:101DB000F2CF8A30E1F480916D03833409F069CE6B
:101DC00003E010E06FEFC8010E9483190F5F1F4FFF
:101DD000033041E01407B1F72AE043E06FEF80E001
:101DE0000E94D20063E771E00E94780BACCF8C3187
:101DF00009F44FCE86E693E00E94120C4ACE8A3157
:101E0000C9F747CE84E07812F5CF10916B031130FB
:101E100009F085C08091A50181113BCE48E050E0DA
:101E20006DE673E080EB91E00E94D91A892B11F3E3
:101E300088E0EDE6F3E0A0EBB1E001900D928A9529
:101E4000E1F78CB580938A038DB580938B0361E0B5
:101E5000809187030E9439010E944005D0928C0333
:101E600010938D030E94E40660E08BEA0E94030752
:101E70000E94E4068091880390918903892B91F553
:101E800061E081E00E94030780E00E94C8060E9492
:101E9000E40661E082E50E94030780E00E94C80634
:101EA00080E00E94C80680E00E94C8060E94E40606
:101EB0000E94F3068111FCCF8091B4019091B5018D
:101EC0009093A00180939F0181E08093A501E0920F
:101ED0009E0110929A0110929B0110929C01109207
:101EE0009D01D7CD0E94D2068FE90E94C80680E0EE
:101EF0000E94C806082F10E0102F002780E00E94E3
:101F0000C806082B0E94E4068091880390918903FB
:101F10008017910709F4B4CF1092A501BACD133000
:101F200009F068CF8091A501882309F4B2CD009112
:101F300071031091720360919F017091A001CB0118
:101F400001970817190709F0A4CDE4E0660F771F81
:101F5000EA95E1F76650710990E080E020E130E019
:101F600043E753E00E9422070E94F3068111FCCF51
:101F70001093A00100939F01012B09F0A8CF1092AC
:101F8000A5016AE0462E512C612C712C0FEF1FEF3A
:101F90008091B4019091B50154E0880F991F5A9532
:101FA000E1F7B0E0A0E0B301A2014A505109610994
:101FB0007109481759076A077B0740F560E083E01D
:101FC0000E940307862D0E94C806852D0E94C80620
:101FD000842D0E94C80680E00E94C806382E0E9408
:101FE000E406032588E098012170332716950795AC
:101FF000232B21F091E0092790EA1927815099F7C6
:102000002FEF421A520A620A720AC2CF8091B601B9
:102010009091B7010817190709F059CF48E050E02F
:102020006BE171E080EB91E00E9473198091B40143
:102030009091B50124E0880F991F2A95E1F726E4D5
:1020400029832CE42A8328E52B8329E42C832DE49F
:102050002D8327E42E832AE32F832A879887898775
:102060002AE030E0AE014F5F5F4F60E070E0CB01EF
:102070000E9422070E94F3068111FCCF88E198E0BC
:102080000FB6F894A895809360000FBE90936000FF
:10209000FFCF4FEF641264C083E0781246C0809196
:1020A000EF0182FF26C0173021F58091F701081754
:1020B00009F4EFCC0E946F11882309F4EACC0E9446
:1020C00029026093EB017093EC018093ED019093F2
:1020D000EE010E9429027370882799270E94F60159
:1020E00028E043E06FEF802F0E94D2006091F8015A
:1020F000AECD183009F4CDCC1431B9F48091F7018C
:10210000481213C00E9429027370882799270E94E1
:10211000F60125E143E06FEF802F0E94D20060912D
:10212000F7010E94CA050E94560A8091F7014812E1
:10213000B0CC8091F601081709F49AC08091EF01A4
:1021400082FF96C086E693E00E94560A93E07916D5
:1021500009F49FCC8091F701481609F44BCE99CC35
:102160008091EF0182FF95CC23E072120FC01851CD
:10217000123060F486E693E00E94010C8E3F31F04D
:1021800061E0680F86E693E00E94CA0586E693E068
:1021900080CD8091EF0182FF21C00E942902209111
:1021A000A5012223D9F000919A0110919B01209161
:1021B0009C0130919D016B017C01C01AD10AE20A99
:1021C000F30A97018601053F11402105310530F0E2
:1021D00020919E0121111AC01092A5012A960FB6D6
:1021E000F894DEBF0FBECDBFDF91CF911F910F914D
:1021F000FF90EF90DF90CF90BF90AF909F908F9027
:102200007F906F905F904F903F9008952150209362
:102210009E0160939A0170939B0180939C0190931F
:102220009D01C090B001D090B101E090B201F0905A
:10223000B30100919F011091A0010150110922E00A
:1022400044E06FEF80E00E94D200FC018381877040
:102250008063838384818F71806C8483D086C782FE
:10226000F286E18614870387CF010E94EE0AB6CF7B
:1022700083E07812BFCD0DCCCF92DF92EF92FF9228
:10228000CF93DF93D82F0E9429026B017C0110921B
:102290006B03C0E00E9429026C197D098E099F0919
:1022A000603D77408105910590F4C11110C0A8955B
:1022B0000E94D6050E94F40C80916A0387708330D7
:1022C00049F7C1E080916B038D13E3CFE3CF8C2FEF
:1022D000DF91CF91FF90EF90DF90CF900895CF9254
:1022E000DF92EF92FF92CF930E942902C090EB0100
:1022F000D090EC01E090ED01F090EE016C197D09B9
:102300008E099F09603177428105910510F481E0C3
:1023100008C08091EF0183FBCC27C0F983FF07C081
:1023200080E0CF91FF90EF90DF90CF900895909153
:10233000F60191111CC01092F1018091EF01877F8D
:102340008093EF01C091F101CF3F51F30E94290228
:102350006093EB017093EC018093ED019093EE019B
:102360008091F8018C1799F2C093F801D0CF886062
:102370008093EF018FEF8093F10128E143E06FEF4D
:1023800080E00E94D20061E00E94CA050E94560AC5
:102390000E9429026B017C0110926B030E942902AA
:1023A0006C197D098E099F09603D77408105910573
:1023B00020F6C111C2CF0E94F40CA89580916A0347
:1023C0008770833059F7C1E080916B03893131F315
:1023D000C0E0E4CFCF93DF93CDB7DEB768970FB6F9
:1023E000F894DEBF0FBECDBF0E946F11811104C0F3
:1023F00062E084E00E947C058091EF0182FF04C0CE
:1024000061E082E00E947C056091AE017091AF01B5
:10241000CE010D960E94DB076091A8017091A90181
:10242000CE0101960E94DB07BE016F5F7F4FCE0198
:1024300007960E945D08CE0107960E94B707BE016D
:10244000635F7F4F0E942508BC01CE0143960E9426
:102450005D08CE0107960E945808CE0101960E94A1
:102460005808CE010D960E9458086B897C8987E92F
:1024700092E00E94780B0E94F50A8EEE91E00E9495
:102480006B1991E0811101C090E09093C0018FEE33
:1024900091E00E946B1991E0811101C090E090934E
:1024A000BF0180EF91E00E946B1991E0811101C0A2
:1024B00090E09093BE018EEE91E00E946B1961E076
:1024C00070E0811102C070E060E08AEF92E00E944B
:1024D000BD050E94F50A8091A8019091A90102977B
:1024E00084F08FEE91E00E946B1961E070E0811141
:1024F00002C070E060E089ED92E00E94BD050E949C
:10250000F50A8091A8019091A901039784F080EFCA
:1025100091E00E946B1961E070E0811102C070E0EF
:1025200060E088EB92E00E94BD050E94F50A0E94DF
:10253000C40B61E088E00E940B01CE0143960E942B
:10254000580868960FB6F894DEBF0FBECDBFDF9176
:10255000CF9108958F929F92AF92BF92CF92DF92C8
:10256000EF92FF924B015C010E9429026B017C01FA
:102570000E9429026C197D098E099F096815790549
:102580008A059B0530F4A8950E94D6050E94F40C9C
:10259000EFCFFF90EF90DF90CF90BF90AF909F90E4
:1025A0008F900895BF92CF92DF92EF92FF920F9398
:1025B0001F93CF93DF9387E393E00E94870389E221
:1025C00093E00E9487038BE193E00E948703609170
:1025D0003F03862F8170B82EE82EF12C80913103B5
:1025E0008170C82E082F10E0809123038170D82EAF
:1025F000C82FD0E08091AE019091AF01892B09F0F6
:1026000046C08091AC019091AD018E159F0539F0C7
:102610006095617070E081E590E00E94060BF09299
:10262000AD01E092AC018091AA019091AB018017BD
:10263000910779F08091A8019091A90102974CF03F
:102640006091BF0181E0682770E082E590E00E9420
:10265000060B1093AB010093AA018091A601909103
:10266000A7018C179D0779F08091A8019091A9018D
:1026700003974CF06091BE0181E0682770E083E52C
:1026800090E00E94060BD093A701C093A601809111
:10269000AE019091AF01019709F04EC08091AC015D
:1026A0009091AD018E159F0559F0B11009C0609150
:1026B000C00181E0682770E081E590E00E94060B90
:1026C000F092AD01E092AC018091AA019091AB0132
:1026D0008017910789F0C1100FC08091A8019091D7
:1026E000A90102974CF06091BF0181E0682770E07A
:1026F00082E590E00E94060B1093AB010093AA01C3
:102700008091A6019091A7018C179D0789F0D110A7
:102710000FC08091A8019091A90103974CF060919E
:10272000BE0181E0682770E083E590E00E94060B1F
:10273000D093A701C093A6010E9401040E94470400
:102740008091C501882311F0C0E011C00E940104EE
:102750000E9447048091C4018111F6CF0E940104B8
:102760000E944704C1E08091C3018111EDCF0E9416
:1027700001040E9447048091C5018C3011F080E073
:1027800011C00E9401040E9447048091C40181117C
:10279000F6CF0E9401040E94470481E09091C3019A
:1027A0009111EDCFC11102C0882341F064EF71E0B7
:1027B00080E090E00E94AA120E94C40B2091BC010C
:1027C0003091BD018091BA019091BB012817390762
:1027D000E9F02115310529F4009749F00E947901AB
:1027E00006C02F3F310519F48F3F9105B9F76AE014
:1027F00070E080E090E0DF91CF911F910F91FF900A
:10280000EF90DF90CF90BF900C94F601DF91CF91C5
:102810001F910F91FF90EF90DF90CF90BF900895A0
:102820002BE043E06FEF80E00E94D20061E271E0B4
:102830000E94780B0E94EE0A2CE043E06FEF80E0EC
:102840000E94D2006DE171E00E94780B0E94EE0AB6
:1028500062E370E080E090E00E94AA1246E751E057
:1028600063E081E50E94AD0B62E370E080E090E000
:102870000E94AA128091A8019091A901029764F088
:102880004DE751E063E082E50E94AD0B62E370E04A
:1028900080E090E00E94AA128091A8019091A90185
:1028A000039734F044E851E063E083E50E94AD0B08
:1028B00062E370E080E090E00E94AA124BE851E0F1
:1028C00068E187E10C94AD0BCF93DF93C5E4D3E0CF
:1028D0008B81877080658B838C818871846C8C83FD
:1028E00088E0E0EBF1E0ACE4B3E001900D928A9572
:1028F000E1F783E090E0988B8F871092A50120E0AC
:1029000044E06FEF80E00E94D2000E94EE0A2FE0C8
:1029100043E06FEF80E00E94D20068E971E00E941E
:10292000780B8B81877080618B838C818F71806C39
:102930008C8381E08F831886CE010E94EE0A8FE09F
:102940000E943C1148E951E062E18FEF0E94AD0B1B
:1029500026E043E06FEF80E00E94D2006091F70133
:102960000E94CA050E94EE0A86E00E943C11DF9197
:10297000CF910C941014CF938091F50181FD1FC06D
:102980000E9464148091F50181608093F501C4E098
:102990002AE143E06FEF80E00E94D20062E00E94F3
:1029A000CA050E94EE0A8BE10E943C11811102C00F
:1029B000C15071F78091F50182608093F501CF914C
:1029C00008951F920F920FB60F9211242F933F93E9
:1029D0008F939F93AF93BF938091DD019091DE0120
:1029E000A091DF01B091E0013091DC0126E0230FDE
:1029F0002D3758F50296A11DB11D2093DC0180935F
:102A0000DD019093DE01A093DF01B093E00180919E
:102A1000E1019091E201A091E301B091E4010196FE
:102A2000A11DB11D8093E1019093E201A093E30108
:102A3000B093E401BF91AF919F918F913F912F91FE
:102A40000F900FBE0F901F90189529E8230F039643
:102A5000A11DB11DD2CF1F920F920FB60F9211245C
:102A60002F933F934F935F936F937F938F939F9396
:102A7000AF93BF93EF93FF93E0913701F09138014B
:102A80000995FF91EF91BF91AF919F918F917F91A8
:102A90006F915F914F913F912F910F900FBE0F90CB
:102AA0001F9018951F920F920FB60F9211242F931B
:102AB0003F934F935F936F937F938F939F93AF93C6
:102AC000BF93EF93FF93E0913501F09136010995A3
:102AD000FF91EF91BF91AF919F918F917F916F91F6
:102AE0005F914F913F912F910F900FBE0F901F90CC
:102AF00018951F920F920FB60F9211242F933F93A8
:102B00004F935F936F937F938F939F93AF93BF93F5
:102B1000EF93FF938AEF91E00E94AA02FF91EF9159
:102B2000BF91AF919F918F917F916F915F914F91E5
:102B30003F912F910F900FBE0F901F9018951F92ED
:102B40000F920FB60F9211242F938F939F93EF93B1
:102B5000FF93E0910A02F0910B028081E091100254
:102B6000F091110282FD1BC09081809113028F5F52
:102B70008F7320911402821741F0E0911302F0E06C
:102B8000E650FE4F958F80931302FF91EF919F9136
:102B90008F912F910F900FBE0F901F9018958081ED
:102BA000F4CF1F920F920FB60F9211240F900FBE09
:102BB0000F901F901895CF93DF93FC011082118224
:102BC0001282148215821682DC0117968AE1ED01C9
:102BD00019928A95E9F782E08383DF91CF91089576
:102BE000CF93EAEFF1E01382128288EE93E0A0E047
:102BF000B0E084839583A683B7838FE491E09183CB
:102C0000808385EC90E09587848784EC90E09787BB
:102C1000868780EC90E0918B808B81EC90E0938BA9
:102C2000828B82EC90E0958B848B86EC90E0978B86
:102C3000868B118E128E138E148EE7E8F3E080E5FA
:102C4000858381E0868388E0808385E69FE19283A7
:102C5000818386E693E00E94DB1585E493E00E9481
:102C6000DB15E7E3F3E021E631E0318320831282D4
:102C70001382148215828AE090E0978386831086FF
:102C80001186E9E2F3E031832083128213821482F9
:102C900015829783868310861186EBE1F3E03183FA
:102CA0002083128213821482158297838683108672
:102CB00011868AEF92E00E94DB15EAEFF2E081E5EF
:102CC0008683C2E0C58389ED92E00E94DB15E9EDC1
:102CD000F2E082E58683C58388EB92E00E94DB15F3
:102CE000E8EBF2E083E58683C58387E992E00E9402
:102CF000DB15E7E9F2E087E1868388E18583CF9100
:102D00000895789484B5826084BD84B5816084BD63
:102D100085B5826085BD85B5816085BD80916E0079
:102D2000816080936E0010928100809181008260AA
:102D300080938100809181008160809381008091E7
:102D400080008160809380008091B10084608093D6
:102D5000B1008091B00081608093B00080917A00D2
:102D6000846080937A0080917A00826080937A00F8
:102D700080917A008E7F80937A0080917A008068BB
:102D800080937A001092C100A89580E090E0892B92
:102D900011F00E940000E0910A02F0910B0282E023
:102DA0008083E0910602F09107021082E091080210
:102DB000F091090287E6808310921202E0910E02E0
:102DC000F0910F0286E08083E0910C02F0910D02F9
:102DD000808180618083E0910C02F0910D028081FE
:102DE00088608083E0910C02F0910D028081806800
:102DF0008083E0910C02F0910D0280818F7D8083B1
:102E0000C0E1D0E0F12CFE01F595E795E558FF4FC4
:102E1000E491C0FF7AC0EF70E83008F078C0F0E0CD
:102E2000E558FF4FF4906F2D8AEF91E00E94CC029D
:102E30002196C23FD10539F7C4E7D0E0FE01649185
:102E4000662339F08AEF91E00E94CC022196892B0B
:102E5000A9F742E050E066E971E08AEF91E00E9454
:102E600036028091F5018D7F8093F5010E94E00983
:102E700041E050E063E071E084EF91E00E945B1973
:102E800048E050E06BE171E080EB91E00E945B195B
:102E90006FEF81E090E00E9483198091F0018F78BC
:102EA0008093F0011092E6011092E50180E391E039
:102EB0000E94F4058BEB94E19093B9018093B801E3
:102EC0000E9429020E9429020E94D6050E94F40C49
:102ED0008091EF0182FB882780F9A895882391F3E0
:102EE0000E94EA11A895C0E0D0E0A8950E94D605FE
:102EF0000E94F40C0E94D2122097B9F30E94A00203
:102F0000882399F30E940000F0CFE29584CF1BEF55
:102F10001E0F00E06F2D8AEF91E00E94CC020F5F40
:102F20000117C0F385CF0F931F93CF93DF938230A8
:102F3000910510F482E090E0E0919003F09191030C
:102F400030E020E0B0E0A0E0309799F421153105A1
:102F500009F44AC0281B390B24303105D8F58A8181
:102F60009B816115710589F1FB0193838283FE01C9
:102F700011C0408151810281138148175907E0F047
:102F80004817590799F4109761F012960C9312970D
:102F900013961C933296CF01DF91CF911F910F9121
:102FA00008950093900310939103F4CF21153105F8
:102FB00051F04217530738F0A901DB019A01BD0116
:102FC000DF01F801C1CFEF01F9CF90939103809316
:102FD0009003CDCFFE01E20FF31F81939193225016
:102FE000310939832883D7CF20918E0330918F0305
:102FF000232B41F420913B0130913C0130938F030E
:1030000020938E032091390130913A012115310529
:1030100041F42DB73EB740913D0150913E01241B34
:10302000350BE0918E03F0918F03E217F307A0F4C4
:103030002E1B3F0B2817390778F0AC014E5F5F4F0E
:103040002417350748F04E0F5F1F50938F034093AE
:103050008E03819391939FCFF0E0E0E09CCFCF93DC
:10306000DF930097E9F0FC01329713821282A0915E
:103070009003B0919103ED0130E020E01097A1F4AE
:1030800020813181820F931F20918E0330918F0315
:103090002817390709F061C0F0938F03E0938E037E
:1030A000DF91CF910895EA01CE17DF07E8F54A8155
:1030B0005B819E0141155105B1F7E901FB83EA836C
:1030C00049915991C40FD51FEC17FD0761F4808118
:1030D00091810296840F951FE901998388838281EB
:1030E00093819B838A83F0E0E0E012968D919C911E
:1030F00013970097B9F52D913C911197CD01029648
:10310000820F931F20918E0330918F032817390768
:1031100039F6309751F51092910310929003B093C5
:103120008F03A0938E03BCCFD383C2834081518190
:10313000840F951FC817D90761F44E5F5F4F8881D0
:103140009981480F591F518340838A819B819383C2
:1031500082832115310509F0B0CFF0939103E093FC
:1031600090039ECFFD01DC01C0CF13821282D7CF26
:10317000FC0188279927E89421912032E9F329302E
:1031800010F02E30C8F32B3241F02D3239F4689410
:1031900004C00E941D19820F911D219120532A30D5
:1031A000C0F31EF4909581959F4F08951F93FC01E5
:1031B00099278827BC01E89411911032E9F319305E
:1031C00010F01E30C8F31B3251F01D3249F46894E0
:1031D00006C00E940819610F711D811D911D11917A
:1031E00010531A30B0F33EF4909580957095619528
:1031F0007F4F8F4F9F4F1F910895BB274A3031F467
:10320000992322F4BDE2909581959F4F0C94261945
:10321000592F482F372F262F660F771F881F991F8A
:10322000660F771F881F991F620F731F841F951FDA
:10323000660F771F881F991F08957AE0979F902D3A
:10324000879F802D910D11240895BB27FB015527E1
:10325000AA27880F991FAA1FA41710F0A41B8395F3
:103260005051B9F7A05DAA3308F0A95DA19300976A
:1032700079F7B111B1931192CB010C9448199111C6
:103280000C945819803219F089508550C8F7089568
:10329000DC01FC01672F71917723E1F7329704C0BD
:1032A0007C916D9370836291AE17BF07C8F3089548
:1032B000992788270895DC01CB01FC01F999FECFFD
:1032C00006C0F2BDE1BDF89A319600B40D924150AE
:1032D0005040B8F70895F999FECF92BD81BDF89A94
:1032E000992780B50895DC01A40FB51F41505040C7
:1032F00048F0CB01840F951F2E910E9484194150F4
:103300005040D0F70895262FF999FECF92BD81BD88
:10331000F89A019700B4021639F01FBA20BD0FB613
:10332000F894FA9AF99A0FBE08952F923F924F920D
:103330005F926F927F928F929F92AF92BF92CF9245
:10334000DF92EF92FF920F931F93CF93DF93CDB74E
:10335000DEB7CA1BDB0B0FB6F894DEBF0FBECDBFC6
:1033600009942A88398848885F846E847D848C8497
:103370009B84AA84B984C884DF80EE80FD800C81A0
:103380001B81AA81B981CE0FD11D0FB6F894DEBF83
:103390000FBECDBFED01089597FB072E16F40094E4
:1033A00007D077FD09D00E94021A07FC05D03EF431
:1033B000909581959F4F0895709561957F4F0895E1
:1033C000A1E21A2EAA1BBB1BFD010DC0AA1FBB1F29
:1033D000EE1FFF1FA217B307E407F50720F0A21B9B
:1033E000B30BE40BF50B661F771F881F991F1A9408
:1033F00069F760957095809590959B01AC01BD0132
:10340000CF010895AA1BBB1B51E107C0AA1FBB1F18
:10341000A617B70710F0A61BB70B881F991F5A9560
:10342000A9F780959095BC01CD010895EE0FFF1F7F
:103430000590F491E02D0994B0E0A0E0E2E2FAE119
:103440000C9497198C01009751F4CB010E949317AB
:103450008C01C801CDB7DEB7E0E10C94B319FC01D3
:10346000E60FF71F9C0122503109E217F30708F419
:103470009DC0D901CD91DC911197C617D70798F05F
:10348000C530D10530F3CE0104978617970708F3AE
:10349000C61BD70B2297C193D1936D937C93CF0119
:1034A0000E942F18D6CF5B01AC1ABD0A4C018C0EBE
:1034B0009D1EA0919003B0919103512C412CF12CB1
:1034C000E12C109731F580918E0390918F03881530
:1034D000990509F05CC04616570608F058C080915F
:1034E000390190913A01009741F48DB79EB7409110
:1034F0003D0150913E01841B950BE817F90708F038
:1035000055C0F0938F03E0938E03F90171836083BC
:10351000A0CF8D919C91119712966C901297139653
:103520007C901397A815B90559F56C0142E0C40EBB
:10353000D11CCA14DB0420F1AC014A195B09DA0181
:103540001296159780F06282738251834083D9016D
:103550006D937C93E114F10471F0D7011396FC9301
:10356000EE93129776CF22968C0F9D1FF9019183CF
:103570008083F301EFCFF0939103E093900369CF41
:103580004816590608F42C017D01D3019ACFCB01CE
:103590000E9493177C01009749F0AE01B8010E9488
:1035A000E61AC8010E942F18870153CF10E000E0EF
:1035B00050CFFB01DC0104C08D910190801921F4F2
:1035C00041505040C8F7881B990B0895FB01DC015E
:1035D00002C001900D9241505040D8F70895FB0170
:1035E000DC0101900D920020E1F70895FB01DC0160
:1035F0004150504048F001900D920020C9F701C0A1
:103600001D9241505040E0F70895AEE0B0E0EBE08D
:10361000FBE10C94A51985E08C838B899C899A83A6
:103620008983AE01495E5F4F6D897E89CE01019627
:103630000E94A91C2E96E2E00C94C11920FD09C03D
:10364000FC0123FD05C022FF02C073836283518306
:103650004083089544FD17C046FD1DC0DB01FC01F9
:10366000AA0FBB1FEE1FFF1F1094D1F76A0F7B1F1D
:103670008E1F9F1F660F771F881F991F620F711D76
:10368000811D911D089533E0660F771F881F991FD4
:103690003150D1F7F3CF34E0F7CF0F931F93CF938F
:1036A000DF938C01C8010E94B91DEC0197FD08C091
:1036B0000E943F19892BB1F7B801CE010E94F51D78
:1036C000CE01DF91CF911F910F9108958F929F921C
:1036D000AF92BF92EF92FF920F931F93CF93DF931E
:1036E0008C01D62F7A01B22E0E94B91D9C0133277E
:1036F0002B32310529F02D323105A9F46894B7F841
:10370000D15061F480E0DF91CF911F910F91FF9034
:10371000EF90BF90AF909F908F900895C8010E9446
:10372000B91D97FDEFCFCB2DCD7F2B2D2073F9F455
:103730008033E9F4AA24AA94AD0E89F0C8010E944E
:10374000B91D97FD0CC0282F2F7D283561F4C26468
:10375000D25029F0C8010E94B91D97FF08C0812CE2
:10376000912C54011BC0B6FE2BC0C260DA2D812CF7
:10377000912C540120ED280F283028F1C4FD09C0F8
:103780002A3008F1C6FF05C02F7D3FEE320F3630DC
:10379000C8F0B8010E94F51DC1FFB4CFC7FF08C033
:1037A000B094A09490948094811C911CA11CB11C95
:1037B0002C2FB501A401C7010E941E1B81E0A3CFDD
:1037C000C261D4CF27504C2FC501B4010E942A1BDF
:1037D0004B015C01C260D15009F3C8010E94B91DC0
:1037E00097FFC8CFD9CFA0E2B0E0E9EFFBE10C949E
:1037F0009A195C01962E7A01CE0101966C0180E245
:10380000F60111928A95E9F7F501B381890130E05B
:1038100020E0712C812CA0E041E050E0F801B3FDE4
:103820008591B3FF8191982F8F01811107C010E01E
:1038300000E0C801A096EDE00C94B6198E3519F49D
:103840002115310541F1A21713064CF48D3549F1CC
:103850008D3229F4811006C0882483941DC08820ED
:1038600009F464C0E92FE695E695E695EC0DFD2D8B
:10387000F11D892F8770BA0101C0660F8A95EAF79A
:103880008081682B6083791651F0971510F49F5F43
:10389000E9CF9150E7CFA1E02F5F3F4FBFCF812C01
:1038A000FBCF882019F08E8180628E83AA2359F085
:1038B000F6019E012F5D3F4F808180958083319678
:1038C000E217F307C9F788248394C5010E94B91D44
:1038D00097FD16C0E82FE695E695E695EC0DFD2DD3
:1038E000F11D208130E0AC014770552702C03595AD
:1038F00027954A95E2F720FD06C0B5010E94F51D07
:10390000882069F094CFE114F10429F0F701808355
:10391000C70101967C019A94812C9110D6CFE114B5
:10392000F10409F486CFF701108283CFE82FE695E2
:10393000E695E695EC0DFD2DF11D982F9770BA01D7
:1039400001C0660F9A95EAF79081692B6083782E03
:10395000A3CFB0E0A0E0EFEAFCE10C9498196C0171
:10396000EB015A01FC0117821682512CF601E3800B
:10397000FE01E3FC8591E3FE8191182FEF0188237E
:10398000E9F090E00E943F19892B21F0C6010E94C6
:103990004D1BECCF153241F4FE01E3FC1591E3FE23
:1039A0001191EF01153269F4C6010E94B91D97FD0E
:1039B0008EC01817D9F2B6010E94F51D852D90E032
:1039C0008AC000E01A3231F4E3FC1591E3FE119154
:1039D000EF0101E0F12C20ED210F2A3048F101FF29
:1039E00037C0FF2059F31836B1F11C3609F43DC039
:1039F000112321F3612F70E088E690E00E94AE1D54
:103A0000892BE1F2912C812C00FD06C0F50180800C
:103A10009180C50102965C011E3679F5F60146815A
:103A2000578170E060E0202FC4010E941E1B9ECFD2
:103A300002606F2D70E090E080E040E20E942A1B5F
:103A4000F62EFE01E3FC1591E3FE1191EF01C3CFC9
:103A5000FF24FA94C8CFFE01E3FC1591E3FE119117
:103A6000EF01183609F0C4CF08600460FE01E3FCE2
:103A70001591E3FE1191EF01BBCF1336C1F401FDA7
:103A800002C0FF24F394C6010E94B91D97FD1FC018
:103A90008114910429F0F4018083C40101964C0142
:103AA000FA94F110F0CF00FD61CF53945FCF1B3536
:103AB000B9F49E01A4016F2DC6010E94F31BEC0115
:103AC000892B89F7F6018381807309F477CF8FEF13
:103AD0009FEF511073CFCDB7DEB7EFE00C94B41960
:103AE000C6010E944D1B97FDF2CF1F36A9F130F49D
:103AF000143641F0193639F0006405C01337B9F0B7
:103B00001537D1F70062202FA4016F2DC6010E9446
:103B1000661B8111C8CFD6CF8114910429F0F4011E
:103B20006082C40101964C01FA94FF2071F0C60135
:103B30000E94B91D3C0197FD08C00E943F19892BC6
:103B400059F3B601C3010E94F51D8114910409F4D3
:103B5000AACFF4011082A7CF0061D5CFFC01059058
:103B6000061621F00020D9F7C00108953197CF0142
:103B70000895CF93DF93EC012B8120FF1AC026FF1D
:103B80000CC02F7B2B838E819F8101969F838E8318
:103B90008A8190E0DF91CF91089522FF18C0E881DB
:103BA000F9818081082E000C990B009729F420627E
:103BB0002B838FEF9FEFEECF3196F983E8832E8131
:103BC0003F812F5F3F4F3F832E839927E3CFEA85C5
:103BD000FB85099597FFF3CF2B81019621F080E2B9
:103BE000822B8B83E6CF80E1FBCFFB01238120FF7B
:103BF00011C026FD0FC08F3F980771F082832F7D83
:103C0000206423832681378121503109378326831D
:0E3C1000992708958FEF9FEF0895F894FFCF46
:103C1E00FFFFFF00FCE1A8A8D00B8B06650B5C062E
:103C2E004A064006EB0BA506FFE5082006312E37A7
:103C3E000052656C6179204163747561746F720016
:103C4E00C0093409FF350235020000920380001FBF
:103C5E001C1F1E1F1E1F1F1E1F1E1F00000000CC3C
:103C6E0002360263021903940272028602000000F9
:103C7E0000430375013A00322E332E310025643A8B
:103C8E002564004F4B0052656C6179310052656CB2
:103C9E006179320052656C6179330052656C6179DD
:0A3CAE003A4D6F6465000D0A000036
:00000001FF
