:100000000C94A8000C9413150C94EC140C94D000D0
:100010000C94D0000C94D0000C9492150C94D00049
:100020000C94D0000C94D0000C94D0000C94D00010
:100030000C94D0000C94D0000C94D0000C94D00000
:100040000C94A2140C94D0000C9460150C943A15E6
:100050000C94D0000C94D0000C94D0000C94D000E0
:100060000C94D0000C94D0006364696E6F7073754B
:1000700078585B00322E332E310A00207C5F5C2FD3
:10008000602C0A0702200220B287100340012000E2
:100090002402221002220202200222002220020256
:1000A000202227101341010101032220304020307B
:1000B0005203402214020310522402217101001045
:1000C000101210122210100224010103220300203A
:1000D000010100322037121001213226012840325E
:1000E000221210121222432224121001222470C163
:1000F00022240F0F0000000023002600290000002A
:100100000000240027002A0000000000250028002D
:100110002B00040404040404040402020202020288
:1001200003030303030301020408102040800102BB
:10013000040810200102040810200000000800023A
:100140000100000304070000000000000000B115DA
:1001500011241FBECFEFD8E0DEBFCDBF11E0A0E07D
:10016000B1E0E8E9FBE302C005900D92A83AB107BF
:10017000D9F723E0A8EAB1E001C01D92AC39B2077B
:10018000E1F710E0C8EAD0E004C02197FE010E9428
:10019000D319C73AD107C9F70E9442160C94CA1D59
:1001A0000C940000942FEFE4F3E0309100023183CF
:1001B0008283668325834481487F492B477E44831D
:1001C000CF010895833081F028F4813099F0823096
:1001D000A9F008958730A9F08830C9F08430B1F4CF
:1001E000809180008F7D03C0809180008F77809305
:1001F0008000089584B58F7784BD089584B58F7D80
:10020000FBCF8091B0008F778093B00008958091EC
:10021000B0008F7DF9CF1F93CF93DF93282F30E06D
:10022000F901E65CFE4F8491F901EA5DFE4FD4913D
:10023000F901EE5EFE4FC491CC23A9F0162F811177
:100240000E94E200EC2FF0E0EE0FFF1FE85FFE4F90
:10025000A591B4918FB7F894EC91111108C0D09585
:10026000DE23DC938FBFDF91CF911F910895DE2BAA
:10027000F8CFCF93DF9390E0FC01EA5DFE4F24912D
:100280008E5E9E4FFC0184918823C9F090E0880F18
:10029000991FFC01E250FF4FA591B491FC01E85F6A
:1002A000FE4FC591D49161110DC09FB7F8948C9108
:1002B000209582238C938881282328839FBFDF91F8
:1002C000CF910895623051F49FB7F8943C91822FFA
:1002D000809583238C93E8812E2BEFCF8FB7F894F2
:1002E000EC912E2B2C938FBFEACF862F642F0C948A
:1002F00039013FB7F8948091EB019091EC01A09106
:10030000ED01B091EE0126B5A89B05C02F3F19F075
:100310000196A11DB11D3FBFBA2FA92F982F882785
:10032000BC01CD01620F711D811D911D43E0660F5F
:10033000771F881F991F4A95D1F708958F929F9232
:10034000AF92BF92CF92DF92EF92FF926B017C014E
:100350000E9479014B015C01C114D104E104F10454
:10036000B9F00E947901681979098A099B09683EE8
:1003700073408105910580F321E0C21AD108E1089C
:10038000F10888EE880E83E0981EA11CB11CE4CF12
:10039000FF90EF90DF90CF90BF90AF909F908F90A5
:1003A00008952FB7F8946091E7017091E80180916A
:1003B000E9019091EA012FBF08950895AF92BF928D
:1003C000CF92DF92EF92FF920F931F93CF93DF9321
:1003D0006C017B018B01040F151FEB015E01AE1850
:1003E000BF08C017D10759F06991D601ED91FC9172
:1003F0000190F081E02DC6010995892B79F7C5019F
:10040000DF91CF911F910F91FF90EF90DF90CF90F0
:10041000BF90AF900895FC01538D448D252F30E09F
:10042000842F90E0821B930B541710F0CF96089501
:1004300001970895FC01918D828D981761F0A28D2E
:10044000AE0FBF2FB11D5D968C91928D9F5F9F73F4
:10045000928F90E008958FEF9FEF0895FC01918DAA
:10046000828D981731F0828DE80FF11D858D90E017
:1004700008958FEF9FEF0895FC01918D228D892FB4
:1004800090E0805C9F4F821B91098F73992708959C
:1004900084E092E00E943C0221E0892B09F420E0F4
:1004A000822F0895FC01A48DA80FB92FB11DA35A66
:1004B000BF4F2C91848D90E001968F739927848F84
:1004C000A689B7892C93A089B1898C9183708064A7
:1004D0008C93938D848D981306C00288F389E02D48
:1004E00080818F7D80830895EF92FF920F931F93F9
:1004F000CF93DF93EC0181E0888F9B8D8C8D9813D7
:100500001AC0E889F989808185FF15C09FB7F894E2
:10051000EE89FF896083E889F9898081837080642E
:1005200080839FBF81E090E0DF91CF911F910F9179
:10053000FF90EF900895F62E0B8D10E00F5F1F4F88
:100540000F731127E02E8C8D8E110CC00FB607FC97
:10055000FACFE889F989808185FFF5CFCE010E9425
:100560005202F1CFEB8DEC0FFD2FF11DE35AFF4F3F
:10057000F0829FB7F8940B8FEA89FB8980818062B3
:10058000CFCFCF93DF93EC01888D8823B9F0AA8970
:10059000BB89E889F9898C9185FD03C0808186FD3E
:1005A0000DC00FB607FCF7CF8C9185FFF2CF80818D
:1005B00085FFEDCFCE010E945202E9CFDF91CF91AE
:1005C000089580E090E0892B29F00E944802811173
:1005D0000C9400000895CF93DF93FC01218530E057
:1005E000F901E65CFE4F8491F901EA5DFE4FD4917A
:1005F000F901EE5EFE4FC491CC2379F081110E9487
:10060000E200EC2FF0E0EE0FFF1FEC50FF4FA59142
:10061000B491EC91ED2381E009F480E08170DF91E9
:10062000CF9108951F93CF93DF93EC01162F62E0D3
:10063000812F0E94390119871886CE010E94EB0292
:10064000882319F08885836088870E94D1016A8396
:100650007B838C839D83DF91CF911F910895CF92EF
:10066000DF92EF92FF921F93CF93DF93EC01888587
:100670008B7F8887CE010E94EB02182F8885869594
:1006800081701817B1F00E94D1016A837B838C833B
:100690009D83888592E089278887888582FB8827C3
:1006A00080F9DF91CF911F91FF90EF90DF90CF9075
:1006B00008950E94D101CA80DB80EC80FD80AB01EF
:1006C000BC014C195D096E097F098E819F81B0E0E4
:1006D000A0E0481759076A077B07F8F28885817000
:1006E0001817D9F20E94D1016A837B838C839D8382
:1006F000888591E08927846088870E94D1016A8774
:100700007B878C879D87C9CF6093E2017093E3015B
:100710008093E4019093E501645D7E4F8F4F9F4F7E
:100720006093DE017093DF018093E0019093E1011B
:1007300082E090E09093DD018093DC010E94D10182
:100740006093D8017093D9018093DA019093DB0113
:100750000895CF92DF92EF92FF920F931F930E9422
:10076000D1018B019C01C090D801D090D901E090BB
:10077000DA01F090DB016091E2017091E301809178
:10078000E4019091E5010C191D092E093F09083E6D
:10079000134021053105E0F0DC01CB010196A11DDC
:1007A000B11D8093E2019093E301A093E401B09323
:1007B000E501B701A60148515C4F6F4F7F4F409351
:1007C000D8015093D9016093DA017093DB01C7CF50
:1007D0001F910F91FF90EF90DF90CF9008954F926F
:1007E0005F926F927F928F929F92AF92BF92CF92C1
:1007F000DF92EF92FF920F931F93CF93DF934B0102
:100800005C018091D4019091D501A091D601B09165
:10081000D70188159905AA05BB0509F4C6C08CE364
:10082000C82ED12CE12CF12CC501A70196010E9404
:100830009D196093CD01CA01B901A70196010E94DB
:100840009D196093CE01C501B40120E13EE040E076
:1008500050E00E949D19CA01B90128E130E040E052
:1008600050E00E949D196093CF01C501B40120E8BA
:1008700031E541E050E00E949D1969017A01CA0109
:10088000B9016C5F7F4F8F4F9F4F27E030E040E012
:1008900050E00E949D196F5F6093D001412C512C54
:1008A000320140E004E610E0C0E9D1E0242F30E05E
:1008B0002E54384FF901E370FF273097F9F4C9013E
:1008C000B8010E948919892B31F4C901BE010E9427
:1008D0008919892B99F48EE691E0A0E0B0E0480EEA
:1008E000591E6A1E7B1ED301C201AA27BB27C81648
:1008F000D906EA06FB0638F04F5FD8CF8DE691E0C7
:10090000A0E0B0E0ECCF4093D301C90164E670E011
:100910000E948919EC01C90160E971E00E948919FE
:10092000309721F42097D9F40097C9F04DE651E0B3
:1009300060E070E0441A550A660A770AC418D508C0
:10094000E608F708AFE3B1E020E0213069F4309722
:10095000E9F5209711F40097C9F54DE106C04EE680
:1009600051E060E070E0E6CF4C9150E070E060E074
:1009700031E0320FC416D506E606F70640F0C41A79
:10098000D50AE60AF70A1196232F3C30F1F62F5FBD
:100990002093D201C394C092D1018092D40190924D
:1009A000D501A092D601B092D701DF91CF911F91CE
:1009B0000F91FF90EF90DF90CF90BF90AF909F90FE
:1009C0008F907F906F905F904F9008954CE1CDCFC6
:1009D000CF93CFB7F8948091CC01811127C0ECE17F
:1009E000F1E08491E0E3F1E09491E82FF0E0EE0F84
:1009F000FF1FE250FF4FA591B491EC91E92321F440
:100A000061E08AE00E940B0161E08AE00E94390106
:100A10008CB580618CBD8CB580648CBD61E08DE04F
:100A20000E94390161E08BE00E9439018091CC0184
:100A30008F5F8093CC01CFBFCF9108958FB7F8948B
:100A40008091CB018FBF0895CF92DF92EF92FF92FA
:100A50000F931F93CF93DF93D0E0C0E0062F10E0F9
:100A6000E82EF12CC017D1072CF5D12CC12CCE14B7
:100A7000DF04C4F461E088E00E940B0164E170E0EF
:100A800080E090E00E949E0160E088E00E940B01FF
:100A900064E670E080E090E00E949E018FEFC81A4B
:100AA000D80AE5CF64E670E080E090E00E949E0105
:100AB0002196D8CFDF91CF911F910F91FF90EF90AA
:100AC000DF90CF9008950C948403FC0184818F7192
:100AD0008064848383818770806183837087678368
:100AE000CF010895FC0183818770886083838481AE
:100AF0008F71806284836783CF010895E091EF0155
:100B0000F091F001309721F00280F381E02D0994FB
:100B100008950F931F930E94D1010091F10110914C
:100B2000F2012091F3013091F401601B710B820BF3
:100B3000930B1F910F9108959C018091EF0190916B
:100B4000F00182179307F1F09091F9019F71909352
:100B5000F9013093F0012093EF01E091EF01F09162
:100B6000F001309721F00190F081E02D09950E946D
:100B7000D1016093F1017093F2018093F30190939E
:100B8000F40108958091F901805E8093F901E5CF29
:100B90000F931F930E9489052091FA012077203737
:100BA00079F000E117E220E030E006171707280788
:100BB000390758F480E391E01F910F910C949C0544
:100BC00000E61AEE20E030E0F0CF1F910F9108957B
:100BD0008091FA018F708B3020F084E191E00C94C9
:100BE0009C0508958091F90184608093F9018091BA
:100BF000FA0180788093FA01E091C601F091C70173
:100C0000309709F009940895CF93C091FB01CF3F2D
:100C1000A1F00E94D1016093F5017093F6018093D9
:100C2000F7019093F80180910202C813C093020269
:100C300080E191E0CF910C949C050E948905613D73
:100C400077408105910568F08091F901803618F4AC
:100C50008CE091E0EFCF877F8093F90184E191E010
:100C6000E9CFCF910895809100028F3F21F08CE071
:100C700091E00C949C050E948905613D77408105B7
:100C8000910550F08091F901803618F488E091E0E8
:100C9000F0CF89E191E0EDCF08950E948905613D93
:100CA00077408105910520F48091F90181FF17C0FB
:100CB000809101028F3F49F08091F9018E7F8093EE
:100CC000F90188E091E00C949C058091F90180364F
:100CD00018F484E191E0F7CF89E191E0F4CF089531
:100CE0008EBD00000DB407FEFDCF8EB508958CBDFE
:100CF0009DBD0895CF93DF938CB5C1E9D3E08B837D
:100D00008DB58C838D819E810E94770660E08881FD
:100D1000DF91CF910C940B01CF93DF93C1E9D3E026
:100D200061E088810E940B018B818CBD8C818DBD1F
:100D3000DF91CF910895CF930E947A0685E00E94BB
:100D4000700680E00E947006C82F0E948C068C2FCF
:100D50008170CF910895CF93DF93C82F662331F030
:100D600060E086E00E94AB060E948C060E947A0634
:100D700085E00E94700680E00E947006D82F0E94D5
:100D80008C06D0FDF3CF0E947A068C2FDF91CF9195
:100D90000C9470064F925F926F927F928F929F9207
:100DA000AF92BF92CF92DF92EF92FF920F931F9379
:100DB000CF93DF932B013C014A01E9019B013327CB
:100DC00080E091E0821B930BF12CE12C8E018C17BB
:100DD0009D0708F48C0161E082E00E94AB06862D3D
:100DE0000E947006852D0E947006842D0E94700658
:100DF0005401AE0CBF1C6501F60181916F010E9488
:100E00007006C6018A199B0980179107A8F30E94F2
:100E10008C06400E511E611C711CE00EF11EC01BA1
:100E2000D10B80E091E091F6DF91CF911F910F916E
:100E3000FF90EF90DF90CF90BF90AF909F908F90FA
:100E40007F906F905F904F900895FC01019000207B
:100E5000E9F73197AF01481B590BBC0184E092E0E0
:100E60000C94DE010F931F93CF93DF93EC018881E5
:100E70009981009759F02A813B812617370730F076
:100E800081E0DF91CF911F910F9108958B016F5FEA
:100E90007F4F0E94D919009759F0998388831B834B
:100EA0000A832C813D81232B59F7FC011082E8CF66
:100EB00080E0E7CFCF93DF93EC01888199810097A1
:100EC00011F00E94EC17198218821D821C821B826D
:100ED0001A82DF91CF9108950F931F93CF93DF93E1
:100EE000EC010C811D810F5F1F4FB8010E9432077A
:100EF000882391F0288139818C819D8163E871E09C
:100F0000820F931F0E94AC1A1D830C83CE01DF91C8
:100F1000CF911F910F910895CE010E945A07F6CFED
:100F2000CF92DF92EF92FF920F931F93CF93DF93B5
:100F3000CDB7DEB762970FB6F894DEBF0FBECDBF58
:100F40008C01CB01F801118210821382128215826A
:100F500014824AE09E012F5F3F4F6901B9010E9450
:100F6000BA18F60101900020E9F731977F01EC18DB
:100F7000FD08B701C8010E943207811112C0C801E3
:100F80000E945A0762960FB6F894DEBF0FBECDBF1F
:100F9000DF91CF911F910F91FF90EF90DF90CF9055
:100FA0000895F801F582E482B601808191810E9462
:100FB000AC1AE8CFEF92FF920F931F93CF93DF937A
:100FC000EC01FB01E080F180E114F10411F10481F6
:100FD000158101151105A9F08C819D81080F191F3C
:100FE000B801CE010E943207882399F02881398107
:100FF0008C819D81B701820F931F0E94AC1A1D83C3
:101000000C83CE01DF91CF911F910F91FF90EF9054
:101010000895CE010E945A07F4CFFC01808191818E
:101020000C94EC17EF92FF920F931F93CF93DF93E3
:10103000EC01198218821B821A821D821C8286177B
:10104000970719F1FB010081118101151105E9F0E4
:10105000E480F580B7010E943207811109C0CE01FA
:10106000DF91CF911F910F91FF90EF900C945A0751
:10107000FD82EC82B80188819981DF91CF911F9127
:101080000F91FF90EF900C94AC1ADF91CF911F91CC
:101090000F91FF90EF900895CF92DF92EF92FF9221
:1010A0000F931F93CF93DF93C82F7B01142F022F31
:1010B00080E590E00E9477062A9880E190E0019711
:1010C000F1F78C2F0E947006E7011150A0F0002369
:1010D00049F08FEF0E947006E114F104B1F38883A8
:1010E0002196F3CF6E018FEFC81AD80A88810E942B
:1010F0007006E601EACF2A9AE0E1F0E03197F1F7D5
:10110000DF91CF911F910F91FF90EF90DF90CF90E3
:101110000895CF93DF931F92CDB7DEB7698320E0A8
:1011200041E0BE016F5F7F4F0E944C080F90DF913E
:10113000CF9108958091FA01982F9077903759F0C8
:10114000982F92959F709F5F97709295907F8F7860
:10115000892B8093FA018091F9018B7F8F7E809398
:10116000F90129986CE080E20C9489086FE080E234
:101170000E948908609134016F3F19F08AE20E9451
:101180008908299A089521E041E070E060E00C941C
:101190004C0820E040E070E060E00C944C08CF93F5
:1011A000C82F809300028F3F51F08093340163E099
:1011B00082E20E94890861E081E20E9489080E941F
:1011C000B6086C2F90E080E00E94401981E0CF913A
:1011D0000895CF93219A229A29982A9A0E94E80486
:1011E00029986EE080E20E94890884E293E20197E8
:1011F000F1F763E083E20E9489086FE584E20E94D0
:1012000089086CE485E20E94890867E286E20E9410
:10121000890864E08DE30E9489088DE10E94C3087B
:10122000843041F063E780E50E94890864E08DE343
:101230000E94890886E00E94C308873209F04DC0E9
:1012400085E00E94C3088C3409F047C062E082E266
:101250000E94890860E081E20E94890863E08CE3D3
:101260000E948908CFEFC093030120E045E063E0CE
:1012700071E08BE20E944C0820E045E063E071E001
:101280008AE20E944C0820E045E063E071E080E3E0
:101290000E944C0882EE0E94C90881EE0E94C90893
:1012A00060E787E20E9489088091F901806180935C
:1012B000F901809103028E7F8093030280910002E6
:1012C0008F3F19F484E191E00AC09FEF980F9E3F91
:1012D00048F40E94CF088111F5CF89E191E0CF91C8
:1012E0000C949C05C0930002F8CFCF93DF9361E08C
:1012F00088E00E94390160E170E081E493E00E949F
:101300001203C5E0D0E0D0934803C093470361E1E6
:1013100070E083E393E00E941203D0933A03C093FA
:10132000390362E170E085E293E00E941203D093FA
:101330002C03C0932B038EE991E00E942819C82F3B
:10134000D0E0D093B701C093B6018FE991E00E943D
:10135000281990E09093BD018093BC01249714F468
:10136000029754F081E090E09093B7018093B6012A
:101370001092BD011092BC018EEE91E00E942819DE
:1013800061E0811101C060E087E00E940B018FEEF7
:1013900091E00E94281961E0811101C060E086E0BF
:1013A0000E940B0180EF91E00E94281961E08111F9
:1013B00001C060E085E0DF91CF910C940B01EF92CA
:1013C000FF920F931F93CF93DF937C01FC01C281A7
:1013D0008091F90180FF72C080E0CF3F09F067C0C3
:1013E000DFEF80910002F70180834381C0E242FD7C
:1013F00005C0469546954695C7E0C40F1091030277
:10140000012F0170299880E091E00197F1F76EE0DB
:1014100080E20E94890884EC90E00197F1F76D2F3B
:101420008AE20E9489086D2F80E30E94890881EE7C
:101430000E94C908DF3F11F080EA011180EB4C2FB8
:10144000C13208F040E220E0B7010E944C08299A1E
:10145000F12CE12C8FEF0E94C908C82F807321F472
:10146000F1E0EF1AF108B1F7299860E387E20E94F2
:101470008908C4FF03C081EE0E94C9080E94B60813
:10148000C5FD11E081E0DF3F09F080E01170812BA4
:10149000909101029D130BC09091FA01811125C01A
:1014A00021E0290F2F70907F922B9093FA01DF910A
:1014B000CF911F910F91FF90EF900895D09101026D
:1014C000CC2309F48ECFCF3F09F48ACF8C2F90E044
:1014D00003960E9428198F3F31F4F70180818D1304
:1014E00080CFDC2F7ECFD82F7CCF907FDECF209196
:1014F000F90122FD0C94DF0980E00895FC01809140
:10150000000281839481907F916094838091FF0198
:1015100080FF03C0CF010C94770A80E008958FEF1D
:101520008093FB01E9EFF1E080818860808328E10E
:1015300043E06FEF80E00E94D20061E00E947205FC
:101540000C94DF09E9EFF1E08081877F8F7E808353
:101550001092F5011092F6011092F7011092F80125
:101560000E94D1016093AF017093B0018093B101EB
:101570009093B20144E050E070E060E080E092E0DF
:101580000C9418190F931F93CF93DF93EC01E0E0B5
:101590006115710551F0FB0101900020E9F73197C9
:1015A000E61BF70BE931F10500F50E2F10E08B81FA
:1015B0008770980193E0220F331F9A95E1F7822BF1
:1015C0008B838C818F718C83EE2329F0A801CE014F
:1015D00007960E94B31AFE01E00FF11F1782CE0199
:1015E000DF91CF911F910F910895E9E1DECF1F9315
:1015F000CF93DF93182F262FEA0140E0682F80E079
:101600000E94D2001F3F11F4C5E6D1E0BE010E9446
:10161000C20ADF91CF911F910C94770A21E043E039
:101620006FEF80E00E94D20067E871E00E94C20A7A
:101630000C94770A809100028F3FB1F40E94D1018F
:101640006F3F79F06093180123E043E06091180147
:1016500080E00E94D20067E871E00E94C20A0C9408
:10166000DF0910921801F0CF0895E9EFF1E08081D1
:10167000897F81608083E0E0F2E08FEF8283818365
:1016800027E043E06FEF0E94D20067E871E00E941C
:10169000C20A0C94DF09FC0124812295269527704B
:1016A000213011F487810895211104C007960E940A
:1016B0007518089580E00895EF92FF920F931F939D
:1016C000CF93DF93CDB7DEB768970FB6F894DEBF40
:1016D0000FBECDBF8C01FC0185818230A9F4F6805C
:1016E000F7E0FF1689F0F801848184FD0DC0C80180
:1016F0000E944B0B61E070E0811102C070E060E07D
:101700008F2D90E00E941812F80185818331B9F481
:1017100086818035A1F0948194FD11C0823509F451
:101720009DC0833509F4A2C0813549F46091CA0196
:1017300081E0682770E081E590E00E941812F801CE
:101740008581883109F07DC08681873109F079C0B3
:10175000095F1F4FF80101900020E9F7CF01801BBE
:10176000910B0E945017F82EE92EB8010E94AC1A76
:101770008CEB91E09F938F9386EB91E09F938F93F7
:101780008BE691E09F938F93EF92FF920E94C21A93
:101790006091B6017091B7010FB6F894DEBF0FBE2D
:1017A000CDBF6430710584F48091BC019091BD017E
:1017B000029754F48EE991E00E9440196091BC01B7
:1017C0008FE991E00E9440196091BC017091BD01C8
:1017D000CE010D960E9490076091B6017091B701FD
:1017E000CE0101960E949007BE016F5F7F4FCE0130
:1017F00007960E941208CE0107960E946C07BE0150
:10180000635F7F4F0E94DA07BC01CE0143960E94BE
:101810001208CE0107960E940D08CE0101960E9483
:101820000D08CE010D960E940D086B897C8981EA16
:1018300092E00E94C20A0E947E0ACE0143960E9454
:101840000D0868960FB6F894DEBF0FBECDBFDF91CE
:10185000CF911F910F91FF90EF9008956091C90172
:1018600081E0682770E082E590E067CF6091C80171
:1018700081E0682770E083E590E05FCF3F924F9270
:101880005F926F927F928F929F92AF92BF92CF9210
:10189000DF92EF92FF920F931F93CF93DF93CDB719
:1018A000DEB72A970FB6F894DEBF0FBECDBF80918A
:1018B000F90184FBCC24C0F884FFDAC30E94D10173
:1018C0000091AF011091B0012091B1013091B201AE
:1018D000601B710B820B930B613A7B4B8D40910522
:1018E000A0F00E94D1016093AF017093B00180938A
:1018F000B1019093B20186E00E94C308873209F4D7
:10190000BFC089E191E00E949C05B6E0FB2E16E085
:10191000E12E00E5D02E88248A949924939483E0C4
:10192000A82E82E0B82E87E10E94C30880FD7BC309
:10193000FA94FF2009F477C321E041E070E060E011
:1019400080E60E944C08182F813220F082EE0E941F
:10195000C90810E021E0412F60E773E081E60E94B2
:101960004C0860E487E20E94890880917303582E36
:1019700056945694569449E1451510F4A9E15A2E0F
:1019800097E0950D82FD90E29113CDCF8370823068
:1019900051F670907403109175030091710340909B
:1019A00070036090720380910102481651F080919B
:1019B0000002081731F0802F90E0642D03960E94FA
:1019C0004019872D8770782E8091FA018068809366
:1019D000FA01809100026812A6C280917303282F39
:1019E0002695269526952A3108F029E198E0299F29
:1019F000900111248770822B80937303E52DF0E012
:101A0000E059FC4F17828091740383FF15C091E267
:101A1000E0E7F3E0AFE4B3E001900D929A95E1F7CF
:101A2000877F80618093530360925003009351033A
:101A30008FE493E00E94770A9091740394FD24C18F
:101A400023E0721229C18091750321EF280F233002
:101A500008F469CF1430F9F480917603909118015D
:101A6000891719F08F3F09F05ECF80E793E00E945D
:101A70004B0B9FEF980F9E3F50F40E94CF0853CF1F
:101A800085E00E94C3088C3409F03BCF3ECF8FEF36
:101A90008093000248CF1830D9F41091F90110FF5B
:101AA00042CF80E793E00E944B0B8F3F09F43BCF7E
:101AB0008F5F8F3F09F437CF90910202891708F0AA
:101AC00032CF11FD30CF80930202009301022BCF61
:101AD000183151F429E143E06FEF802F0E94D200CA
:101AE00061E00E9472051FC0193171F48091F90103
:101AF00083FF19CF877F8093F90180E793E00E94ED
:101B00004B0B8093FB010FCF1E3109F40CCF1D311D
:101B100069F42FE143E06FEF80E00E94D20060E0C3
:101B20007FEF0E9465050E94DF09FDCE20917103C1
:101B30002111AFC08D3059F488E198E00FB6F894C8
:101B4000A895809360000FBE90936000FFCF8B310B
:101B500079F480E793E00E944B0B91E0811101C082
:101B600090E08091FF0190FB80F98093FF01DBCE34
:101B70008630A1F4909177038C2D992321F081E098
:101B80009D3409F080E08093FE0141E050E063E085
:101B900071E08EEF91E00E943019C5CE833119F4C7
:101BA0000E942514C0CE8231D9F40E9489052B01F0
:101BB0003C0126E143E06FEF80E00E94D200FC018F
:101BC00084818F71806A848383818770806283833C
:101BD0004782508661867286CF010E94770AA3CE23
:101BE0008230A1F422E043E06FEF80E00E94D20057
:101BF000FC0184818F71806A848383818770806215
:101C0000838387829086A186B286E6CF8130D9F41D
:101C1000929596959770953059F4609177037091ED
:101C200078038091790390917A030E9484037BCE9C
:101C3000911105C087E793E00E949318F6CF60E00A
:101C400070E0CB01F2CF8A30E1F4809177038334E6
:101C500009F069CE03E010E06FEFC8010E9440195F
:101C60000F5F1F4F033041E01407B1F72AE043E054
:101C70006FEF80E00E94D20061E771E00E94C20A2B
:101C8000ACCF8C3109F44FCE80E793E00E945C0B1F
:101C90004ACE8A31C9F747CE84E07812F5CF109149
:101CA0007503113009F085C08091B30181113BCEDD
:101CB00048E050E067E773E08EEB91E00E94961AEF
:101CC000892B11F388E0E7E7F3E0AEEBB1E0019098
:101CD0000D928A95E1F78CB5809394038DB580932E
:101CE000950361E0809191030E9439010E94E8040C
:101CF000D0929603109397030E948C0660E08BEAC3
:101D00000E94AB060E948C068091920390919303EF
:101D1000892B91F561E081E00E94AB0680E00E9492
:101D200070060E948C0661E082E50E94AB0680E0AE
:101D30000E94700680E00E94700680E00E9470069B
:101D40000E948C060E949B068111FCCF8091C201EB
:101D50009091C3019093AE018093AD0181E0809397
:101D6000B301E092AC011092A8011092A901109267
:101D7000AA011092AB01D7CD0E947A068FE90E948A
:101D8000700680E00E947006082F10E0102F0027D8
:101D900080E00E947006082B0E948C0680919203BE
:101DA000909193038017910709F4B4CF1092B30177
:101DB000BACD133009F068CF8091B301882309F4BC
:101DC000B2CD00917B0310917C036091AD017091C5
:101DD000AE01CB0101970817190709F0A4CDE4E083
:101DE000660F771FEA95E1F76650710990E080E091
:101DF00020E130E04DE753E00E94CA060E949B06B6
:101E00008111FCCF1093AE010093AD01012B09F0BD
:101E1000A8CF1092B3016AE0462E512C612C712C90
:101E20000FEF1FEF8091C2019091C30154E0880F22
:101E3000991F5A95E1F7B0E0A0E0B301A2014A5022
:101E4000510961097109481759076A077B0740F56D
:101E500060E083E00E94AB06862D0E947006852D0F
:101E60000E947006842D0E94700680E00E94700619
:101E7000382E0E948C06032588E0980121703327B4
:101E800016950795232B21F091E0092790EA192751
:101E9000815099F72FEF421A520A620A720AC2CF92
:101EA0008091C4019091C5010817190709F059CF15
:101EB00048E050E06BE171E08EEB91E00E94301958
:101EC0008091C2019091C30124E0880F991F2A9547
:101ED000E1F726E429832CE42A8328E52B8329E4EF
:101EE0002C832DE42D8327E42E832AE32F832A8756
:101EF000988789872AE030E0AE014F5F5F4F60E04E
:101F000070E0CB010E94CA060E949B068111FCCFA3
:101F100088E198E00FB6F894A895809360000FBE12
:101F200090936000FFCF4FEF641264C083E078129B
:101F300046C08091F90182FF26C0173021F58091BB
:101F40000102081709F4EFCC0E94B910882309F4A4
:101F5000EACC0E94D1016093F5017093F601809361
:101F6000F7019093F8010E94D10173708827992797
:101F70000E949E0128E043E06FEF802F0E94D20074
:101F800060910202AECD183009F4CDCC1431B9F411
:101F900080910102481213C00E94D10173708827FA
:101FA00099270E949E0125E143E06FEF802F0E9458
:101FB000D200609101020E9472050E94DF098091A7
:101FC00001024812B0CC80910002081709F49AC0AF
:101FD0008091F90182FF96C080E793E00E94DF09BB
:101FE00093E0791609F49FCC80910102481609F418
:101FF0004BCE99CC8091F90182FF95CC23E07212EF
:102000000FC01851123060F480E793E00E944B0B30
:102010008E3F31F061E0680F80E793E00E94720527
:1020200080E793E080CD8091F90182FF21C00E947A
:10203000D1012091B3012223D9F00091A801109180
:10204000A9012091AA013091AB016B017C01C01A5A
:10205000D10AE20AF30A97018601053F11402105E2
:10206000310530F02091AC0121111AC01092B3015A
:102070002A960FB6F894DEBF0FBECDBFDF91CF9189
:102080001F910F91FF90EF90DF90CF90BF90AF9096
:102090009F908F907F906F905F904F903F900895AA
:1020A00021502093AC016093A8017093A901809303
:1020B000AA019093AB01C090BE01D090BF01E09007
:1020C000C001F090C1010091AD011091AE0101502D
:1020D000110922E044E06FEF80E00E94D200FC0191
:1020E000838187708063838384818F71806C848314
:1020F000D086C782F286E18614870387CF010E94CB
:10210000770AB6CF83E07812BFCD0DCCCF92DF92A5
:10211000EF92FF92CF93DF93D82F0E94D1016B01F2
:102120007C0110927503C0E00E94D1016C197D09F9
:102130008E099F09603D77408105910590F4C1119A
:1021400010C0A8950E947E050E943E0C80917403E9
:102150008770833049F7C1E0809175038D13E3CF19
:10216000E3CF8C2FDF91CF91FF90EF90DF90CF9056
:102170000895CF92DF92EF92FF92CF930E94D10108
:10218000C090F501D090F601E090F701F090F801D1
:102190006C197D098E099F0960317742810591058F
:1021A00010F481E008C08091F90183FBCC27C0F9CD
:1021B00083FF07C080E0CF91FF90EF90DF90CF903A
:1021C00008959091000291111CC01092FB01809122
:1021D000F901877F8093F901C091FB01CF3F51F353
:1021E0000E94D1016093F5017093F6018093F7018D
:1021F0009093F801809102028C1799F2C093020229
:10220000D0CF88608093F9018FEF8093FB0128E1A4
:1022100043E06FEF80E00E94D20061E00E9472050F
:102220000E94DF090E94D1016B017C0110927503AD
:102230000E94D1016C197D098E099F09603D77408C
:102240008105910520F6C111C2CF0E943E0CA895D0
:10225000809174038770833059F7C1E080917503D2
:10226000893131F3C0E0E4CFCF93DF93CDB7DEB750
:1022700068970FB6F894DEBF0FBECDBF0E94B910AD
:10228000811104C062E084E00E9424058091F9017C
:1022900082FF04C061E082E00E9424056091BC01DD
:1022A0007091BD01CE010D960E9490076091B6011C
:1022B0007091B701CE0101960E949007BE016F5F39
:1022C0007F4FCE0107960E941208CE0107960E940A
:1022D0006C07BE01635F7F4F0E94DA07BC01CE012D
:1022E00043960E941208CE0107960E940D08CE0167
:1022F00001960E940D08CE010D960E940D086B8973
:102300007C8981EA92E00E94C20A0E947E0A8EEED7
:1023100091E00E94281991E0811101C090E0909312
:10232000CA018FEE91E00E94281991E0811101C04D
:1023300090E09093C90180EF91E00E94281991E00C
:10234000811101C090E09093C8018EEE91E00E944F
:10235000281961E070E0811102C070E060E084E063
:1023600093E00E9465050E947E0A8091B6019091DB
:10237000B701029784F08FEE91E00E94281961E086
:1023800070E0811102C070E060E083EE92E00E9494
:1023900065050E947E0A8091B6019091B70103976E
:1023A00084F080EF91E00E94281961E070E08111D3
:1023B00002C070E060E082EC92E00E9465050E943D
:1023C0007E0A0E940E0BCE0143960E940D0868966D
:1023D0000FB6F894DEBF0FBECDBFDF91CF91089549
:1023E0008F929F92AF92BF92CF92DF92EF92FF9225
:1023F0004B015C010E94D1016B017C010E94D10163
:102400006C197D098E099F09681579058A059B0558
:1024100030F4A8950E947E050E943E0CEFCFFF90FD
:10242000EF90DF90CF90BF90AF909F908F900895E6
:102430008F929F92AF92BF92EF92FF920F931F9352
:10244000CF93DF93CDB7DEB7A1970FB6F894DEBF79
:102450000FBECDBF162F072F8235910509F461C03D
:102460008335910509F474C08135910509F048C0A0
:1024700087E00E940B01812F81708093CA01612F38
:102480008EEE91E00E94401984E791E00E942507BA
:102490008EEE91E00E942819282F30E050E040E0B5
:1024A00019A27E0181E2E80EF11C8AE0882E912CAF
:1024B000A12CB12CCA01B901A50194010E949D195A
:1024C000605DF70162937F012115310541055105DA
:1024D00089F7309719F0CF010E94250785E891E030
:1024E0000E94250764E170E080E090E00E94F01116
:1024F000612F702F84E093E00E9465050E947E0AA0
:10250000A1960FB6F894DEBF0FBECDBFDF91CF917D
:102510001F910F91FF90EF90BF90AF909F908F9081
:10252000089586E00E940B01812F81708093C9017C
:10253000612F8FEE91E00E94401964E170E080E02D
:1025400090E00E94F011612F702F83EE92E0D4CFC3
:1025500085E00E940B01812F81708093C801612F5B
:1025600080EF91E00E94401964E170E080E090E02B
:102570000E94F011612F702F82EC92E0BDCFEF929C
:10258000FF920F931F93CF93DF9381E493E00E9418
:102590002F03182F83E393E00E942F03D82F85E2A7
:1025A00093E00E942F03C82F8091BC019091BD0140
:1025B000892B09F04CC0E12EF12C8091BA01909149
:1025C000BB01E816F90639F061E0612770E081E5AA
:1025D00090E00E941812F092BB01E092BA01ED2E39
:1025E000F12C8091B8019091B901E816F90679F0C3
:1025F0008091B6019091B70102974CF06091C901AA
:1026000081E0682770E082E590E00E941812F09265
:10261000B901E092B801EC2EF12C8091B4019091B7
:10262000B501E816F90679F08091B6019091B701ED
:1026300003974CF06091C80181E0682770E083E562
:1026400090E00E941812F092B501E092B4018091DE
:10265000BC019091BD01019709F054C0E12EF12C0D
:102660008091BA019091BB01E816F90659F0111159
:1026700009C06091CA0181E0682770E081E590E0BF
:102680000E941812F092BB01E092BA010D2F10E0E7
:102690008091B8019091B9010817190789F0D111FB
:1026A0000FC08091B6019091B70102974CF06091F4
:1026B000C90181E0682770E082E590E00E9418126D
:1026C0001093B9010093B8010C2F10E08091B40170
:1026D0009091B5010817190789F0C1110FC08091B9
:1026E000B6019091B70103974CF06091C80181E069
:1026F000682770E083E590E00E9418121093B501FE
:102700000093B4010E94A9030E94EF038091CF01BE
:10271000882311F0C0E011C00E94A9030E94EF03BA
:102720008091CE018111F6CF0E94A9030E94EF0390
:10273000C1E08091CD018111EDCF0E94A9030E94DB
:10274000EF038091CF018C3011F080E011C00E9426
:10275000A9030E94EF038091CE018111F6CF0E9460
:10276000A9030E94EF0381E09091CD019111EDCF7B
:10277000C11102C0882371F064EF71E080E090E045
:102780000E94F011DF91CF911F910F91FF90EF9078
:102790000C940E0BDF91CF911F910F91FF90EF9052
:1027A00008952BE043E06FEF80E00E94D20061E2E9
:1027B00071E00E94C20A0E94770A2CE043E06FEFAA
:1027C00080E00E94D2006DE171E00E94C20A0E9486
:1027D000770A62E370E080E090E00E94F01148E840
:1027E00051E063E081E50E94F70A62E370E080E077
:1027F00090E00E94F0118091B6019091B70102978C
:1028000064F04FE851E063E082E50E94F70A62E37A
:1028100070E080E090E00E94F0118091B60190910C
:10282000B701039734F046E951E063E083E50E9485
:10283000F70A62E370E080E090E00E94F0114DE959
:1028400051E068E187E10C94F70ACF93DF93CFE47E
:10285000D3E08B81877080658B838C818871846CD9
:102860008C8388E0EEEBF1E0A6E5B3E001900D92F9
:102870008A95E1F783E090E0988B8F871092B301FF
:1028800020E044E06FEF80E00E94D2000E94770ACF
:102890002FE043E06FEF80E00E94D20067E871E034
:1028A0000E94C20A8B81877080618B838C818F71BB
:1028B000806C8C8381E08F831886CE010E94770A1A
:1028C0008FE00E94861047E851E062E18FEF0E949E
:1028D000F70A26E043E06FEF80E00E94D2006091AB
:1028E00001020E9472050E94770A86E00E9486100B
:1028F000DF91CF910C94D113CF938091FF0181FD93
:102900001FC00E9425148091FF0181608093FF0108
:10291000C4E02AE143E06FEF80E00E94D20062E071
:102920000E9472050E94770A8BE10E948610811135
:1029300002C0C15071F78091FF0182608093FF0156
:10294000CF9108951F920F920FB60F9211242F93DB
:102950003F938F939F93AF93BF938091E7019091A3
:10296000E801A091E901B091EA013091E60126E089
:10297000230F2D3758F50296A11DB11D2093E601B6
:102980008093E7019093E801A093E901B093EA01F5
:102990008091EB019091EC01A091ED01B091EE01DD
:1029A0000196A11DB11D8093EB019093EC01A093C2
:1029B000ED01B093EE01BF91AF919F918F913F9147
:1029C0002F910F900FBE0F901F90189529E8230F9D
:1029D0000396A11DB11DD2CF1F920F920FB60F9279
:1029E00011242F933F934F935F936F937F938F9314
:1029F0009F93AF93BF93EF93FF93E0913701F091D3
:102A000038010995FF91EF91BF91AF919F918F91FF
:102A10007F916F915F914F913F912F910F900FBEDA
:102A20000F901F9018951F920F920FB60F921124BE
:102A30002F933F934F935F936F937F938F939F93C6
:102A4000AF93BF93EF93FF93E0913501F09136017F
:102A50000995FF91EF91BF91AF919F918F917F91D8
:102A60006F915F914F913F912F910F900FBE0F90FB
:102A70001F9018951F920F920FB60F9211242F934B
:102A80003F934F935F936F937F938F939F93AF93F6
:102A9000BF93EF93FF9384E092E00E945202FF9174
:102AA000EF91BF91AF919F918F917F916F915F91C6
:102AB0004F913F912F910F900FBE0F901F9018953F
:102AC0001F920F920FB60F9211242F938F939F9303
:102AD000EF93FF93E0911402F09115028081E09151
:102AE0001A02F0911B0282FD1BC0908180911D0291
:102AF0008F5F8F7320911E02821741F0E0911D02BB
:102B0000F0E0EC5FFD4F958F80931D02FF91EF91F8
:102B10009F918F912F910F900FBE0F901F9018953E
:102B20008081F4CF1F920F920FB60F9211240F9055
:102B30000FBE0F901F901895CF93DF93FC0110826A
:102B400011821282148215821682DC0117968AE1A4
:102B5000ED0119928A95E9F782E08383DF91CF91A5
:102B60000895CF93E4E0F2E01382128288EE93E0BE
:102B7000A0E0B0E084839583A683B7838FE491E0DF
:102B80009183808385EC90E09587848784EC90E046
:102B90009787868780EC90E0918B808B81EC90E02A
:102BA000938B828B82EC90E0958B848B86EC90E00B
:102BB000978B868B118E128E138E148EE1E9F3E0C3
:102BC00080E5858381E0868388E0808385E69FE1D8
:102BD0009283818380E793E00E949C158FE493E0C9
:102BE0000E949C15E1E4F3E021E631E0318320838B
:102BF00012821382148215828AE090E09783868382
:102C000010861186E3E3F3E031832083128213827E
:102C1000148215829783868310861186E5E2F3E09D
:102C200031832083128213821482158297838683D4
:102C30001086118684E093E00E949C15E4E0F3E0A6
:102C400081E58683C2E0C58383EE92E00E949C15F5
:102C5000E3EEF2E082E58683C58382EC92E00E9497
:102C60009C15E2ECF2E083E58683C58381EA92E07D
:102C70000E949C15E1EAF2E087E1868388E1858382
:102C8000CF910895789484B5826084BD84B58160C5
:102C900084BD85B5826085BD85B5816085BD809127
:102CA0006E00816080936E0010928100809181009F
:102CB0008260809381008091810081608093810097
:102CC000809180008160809380008091B100846059
:102CD0008093B1008091B00081608093B0008091BA
:102CE0007A00846080937A0080917A008260809379
:102CF0007A0080917A008E7F80937A0080917A00AA
:102D0000806880937A001092C100A89580E090E0DE
:102D1000892B11F00E940000E0911402F09115023D
:102D200082E08083E0911002F09111021082E09124
:102D30001202F091130287E6808310921C02E09148
:102D40001802F091190286E08083E0911602F0915A
:102D50001702808180618083E0911602F091170252
:102D6000808188608083E0911602F0911702808153
:102D700080688083E0911602F091170280818F7D38
:102D80008083C0E1D0E0F12CFE01F595E795E55890
:102D9000FF4FE491C0FF76C0EF70E83008F074C0D8
:102DA000F0E0E558FF4FF4906F2D84E092E00E9430
:102DB00074022196C23FD10539F7C4E7D0E0FE0185
:102DC0006491662339F084E092E00E9474022196B7
:102DD000892BA9F785E891E00E9425078091FF01E2
:102DE0008D7F8093FF010E94750941E050E063E010
:102DF00071E08EEF91E00E94181948E050E06BE11D
:102E000071E08EEB91E00E9418196FEF81E090E085
:102E10000E9440198091FA018F788093FA011092F4
:102E2000F0011092EF0180E391E00E949C058CE795
:102E300094E19093C7018093C6010E94D1010E9442
:102E4000D1010E947E050E943E0C8091F90182FB17
:102E5000882780F9A895882391F30E943411A895BA
:102E6000C0E0D0E0A8950E947E050E943E0C0E9422
:102E7000BF122097B9F30E944802882399F30E9459
:102E80000000F0CFE29588CF1BEF1E0F00E06F2D02
:102E900084E092E00E9474020F5F0117C0F389CFB3
:102EA0000F931F93CF93DF938230910510F482E04C
:102EB00090E0E0919A03F0919B0330E020E0B0E0D5
:102EC000A0E0309799F42115310509F44AC0281B78
:102ED000390B24303105D8F58A819B816115710544
:102EE00089F1FB0193838283FE0111C040815181EE
:102EF0000281138148175907E0F04817590799F4E0
:102F0000109761F012960C93129713961C933296B9
:102F1000CF01DF91CF911F910F91089500939A03F4
:102F200010939B03F4CF2115310551F0421753073D
:102F300038F0A901DB019A01BD01DF01F801C1CF21
:102F4000EF01F9CF90939B0380939A03CDCFFE01BD
:102F5000E20FF31F81939193225031093983288323
:102F6000D7CF2091980330919903232B41F42091DE
:102F70003B0130913C0130939903209398032091B9
:102F8000390130913A012115310541F42DB73EB791
:102F900040913D0150913E01241B350BE091980377
:102FA000F0919903E217F307A0F42E1B3F0B2817AB
:102FB000390778F0AC014E5F5F4F2417350748F0B2
:102FC0004E0F5F1F50939903409398038193919301
:102FD0009FCFF0E0E0E09CCFCF93DF930097E9F044
:102FE000FC01329713821282A0919A03B0919B0345
:102FF000ED0130E020E01097A1F420813181820FB3
:10300000931F20919803309199032817390709F0ED
:1030100061C0F0939903E0939803DF91CF910895F5
:10302000EA01CE17DF07E8F54A815B819E01411571
:103030005105B1F7E901FB83EA8349915991C40F26
:10304000D51FEC17FD0761F4808191810296840FF2
:10305000951FE90199838883828193819B838A8369
:10306000F0E0E0E012968D919C9113970097B9F5EE
:103070002D913C911197CD010296820F931F2091C3
:103080009803309199032817390739F6309751F58D
:1030900010929B0310929A03B0939903A093980304
:1030A000BCCFD383C28340815181840F951FC81741
:1030B000D90761F44E5F5F4F88819981480F591F8E
:1030C000518340838A819B819383828321153105BB
:1030D00009F0B0CFF0939B03E0939A039ECFFD01DC
:1030E000DC01C0CF13821282D7CFFC018827992739
:1030F000E89421912032E9F3293010F02E30C8F302
:103100002B3241F02D3239F4689404C00E94DA1851
:10311000820F911D219120532A30C0F31EF4909507
:1031200081959F4F08951F93FC0199278827BC0123
:10313000E89411911032E9F3193010F01E30C8F301
:103140001B3251F01D3249F4689406C00E94C51824
:10315000610F711D811D911D119110531A30B0F333
:103160003EF490958095709561957F4F8F4F9F4F5E
:103170001F910895BB274A3031F4992322F4BDE210
:10318000909581959F4F0C94E318592F482F372F16
:10319000262F660F771F881F991F660F771F881FBE
:1031A000991F620F731F841F951F660F771F881F5B
:1031B000991F08957AE0979F902D879F802D910DFC
:1031C00011240895BB27FB015527AA27880F991FB3
:1031D000AA1FA41710F0A41B83955051B9F7A05D46
:1031E000AA3308F0A95DA193009779F7B111B193C3
:1031F0001192CB010C94051991110C941519803280
:1032000019F089508550C8F70895DC01FC01672F3B
:1032100071917723E1F7329704C07C916D937083AD
:103220006291AE17BF07C8F30895992788270895BC
:10323000DC01CB01FC01F999FECF06C0F2BDE1BD76
:10324000F89A319600B40D9241505040B8F7089565
:10325000F999FECF92BD81BDF89A992780B508955E
:10326000DC01A40FB51F4150504048F0CB01840F42
:10327000951F2E910E94411941505040D0F708955A
:10328000262FF999FECF92BD81BDF89A019700B41F
:10329000021639F01FBA20BD0FB6F894FA9AF99ABF
:1032A0000FBE08952F923F924F925F926F927F923E
:1032B0008F929F92AF92BF92CF92DF92EF92FF9246
:1032C0000F931F93CF93DF93CDB7DEB7CA1BDB0BF2
:1032D0000FB6F894DEBF0FBECDBF09942A88398897
:1032E00048885F846E847D848C849B84AA84B9849E
:1032F000C884DF80EE80FD800C811B81AA81B981AA
:10330000CE0FD11D0FB6F894DEBF0FBECDBFED01BD
:10331000089597FB072E16F4009407D077FD09D087
:103320000E94BF1907FC05D03EF4909581959F4FF0
:103330000895709561957F4F0895A1E21A2EAA1BFA
:10334000BB1BFD010DC0AA1FBB1FEE1FFF1FA21755
:10335000B307E407F50720F0A21BB30BE40BF50B52
:10336000661F771F881F991F1A9469F760957095DB
:10337000809590959B01AC01BD01CF010895AA1BDA
:10338000BB1B51E107C0AA1FBB1FA617B70710F050
:10339000A61BB70B881F991F5A95A9F78095909582
:1033A000BC01CD010895EE0FFF1F0590F491E02DB3
:1033B0000994B0E0A0E0EFEDF9E10C9454198C0110
:1033C000009751F4CB010E9450178C01C801CDB772
:1033D000DEB7E0E10C947019FC01E60FF71F9C01C9
:1033E00022503109E217F30708F49DC0D901CD91AD
:1033F000DC911197C617D70798F0C530D10530F387
:10340000CE0104978617970708F3C61BD70B2297A0
:10341000C193D1936D937C93CF010E94EC17D6CFCB
:103420005B01AC1ABD0A4C018C0E9D1EA0919A0343
:10343000B0919B03512C412CF12CE12C109731F5CC
:1034400080919803909199038815990509F05CC0C3
:103450004616570608F058C08091390190913A01FC
:10346000009741F48DB79EB740913D0150913E01C8
:10347000841B950BE817F90708F055C0F0939903E2
:10348000E0939803F90171836083A0CF8D919C91A3
:10349000119712966C90129713967C901397A8151B
:1034A000B90559F56C0142E0C40ED11CCA14DB0405
:1034B00020F1AC014A195B09DA011296159780F0E8
:1034C0006282738251834083D9016D937C93E114AE
:1034D000F10471F0D7011396FC93EE93129776CF17
:1034E00022968C0F9D1FF90191838083F301EFCF0A
:1034F000F0939B03E0939A0369CF4816590608F4AA
:103500002C017D01D3019ACFCB010E9450177C0181
:10351000009749F0AE01B8010E94A31AC8010E94A9
:10352000EC17870153CF10E000E050CFFB01DC0126
:1035300004C08D910190801921F441505040C8F78A
:10354000881B990B0895FB01DC0102C001900D92CC
:1035500041505040D8F70895FB01DC0101900D92D5
:103560000020E1F70895FB01DC014150504048F094
:1035700001900D920020C9F701C01D9241505040AA
:10358000E0F70895AEE0B0E0E8ECFAE10C946219DF
:1035900085E08C838B899C899A838983AE01495EFF
:1035A0005F4F6D897E89CE0101960E94661C2E9622
:1035B000E2E00C947E1920FD09C0FC0123FD05C04A
:1035C00022FF02C07383628351834083089544FDC8
:1035D00017C046FD1DC0DB01FC01AA0FBB1FEE1F7B
:1035E000FF1F1094D1F76A0F7B1F8E1F9F1F660F5E
:1035F000771F881F991F620F711D811D911D0895EE
:1036000033E0660F771F881F991F3150D1F7F3CF32
:1036100034E0F7CF0F931F93CF93DF938C01C80152
:103620000E94761DEC0197FD08C00E94FC18892BB2
:10363000B1F7B801CE010E94B21DCE01DF91CF914A
:103640001F910F9108958F929F92AF92BF92EF9228
:10365000FF920F931F93CF93DF938C01D62F7A01A4
:10366000B22E0E94761D9C0133272B32310529F0A2
:103670002D323105A9F46894B7F8D15061F480E097
:10368000DF91CF911F910F91FF90EF90BF90AF907E
:103690009F908F900895C8010E94761D97FDEFCFEF
:1036A000CB2DCD7F2B2D2073F9F48033E9F4AA24A0
:1036B000AA94AD0E89F0C8010E94761D97FD0CC03A
:1036C000282F2F7D283561F4C264D25029F0C8011B
:1036D0000E94761D97FF08C0812C912C54011BC0BD
:1036E000B6FE2BC0C260DA2D812C912C540120ED46
:1036F000280F283028F1C4FD09C02A3008F1C6FF80
:1037000005C02F7D3FEE320F3630C8F0B8010E9461
:10371000B21DC1FFB4CFC7FF08C0B094A09490946D
:103720008094811C911CA11CB11C2C2FB501A401FB
:10373000C7010E94DB1A81E0A3CFC261D4CF27501A
:103740004C2FC501B4010E94E71A4B015C01C26015
:10375000D15009F3C8010E94761D97FFC8CFD9CF79
:10376000A0E2B0E0E6EBFBE10C9457195C01962E69
:103770007A01CE0101966C0180E2F60111928A95E0
:10378000E9F7F501B381890130E020E0712C812C4B
:10379000A0E041E050E0F801B3FD8591B3FF8191D5
:1037A000982F8F01811107C010E000E0C801A0969A
:1037B000EDE00C9473198E3519F42115310541F1A2
:1037C000A21713064CF48D3549F18D3229F481107E
:1037D00006C0882483941DC0882009F464C0E92FA2
:1037E000E695E695E695EC0DFD2DF11D892F877088
:1037F000BA0101C0660F8A95EAF78081682B608361
:10380000791651F0971510F49F5FE9CF9150E7CFEB
:10381000A1E02F5F3F4FBFCF812CFBCF882019F055
:103820008E8180628E83AA2359F0F6019E012F5D5E
:103830003F4F8081809580833196E217F307C9F767
:1038400088248394C5010E94761D97FD16C0E82F39
:10385000E695E695E695EC0DFD2DF11D208130E015
:10386000AC014770552702C0359527954A95E2F778
:1038700020FD06C0B5010E94B21D882069F094CFDA
:10388000E114F10429F0F7018083C70101967C015E
:103890009A94812C9110D6CFE114F10409F486CFCB
:1038A000F701108283CFE82FE695E695E695EC0DBB
:1038B000FD2DF11D982F9770BA0101C0660F9A95E2
:1038C000EAF79081692B6083782EA3CFB0E0A0E067
:1038D000ECE6FCE10C9455196C01EB015A01FC017A
:1038E00017821682512CF601E380FE01E3FC8591DC
:1038F000E3FE8191182FEF018823E9F090E00E9408
:10390000FC18892B21F0C6010E940A1BECCF15324E
:1039100041F4FE01E3FC1591E3FE1191EF01153234
:1039200069F4C6010E94761D97FD8EC01817D9F262
:10393000B6010E94B21D852D90E08AC000E01A32C7
:1039400031F4E3FC1591E3FE1191EF0101E0F12C5C
:1039500020ED210F2A3048F101FF37C0FF2059F335
:103960001836B1F11C3609F43DC0112321F3612F43
:1039700070E088E690E00E946B1D892BE1F2912CAB
:10398000812C00FD06C0F50180809180C501029662
:103990005C011E3679F5F6014681578170E060E0E2
:1039A000202FC4010E94DB1A9ECF02606F2D70E0B1
:1039B00090E080E040E20E94E71AF62EFE01E3FC70
:1039C0001591E3FE1191EF01C3CFFF24FA94C8CF04
:1039D000FE01E3FC1591E3FE1191EF01183609F0A9
:1039E000C4CF08600460FE01E3FC1591E3FE119171
:1039F000EF01BBCF1336C1F401FD02C0FF24F394E5
:103A0000C6010E94761D97FD1FC08114910429F004
:103A1000F4018083C40101964C01FA94F110F0CFB7
:103A200000FD61CF53945FCF1B35B9F49E01A40113
:103A30006F2DC6010E94B01BEC01892B89F7F6019E
:103A40008381807309F477CF8FEF9FEF511073CF8D
:103A5000CDB7DEB7EFE00C947119C6010E940A1BC6
:103A600097FDF2CF1F36A9F130F4143641F0193624
:103A700039F0006405C01337B9F01537D1F700628B
:103A8000202FA4016F2DC6010E94231B8111C8CFD6
:103A9000D6CF8114910429F0F4016082C40101960B
:103AA0004C01FA94FF2071F0C6010E94761D3C0182
:103AB00097FD08C00E94FC18892B59F3B601C30179
:103AC0000E94B21D8114910409F4AACFF40110825E
:103AD000A7CF0061D5CFFC010590061621F000208C
:103AE000D9F7C00108953197CF010895CF93DF939F
:103AF000EC012B8120FF1AC026FF0CC02F7B2B83EB
:103B00008E819F8101969F838E838A8190E0DF91D1
:103B1000CF91089522FF18C0E881F9818081082E95
:103B2000000C990B009729F420622B838FEF9FEFF5
:103B3000EECF3196F983E8832E813F812F5F3F4F8F
:103B40003F832E839927E3CFEA85FB85099597FF6D
:103B5000F3CF2B81019621F080E2822B8B83E6CF7D
:103B600080E1FBCFFB01238120FF11C026FD0FC0A8
:103B70008F3F980771F082832F7D206423832681F5
:103B800037812150310937832683992708958FEF94
:083B90009FEF0895F894FFCFA8
:103B9800FFFFFF00FCE1A8A81A0B33068F0A0406F2
:103BA800F205E805350B4D06FF9A08C805312E3594
:103BB8000052656C6179204163747561746F72009D
:103BC800A20AE908FFDD01DD0100009C0380001F57
:103BD8001C1F1E1F1E1F1F1E1F1E1F00000000741B
:103BE80002DE010B02C1023C021A022E0200000092
:103BF80000EB027501322E332E310025643A25641C
:103C0800004F4B004348494C445F49445F52454C80
:103C18004159313A000D0A0052656C617931005200
:103C2800656C6179320052656C6179330052656C5C
:083C380061793A4D6F646500EB
:1078000011E0A0E0B1E0E0EFFFE702C005900D92CB
:10781000A630B107D9F721E0A6E0B1E001C01D9282
:10782000AD34B207E1F7CDB7DEB72997DEBFCDBFE4
:10783000112484B78093270114BE88E180936000EF
:1078400089E280936000259A86E020E295B1922734
:1078500095B93FE748E391E0315040409040E1F76F
:1078600000C00000815091F78091270181FD16C072
:107870008EE284B981E58CBD81E08DBD412C512C17
:107880002224239433243394AA24AA94BA2C78E093
:10789000972ECC24C394E3E0DE2E40C182E0809397
:1078A000C00088E18093C10086E08093C20080E13F
:1078B0008093C400E12CF12CC12CD12CAA24AA94D1
:1078C000BA2C01E0A8952BD2813461F428D28987A3
:1078D00037D38985823821F0813811F485E64FC08D
:1078E00083E04DC0823411F484E103C0853419F47F
:1078F00085E032D35FC0853541F411D2E82E0FD236
:10790000F12CF82AEE0CFF1C54C0863521F484E0DB
:1079100023D380E034C08436E1F401D200D2882E33
:10792000FED1C80CD11C912C981480F4F8D1182FDA
:10793000F6D1F701E90DF11D212F30E0382B0901B7
:1079400007BFE895112493949394EECFC701A8D173
:1079500030C0843761F4E3D1E2D1182FE0D1F0D206
:10796000F70185917F01E5D21150D1F724C0853709
:1079700041F4E6D28EE1DDD285E9DBD28FE0D9D2C7
:1079800019C08135B1F4BA82A982BC82AB82C6012A
:1079900034E0969587953A95E1F79E838D83C601ED
:1079A00091D198878F83CE010196DDD2C9D211E0A3
:1079B00002C0C6D210E080E1BCD2112309F482CF0C
:1079C00057CF43E050E060E070E089E291E0EED212
:1079D00048E050E06BE171E0CE010196E7D22998D2
:1079E0002A9A63E083E2D4D16CE485E2D1D167E2E4
:1079F00086E2CED163E780E5CBD164E08DE3C8D1E8
:107A000061E082E2C5D161E081E2C2D161E08CE354
:107A1000BFD121E041E060E070E086E08CD18732A8
:107A200009F028C180912A01809328018FEF80936B
:107A30002A0180932B018093080163E584E2A8D199
:107A400043E26AE087E05FD161E08EEFC0D110923F
:107A500008016FE584E29CD180912A018F3F09F4EF
:107A600009C18091290181508E3F08F05AC030929F
:107A70000D0110920E0143EC62E18FE044D160E011
:107A80008FE0A5D18D819E8124E0880F991F2A95D2
:107A9000E1F718D198878F83FE013196ADE0B1E010
:107AA000892D01900D928A95E1F7D0921601C0922E
:107AB000150144EC62E580E026D163E081E087D1E6
:107AC000882309F4D7C048E050E063E371E0CE01B9
:107AD00001965FD2892B09F4CDC080913701909136
:107AE0003801009709F045C08091390190913A0121
:107AF0008A379A4D09F041C0809133019091340149
:107B00008130910571F500E010E06FEFC8015ED2A1
:107B10000F5F1F4F011524E01207B9F7F999FECF47
:107B200050CF43E262E083E0EED063E084E04FD1E7
:107B3000882309F496CF80912F01869586958695A6
:107B4000E3E3F1E060E0815048F02191660F962F69
:107B5000990F990F690F6053620FF5CF80E090E0A5
:107B600006C0029782309105C8F6609135012ED289
:107B7000D5CF8038974008F07DC0E3E3F1E0DE0127
:107B80001196892D01900D928A95E1F7EF80F88486
:107B9000B886AF82CE010196E6D16D807E80898164
:107BA0009A8190930E0180930D018B819C8190931B
:107BB000100180930F0183010150110910931201EC
:107BC0000093110144EC62E382E09DD063E083E026
:107BD000FED0882309F44BCF46E050E063E371E028
:107BE0008DE091E0D6D1892BD1F6C3018150904F21
:107BF000282F22952077822E40E050E0622F70E0FF
:107C0000DA01A45DBE4FFA01E60FF71F1E962C9114
:107C10001E9730E0322F22271D96AC912A2B0901A6
:107C200027BEE89511244E5F5F4F4031510541F763
:107C3000811006C044E0880F991F4A95E1F730D0C3
:107C40000115110511F03801AACFF886EF828D8158
:107C50009E8134E0880F991F3A95E1F733D08E1555
:107C60009F0521F01E821D8218861F82CE0101967B
:107C70007AD154CF8D819E8124E0880F991F2A9557
:107C8000E1F720D02F8138858217930709F046CF7E
:107C90001CBCA89580912701282EF20109953ECFA2
:107CA00023E0FC0127BFE89507B600FCFDCF25E0E7
:107CB000FC0127BFE89507B600FCFDCF81E187BF37
:107CC000E8950895BC01E0E0F0E08FEF9FEFE61744
:107CD000F707C0F4E11528E7F207A0F42591822701
:107CE00048E0DC01B695A7959C01217033273195BA
:107CF000219531092170307AC9018A279B2741508B
:107D000081F7E5CF089590912901E6E0F1E09183B4
:107D100090839FEF96838583448363830895809146
:107D2000C00087FFFCCF8091C00084FD01C0A895F2
:107D30008091C60008952A989AE19A95F1F700C0BB
:107D40008EBD0DB407FEFDCF8EB59FEF4150D0F034
:107D5000222369F09EBD0DB407FEFDCF8EB56115DF
:107D60007105A1F3DB018C936F5F7F4FEFCFFB01B8
:107D70003196DB018C918EBD0DB407FEFDCF8EB523
:107D8000BF01E4CF2A9ABAE1BA95F1F700C008958D
:107D9000CF93DF931F92CDB7DEB7698320E041E038
:107DA000BE016F5F7F4FC7DF0F90DF91CF910895C6
:107DB00020E040E060E070E082EEBDDF20E040E0E7
:107DC00060E070E081EEB7DF60E787E2E1CFFF922D
:107DD0000F931F93CF93DF93F82ED62FC0910901F5
:107DE000C695C695C695C95F10912A0129986EE07F
:107DF00080E2CEDF1093000120E045E060E071E01A
:107E00008AE299DF20E045E060E071E080E393DF03
:107E100020E04C2F66E071E080EA8DDF299A8AE04D
:107E20008A95F1F700C020E040E060E070E08FEF5D
:107E300082DF8073C1F32998BBDF6FE080E2A8DFA7
:107E4000609129018AE2A4DF299A0FEF1FEFA8951C
:107E500021E041E060E070E087E16DDF80FF02C07B
:107E60008FEF4BC021E041E060E070E080E663DF2F
:107E7000C82F813208F0C0E021E04C2F6CE271E0A5
:107E800081E659DF95DF4C2F50E020912F01269598
:107E90002695269530E0295F3F4F4217530701F79B
:107EA00090912E01809129019813DACF80913101B0
:107EB000909130019770933001F58830F1F4209162
:107EC0002A0190912801291302C09F3FB1F420910B
:107ED0002D01291304C090932A018EEF0EC030911A
:107EE000330191E0930F9093330140912B013417AC
:107EF00020F490932B0120932A0191E08F1190E0C0
:107F000088E08A95F1F70150110921F4892FD111E8
:107F100005C009C0992309F49ACF04C0D150992310
:107F200009F45CCF81E0DF91CF911F910F91FF9019
:107F300008959091C00095FFFCCF8093C6000895EE
:107F4000EEDE803239F088E18093600088E0809333
:107F50006000FFCF84E1EDCFCF93C82FE0DEC150AA
:107F6000E9F7CF91EDCF0F931F93CF93DF938C0160
:107F7000CBE1D1E0F80161918F01CE0127D02196AC
:107F8000C332F1E0DF07B1F7DF91CF911F910F917D
:107F90000895FB01DC0104C08D910190801921F44A
:107FA00041505040C8F7881B990B0895DC01CB0164
:107FB000FC01F999FECF06C0F2BDE1BDF89A3196F9
:107FC00000B40D9241505040B8F70895262FF9990A
:107FD000FECF92BD81BDF89A019700B4021639F028
:107FE0001FBA20BD0FB6F894FA9AF99A0FBE0895F9
:067FF00000FCE1A8A8005E
:040000030000780081
:00000001FF
