:100000000C94E4030C94A0190C9479190C940C042E
:100010000C940C040C940C040C943A1B0C940C04DB
:100020000C940C040C940C040C940C040C940C0410
:100030000C940C040C940C040C940C040C940C0400
:100040000C942F190C940C040C94ED190C94C719F2
:100050000C940C040C940C040C940C040C940C04E0
:100060000C941F1A0C940C0400407A10F35A00A050
:10007000724E18090010A5D4E80000E87648170071
:1000800000E40B54020000CA9A3B000000E1F505B1
:10009000000080969800000040420F000000A086FB
:1000A00001000000102700000000E803000000002D
:1000B0006400000000000A000000000001000000D1
:1000C00000002C76D888DC674F0823DFC1DFAE59EB
:1000D000E1B1B796E5E3E453C63AE651997696E87E
:1000E000E6C28426EB898C9B62ED407C6FFCEFBC02
:1000F0009C9F40F2BAA56FA5F490055A2AF75C932D
:100100006B6CF9676DC11BFCE0E40D47FEF520E662
:10011000B500D0ED902E0300943577050080841E45
:10012000080000204E0A000000C80C333333330FA0
:10013000986E12831141EF8D2114893BE65516CF3D
:10014000FEE6DB18D1844B381BF77C1D901DA4BB49
:10015000E424203284725E228100C9F124ECA1E5FE
:100160003D27200054534D3A494E49540A0021542A
:10017000534D3A494E49543A545350204641494C04
:100180000A0054534D3A494E49543A545350204F63
:100190004B0A0054534D3A465041520A00215453E1
:1001A0004D3A465041523A4E4F205245504C590A12
:1001B000002154534D3A465041523A4641494C0A67
:1001C0000054534D3A465041523A4F4B0A00545353
:1001D0004D3A49443A5245510A0054534D3A494424
:1001E0000A002154534D3A49443A4641494C0A00C9
:1001F00054534D3A49443A4F4B0A0054534D3A55E3
:10020000504C0A002154534D3A55504C3A464149FE
:100210004C0A0054534D3A55504C3A444757432CDE
:100220004F3D25752C4E3D25750A0054534D3A55CA
:10023000504C3A4F4B0A0054534D3A5245414459A1
:100240003A49443D25752C5041523D25752C444971
:10025000533D25750A002154534D3A5245414459A6
:100260003A55504C204641494C2C534E500A0054AC
:1002700053463A5444493A54534C0A0054534D3A65
:100280004641494C3A4449530A0054534D3A464179
:10029000494C3A434E543D25750A0054534D3A4655
:1002A00041494C3A52452D494E49540A005453464F
:1002B0003A5349443A4F4B2C49443D25750A002195
:1002C0005453463A5349443A4641494C2C49443DDB
:1002D00025750A00215453463A5254453A4E324E3F
:1002E000204641494C0A005453463A5254453A4E2E
:1002F000324E204F4B0A00215453463A5254453A4D
:1003000046504152204143544956450A0021545316
:10031000463A534E443A544E520A004F54413A46DC
:1003200052513A4657205245512C543D25303458AD
:100330002C563D253034582C423D253034580A0087
:10034000214F54413A4652513A4657205550442085
:100350004641494C0A004D434F3A50494D3A4E4FA1
:100360004445205245473D25750A004F54413A43C4
:1003700052433A423D253034582C433D25303458C1
:100380002C463D253034580A00214F54413A4657F7
:10039000503A4E4F205550444154450A00214F5485
:1003A000413A4657503A435243204641494C0A008D
:1003B0004F54413A4657503A435243204F4B0A005C
:1003C0004F54413A4657503A465720454E440A004A
:1003D000214F54413A4657503A57524F4E472046C4
:1003E00057420A004F54413A4657503A52454356F5
:1003F00020423D253034580A004F54413A46575068
:100400003A55504441544520534B49505045440AB5
:1004100000214F54413A4657503A464C41534820E8
:10042000494E4954204641494C0A004F54413A46EE
:1004300057503A5550444154450A00214F54413ACF
:100440004657503A5550444F0A00215453463A4DAE
:1004500053473A52454C204D53472C4E5245500A73
:10046000005453463A4D53473A5243562043420AAA
:10047000005453463A4D53473A42430A00545346B8
:100480003A4D53473A41434B0A00215453463A4DA3
:1004900053473A504F4E4720524543562C494E4100
:1004A00043544956450A005453463A4D53473A502F
:1004B0004F4E4720524543562C48503D25750A0063
:1004C0005453463A4D53473A50494E4745442C49B8
:1004D000443D25752C48503D25750A00215453464E
:1004E0003A4D53473A4650415220494E41435449B0
:1004F00056450A005453463A4D53473A46504152E6
:10050000204F4B2C49443D25752C443D25750A0050
:10051000215453463A4D53473A494420544B2049BD
:100520004E56414C49440A005453463A4D53473ABB
:1005300041434B205245510A00215453463A4D53F2
:10054000473A505645522C2575213D25750A002104
:100550005453463A4D53473A4C454E3D25752C452C
:1005600058503D25750A005453463A4D53473A5268
:100570004541442C25752D25752D25752C733D255C
:10058000752C633D25752C743D25752C70743D25A7
:10059000752C6C3D25752C73673D25753A25730ABE
:1005A0000025735453463A4D53473A53454E442C15
:1005B00025752D25752D25752D25752C733D2575D6
:1005C0002C633D25752C743D25752C70743D257567
:1005D0002C6C3D25752C73673D25752C66743D2567
:1005E000752C73743D25733A25730A004D434F3AB9
:1005F0005245473A5245510A005453463A504E47E5
:100600003A53454E442C544F3D25750A002154530E
:10061000463A504E473A4143544956450A005453CE
:10062000463A434B553A4641494C0A005453463AE0
:10063000434B553A444757432C4F3D25752C4E3D6F
:1006400025750A005453463A434B553A4F4B0A001E
:100650005453463A434B553A4F4B2C464354524C15
:100660000A00322E332E310A00207C5F5C2F602C72
:100670000A0702200220B287100340012000240252
:100680002210022202022002220022200202202244
:100690002710134101010103222030402030520372
:1006A0004022140203105224022171010010101282
:1006B0001012221010022401010322030020010164
:1006C0000032203712100121322601284032221236
:1006D00010121222432224121001222470C122245B
:1006E0000F0F5453463A5755523A4D533D256C75AA
:1006F0000A004D434F3A42474E3A494E4954204F23
:100700004B2C5453503D25750A004D434F3A4247F8
:100710004E3A5354500A004D434F3A42474E3A42E4
:1007200046520A004D434F3A42474E3A494E4954C9
:10073000204E4F44452C43503D524E4F4E412D2D9F
:100740002D2C52454C3D25752C5645523D322E33AD
:100750002E310A00000000002300260029000000BE
:100760000000240027002A000000000025002800C7
:100770002B00040404040404040402020202020222
:100780000303030303030102040810204080010255
:1007900004081020010204081020000000080002D4
:1007A0000100000304070000000000000000214DCC
:1007B000434F3A534E443A4E4F4445204E4F5420F7
:1007C0005245470A0000591B11241FBECFEFD8E045
:1007D000DEBFCDBF11E0A0E0B1E0E6EBF7E402C080
:1007E00005900D92A03AB107D9F724E0A0EAB1E054
:1007F00001C01D92A834B207E1F713E0C4EED3E0C4
:1008000004C02197FE010E94B723C33ED107C9F758
:100810000E94F31B0C94D9230C940000942FEFEF4B
:10082000F3E030918F023183828366832583448194
:10083000487F492B477E4483CF010895833081F060
:1008400028F4813099F08230A9F008958730A9F01A
:100850008830C9F08430B1F4809180008F7D03C06E
:10086000809180008F7780938000089584B58F7782
:1008700084BD089584B58F7DFBCF8091B0008F77C4
:100880008093B00008958091B0008F7DF9CF1F93C1
:10089000CF93DF93282F30E0F901E656F84F84918B
:1008A000F901EA57F84FD491F901EE58F84FC49185
:1008B000CC23A9F0162F81110E941E04EC2FF0E02A
:1008C000EE0FFF1FE859F84FA591B4918FB7F89438
:1008D000EC91111108C0D095DE23DC938FBFDF911E
:1008E000CF911F910895DE2BF8CFCF93DF9390E047
:1008F000FC01EA57F84F24918E58984FFC018491DF
:100900008823C9F090E0880F991FFC01E25AF84F44
:10091000A591B491FC01E859F84FC591D4916111AA
:100920000DC09FB7F8948C91209582238C93888179
:10093000282328839FBFDF91CF910895623051F41F
:100940009FB7F8943C91822F809583238C93E88104
:100950002E2BEFCF8FB7F894EC912E2B2C938FBFCB
:10096000EACF3FB7F8948091560290915702A09138
:100970005802B091590226B5A89B05C02F3F19F027
:100980000196A11DB11D3FBFBA2FA92F982F88270F
:10099000BC01CD01620F711D811D911D43E0660FE9
:1009A000771F881F991F4A95D1F708958F929F92BC
:1009B000AF92BF92CF92DF92EF92FF926B017C01D8
:1009C0000E94B1044B015C01C114D104E104F104A3
:1009D000B9F00E94B104681979098A099B09683E37
:1009E00073408105910580F321E0C21AD108E10826
:1009F000F10888EE880E83E0981EA11CB11CE4CF9C
:100A0000FF90EF90DF90CF90BF90AF909F908F902E
:100A100008952FB7F894609152027091530280911B
:100A20005402909155022FBF08950895AF92BF923E
:100A3000CF92DF92EF92FF920F931F93CF93DF93AA
:100A40006C017B018B01040F151FEB015E01AE18D9
:100A5000BF08C017D10759F06991D601ED91FC91FB
:100A60000190F081E02DC6010995892B79F7C50128
:100A7000DF91CF911F910F91FF90EF90DF90CF907A
:100A8000BF90AF900895FC01538D448D252F30E029
:100A9000842F90E0821B930B541710F0CF9608958B
:100AA00001970895FC01918D828D981761F0A28DB8
:100AB000AE0FBF2FB11D5D968C91928D9F5F9F737E
:100AC000928F90E008958FEF9FEF0895FC01918D34
:100AD000828D981731F0828DE80FF11D858D90E0A1
:100AE00008958FEF9FEF0895FC01918D228D892F3E
:100AF00090E0805C9F4F821B91098F739927089526
:100B000083E992E00E94740521E0892B09F420E03A
:100B1000822F0895FC01A48DA80FB92FB11DA35AEF
:100B2000BF4F2C91848D90E001968F739927848F0D
:100B3000A689B7892C93A089B1898C918370806430
:100B40008C93938D848D981306C00288F389E02DD1
:100B500080818F7D80830895EF92FF920F931F9382
:100B6000CF93DF93EC0181E0888F9B8D8C8D981360
:100B70001AC0E889F989808185FF15C09FB7F8946C
:100B8000EE89FF896083E889F989808183708064B8
:100B900080839FBF81E090E0DF91CF911F910F9103
:100BA000FF90EF900895F62E0B8D10E00F5F1F4F12
:100BB0000F731127E02E8C8D8E110CC00FB607FC21
:100BC000FACFE889F989808185FFF5CFCE010E94AF
:100BD0008A05F1CFEB8DEC0FFD2FF11DE35AFF4F8E
:100BE000F0829FB7F8940B8FEA89FB89808180623D
:100BF000CFCF0F931F93CF93DF938C01D0E0C0E052
:100C0000F801EC0FFD1F6491662341F083E992E047
:100C10000E94AC05892B11F02196F2CFCE01DF9115
:100C2000CF911F910F910895CF93DF93EC01888DA1
:100C30008823B9F0AA89BB89E889F9898C9185FD57
:100C400003C0808186FD0DC00FB607FCF7CF8C91E5
:100C500085FFF2CF808185FFEDCFCE010E948A050E
:100C6000E9CFDF91CF91089580E090E0892B29F0C2
:100C70000E94800581110C9400000895862F642F36
:100C80000C947504CF93DF93FC01218530E0F901CA
:100C9000E656F84F8491F901EA57F84FD491F901DB
:100CA000EE58F84FC491CC2379F081110E941E04B4
:100CB000EC2FF0E0EE0FFF1FEC5AF84FA591B49126
:100CC000EC91ED2381E009F480E08170DF91CF9118
:100CD0000895CF93DF93EC01698718860E9442063E
:100CE000882319F08885836088870E9409056A83B4
:100CF0007B838C839D83DF91CF910895CF92DF9288
:100D0000EF92FF921F93CF93DF93EC0188858B7F47
:100D10008887CE010E944206182F888586958170AB
:100D20001817B1F00E9409056A837B838C839D8329
:100D3000888592E089278887888582FB882780F9C3
:100D4000DF91CF911F91FF90EF90DF90CF900895AA
:100D50000E940905CA80DB80EC80FD80AB01BC01EC
:100D60004C195D096E097F098E819F81B0E0A0E07A
:100D7000481759076A077B07F8F2888581701817AA
:100D8000D9F20E9409056A837B838C839D838885C1
:100D900091E08927846088870E9409056A877B879C
:100DA0008C879D87C9CF60934D0270934E028093CC
:100DB0004F0290935002645D7E4F8F4F9F4F609320
:100DC000490270934A0280934B0290934C0282E056
:100DD00090E090934802809347020E940905609337
:100DE0004302709344028093450290934602089513
:100DF000CF92DF92EF92FF920F931F930E9409050B
:100E00008B019C01C0904302D0904402E0904502C7
:100E1000F090460260914D0270914E0280914F0217
:100E2000909150020C191D092E093F09083E1340EC
:100E300021053105E0F0DC01CB010196A11DB11DBA
:100E400080934D0290934E02A0934F02B0935002B4
:100E5000B701A60148515C4F6F4F7F4F409343024B
:100E6000509344026093450270934602C7CF1F918E
:100E70000F91FF90EF90DF90CF9008954F925F9287
:100E80006F927F928F929F92AF92BF92CF92DF929A
:100E9000EF92FF920F931F93CF93DF934B015C016F
:100EA00080913F0290914002A0914102B091420294
:100EB00088159905AA05BB0509F4C6C08CE3C82EA0
:100EC000D12CE12CF12CC501A70196010E948123B0
:100ED00060933802CA01B901A70196010E948123DB
:100EE00060933902C501B40120E13EE040E050E0EA
:100EF0000E948123CA01B90128E130E040E050E0BE
:100F00000E94812360933A02C501B40120E831E5D3
:100F100041E050E00E94812369017A01CA01B901D0
:100F20006C5F7F4F8F4F9F4F27E030E040E050E0F5
:100F30000E9481236F5F60933B02412C512C320150
:100F400040E004E610E0C0E9D1E0242F30E02E5468
:100F5000384FF901E370FF273097F9F4C901B80160
:100F60000E946D23892B31F4C901BE010E946D23BB
:100F7000892B99F48EE691E0A0E0B0E0480E591E6E
:100F80006A1E7B1ED301C201AA27BB27C816D90639
:100F9000EA06FB0638F04F5FD8CF8DE691E0A0E07F
:100FA000B0E0ECCF40933E02C90164E670E00E94DD
:100FB0006D23EC01C90160E971E00E946D23309757
:100FC00021F42097D9F40097C9F04DE651E060E094
:100FD00070E0441A550A660A770AC418D508E6086C
:100FE000F708ABE3B1E020E0213069F43097E9F590
:100FF000209711F40097C9F54DE106C04EE651E087
:1010000060E070E0E6CF4C9150E070E060E031E0ED
:10101000320FC416D506E606F70640F0C41AD50A04
:10102000E60AF70A1196232F3C30F1F62F5F209342
:101030003D02C394C0923C0280923F0290924002D3
:10104000A0924102B0924202DF91CF911F910F9185
:10105000FF90EF90DF90CF90BF90AF909F908F90D8
:101060007F906F905F904F9008954CE1CDCF85EDCC
:101070008093BC008091BC0084FDFCCF10921202D2
:1010800008952091EE01260F3327331F21323105B9
:10109000ECF420911202FC0190E080E0243069F031
:1010A00082E00895A091EE012191AC0142535E4F80
:1010B000A40FB52FB11D2C930196861798F380913C
:1010C000EE01680F6093EE0180E0089581E00895DD
:1010D00008958FEF9FEF08958FEF9FEF0895809110
:1010E000CD0190E09195819591090895CF93DF937B
:1010F000CB01EA01642F0E944108CE01DF91CF911C
:101100000895CF93DF931F92CDB7DEB7698361E077
:10111000CE0101960E94410881E090E00F90DF919E
:10112000CF91089590E080E00895CF93CFB7F894E1
:101130008091CC01811127C0ECE7F7E08491E0E9D0
:10114000F7E09491E82FF0E0EE0FFF1FE25AF84F1E
:10115000A591B491EC91E92321F461E08AE00E9429
:10116000470461E08AE00E9475048CB580618CBD03
:101170008CB580648CBD61E08DE00E94750461E0F7
:101180008BE00E9475048091CC018F5F8093CC012D
:10119000CFBFCF9108958FB7F8948091CB018FBFC7
:1011A0000895CF92DF92EF92FF920F931F93CF9308
:1011B000DF93D0E0C0E0062F10E0E82EF12CC0173E
:1011C000D1072CF5D12CC12CCE14DF04C4F461E07E
:1011D00088E00E94470464E170E080E090E00E94B3
:1011E000D60460E088E00E94470464E670E080E096
:1011F00090E00E94D6048FEFC81AD80AE5CF64E6C3
:1012000070E080E090E00E94D6042196D8CFDF9174
:10121000CF911F910F91FF90EF90DF90CF900895A5
:101220000C94D306FC0184818F7180648483838154
:1012300087708061838370876783CF010895FC0185
:10124000838187708860838384818F7180628483C7
:101250006783CF010895E091B801F091B90130970B
:1012600021F00280F381E02D099408950F931F93DC
:101270000E9409050091BA011091BB012091BC01A7
:101280003091BD01601B710B820B930B1F910F916D
:1012900008959C018091B8019091B901821793073C
:1012A000F1F09091C2019F719093C2013093B90106
:1012B0002093B801E091B801F091B901309721F085
:1012C0000190F081E02D09950E9409056093BA0113
:1012D0007093BB018093BC019093BD0108958091F0
:1012E000C201805E8093C201E5CF8EBD00000DB4C7
:1012F00007FEFDCF8EB508958CBD9DBD0895CF939B
:10130000DF938CB5C1E4D4E08B838DB58C838D8164
:101310009E810E947C0960E08881DF91CF910C94CE
:101320004704CF93DF93C1E4D4E061E088810E9459
:1013300047048B818CBD8C818DBDDF91CF91089549
:10134000CF930E947F0985E00E94750980E00E948A
:101350007509C82F0E9491098C2F8170CF91089533
:10136000CF93DF93C82F662331F060E086E00E94C0
:10137000B0090E9491090E947F0985E00E947509C9
:1013800080E00E947509D82F0E949109D0FDF3CF0B
:101390000E947F098C2FDF91CF910C9475094F9299
:1013A0005F926F927F928F929F92AF92BF92CF92F5
:1013B000DF92EF92FF920F931F93CF93DF932B0156
:1013C0003C014A01E9019B01332780E091E0821B47
:1013D000930BF12CE12C8E018C179D0708F48C01E6
:1013E00061E082E00E94B009862D0E947509852D7A
:1013F0000E947509842D0E9475095401AE0CBF1C12
:101400006501F60181916F010E947509C6018A1973
:101410009B0980179107A8F30E949109400E511E65
:10142000611C711CE00EF11EC01BD10B80E091E02D
:1014300091F6DF91CF911F910F91FF90EF90DF9088
:10144000CF90BF90AF909F908F907F906F905F9064
:101450004F9008950F931F93CF93DF93EC018C81EE
:10146000829586958770A9F44B8146954695469559
:1014700050E0BE01695F7F4F8CE592E00E94CA2375
:10148000EB81E695E695E695F0E0E45AFD4F108293
:1014900009C0813071F48F814AE06CE572E090E020
:1014A0000E94981D8CE592E0DF91CF911F910F91E2
:1014B0000895823031F44AE06CE572E08F819885BE
:1014C000EFCF833041F44AE06CE572E08F8198857C
:1014D0000E94F11DE7CF843051F46F8178858985B2
:1014E0009A852AE04CE552E00E94A31DDBCF8530AF
:1014F00051F46F81788589859A852AE04CE552E020
:101500000E94CF1DCFCF873051F1ACE5B2E09E01F4
:10151000295F3F4F40E0EB81E695E695E6954E1753
:1015200080F5B901F9018081082E000C990B54E077
:10153000959587955A95E1F78F708A30F0F4805D24
:101540008C932F5F3F4FFB0180818F708A30B8F4FE
:10155000805D11968C9311974F5F1296DCCF2B858F
:10156000293008F028E06F81788589859A850CE517
:1015700012E042E00E94351D95CF895CE1CF895C85
:10158000E8CFF0E0EE0FFF1F80CFFC0101900020BC
:10159000E9F73197AF01481B590BBC0183E992E091
:1015A0000C9416050F931F93CF93DF93EC01E0E0AB
:1015B0006115710551F0FB0101900020E9F73197A9
:1015C000E61BF70BE931F10500F50E2F10E08B81DA
:1015D0008770980193E0220F331F9A95E1F7822BD1
:1015E0008B838C818F718C83EE2329F0A801CE012F
:1015F00007960E94CA23FE01E00FF11F1782CE0159
:10160000DF91CF911F910F910895E9E1DECFCF9344
:10161000DF9361E088E00E94750461E087E00E944A
:10162000750461E086E00E94750461E085E00E9437
:10163000750460E080E10E94750460E081E10E9431
:10164000750460E082E10E9475048EEE91E00E94D4
:101650000C2361E0811101C060E087E00E94470433
:101660008FEE91E00E940C2361E0811101C060E0E7
:1016700086E00E94470480EF91E00E940C2361E025
:10168000811101C060E085E00E94470460E170E0E4
:1016900081EF93E00E946906C5E0D0E0D093F803A3
:1016A000C093F70361E170E083EE93E00E94690666
:1016B000D093EA03C093E90362E170E085ED93E023
:1016C0000E946906D093DC03C093DB03DF91CF91C6
:1016D0000895FC012481229526952770213011F46C
:1016E00087810895211104C007960E94531D089513
:1016F00080E00895CF92DF92EF92FF920F931F93B5
:10170000CF93DF93C82F7B01142F022F80E590E049
:101710000E947C092A9880E190E00197F1F78C2FD4
:101720000E947509E7011150A0F0002349F08FEFE6
:101730000E947509E114F104B1F388832196F3CF77
:101740006E018FEFC81AD80A88810E947509E601D8
:10175000EACF2A9AE0E1F0E03197F1F7DF91CF91FB
:101760001F910F91FF90EF90DF90CF900895CF934E
:10177000DF931F92CDB7DEB7698320E041E0BE0161
:101780006F5F7F4F0E947A0B0F90DF91CF9108958A
:101790006FE080E20E94B70B60911C016F3F19F06F
:1017A0008AE20E94B70B299A089521E041E070E097
:1017B00060E00C947A0B86E00E94D50B873231F4FE
:1017C00085E00E94D50B91E08C3409F090E0892FE0
:1017D000089520E040E070E060E00C947A0BCF9236
:1017E000DF92EF92FF920F931F93CF93DF93CDB7CA
:1017F000DEB7C857D1090FB6F894DEBF0FBECDBF14
:101800000E9409059B01AC0119A28E010F5D1F4FBB
:101810008AE0C82ED12CE12CF12CCA01B901A70114
:1018200096010E948123605DF80162938F0121156A
:1018300031054105510589F7309719F0CF010E9414
:10184000C50A82E691E00E94F9059E012B573F4FA1
:10185000CD57DF4F48815981C358D04068E770E0C9
:10186000CE0101960E940B1ECE0101960E94C50A70
:1018700083E992E00E941406C858DF4F0FB6F8942F
:10188000DEBF0FBECDBFDF91CF911F910F91FF90B3
:10189000EF90DF90CF900895CF92DF92EF92FF927A
:1018A0000F931F93CF93DF93082FEB0180918F024B
:1018B00088834B8110E242FD05C0469546954695CA
:1018C00017E0140FF09092028F2D8170E82E299866
:1018D00080E091E00197F1F76EE080E20E94B70BA3
:1018E00084EC90E00197F1F7602F8AE20E94B70B39
:1018F000602F80E30E94B70B81EE0E94E90B0F3F3F
:1019000011F080EAE11080EB412F113208F040E243
:1019100020E0BE010E947A0B299AD12CC12C8FEFB6
:101920000E94E90B182F807321F491E0C91AD108A5
:10193000B1F7299860E387E20E94B70B14FF03C058
:1019400081EE0E94E90B0E94C80B15FF02C0FF2424
:10195000F39481E00F3F09F080E01F2D1170182BE8
:101960008C818770833029F48D81E1E6F1E081314B
:1019700021F0CE010E942A0AFC016CE671E01123DD
:1019800011F069E671E05091C3015F709B8192FB99
:10199000EE24E0F8492F4695469546959C81C92E40
:1019A000C294C69487E0C822DD809770FE80BA8119
:1019B000A88189812091920220FD07C023E731E0B0
:1019C000112329F02EE931E002C021E731E0FF9335
:1019D000EF937F936F931F925F931F92EF921F92EB
:1019E0004F931F92CF921F92DF921F929F931F924D
:1019F000FF921F92BF931F920F931F92AF931F925C
:101A00008F933F932F9381EA95E09F938F930E944A
:101A1000EF0B8DB79EB74E960FB6F8949EBF0FBED4
:101A20008DBF812FDF91CF911F910F91FF90EF908C
:101A3000DF90CF9008950F931F93CF93DF938C0186
:101A4000FC0182819091C20190FF12C08F3F09F486
:101A500043C087EF92E09F938F930E94EF0B0F900C
:101A60000F90C0E08C2FDF91CF911F910F910895BF
:101A7000D09190028823D9F08F3F71F1B8010E9474
:101A80004C0CC82F882349F087EE92E09F938F93E8
:101A90000E94EF0B0F900F90E5CF84ED92E09F93A3
:101AA0008F930E94EF0BD09190020F900F90B8018E
:101AB0008D2F0E944C0CC82F809190028D13D2CF95
:101AC0008091C301C1110AC091E0980F9F70807F7F
:101AD000892B8093C301C6CFDFEFE9CF807F80934E
:101AE000C301C1E0BFCF2091C20122FD0C941B0DA8
:101AF0008DE093E09F938F930E94EF0B0F900F90D8
:101B000080E008951F93CF93DF93182F262FEA01CB
:101B100040E0682F80E00E940E041F3F11F4C5E7EB
:101B2000D1E0BE010E94D20ADF91CF911F910C94A7
:101B3000730D21E043E06FEF80E00E940E046EE938
:101B400071E00E94D20A0C94730DFC0180918F0207
:101B500081839481907F9160948380915B0280FF68
:101B600003C0CF010C94730D8EEA97E09F938F937F
:101B70000E94EF0B0F900F9080E00895CF93C82F35
:101B80008FEF8C0F8E3F10F5C0938F02C0931C0116
:101B900063E082E20E94B70B61E081E20E94B70B32
:101BA0000E94C80B6C2F90E080E00E9424231F92BB
:101BB000CF938DEA92E09F938F930E94EF0B0F904B
:101BC0000F900F900F9081E0CF9108951F92CF93C7
:101BD0008FEB92E09F938F930E94EF0B8FEF809398
:101BE0008F020F900F900F900F9080E0EDCF2F920B
:101BF0003F924F925F926F927F928F929F92AF929D
:101C0000BF92CF92DF92EF92FF920F931F93CF93E9
:101C1000DF93CDB7DEB72C970FB6F894DEBF0FBEBB
:101C2000CDBF8091C20184FB662460F884FF30C47C
:101C300036E0732E22242A943324339443E0442E36
:101C400042E0542E87E10E94D50B80FDF4C37A94C4
:101C5000772009F4F0C321E041E070E060E080E625
:101C60000E947A0BC82E20E2D22ED81620F482EEE3
:101C70000E94E90BC12C21E04C2D60E274E081E66A
:101C80000E947A0B60E487E20E94B70B80912304E4
:101C9000B82EB694B694B69499E1E92EEB1410F4EC
:101CA00009E1B02E17E0812E8B0C82FF02C0B0E25A
:101CB0008B2E00912404077010912504E0902104DC
:101CC000A090200490902204033021F481E691E05A
:101CD000113121F080E294E00E942A0A2B2D30E09D
:101CE0003C872B879F938F938091230482FB8827C7
:101CF00080F91F928F931F92BF9280912404829546
:101D0000869587701F928F931F921F931F920F9338
:101D1000809126041F928F931F929F921F92AF92E1
:101D20001F92EF9287E695E09F938F930E94EF0BAF
:101D30000FB6F894DEBF0FBECDBF8C1489F01F9292
:101D40008F921F92CF928FE495E09F938F930E9482
:101D5000EF0B0F900F900F900F900F900F9072CF8E
:101D600080912304982F9370923041F01F9282E06B
:101D70008F931F929F9389E395E0E7CF9091C301E2
:101D800090689093C30190918F02991220C3282FDD
:101D90002695269526952A3108F029E148E0249FCA
:101DA000900111248770822B80932304EB85FC859E
:101DB000E05EFB4F17828091240483FF21C088E2FC
:101DC00095E09F938F930E94EF0B81E2E0E2F4E0B5
:101DD000AFEFB3E001900D928A95E1F78091030493
:101DE000877F80618093030480918F028093000439
:101DF000E09201048FEF93E00E94730D0F900F901B
:101E00009091240494FDDFC2033009F031C1809128
:101E1000250421EF280F233008F414CF1430B1F437
:101E20008091260490911D01891711F08F3F39F49C
:101E300080E294E00E94690B0E94BE0D03CF80E116
:101E400095E09F938F930E94EF0BB1C1183021F55D
:101E50001091C20110FF1DC080E294E00E94690B46
:101E60008F3F09F4EFCE8F5F8F3F09F4EBCE909157
:101E70009102891708F0E6CE11FDE4CE809391021D
:101E8000E09290021F928F931F92EF9284EF94E062
:101E90005CCF8CED94E0D5CF1831D1F480E294E0A2
:101EA0000E94690B1F928F931F92EF9280EC94E037
:101EB0009F938F930E94EF0B29E143E06FEF8E2DEC
:101EC0000E940E0461E00E941F090E941B0D41CF79
:101ED0001931E9F48091C20183FF16C0877F809396
:101EE000C20180E294E00E94690B8093C4011F92BA
:101EF0008F9387EA94E09F938F930E94EF0B0F904C
:101F00000F900F900F909ECE8AE894E09ACF1E31EA
:101F100009F498CE1D3169F42FE143E06FEF80E0C2
:101F20000E940E0460E07FEF0E9412090E941B0DC8
:101F300089CE20912104211198C08D3059F488E177
:101F400098E00FB6F894A895809360000FBE909328
:101F50006000FFCF8B3199F480E294E00E94690B1E
:101F600091E0811101C090E080915B0290FB80F9CB
:101F700080935B021F929F9386E593E0BCCF8630EF
:101F8000A1F490912704862D992321F081E09D34BE
:101F900009F080E080935A0241E050E063E071E094
:101FA0008AE592E00E9414234DCE833119F40E94F9
:101FB000241548CE8231D9F40E9436096B017C0188
:101FC00026E143E06FEF80E00E940E04FC01848173
:101FD0008F71806A84838381877080628383C782E4
:101FE000D086E186F286CF010E94730D2BCE82301F
:101FF000A1F422E043E06FEF80E00E940E04FC01B8
:1020000084818F71806A84838381877080628383F7
:102010002782308641865286E6CF8130D9F4929568
:1020200096959770953059F4609127047091280423
:102030008091290490912A040E94D30603CE911125
:1020400005C087E294E00E94711DF6CF60E070E069
:10205000CB01F2CF8A3009F4F5CD8C3109F4F2CD01
:1020600080E294E00E946513EDCD8A31C9F7EACD94
:102070000430B1F710912504113009F0A4C080910B
:10208000A701882319F08BE394E0DBCE48E050E011
:1020900067E274E080EB91E00E94BD23892B09F494
:1020A00089C08BE294E09F938F930E94EF0B88E0AE
:1020B000E7E2F4E0A0EBB1E001900D928A95E1F740
:1020C0008CB5809344048DB58093450461E0809184
:1020D00041040E9475040E94950880E5809346049F
:1020E000109347040E94910960E08BEA0E94B009B6
:1020F0000E9491090F900F908091420490914304A7
:10210000892B99F561E081E00E94B00980E00E948E
:1021100075090E94910961E082E50E94B00980E0A2
:102120000E94750980E00E94750980E00E9475098F
:102130000E9491090E94A0098111FCCF8091B401F5
:102140009091B5019093A6018093A50181E08093C1
:10215000A70186E08093A4011092A0011092A10132
:102160001092A2011092A3016DCD0E947F098FE908
:102170000E94750980E00E947509082F10E0102F59
:10218000002780E00E947509082B0E949109809128
:102190004204909143048017910709F4B3CF81E181
:1021A00094E09F938F930E94EF0B1092A7010F90E2
:1021B0000F9048CD89EF93E09F938F930E94EF0B90
:1021C0000F900F904DCF133009F04ACF8091A701A7
:1021D000882309F4F1C000912B0410912C041F9363
:1021E0000F9384EE93E09F938F930E94EF0B609187
:1021F000A5017091A601CB0101970F900F900F9050
:102200000F90F0EDEF2EF3E0FF2E0817190709F0FD
:10221000D7C0E4E0660F771FEA95E1F766507109D1
:1022200090E080E020E130E04DE254E00E94CF09F0
:102230000E94A0098111FCCF1093A6010093A50173
:10224000012B09F086CF80EC93E09F938F930E943F
:10225000EF0B1092A7010F900F90C12CD12C76019B
:102260000FEF1FEF8091B4019091B501AC0164E0D4
:10227000440F551F6A95E1F770E060E0C416D5067B
:10228000E606F70680F560E083E00E94B0094601AB
:1022900057012AE0820E911CA11CB11C8A2D0E94BC
:1022A0007509892D0E9475098AE08C0D0E947509B7
:1022B00080E00E947509B82E0E9491090B2588E0E4
:1022C00098012170332716950795232B21F031E0D3
:1022D000032730EA1327815099F74FEFC41AD40A25
:1022E000E40AF40ABFCF2091B7012F932091B601E1
:1022F0002F931F930F939F938F938BE693E09F935E
:102300008F930E94EF0B0FB6F894DEBF0FBECDBFC8
:102310008091B6019091B7010817190709F043C0E1
:1023200080EB93E09F938F930E94EF0B48E050E087
:102330006BE171E080EB91E00E9414238091B40185
:102340009091B50124E0880F991F2A95E1F726E4C2
:1023500029832CE42A8328E52B8329E42C832DE48C
:102360002D8327E42E832AE32F832A879887898762
:102370002AE030E0AE014F5F5F4F60E070E0CB01DC
:102380000E94CF090F900F900E94A0098111FCCFED
:1023900088E198E00FB6F894A895809360000FBE8E
:1023A00090936000FFCF8DE993E09F938F930E94FD
:1023B000EF0B0F900F90CDCE99E8E92E93E0F92E18
:1023C000FF92EF9240CD8DE794E09F93F6CEDD240F
:1023D000DA949D102BC021E734E03F932F930E94A5
:1023E000EF0B0F900F90033009F0AEC08091C20147
:1023F00082FF03C0173009F425CC143109F022CC38
:1024000080919002A8121ECC0E9409057370882743
:1024100099270E94D60425E143E06FEF8E2D0E949C
:102420000E04609190020E941F0980CD8AE4E82E7C
:1024300084E0F82EC5CF8091C20182FF29C00E949E
:1024400009052091A701222319F10091A001109103
:10245000A1012091A2013091A3016B017C01C01A5E
:10246000D10AE20AF30A97018601053F11402105CE
:10247000310570F02091A401211123C080E493E084
:102480009F938F930E94EF0B1092A7010F900F90D4
:102490002C960FB6F894DEBF0FBECDBFDF91CF9163
:1024A0001F910F91FF90EF90DF90CF90BF90AF9072
:1024B0009F908F907F906F905F904F903F902F9064
:1024C000089521502093A4016093A0017093A1016D
:1024D0008093A2019093A301C090B001D090B1016C
:1024E000E090B201F090B3010091A5011091A60116
:1024F000015011091F930F93FF92EF92DF92CF9239
:102500008BE193E09F938F930E94EF0B22E044E0D6
:102510006FEF80E00E940E04FC018381877080636E
:10252000838384818F71806C8483C782D086E186A7
:10253000F28614870387CF010E94730D0FB6F894BB
:10254000DEBF0FBECDBFA4CF80919002A8127ACB80
:1025500081E694E09F938F930E94EF0B80E294E0DA
:102560000E94651324CECF92DF92EF92FF92CF9319
:10257000DF93D82F0E9409056B017C01109225047E
:10258000C0E00E9409056C197D098E099F09603D14
:1025900077408105910590F4C11110C0A8950E9463
:1025A0002B090E94F70D809124048770833049F72E
:1025B000C1E0809125048D13E3CFE3CF8C2FDF9111
:1025C000CF91FF90EF90DF90CF9008958F929F92E0
:1025D000AF92BF92CF92DF92EF92FF924B015C01DC
:1025E0000E9409056B017C010E9409056C197D0997
:1025F0008E099F09681579058A059B0530F4A89511
:102600000E942B090E94F70DEFCFFF90EF90DF9013
:10261000CF90BF90AF909F908F900895CF93DF930E
:10262000EB018235910511F183359105A9F18135D1
:10263000910509F047C087E00E9447048C2F817004
:102640008093CA016C2F8EEE91E00E94242364E1F6
:1026500070E080E090E00E94E612BE0184EB93E01F
:102660000E941209DF91CF910C94A50D86E00E9483
:1026700047048C2F81708093C9016C2F8FEE91E0FD
:102680000E94242364E170E080E090E00E94E61262
:10269000BE0183E993E0E4CF85E00E9447048C2FDC
:1026A00081708093C90160E080EF91E00E94242353
:1026B00064E170E080E090E00E94E612BE0182E7F3
:1026C00093E0CECFDF91CF9108951F93CF93DF9307
:1026D000EC018D81823099F41E81173081F08C815C
:1026E00084FD0DC0CE010E94690B61E070E0811194
:1026F00002C070E060E0812F90E00E940E138D8197
:102700008831D1F48E818731B9F4CE0107960E94C9
:10271000531D8093310190933201682F88EA91E034
:102720000E942423609131017091320181E593E090
:102730000E9412090E94A50D8D818931E9F48E81D4
:102740008731D1F4CE0107960E94531D8093AE01CC
:102750009093AF01682F88EA91E00E942423609152
:10276000AE017091AF0180E393E00E941209DF9106
:10277000CF911F910C94A50DDF91CF911F910895DA
:102780000F931F93CF93DF938091AE019091AF0190
:10279000892B09F059C081EF93E00E947E06809159
:1027A000F9038170C82F80E0D82F8091310190917A
:1027B00032018230910509F0B2C083EE93E00E94AD
:1027C0007E068091AC019091AD018C179D0749F078
:1027D0006091CA0181E0682770E081E590E00E9485
:1027E0000E13D093AD01C093AC0180913101909153
:1027F0003201029799F48091AA019091AB01892B43
:1028000049F06091C90181E0682770E082E590E0BD
:102810000E940E131092AB011092AA018091310117
:1028200090913201039781F48091A8019091A901C0
:10283000892B31F061E070E083E590E00E940E1397
:102840001092A9011092A8018091AE019091AF0160
:10285000019709F05AC081EF93E00E947E06C09173
:10286000F903C1700C2F10E0809131019091320179
:102870008230910509F059C083EE93E00E947E06F4
:102880008091AC019091AD018017910759F0C11171
:1028900009C06091CA0181E0682770E081E590E09D
:1028A0000E940E131093AD010093AC018091310191
:1028B00090913201029799F48091AA019091AB0115
:1028C000892B49F06091C90181E0682770E082E5B9
:1028D00090E00E940E131092AB011092AA01809119
:1028E000310190913201039781F48091A801909178
:1028F000A901892B31F061E070E083E590E00E944E
:102900000E131092A9011092A8010E94F8060E94CD
:102910003E0780913A02882371F0C0E01DC0039702
:1029200009F04FCF85ED93E04ACF039709F0A8CF88
:1029300085ED93E0A3CF0E94F8060E943E078091A8
:1029400039028111EACF0E94F8060E943E07C1E0D9
:10295000809138028111E1CF0E94F8060E943E0763
:1029600080913A028C3011F080E011C00E94F8068C
:102970000E943E07809139028111F6CF0E94F8062D
:102980000E943E0781E0909138029111EDCFC11174
:1029900002C0882361F064EF71E080E090E00E9463
:1029A000E612DF91CF911F910F910C94990DDF9159
:1029B000CF911F910F9108952BE043E06FEF80E0DE
:1029C0000E940E0462E271E00E94D20A0E94730D1E
:1029D0002CE043E06FEF80E00E940E046EE171E0B6
:1029E0000E94D20A0E94730D62E370E080E090E0E2
:1029F0000E94E6124BE751E063E081E50E94820D00
:102A00008091310190913201029731F442E851E016
:102A100063E082E50E94820D809131019091320144
:102A2000039731F449E851E063E083E50E94820DA9
:102A300040E951E068E187E10E94820D47E951E0F9
:102A400069E187E10C94820DCF93DF93CFEFD3E060
:102A50008B81877080658B838C818871846C8C837B
:102A600088E0E0EBF1E0A6E0B4E001900D928A95F9
:102A7000E1F783E090E0988B8F871092A70120E028
:102A800044E06FEF80E00E940E040E94730D2FE07F
:102A900043E06FEF80E00E940E046EE971E00E9457
:102AA000D20A8B81877080618B838C818F71806C5F
:102AB0008C8381E08F831886CE010E94730D8FE096
:102AC0000E94B3124EE951E061E18FEF0E94820D46
:102AD00026E043E06FEF80E00E940E0460919002D8
:102AE0000E941F090E94730D86E00E94B312DF91BD
:102AF000CF910C94DC14CF9380915B0281FD27C0B1
:102B00000E9424158CEE95E09F938F930E94EF0B0B
:102B100080915B02816080935B020F900F90C4E014
:102B20002AE143E06FEF80E00E940E0462E00E9421
:102B30001F090E94730D8BE10E94B312811102C024
:102B4000C15071F780915B02826080935B02CF91EC
:102B50000895CF92DF92EF92FF92CF930E940905E2
:102B6000C090BE01D090BF01E090C001F090C101C3
:102B70006C197D098E099F096031774281059105A5
:102B800048F480E596E09F938F930E94EF0B0F909F
:102B90000F9094C08091C20183FBCC27C0F983FDC4
:102BA0005CC01F921F9289EF95E09F938F930E94C4
:102BB000EF0B0F900F900F900F9080918F0281116B
:102BC00017C01092C4018091C201877F8093C20117
:102BD000C091C401CF3F09F049C08EE196E09F93B8
:102BE0008F930E94EF0B62E084E00E94D108CFCF68
:102BF0008091C20188608093C2018FEF8093C401ED
:102C000028E143E06FEF80E00E940E0461E00E9443
:102C10001F090E941B0D0E9409056B017C01109287
:102C200025040E9409056C197D098E099F09603DE4
:102C300077408105910538F6C111C5CF0E94F70D87
:102C4000A895809124048770833059F7C1E0809162
:102C50002504893131F3C0E0E4CF8DE096E09F9305
:102C60008F930E94EF0B0F900F90B7CF0E94090532
:102C70006093BE017093BF018093C0019093C10126
:102C800084E496E09F938F930E94EF0B80919102D2
:102C90000F900F908C1791F01F92CF931F928F93EC
:102CA0008CE296E09F938F930E94EF0BC09391026A
:102CB0000F900F900F900F900F900F908091C20186
:102CC00082FF04C061E082E00E94D10888EA91E0BE
:102CD0000E940C2390E0909332018093310182EBAB
:102CE00091E00E940C2390E09093AF018093AE019D
:102CF0008EEE91E00E940C2361E070E0811102C031
:102D000070E060E084EB93E00E9412090E94A50D40
:102D10008FEE91E00E940C2361E070E0811102C00F
:102D200070E060E083E993E00E9412090E94A50D23
:102D300080EF91E00E940C2361E070E0811102C0FD
:102D400070E060E082E793E00E9412090E94A50D06
:102D5000609131017091320181E593E00E94120986
:102D60000E94A50D6091AE017091AF0180E393E0E8
:102D70000E9412090E94A50DCF91FF90EF90DF9065
:102D8000CF900C94990D0F931F930E9436092091B8
:102D9000C30120772037B9F000E117E220E030E0EE
:102DA000061717072807390798F48BE992E09F93D5
:102DB0008F930E94EF0B0F900F9083E391E01F9190
:102DC0000F910C94490900E61AEE20E030E0E8CFBC
:102DD0001F910F9108958091C301982F907790379C
:102DE00059F0982F92959F709F5F97709295907F62
:102DF0008F78892B8093C3018091C301829587705E
:102E00001F928F938AE892E09F938F930E94EF0B1B
:102E10008091C2018B7F8F7E8093C2018CE792E00C
:102E20009F938F930E94EF0B8FE692E09F938F9377
:102E30000E94EF0B29988DB79EB708960FB6F894AD
:102E40009EBF0FBE8DBF6CE080E20C94B70B8091EB
:102E5000C3018F70863060F086E592E09F938F9378
:102E60000E94EF0B0F900F9088E191E00C944909BC
:102E70000895809191021F928F93809190021F92EA
:102E80008F9380918F021F928F9387E392E09F939D
:102E90008F930E94EF0B8091C20184608093C201E6
:102EA0008091C30180788093C301E091C701F091C4
:102EB000C8018DB79EB708960FB6F8949EBF0FBE97
:102EC0008DBF309709F0099408958091C4018F3F18
:102ED00081F10E9409056093BE017093BF01809348
:102EE000C0019093C1018BE292E09F938F930E9467
:102EF000EF0B9091C401809191020F900F90981761
:102F0000A1F01F929F931F928F9383E192E09F9372
:102F10008F930E94EF0B8091C401809391020F90D8
:102F20000F900F900F900F900F9084E191E00C9410
:102F300049090E943609613D774081059105B8F045
:102F40008091C201803618F480E191E0F0CF84E0F6
:102F500092E09F938F930E94EF0B8091C201877F35
:102F60008093C2010F900F9088E191E0E0CF089527
:102F70008BEF91E09F938F930E94EF0B8FEF8093E5
:102F8000C401E2ECF1E080818860808328E143E0C5
:102F90006FEF80E00E940E0461E00E941F090F9015
:102FA0000F900C941B0D80918F028F3F61F080EF8A
:102FB00091E09F938F930E94EF0B0F900F9080E111
:102FC00091E00C9449090E943609613D77408105E2
:102FD000910590F08091C201803618F48CE091E068
:102FE000F0CF82EE91E09F938F930E94EF0B0F90B2
:102FF0000F9088E091E0E5CF0895CF938AED91E0BE
:103000009F938F930E94EF0B0F900F9080918F02F0
:103010008F3F01F50E9409056F3FC9F060931D01C4
:10302000C0911D018EEC91E09F938F930E94EF0B56
:1030300023E043E06C2F80E00E940E046EE971E013
:103040000E94D20A0F900F90CF910C941B0D1092FA
:103050001D01E6CFCF9108950E943609613D77406A
:103060008105910520F48091C20181FF2FC08091DC
:1030700090028F3F89F081EC91E09F938F930E94A3
:10308000EF0B8091C2018E7F8093C2010F900F9051
:103090008CE091E00C9449098091C201803658F48B
:1030A0008DE991E09F938F930E94EF0B0F900F900B
:1030B00088E191E0EFCF81EB91E09F938F930E94A5
:1030C000EF0B0F900F9088E091E0E4CF089583E933
:1030D00091E09F938F930E94EF0BE2ECF1E08081EF
:1030E000897F81608083EFE8F2E08FEF82838183C4
:1030F00027E043E06FEF0E940E046EE971E00E944A
:10310000D20A0F900F900C941B0D219A229A2998A5
:103110002A9A0E94950829986EE080E20E94B70BD7
:1031200084E293E20197F1F763E083E20E94B70B38
:103130006FE584E20E94B70B6CE485E20E94B70B56
:1031400067E286E20E94B70B64E08DE30E94B70B52
:103150008DE10E94D50B843041F063E780E50E9449
:10316000B70B64E08DE30E94B70B0E94DB0B81116B
:103170000BC08EE691E09F938F930E94EF0B0F9010
:103180000F9088E091E046C062E082E20E94B70BB7
:1031900060E081E20E94B70B63E08CE30E94B70B12
:1031A0008FEF8093030120E045E063E071E08BE264
:1031B0000E947A0B20E045E063E071E08AE20E9421
:1031C0007A0B20E045E063E071E080E30E947A0B37
:1031D00082EE0E94E90B81EE0E94E90B60E787E234
:1031E0000E94B70B82E891E09F938F930E94EF0BB0
:1031F0008091C20180618093C201809192028E7F92
:103200008093920280918F020F900F908F3F21F454
:1032100088E191E00C9449090E94BE0D8111F8CF1C
:10322000B0CF84E691E09F938F930E94EF0BE2EC86
:10323000F1E08081877F8F7E80831092BE011092A3
:10324000BF011092C0011092C1010F900F9044E095
:1032500050E070E060E08FE892E00C94FC221F9256
:103260000F920FB60F9211242F933F938F939F933A
:10327000AF93BF938091520290915302A091540258
:10328000B09155023091510226E0230F2D3758F5A9
:103290000296A11DB11D209351028093520290937A
:1032A0005302A0935402B09355028091560290911C
:1032B0005702A0915802B09159020196A11DB11D6B
:1032C0008093560290935702A0935802B0935902EC
:1032D000BF91AF919F918F913F912F910F900FBE12
:1032E0000F901F90189529E8230F0396A11DB11D7B
:1032F000D2CF1F920F920FB60F9211242F933F93AC
:103300004F935F936F937F938F939F93AF93BF93ED
:10331000EF93FF93E0913901F0913A010995FF9104
:10332000EF91BF91AF919F918F917F916F915F913D
:103330004F913F912F910F900FBE0F901F901895B6
:103340001F920F920FB60F9211242F933F934F931A
:103350005F936F937F938F939F93AF93BF93EF93FD
:10336000FF93E0913701F09138010995FF91EF91BA
:10337000BF91AF919F918F917F916F915F914F918D
:103380003F912F910F900FBE0F901F9018951F9295
:103390000F920FB60F9211242F933F934F935F9389
:1033A0006F937F938F939F93AF93BF93EF93FF930D
:1033B00083E992E00E948A05FF91EF91BF91AF915E
:1033C0009F918F917F916F915F914F913F912F913D
:1033D0000F900FBE0F901F9018951F920F920FB66F
:1033E0000F9211242F938F939F93EF93FF93E0916C
:1033F000A302F091A4028081E091A902F091AA02B7
:1034000082FD1BC090818091AC028F5F8F732091F1
:10341000AD02821741F0E091AC02F0E0ED56FD4FB5
:10342000958F8093AC02FF91EF919F918F912F9197
:103430000F900FBE0F901F9018958081F4CF1F92B0
:103440000F920FB60F9211242F933F934F935F93D8
:103450006F937F938F939F93AF93BF93EF93FF935C
:103460008091B900887F803609F44AC0F0F588322F
:1034700009F4A5C018F5803109F499C0B8F488237F
:1034800009F4F5C0883009F492C0FF91EF91BF9123
:10349000AF919F918F917F916F915F914F913F91EC
:1034A0002F910F900FBE0F901F901895883109F43F
:1034B00086C0803251F78093110214C0803409F421
:1034C0009BC040F48033B9F38833F9F6809311023E
:1034D00085ECAEC0803509F483C0883509F494C00A
:1034E000883499F60E943708D0CF883909F48AC009
:1034F00038F5883729F050F4883611F0803729F6EE
:1035000083E0809312021092100255C0883809F4AB
:1035100079C0803919F0803809F0B7CF8091100256
:10352000803208F06FC0E091100281E08E0F80932E
:1035300010028091BB00F0E0E051FE4F80833BC061
:10354000803B39F0D0F4803A09F477C0883A09F02A
:103550009CCF84E0809312021092EF011092EE0152
:10356000F0E0E0E009958091EE0181110FC081E06B
:103570008093EE011092CE0109C0803C09F4A8CFDF
:10358000883C09F4A5CF883B09F07FCFE091EF019B
:1035900081E08E0F8093EF01F0E0E253FE4F8081D7
:1035A0008093BB009091EF018091EE0129C0809142
:1035B00037028093BB0085EC8093BC0066CF90916E
:1035C000360280913502981758F5E091360281E075
:1035D0008E0F80933602F0E0EB5EFD4F8081E9CFE5
:1035E000E091360281E08E0F809336028091BB001D
:1035F000F0E0EB5EFD4F80839091360280913502C2
:103600009817C8F285E8D8CFE091360281E08E0F96
:10361000809336028091BB00F0E0EB5EFD4F80832B
:103620008091140281115ECF81E08093130284EABD
:103630008093BC001092120228CF85EC8093BC00CE
:103640001092120280911002803230F4E091100248
:10365000F0E0E051FE4F10826091100270E080EFC8
:1036600091E0F0E0E0E00995109210020ECF109288
:10367000110238CF1F920F920FB60F9211240F90A4
:103680000FBE0F901F901895CF93DF93FC0110820F
:1036900011821282148215821682DC0117968AE149
:1036A000ED0119928A95E9F782E08383DF91CF914A
:1036B0000895CF93E3E9F2E01382128288EE93E05B
:1036C000A0E0B0E084839583A683B7838BE491E088
:1036D0009183808385EC90E09587848784EC90E0EB
:1036E0009787868780EC90E0918B808B81EC90E0CF
:1036F000938B828B82EC90E0958B848B86EC90E0B0
:10370000978B868B118E128E138E148EE1E4F4E06B
:1037100080E5858381E0868388E0808385E69FE17C
:103720009283818380E294E00E94441B8FEF93E0B8
:103730000E94441BE1EFF3E02DE531E0318320836B
:1037400012821382148215828AE090E09783868326
:1037500010861186E3EEF3E0318320831282138218
:10376000148215829783868310861186E5EDF3E037
:103770003183208312821382148215829783868379
:103780001086118684EB93E00E94441BE4EBF3E087
:1037900081E58683C2E0C58383E993E00E94441BF0
:1037A000E3E9F3E082E58683C58382E793E00E9444
:1037B000441BE2E7F3E083E58683C58381E593E07C
:1037C0000E94441BE1E5F3E0C7E1C68388E18583FD
:1037D00080E393E00E94441BE0E3F3E0C68389E1C9
:1037E0008583CF910895789484B5826084BD84B533
:1037F000816084BD85B5826085BD85B5816085BDEC
:1038000080916E00816080936E00109281008091A3
:10381000810082608093810080918100816080932B
:103820008100809180008160809380008091B10050
:1038300084608093B1008091B00081608093B0007B
:1038400080917A00846080937A0080917A0082600F
:1038500080937A0080917A008E7F80937A008091A5
:103860007A00806880937A001092C100A89580E069
:1038700090E0892B11F00E940000E091A302F091EA
:10388000A40282E08083E0919F02F091A002108266
:10389000E091A102F091A20287E680831092AB0230
:1038A000E091A702F091A80286E08083E091A50252
:1038B000F091A602808180618083E091A502F09161
:1038C000A602808188608083E091A502F091A60223
:1038D000808180688083E091A502F091A6028081BA
:1038E0008F7D8083C0E1D0E0F12CFE01F595E79556
:1038F000E759F94FE491C0FFAAC0EF70E83008F033
:10390000A8C0F0E0E759F94FF4906F2D83E992E0F9
:103910000E94AC052196C23FD10539F782E696E0B8
:103920000E94F9058CE991E00E94C50A1F928FEF71
:103930008F9384E297E09F938F930E94EF0B809187
:103940005B028D7F80935B0287E197E09F938F936B
:103950000E94EF0B0E94070B41E050E063E071E032
:103960008AE592E00E94FC2248E050E06BE171E0C1
:1039700080EB91E00E94FC226FEF81E090E00E94DA
:1039800024238091C3018F788093C3011092B901E1
:103990001092B80183E391E00E9449098BE795E119
:1039A0009093C8018093C7011F921F921F921F928C
:1039B00082EE96E09F938F930E94EF0B0E94090581
:1039C0008DB79EB70C960FB6F8949EBF0FBE8DBFF5
:1039D0000E9409050E942B090E94F70D8091C201E7
:1039E00082FB882780F9A895882391F38AE097E0E5
:1039F0009F938F930E94EF0B0E94A9159091C20193
:103A00000F900F9092FB882780F992FD0E94DB0BAC
:103A10001F928F9382EF96E09F938F930E94EF0BFC
:103A2000A8950F900F900F900F90C0E0D0E0A89550
:103A30000E942B090E94F70D0E94C0132097B9F332
:103A40000E948005882399F30E940000F0CFE29540
:103A500054CF1BEF1E0F00E06F2D83E992E00E9410
:103A6000AC050F5F0117C0F355CFEF920F931F9373
:103A7000CF93DF93E80134E047FD34E1042E000CDE
:103A8000550B57FF03C0519541955109E32E022F65
:103A9000242FAE010E941120CE01DF91CF911F9102
:103AA0000F91EF900895FC0188279927E8942191C0
:103AB0002032E9F3293010F02E30C8F32B3241F0D8
:103AC0002D3239F4689404C00E94C71D820F911DE5
:103AD000219120532A30C0F31EF4909581959F4F79
:103AE00008951F93FC0199278827BC01E894119140
:103AF0001032E9F3193010F01E30C8F31B3251F0C8
:103B00001D3249F4689406C00E94B21D610F711DF8
:103B1000811D911D119110531A30B0F33EF4909510
:103B20008095709561957F4F8F4F9F4F1F9108959E
:103B3000BB274A3031F4992322F4BDE29095819558
:103B40009F4F0C94F21DBB272A3051F4992342F465
:103B5000BDE290958095709561957F4F8F4F9F4FF7
:103B60000C94D01D592F482F372F262F660F771F03
:103B7000881F991F660F771F881F991F620F731F79
:103B8000841F951F660F771F881F991F08957AE07D
:103B9000979F902D879F802D910D11240895BB270D
:103BA000FA01A62F6217710581059105330B30FBD1
:103BB00066F0AA27660F771F881F991FAA1FA217F2
:103BC00010F0A21B63953850A9F7A05DAA3308F046
:103BD000A95DA19336F7B111B1931082CA010C947B
:103BE0005E22BB27FB015527AA27880F991FAA1F12
:103BF000A41710F0A41B83955051B9F7A05DAA3308
:103C000008F0A95DA193009779F7B111B1931192D2
:103C1000CB010C945E22AEE0B0E0E1E1FEE10C9459
:103C200044238C01FA018EE08C831A83098377FF89
:103C300002C060E070E8615071097E836D83A90164
:103C4000BF01CE0101960E94371E4D815E8157FD56
:103C50000AC02F813885421753070CF49A01020FCE
:103C6000131FF80110822E96E4E00C946023ABE061
:103C7000B0E0EDE3FEE10C9436237C013B018A01C8
:103C8000FC0117821682838181FFC8C1CE01019693
:103C90005C01F7019381F30193FD859193FF81917D
:103CA0003F01882309F453C1853239F493FD85918E
:103CB00093FF81913F01853229F4B70190E00E9482
:103CC0006E22E7CF912C212C312CFFE1F31538F037
:103CD0008B3211F190F4803209F1833229F137FCF3
:103CE0003CC020ED280F2A3050F536FE20C08AE077
:103CF000989E200D1124922E06C08D3291F08033B3
:103D000071F7689430F8F30193FD859193FF8191E9
:103D10003F018111DACF21C0689431F8689432F8FC
:103D2000F2CF689433F8EFCF689434F8ECCFEAE040
:103D30002E9E200D1124222E689435F8E4CF8E3269
:103D400029F436FC04C1689436F8DDCF8C3619F4BA
:103D5000689437F8D8CF8836B1F2982F9F7D955464
:103D60009330E0F08336A1F18337C1F1833509F058
:103D700063C02801F2E04F0E511CF801C080D180D1
:103D8000692D70E036FC02C06FEF7FEFC6010E9424
:103D900048224C01689437F882010AC00C5F1F4F1B
:103DA000FFE3F98388248394912C6501E89437F824
:103DB00033FE2DC0522C8114910471F5552009F465
:103DC00068CFB70180E290E00E946E225A94F6CF4D
:103DD000F801808189830E5F1F4FE4CF2801F2E054
:103DE0004F0E511CF801C080D180692D70E036FC67
:103DF00002C06FEF7FEFC6010E9453224C01820187
:103E0000D5CFB70180E290E00E946E222A94281458
:103E1000190409F0B0F7CECFF60137FC859137FED3
:103E200081916F01B70190E00E946E2251105A9467
:103E3000F1E08F1A9108BFCF843619F0893609F066
:103E400077C0F80137FE6BC06081718182819381F8
:103E50000C5F1F4FF32DFF763F2E97FF09C0909503
:103E60008095709561957F4F8F4F9F4F689437F87D
:103E70002AE030E0A5010E949E22C82ECA188C2C90
:103E8000432C36FE0CC0E89440F8C91440F434FECC
:103E900005C032FC03C0F32DFE7E4F2E892C44FE5C
:103EA00095C0FE01EC0DF11D8081803309F087C0C3
:103EB000242D297E422E842D8870582E43FC95C0D7
:103EC00040FE8FC09C2C821418F42C0C922C981855
:103ED00044FE91C0B70180E390E00E946E2242FE52
:103EE00009C088E790E041FE02C088E590E0B70194
:103EF0000E946E22C91408F48AC0CA94D12C9FEF84
:103F0000C91AD90ACA0CDB1CF60182916F01B701EC
:103F100090E00E946E22AC14BD04B1F74FCF6081D7
:103F20007181072E000C880B990B0E5F1F4F92CFEB
:103F3000D32CE894D4F82AE030E0853739F1232DEA
:103F4000297FD22E8F3601F148F48835A9F0F70188
:103F5000868197812B96E2E10C945223803749F0B9
:103F60008837A9F7D4FE02C06894D2F820E130E087
:103F70000DC06894D4F8F6CF34FE03C0822F86605B
:103F8000D82E20E132E002C028E030E0F801D7FE70
:103F90000FC060817181828193810C5F1F4FA501E9
:103FA0000E949E22C82ECA183D2CE89437F867CF8D
:103FB0006081718190E080E00E5F1F4FF0CF42FC86
:103FC00002C0839478CF8394839475CF842D8678B0
:103FD00009F471CFF6CFB70180E290E00E946E2223
:103FE00083948214C0F3512C73CF522C581882142E
:103FF00008F46ECFF8CF842D867809F47BCF8BE25E
:1040000041FE80E247FC8DE2B70190E071CFB7013D
:1040100080E390E00E946E229A946CCF8FEF9FEF26
:1040200099CFA9E0B0E0E7E1F0E20C943C236A010B
:10403000F22EB02E102FFBE3AF2EA01608F41BE3D8
:104040001F5F012F27E0AE014F5F5F4F0E9470217D
:10405000BC018981982F9970913009F43FC09BE28F
:10406000E1FC04C09E2D9170E0FC3AC05E2D5071C1
:10407000E82FE87083FF46C084E0911101C083E01F
:10408000EF2DE81B8F1508F0E0E0D6018E2F20E21F
:10409000552351F1992329F0D6019C93C60101962D
:1040A0006C0196012D5F3F4FE2FE24C08EE4D601E5
:1040B0008C9391E411969C93119712968C93D9014D
:1040C0008E2F90E281111BC0E20FF32FF11D1082A1
:1040D0008EEF9FEF2996ECE00C9458239DE2C6CF1B
:1040E00090E2C4CF2D9381508111FCCFCE0ED11C14
:1040F000E0E0D0CF8EE6D6018C9391E6DBCF9D93A6
:104100008150E0CF482F447082FF3DC084E0911180
:1041100001C083E08F1510F4EF2DE81BD6018E2F20
:1041200020E2552309F1992329F0D6019C93C60179
:1041300001966C0196012D5F3F4FE2FE1BC089E4A2
:10414000D6018C938EE411968C93119786E4129687
:104150008C93D9018E2F90E2882309F4B5CF9D93DB
:104160008150FACF2D9381508111FCCFCE0ED11CFE
:10417000E0E0D9CF89E6D6018C938EE611968C9338
:10418000119786E6E4CF9B0177FF02C030E020E084
:10419000A1E0B0E0911102C0B0E0A0E0F9013196D9
:1041A000AE0FBF1F8B2C912CBB2009F461C05401B2
:1041B000EFEFAE1ABE0AAA0DBB1DFA161B0619F0C8
:1041C00014F04F2D4A1B511188C0E3FC59C07601F1
:1041D000A42FB0E2A1114FC0C40ED11C992309F441
:1041E0005BC040E0D6011196F60190836D01552326
:1041F00009F448C0012F060F9A81582F507184FF8F
:1042000003C0913309F4015010160CF047C0093077
:1042100008F008E0EEE2FE2E5B01A01AB10885016D
:104220009194819491082F3F320729F4D601FC9292
:10423000F60131966F016217730794F102171307A5
:104240007CF5DB01A21BB30BAA24A394B12CAC0E0A
:10425000BD1EAA0DBB1D11968C9121503109D601AE
:10426000119628153905F4F0F60180836D01DBCF36
:10427000B12CA12CA0CFF701B1937F01A150AACFFF
:104280009111B0CFD601942F50E302C05D939150AD
:104290009111FCCFC40ED11C40E0ACCF01E0BACFED
:1042A00080E3DBCF6217730731F4963388F49533DC
:1042B00011F4552369F0F6018083FD01842F90E20B
:1042C000811108C0A40FB11D1C9290E080E002CFC4
:1042D00081E3F1CF91938150F3CF911183CF8ACFB6
:1042E000283008F027E03327DA01990F311D87FDC8
:1042F000916000966105710539F432602E5F3D933F
:1043000030E32A95E1F708959F3F30F0803871053A
:10431000610509F03C5F3C5F3D93913008F0806897
:10432000911DDF93CF931F930F93FF92EF92192F5D
:10433000987F9695E92F96959695E90FFF27EE536E
:10434000FF4F99273327EE24FF24A701E7010590AB
:104350000894079428F4360FE71EF81E491F511DD4
:10436000660F771F881F991F0694A1F70590079481
:1043700028F4E70EF81E491F561FC11D770F881F2E
:10438000991F661F0694A1F70590079428F4F80E6C
:10439000491F561FC71FD11D880F991F661F771F02
:1043A0000694A1F70590079420F4490F561FC71FE4
:1043B000D81F990F661F771F881F0694A9F784914D
:1043C0001095177041F0D695C79557954795F79476
:1043D000E7941A95C1F7E8E6F0E068941590159116
:1043E00035916591959105907FE27395E118F10AF9
:1043F000430B560BC90BD009C0F7E10CF11E431F4C
:10440000561FC91FD01D7EF4703311F48A95E6CF74
:10441000E894015030F0080F0AF40027021708F45E
:10442000202F2395022F7A3328F079E37D932A9564
:10443000E9F710C07D932A9589F6069497956795BC
:10444000379517951794E118F10A430B560BC90BD2
:10445000D00998F023957E9173957A3308F070E334
:104460007C932013B8F77E9170617D9330F0839533
:1044700071E37D9370E32A95E1F71124EF90FF90AB
:104480000F911F91CF91DF91992787FD9095089506
:10449000FC010590615070400110D8F7809590950F
:1044A0008E0F9F1F0895FC01615070400190011014
:1044B000D8F7809590958E0F9F1F0895DC01FC0121
:1044C000672F71917723E1F7329704C07C916D9348
:1044D00070836291AE17BF07C8F308950F931F93BF
:1044E000CF93DF93182F092FEB018B8181FD09C03A
:1044F0001FEF0FEF812F902FDF91CF911F910F9121
:10450000089582FF14C02E813F818C819D812817E0
:1045100039073CF4E881F981CF01019699838883BA
:1045200010838E819F8101969F838E83E3CFE885E0
:10453000F985812F0995892BA1F3DACFFA01AA27F2
:10454000283051F1203181F1E8946F936E7F6E5FD6
:104550007F4F8F4F9F4FAF4FB1E03ED0B4E03CD084
:10456000670F781F891F9A1FA11D680F791F8A1F67
:10457000911DA11D6A0F711D811D911DA11D20D0CE
:1045800009F468943F912AE0269F11243019305D88
:104590003193DEF6CF010895462F4770405D419379
:1045A000B3E00FD0C9F7F6CF462F4F70405D4A33C6
:1045B00018F0495D31FD4052419302D0A9F7EACF8E
:1045C000B4E0A6959795879577956795BA95C9F7BD
:1045D00000976105710508959B01AC010A2E0694B0
:1045E0005795479537952795BA95C9F7620F731F69
:1045F000841F951FA01D0895DC01CB01FC01F999D2
:10460000FECF06C0F2BDE1BDF89A319600B40D921E
:1046100041505040B8F70895F999FECF92BD81BD41
:10462000F89A992780B50895DC01A40FB51F415071
:10463000504048F0CB01840F951F2E910E942523F6
:1046400041505040D0F70895262FF999FECF92BDE2
:1046500081BDF89A019700B4021639F01FBA20BD47
:104660000FB6F894FA9AF99A0FBE08952F923F92D6
:104670004F925F926F927F928F929F92AF92BF9272
:10468000CF92DF92EF92FF920F931F93CF93DF931E
:10469000CDB7DEB7CA1BDB0B0FB6F894DEBF0FBE7B
:1046A000CDBF09942A88398848885F846E847D84C8
:1046B0008C849B84AA84B984C884DF80EE80FD80CA
:1046C0000C811B81AA81B981CE0FD11D0FB6F89440
:1046D000DEBF0FBECDBFED01089597FB072E16F488
:1046E000009407D077FD09D00E94A32307FC05D0D2
:1046F0003EF4909581959F4F0895709561957F4FF9
:104700000895A1E21A2EAA1BBB1BFD010DC0AA1F12
:10471000BB1FEE1FFF1FA217B307E407F50720F02A
:10472000A21BB30BE40BF50B661F771F881F991FA5
:104730001A9469F760957095809590959B01AC01EE
:10474000BD01CF010895AA1BBB1B51E107C0AA1FE1
:10475000BB1FA617B70710F0A61BB70B881F991F22
:104760005A95A9F780959095BC01CD010895EE0F5B
:10477000FF1F0590F491E02D0994FB01DC0104C0BA
:104780008D910190801921F441505040C8F7881B49
:10479000990B0895FB01DC014150504048F0019015
:1047A0000D920020C9F701C01D9241505040E0F722
:0647B0000895F894FFCF0C
:1047B600FFFFFF00FCE1A8A8EB16C316FD17D317F1
:1047C600B81765173917271767182C18FFFF312EEA
:1047D600300052656C6179204163747561746F7243
:1047E60000010011198518150515051F1C1F1E1F30
:1047F6001E1F1F1E1F1E1F00000000AC05160543CE
:104806000514067405520566050000000042063EC2
:10481600063C4E4F4E43453E004F4B004E41434BE8
:10482600003F002100322E332E310052656C617933
:10483600310052656C6179320052656C61793300E2
:1048460052656C617973004D6F6465000D0A000056
:00000001FF
